{
  "_format": "hh-sol-artifact-1",
  "contractName": "ElectionFactory",
  "sourceName": "src/ElectionFactory.sol",
  "abi": [
    {
      "anonymous": false,
      "inputs": [
        {
          "indexed": true,
          "internalType": "address",
          "name": "election",
          "type": "address"
        },
        {
          "indexed": true,
          "internalType": "bytes32",
          "name": "electionId",
          "type": "bytes32"
        }
      ],
      "name": "ElectionCreated",
      "type": "event"
    },
    {
      "inputs": [
        {
          "internalType": "bytes32",
          "name": "merkleRoot",
          "type": "bytes32"
        },
        {
          "internalType": "uint8",
          "name": "numCandidates",
          "type": "uint8"
        },
        {
          "internalType": "uint256",
          "name": "startTime",
          "type": "uint256"
        },
        {
          "internalType": "uint256",
          "name": "endTime",
          "type": "uint256"
        },
        {
          "internalType": "address",
          "name": "verifier",
          "type": "address"
        },
        {
          "internalType": "bytes32",
          "name": "electionId",
          "type": "bytes32"
        }
      ],
      "name": "createElection",
      "outputs": [
        {
          "internalType": "address",
          "name": "addr",
          "type": "address"
        }
      ],
      "stateMutability": "nonpayable",
      "type": "function"
    },
    {
      "inputs": [],
      "name": "getElections",
      "outputs": [
        {
          "internalType": "address[]",
          "name": "",
          "type": "address[]"
        }
      ],
      "stateMutability": "view",
      "type": "function"
    }
  ],
  "bytecode": "0x6080604052348015600e575f5ffd5b50610fc28061001c5f395ff3fe608060405234801561000f575f5ffd5b5060043610610034575f3560e01c8063497a491d146100385780639f3a7f5214610068575b5f5ffd5b61004b6100463660046101cc565b61007d565b6040516001600160a01b0390911681526020015b60405180910390f35b610070610160565b60405161005f9190610236565b5f5f878787878787604051610091906101bf565b95865260ff9094166020860152604085019290925260608401526001600160a01b0316608083015260a082015260c001604051809103905ff0801580156100da573d5f5f3e3d5ffd5b505f80546001810182558180527f290decd9548b62a8d60345a988386fc84ba6bc95484008f6362f93160ef3e5630180546001600160a01b0319166001600160a01b038416908117909155604051929450849350859290917f323543994de54d846d979fe510cd4d9e7042e801c01392af4abd1582484de63a91a3509695505050505050565b60605f8054806020026020016040519081016040528092919081815260200182805480156101b557602002820191905f5260205f20905b81546001600160a01b03168152600190910190602001808311610197575b5050505050905090565b610d348061028283390190565b5f5f5f5f5f5f60c087890312156101e1575f5ffd5b86359550602087013560ff811681146101f8575f5ffd5b9450604087013593506060870135925060808701356001600160a01b0381168114610221575f5ffd5b9598949750929591949360a090920135925050565b602080825282518282018190525f918401906040840190835b818110156102765783516001600160a01b031683526020938401939092019160010161024f565b50909594505050505056fe610140604052348015610010575f5ffd5b50604051610d34380380610d3483398101604081905261002f91610114565b60018560ff1610158015610047575060048560ff1611155b6100985760405162461bcd60e51b815260206004820152601760248201527f696e76616c69642063616e64696461746520636f756e7400000000000000000060448201526064015b60405180910390fd5b8383116100e75760405162461bcd60e51b815260206004820152601760248201527f656e64206d757374206265206166746572207374617274000000000000000000604482015260640161008f565b60a09590955260ff90931660c05260e091909152610100526001600160a01b031660805261012052610184565b5f5f5f5f5f5f60c08789031215610129575f5ffd5b8651602088015190965060ff81168114610141575f5ffd5b6040880151606089015160808a015192975090955093506001600160a01b038116811461016c575f5ffd5b60a09790970151959894975092959194919391925050565b60805160a05160c05160e0516101005161012051610b1661021e5f395f818160950152818161029e015261051601525f818161016701528181610278015261038801525f81816101dc01528181610250015261031c01525f81816101a30152818161022901528181610585015261062e01525f818161014001528181610204015261043301525f818161010101526106ae0152610b165ff3fe608060405234801561000f575f5ffd5b506004361061008c575f3560e01c8063051364d414610090578063206137aa146100ca5780632b7ac3f3146100fc5780632eb4a7ab1461013b5780633197cbb6146101625780634717f97c146101895780635216509a1461019e57806378e97925146101d757806386852dca146101fe578063ac9dc270146102ca575b5f5ffd5b6100b77f000000000000000000000000000000000000000000000000000000000000000081565b6040519081526020015b60405180910390f35b6100ec6100d836600461091d565b5f6020819052908152604090205460ff1681565b60405190151581526020016100c1565b6101237f000000000000000000000000000000000000000000000000000000000000000081565b6040516001600160a01b0390911681526020016100c1565b6100b77f000000000000000000000000000000000000000000000000000000000000000081565b6100b77f000000000000000000000000000000000000000000000000000000000000000081565b6101916102df565b6040516100c19190610934565b6101c57f000000000000000000000000000000000000000000000000000000000000000081565b60405160ff90911681526020016100c1565b6100b77f000000000000000000000000000000000000000000000000000000000000000081565b604080517f0000000000000000000000000000000000000000000000000000000000000000815260ff7f00000000000000000000000000000000000000000000000000000000000000001660208201527f0000000000000000000000000000000000000000000000000000000000000000918101919091527f000000000000000000000000000000000000000000000000000000000000000060608201527f0000000000000000000000000000000000000000000000000000000000000000608082015260a0016100c1565b6102dd6102d8366004610964565b61031a565b005b6102e76108ff565b6040805160808101918290529060019060049082845b8154815260200190600101908083116102fd575050505050905090565b7f00000000000000000000000000000000000000000000000000000000000000004210156103865760405162461bcd60e51b8152602060048201526014602482015273115b1958dd1a5bdb881b9bdd081cdd185c9d195960621b60448201526064015b60405180910390fd5b7f000000000000000000000000000000000000000000000000000000000000000042106103e65760405162461bcd60e51b815260206004820152600e60248201526d115b1958dd1a5bdb88195b99195960921b604482015260640161037d565b604381146104315760405162461bcd60e51b81526020600482015260186024820152771ddc9bdb99c81c1d589b1a58c81a5b9c1d5d0818dbdd5b9d60421b604482015260640161037d565b7f000000000000000000000000000000000000000000000000000000000000000082825f81811061046457610464610a28565b90506020020135146104af5760405162461bcd60e51b81526020600482015260146024820152730dacae4d6d8ca40e4dedee840dad2e6dac2e8c6d60631b604482015260640161037d565b5f6104ba83836107df565b5f8181526020819052604090205490915060ff16156105145760405162461bcd60e51b81526020600482015260166024820152751b9d5b1b1a599a595c88185b1c9958591e481d5cd95960521b604482015260640161037d565b7f000000000000000000000000000000000000000000000000000000000000000061053f8484610879565b146105835760405162461bcd60e51b81526020600482015260146024820152730cad8cac6e8d2dedc40d2c840dad2e6dac2e8c6d60631b604482015260640161037d565b7f000000000000000000000000000000000000000000000000000000000000000060ff16838360428181106105ba576105ba610a28565b905060200201355f1c60ff161461060d5760405162461bcd60e51b81526020600482015260176024820152760dceadabec6c2dcc8d2c8c2e8cae640dad2e6dac2e8c6d604b1b604482015260640161037d565b5f8383602181811061062157610621610a28565b905060200201355f1c90507f000000000000000000000000000000000000000000000000000000000000000060ff168160ff16106106975760405162461bcd60e51b815260206004820152601360248201527263686f696365206f7574206f662072616e676560681b604482015260640161037d565b604051633a94343960e21b81526001600160a01b037f0000000000000000000000000000000000000000000000000000000000000000169063ea50d0e4906106e9908990899089908990600401610a3c565b602060405180830381865afa158015610704573d5f5f3e3d5ffd5b505050506040513d601f19601f820116820180604052508101906107289190610a9e565b6107645760405162461bcd60e51b815260206004820152600d60248201526c34b73b30b634b210383937b7b360991b604482015260640161037d565b5f828152602081905260409020805460ff191660019081179091558060ff83166004811061079457610794610a28565b015f8282546107a39190610ac4565b909155505060405160ff82169083907fbcdab89a6d8014daadd409f8ebd44d9b18593d97f9b0ae90ca165a3fb8fad6ba905f90a3505050505050565b6040805160208082528183019092525f918291906020820181803683370190505090505f5b602081101561086557848461081a836001610ac4565b81811061082957610829610a28565b905060200201355f1c60f81b82828151811061084757610847610a28565b60200101906001600160f81b03191690815f1a905350600101610804565b5061086f81610ae3565b9150505b92915050565b6040805160208082528183019092525f918291906020820181803683370190505090505f5b60208110156108655784846108b4836022610ac4565b8181106108c3576108c3610a28565b905060200201355f1c60f81b8282815181106108e1576108e1610a28565b60200101906001600160f81b03191690815f1a90535060010161089e565b60405180608001604052806004906020820280368337509192915050565b5f6020828403121561092d575f5ffd5b5035919050565b6080810181835f5b600481101561095b57815183526020928301929091019060010161093c565b50505092915050565b5f5f5f5f60408587031215610977575f5ffd5b84356001600160401b0381111561098c575f5ffd5b8501601f8101871361099c575f5ffd5b80356001600160401b038111156109b1575f5ffd5b8760208284010111156109c2575f5ffd5b6020918201955093508501356001600160401b038111156109e1575f5ffd5b8501601f810187136109f1575f5ffd5b80356001600160401b03811115610a06575f5ffd5b8760208260051b8401011115610a1a575f5ffd5b949793965060200194505050565b634e487b7160e01b5f52603260045260245ffd5b60408152836040820152838560608301375f60608583018101829052601f19601f8701168301838103820160208501529081018490526001600160fb1b03841115610a85575f5ffd5b8360051b80866080840137016080019695505050505050565b5f60208284031215610aae575f5ffd5b81518015158114610abd575f5ffd5b9392505050565b8082018082111561087357634e487b7160e01b5f52601160045260245ffd5b80516020808301519190811015610b03575f198160200360031b1b821691505b5091905056fea164736f6c634300081c000aa164736f6c634300081c000a",
  "linkReferences": {},
  "deployedLinkReferences": {}
}