{
  "_format": "hh-sol-artifact-1",
  "contractName": "MockVerifier",
  "sourceName": "src/MockVerifier.sol",
  "abi": [
    {
      "inputs": [
        {
          "internalType": "bytes",
          "name": "",
          "type": "bytes"
        },
        {
          "internalType": "bytes32[]",
          "name": "",
          "type": "bytes32[]"
        }
      ],
      "name": "verify",
      "outputs": [
        {
          "internalType": "bool",
          "name": "",
          "type": "bool"
        }
      ],
      "stateMutability": "pure",
      "type": "function"
    }
  ],
  "bytecode": "0x6080604052348015600e575f5ffd5b5061012a8061001c5f395ff3fe608060405234801561000f575f5ffd5b5060043610610029575f3560e01c8063ea50d0e41461002d575b5f5ffd5b61004561003b366004610059565b6001949350505050565b604051901515815260200160405180910390f35b5f5f5f5f6040858703121561006c575f5ffd5b84356001600160401b03811115610081575f5ffd5b8501601f81018713610091575f5ffd5b80356001600160401b038111156100a6575f5ffd5b8760208284010111156100b7575f5ffd5b6020918201955093508501356001600160401b038111156100d6575f5ffd5b8501601f810187136100e6575f5ffd5b80356001600160401b038111156100fb575f5ffd5b8760208260051b840101111561010f575f5ffd5b94979396506020019450505056fea164736f6c634300081c000a",
  "linkReferences": {},
  "deployedLinkReferences": {}
}