{"src/Verifier.sol":{"ZKTranscriptLib":{"abi":[{"inputs":[],"name":"ValueGeFieldOrder","type":"error"},{"inputs":[{"components":[{"internalType":"Fr[8]","name":"pairingPointObject","type":"uint256[8]"},{"components":[{"internalType":"uint256","name":"x","type":"uint256"},{"internalType":"uint256","name":"y","type":"uint256"}],"internalType":"struct Honk.G1Point","name":"geminiMaskingPoly","type":"tuple"},{"components":[{"internalType":"uint256","name":"x","type":"uint256"},{"internalType":"uint256","name":"y","type":"uint256"}],"internalType":"struct Honk.G1Point","name":"w1","type":"tuple"},{"components":[{"internalType":"uint256","name":"x","type":"uint256"},{"internalType":"uint256","name":"y","type":"uint256"}],"internalType":"struct Honk.G1Point","name":"w2","type":"tuple"},{"components":[{"internalType":"uint256","name":"x","type":"uint256"},{"internalType":"uint256","name":"y","type":"uint256"}],"internalType":"struct Honk.G1Point","name":"w3","type":"tuple"},{"components":[{"internalType":"uint256","name":"x","type":"uint256"},{"internalType":"uint256","name":"y","type":"uint256"}],"internalType":"struct Honk.G1Point","name":"w4","type":"tuple"},{"components":[{"internalType":"uint256","name":"x","type":"uint256"},{"internalType":"uint256","name":"y","type":"uint256"}],"internalType":"struct Honk.G1Point","name":"lookupReadCounts","type":"tuple"},{"components":[{"internalType":"uint256","name":"x","type":"uint256"},{"internalType":"uint256","name":"y","type":"uint256"}],"internalType":"struct Honk.G1Point","name":"lookupReadTags","type":"tuple"},{"components":[{"internalType":"uint256","name":"x","type":"uint256"},{"internalType":"uint256","name":"y","type":"uint256"}],"internalType":"struct Honk.G1Point","name":"lookupInverses","type":"tuple"},{"components":[{"internalType":"uint256","name":"x","type":"uint256"},{"internalType":"uint256","name":"y","type":"uint256"}],"internalType":"struct Honk.G1Point","name":"zPerm","type":"tuple"},{"components":[{"internalType":"uint256","name":"x","type":"uint256"},{"internalType":"uint256","name":"y","type":"uint256"}],"internalType":"struct Honk.G1Point[3]","name":"libraCommitments","type":"tuple[3]"},{"internalType":"Fr","name":"libraSum","type":"uint256"},{"internalType":"Fr[9][28]","name":"sumcheckUnivariates","type":"uint256[9][28]"},{"internalType":"Fr","name":"libraEvaluation","type":"uint256"},{"internalType":"Fr[42]","name":"sumcheckEvaluations","type":"uint256[42]"},{"components":[{"internalType":"uint256","name":"x","type":"uint256"},{"internalType":"uint256","name":"y","type":"uint256"}],"internalType":"struct Honk.G1Point[27]","name":"geminiFoldComms","type":"tuple[27]"},{"internalType":"Fr[28]","name":"geminiAEvaluations","type":"uint256[28]"},{"internalType":"Fr[4]","name":"libraPolyEvals","type":"uint256[4]"},{"components":[{"internalType":"uint256","name":"x","type":"uint256"},{"internalType":"uint256","name":"y","type":"uint256"}],"internalType":"struct Honk.G1Point","name":"shplonkQ","type":"tuple"},{"components":[{"internalType":"uint256","name":"x","type":"uint256"},{"internalType":"uint256","name":"y","type":"uint256"}],"internalType":"struct Honk.G1Point","name":"kzgQuotient","type":"tuple"}],"internalType":"struct Honk.ZKProof","name":"proof","type":"tuple"},{"internalType":"bytes32[]","name":"publicInputs","type":"bytes32[]"},{"internalType":"uint256","name":"vkHash","type":"uint256"},{"internalType":"uint256","name":"publicInputsSize","type":"uint256"},{"internalType":"uint256","name":"logN","type":"uint256"}],"name":"generateTranscript","outputs":[{"components":[{"components":[{"internalType":"Fr","name":"eta","type":"uint256"},{"internalType":"Fr","name":"beta","type":"uint256"},{"internalType":"Fr","name":"gamma","type":"uint256"},{"internalType":"Fr","name":"publicInputsDelta","type":"uint256"}],"internalType":"struct Honk.RelationParameters","name":"relationParameters","type":"tuple"},{"internalType":"Fr[27]","name":"alphas","type":"uint256[27]"},{"internalType":"Fr[28]","name":"gateChallenges","type":"uint256[28]"},{"internalType":"Fr","name":"libraChallenge","type":"uint256"},{"internalType":"Fr[28]","name":"sumCheckUChallenges","type":"uint256[28]"},{"internalType":"Fr","name":"rho","type":"uint256"},{"internalType":"Fr","name":"geminiR","type":"uint256"},{"internalType":"Fr","name":"shplonkNu","type":"uint256"},{"internalType":"Fr","name":"shplonkZ","type":"uint256"},{"internalType":"Fr","name":"publicInputsDelta","type":"uint256"}],"internalType":"struct ZKTranscript","name":"t","type":"tuple"}],"stateMutability":"pure","type":"function"}],"evm":{"bytecode":{"linkReferences":{},"object":"6117b3610034600b8282823980515f1a607314602857634e487b7160e01b5f525f60045260245ffd5b305f52607381538281f3fe7300000000000000000000000000000000000000003014608060405260043610610034575f3560e01c8063995bf45714610038575b5f5ffd5b61004b6100463660046112a9565b610061565b60405161005891906114df565b60405180910390f35b610069610e17565b5f610078888888888886610128565b9083529050610087818961016c565b6020840191909152905061009b8184610277565b604084019190915290506100af818961032e565b606084019190915290506100c488828561039e565b608084019190915290506100d8888261047b565b60a084019190915290506100ed88828561060f565b60c0840191909152905061010288828561078f565b60e08401919091529050610116888261091f565b50610100830152509695505050505050565b610130610e7c565b5f61013e888888888861096b565b908352925061014d8389610d03565b6040850191909152602084019190915291989197509095505050505050565b610174610ea0565b5f61017d610ebf565b8481526101008401805151602080840191909152905181015160408084019190915261012086018051516060850152518201516080840152516101fc915f5160206117875f395f51905f52916101d5918591016115a0565b604051602081830303815290604052805190602001205f1c6101f791906115d3565b610d9a565b91505f61020883610dcc565b50808552905060015b61021d6001601c611606565b81101561026d5761024e85610233600184611606565b601b81106102435761024361158c565b602002015183610dfc565b8582601b81106102605761026061158c565b6020020152600101610211565b5050509250929050565b61027f610edd565b5f6102a45f5160206117875f395f51905f52856040516020016101d591815260200190565b93506102af84610dcc565b50825260015b8381101561032657610307836102cc600184611606565b601c81106102dc576102dc61158c565b6020020151846102ed600185611606565b601c81106102fd576102fd61158c565b6020020151610dfc565b8382601c81106103195761031961158c565b60200201526001016102b5565b509093915050565b5f5f610338610efc565b848152610140840180515151602080840191909152905151810151604080840191909152610160860151606084015251610387915f5160206117875f395f51905f52916101d591859101611619565b915061039282610dcc565b50959194509092505050565b6103a6610edd565b5f805b83811015610471576103b9610f1a565b8581525f5b60098110156104225787610180015183601c81106103de576103de61158c565b602002015181600981106103f4576103f461158c565b60200201518261040583600161164c565b600a81106104155761041561158c565b60200201526001016103be565b506104455f5160206117875f395f51905f52826040516020016101d5919061165f565b955061045086610dcc565b508483601c81106104635761046361158c565b6020020152506001016103a9565b5090949293505050565b5f5f610485610f39565b83815260015b6104976001602961164c565b81116104ec576101c08601516104ae600183611606565b602a81106104be576104be61158c565b60200201518282603081106104d5576104d561158c565b6020020152806104e481611693565b91505061048b565b856101a001518282603081106105045761050461158c565b602002015261051460018261164c565b61014087015160200151519091508282603081106105345761053461158c565b6020020152610140860151600160200201516020015182826001610558919061164c565b603081106105685761056861158c565b602002015261057860028261164c565b61014087015160400151519091508282603081106105985761059861158c565b60200201526101408601516002602002015160200151828260016105bc919061164c565b603081106105cc576105cc61158c565b6020020181815250506105f75f5160206117875f395f51905f52836040516020016101d591906116ab565b925061060283610dcc565b5096929550919350505050565b5f808061061d600185611606565b6106289060026116df565b61063390600161164c565b6001600160401b0381111561064a5761064a610f94565b604051908082528060200260200182016040528015610673578160200160208202803683370190505b50905084815f815181106106895761068961158c565b60209081029190910101525f5b6106a1600186611606565b81101561075457866101e0015181601b81106106bf576106bf61158c565b602002015151826106d18360026116df565b6106dc90600161164c565b815181106106ec576106ec61158c565b602002602001018181525050866101e0015181601b811061070f5761070f61158c565b6020020151602001518282600261072691906116df565b61073190600261164c565b815181106107415761074161158c565b6020908102919091010152600101610696565b506107775f5160206117875f395f51905f52826040516020016101d591906116f6565b915061078282610dcc565b5096919550909350505050565b5f808061079d84600161164c565b6107a890600461164c565b6001600160401b038111156107bf576107bf610f94565b6040519080825280602002602001820160405280156107e8578160200160208202803683370190505b50905084815f815181106107fe576107fe61158c565b602090810291909101015260015b84811161086857610200870151610824600183611606565b601c81106108345761083461158c565b602002015182828151811061084b5761084b61158c565b60209081029190910101528061086081611693565b91505061080c565b505f8061087686600161164c565b90505b61088486600461164c565b81116108e35787610220015182600481106108a1576108a161158c565b60200201518382815181106108b8576108b861158c565b6020908102919091010152816108cd81611693565b92505080806108db90611693565b915050610879565b506109065f5160206117875f395f51905f52836040516020016101d591906116f6565b925061091183610dcc565b509792965091945050505050565b5f5f610929610f58565b8381526102408501805151602080840191909152905181015160408084019190915251610387915f5160206117875f395f51905f52916101d591859101611720565b5f808061097984600161164c565b61098490600861164c565b6001600160401b0381111561099b5761099b610f94565b6040519080825280602002602001820160405280156109c4578160200160208202803683370190505b509050845f1b815f815181106109dc576109dc61158c565b60209081029190910101525f5b6109f4600886611606565b811015610a8c575f5160206117875f395f51905f52888883818110610a1b57610a1b61158c565b905060200201355f1c10610a42576040516320a3358960e01b815260040160405180910390fd5b878782818110610a5457610a5461158c565b9050602002013582826001610a69919061164c565b81518110610a7957610a7961158c565b60209081029190910101526001016109e9565b505f5b6008811015610afd578851610ab7908260088110610aaf57610aaf61158c565b602002015190565b82826008610ac689600161164c565b610ad09190611606565b610ada919061164c565b81518110610aea57610aea61158c565b6020908102919091010152600101610a8f565b5060208801515181610b1086600161164c565b81518110610b2057610b2061158c565b60209081029190910181019190915288810151015181610b4186600161164c565b610b4c90600161164c565b81518110610b5c57610b5c61158c565b602090810291909101015260408801515181610b7986600161164c565b610b8490600261164c565b81518110610b9457610b9461158c565b6020908102919091018101919091526040890151015181610bb686600161164c565b610bc190600361164c565b81518110610bd157610bd161158c565b602090810291909101015260608801515181610bee86600161164c565b610bf990600461164c565b81518110610c0957610c0961158c565b6020908102919091018101919091526060890151015181610c2b86600161164c565b610c3690600561164c565b81518110610c4657610c4661158c565b602090810291909101015260808801515181610c6386600161164c565b610c6e90600661164c565b81518110610c7e57610c7e61158c565b6020908102919091018101919091526080890151015181610ca086600161164c565b610cab90600761164c565b81518110610cbb57610cbb61158c565b602002602001018181525050610ce95f5160206117875f395f51905f52826040516020016101d591906116f6565b9150610cf482610dcc565b50989197509095505050505050565b5f5f5f610d0e610f76565b85815260c0858101805151602080850191909152905181015160408085019190915260e08801805151606086015251820151608085015260a08089018051519186019190915251820151928401929092529051610d80915f5160206117875f395f51905f52916101d591859101611753565b9150610d8b82610dcc565b90979096509194509092505050565b5f5f5160206117875f395f51905f528210610dc8576040516320a3358960e01b815260040160405180910390fd5b5090565b5f808260016001607f1b038116607f82901c610de782610d9a565b9450610df281610d9a565b9350505050915091565b5f5f5160206117875f395f51905f5282840990505b92915050565b604051806101400160405280610e2b610e7c565b8152602001610e38610ea0565b8152602001610e45610edd565b81526020015f8152602001610e58610edd565b81526020015f81526020015f81526020015f81526020015f81526020015f81525090565b60405180608001604052805f81526020015f81526020015f81526020015f81525090565b604051806103600160405280601b906020820280368337509192915050565b6040518060a001604052806005906020820280368337509192915050565b604051806103800160405280601c906020820280368337509192915050565b60405180608001604052806004906020820280368337509192915050565b604051806101400160405280600a906020820280368337509192915050565b6040518061060001604052806030906020820280368337509192915050565b60405180606001604052806003906020820280368337509192915050565b6040518060e001604052806007906020820280368337509192915050565b634e487b7160e01b5f52604160045260245ffd5b60405161028081016001600160401b0381118282101715610fcb57610fcb610f94565b60405290565b604051601f8201601f191681016001600160401b0381118282101715610ff957610ff9610f94565b604052919050565b5f82601f830112611010575f5ffd5b5f61010061101d81610fd1565b91508301818582111561102e575f5ffd5b845b82811015611048578035825260209182019101611030565b509195945050505050565b5f60408284031215611063575f5ffd5b604080519081016001600160401b038111828210171561108557611085610f94565b604052823581526020928301359281019290925250919050565b5f82601f8301126110ae575f5ffd5b5f6110b96060610fd1565b90508060c08401858111156110cc575f5ffd5b845b81811015611048576110e08782611053565b83526020909201916040016110ce565b5f82601f8301126110ff575f5ffd5b61038061110b81610fd1565b905080611f8084018581111561111f575f5ffd5b845b818110156111835786601f820112611137575f5ffd5b5f61012061114481610fd1565b915082018189821115611155575f5ffd5b835b8281101561116f578035825260209182019101611157565b505050845260209093019261012001611121565b509095945050505050565b5f82601f83011261119d575f5ffd5b5f61054061101d81610fd1565b5f82601f8301126111b9575f5ffd5b5f6103606111c681610fd1565b915050806106c08401858111156111db575f5ffd5b845b81811015611048576111ef8782611053565b83526020909201916040016111dd565b5f82601f83011261120e575f5ffd5b5f61038061101d81610fd1565b5f82601f83011261122a575f5ffd5b5f6112356080610fd1565b9050806080840185811115611248575f5ffd5b845b8181101561104857803583526020928301920161124a565b5f5f83601f840112611272575f5ffd5b5081356001600160401b03811115611288575f5ffd5b6020830191508360208260051b85010111156112a2575f5ffd5b9250929050565b5f5f5f5f5f5f8688036134c08112156112c0575f5ffd5b6134408112156112ce575f5ffd5b506112d7610fa8565b6112e18989611001565b81526112f1896101008a01611053565b6020820152611304896101408a01611053565b6040820152611317896101808a01611053565b606082015261132a896101c08a01611053565b608082015261133d896102008a01611053565b60a0820152611350896102408a01611053565b60c0820152611363896102808a01611053565b60e0820152611376896102c08a01611053565b61010082015261138a896103008a01611053565b61012082015261139e896103408a0161109f565b6101408201526104008801356101608201526113be896104208a016110f0565b6101808201526123a08801356101a08201526113de896123c08a0161118e565b6101c08201526113f2896129008a016111aa565b6101e082015261140689612fc08a016111ff565b61020082015261141a896133408a0161121b565b61022082015261142e896133c08a01611053565b610240820152611442896134008a01611053565b61026082015295506134408701356001600160401b03811115611463575f5ffd5b61146f89828a01611262565b979a90995096976134608101359761348082013597506134a09091013595509350505050565b805f5b601b8110156114b7578151845260209384019390910190600101611498565b50505050565b805f5b601c8110156114b75781518452602093840193909101906001016114c0565b815180518252602080820151908301526040808201519083015260609081015190820152610ba08101602083015161151a6080840182611495565b50604083015161152e6103e08401826114bd565b506060830151610760830152608083015161154d6107808401826114bd565b5060a0830151610b0083015260c0830151610b2083015260e0830151610b40830152610100830151610b6083015261012090920151610b809091015290565b634e487b7160e01b5f52603260045260245ffd5b5f8183825b60058110156115c45781518352602092830192909101906001016115a5565b50505060a08201905092915050565b5f826115ed57634e487b7160e01b5f52601260045260245ffd5b500690565b634e487b7160e01b5f52601160045260245ffd5b81810381811115610e1157610e116115f2565b5f8183825b600481101561163d57815183526020928301929091019060010161161e565b50505060808201905092915050565b80820180821115610e1157610e116115f2565b5f8183825b600a811015611683578151835260209283019290910190600101611664565b5050506101408201905092915050565b5f600182016116a4576116a46115f2565b5060010190565b5f8183825b60308110156116cf5781518352602092830192909101906001016116b0565b5050506106008201905092915050565b8082028115828204841417610e1157610e116115f2565b81515f90829060208501835b82811015611048578151845260209384019390910190600101611702565b5f8183825b6003811015611744578151835260209283019290910190600101611725565b50505060608201905092915050565b5f8183825b6007811015611777578151835260209283019290910190600101611758565b50505060e0820190509291505056fe30644e72e131a029b85045b68181585d2833e84879b9709143e1f593f0000001a164736f6c634300081c000a","opcodes":"PUSH2 0x17B3 PUSH2 0x34 PUSH1 0xB DUP3 DUP3 DUP3 CODECOPY DUP1 MLOAD PUSH0 BYTE PUSH1 0x73 EQ PUSH1 0x28 JUMPI PUSH4 0x4E487B71 PUSH1 0xE0 SHL PUSH0 MSTORE PUSH0 PUSH1 0x4 MSTORE PUSH1 0x24 PUSH0 REVERT JUMPDEST ADDRESS PUSH0 MSTORE PUSH1 0x73 DUP2 MSTORE8 DUP3 DUP2 RETURN INVALID PUSH20 0x0 ADDRESS EQ PUSH1 0x80 PUSH1 0x40 MSTORE PUSH1 0x4 CALLDATASIZE LT PUSH2 0x34 JUMPI PUSH0 CALLDATALOAD PUSH1 0xE0 SHR DUP1 PUSH4 0x995BF457 EQ PUSH2 0x38 JUMPI JUMPDEST PUSH0 PUSH0 REVERT JUMPDEST PUSH2 0x4B PUSH2 0x46 CALLDATASIZE PUSH1 0x4 PUSH2 0x12A9 JUMP JUMPDEST PUSH2 0x61 JUMP JUMPDEST PUSH1 0x40 MLOAD PUSH2 0x58 SWAP2 SWAP1 PUSH2 0x14DF JUMP JUMPDEST PUSH1 0x40 MLOAD DUP1 SWAP2 SUB SWAP1 RETURN JUMPDEST PUSH2 0x69 PUSH2 0xE17 JUMP JUMPDEST PUSH0 PUSH2 0x78 DUP9 DUP9 DUP9 DUP9 DUP9 DUP7 PUSH2 0x128 JUMP JUMPDEST SWAP1 DUP4 MSTORE SWAP1 POP PUSH2 0x87 DUP2 DUP10 PUSH2 0x16C JUMP JUMPDEST PUSH1 0x20 DUP5 ADD SWAP2 SWAP1 SWAP2 MSTORE SWAP1 POP PUSH2 0x9B DUP2 DUP5 PUSH2 0x277 JUMP JUMPDEST PUSH1 0x40 DUP5 ADD SWAP2 SWAP1 SWAP2 MSTORE SWAP1 POP PUSH2 0xAF DUP2 DUP10 PUSH2 0x32E JUMP JUMPDEST PUSH1 0x60 DUP5 ADD SWAP2 SWAP1 SWAP2 MSTORE SWAP1 POP PUSH2 0xC4 DUP9 DUP3 DUP6 PUSH2 0x39E JUMP JUMPDEST PUSH1 0x80 DUP5 ADD SWAP2 SWAP1 SWAP2 MSTORE SWAP1 POP PUSH2 0xD8 DUP9 DUP3 PUSH2 0x47B JUMP JUMPDEST PUSH1 0xA0 DUP5 ADD SWAP2 SWAP1 SWAP2 MSTORE SWAP1 POP PUSH2 0xED DUP9 DUP3 DUP6 PUSH2 0x60F JUMP JUMPDEST PUSH1 0xC0 DUP5 ADD SWAP2 SWAP1 SWAP2 MSTORE SWAP1 POP PUSH2 0x102 DUP9 DUP3 DUP6 PUSH2 0x78F JUMP JUMPDEST PUSH1 0xE0 DUP5 ADD SWAP2 SWAP1 SWAP2 MSTORE SWAP1 POP PUSH2 0x116 DUP9 DUP3 PUSH2 0x91F JUMP JUMPDEST POP PUSH2 0x100 DUP4 ADD MSTORE POP SWAP7 SWAP6 POP POP POP POP POP POP JUMP JUMPDEST PUSH2 0x130 PUSH2 0xE7C JUMP JUMPDEST PUSH0 PUSH2 0x13E DUP9 DUP9 DUP9 DUP9 DUP9 PUSH2 0x96B JUMP JUMPDEST SWAP1 DUP4 MSTORE SWAP3 POP PUSH2 0x14D DUP4 DUP10 PUSH2 0xD03 JUMP JUMPDEST PUSH1 0x40 DUP6 ADD SWAP2 SWAP1 SWAP2 MSTORE PUSH1 0x20 DUP5 ADD SWAP2 SWAP1 SWAP2 MSTORE SWAP2 SWAP9 SWAP2 SWAP8 POP SWAP1 SWAP6 POP POP POP POP POP POP JUMP JUMPDEST PUSH2 0x174 PUSH2 0xEA0 JUMP JUMPDEST PUSH0 PUSH2 0x17D PUSH2 0xEBF JUMP JUMPDEST DUP5 DUP2 MSTORE PUSH2 0x100 DUP5 ADD DUP1 MLOAD MLOAD PUSH1 0x20 DUP1 DUP5 ADD SWAP2 SWAP1 SWAP2 MSTORE SWAP1 MLOAD DUP2 ADD MLOAD PUSH1 0x40 DUP1 DUP5 ADD SWAP2 SWAP1 SWAP2 MSTORE PUSH2 0x120 DUP7 ADD DUP1 MLOAD MLOAD PUSH1 0x60 DUP6 ADD MSTORE MLOAD DUP3 ADD MLOAD PUSH1 0x80 DUP5 ADD MSTORE MLOAD PUSH2 0x1FC SWAP2 PUSH0 MLOAD PUSH1 0x20 PUSH2 0x1787 PUSH0 CODECOPY PUSH0 MLOAD SWAP1 PUSH0 MSTORE SWAP2 PUSH2 0x1D5 SWAP2 DUP6 SWAP2 ADD PUSH2 0x15A0 JUMP JUMPDEST PUSH1 0x40 MLOAD PUSH1 0x20 DUP2 DUP4 SUB SUB DUP2 MSTORE SWAP1 PUSH1 0x40 MSTORE DUP1 MLOAD SWAP1 PUSH1 0x20 ADD KECCAK256 PUSH0 SHR PUSH2 0x1F7 SWAP2 SWAP1 PUSH2 0x15D3 JUMP JUMPDEST PUSH2 0xD9A JUMP JUMPDEST SWAP2 POP PUSH0 PUSH2 0x208 DUP4 PUSH2 0xDCC JUMP JUMPDEST POP DUP1 DUP6 MSTORE SWAP1 POP PUSH1 0x1 JUMPDEST PUSH2 0x21D PUSH1 0x1 PUSH1 0x1C PUSH2 0x1606 JUMP JUMPDEST DUP2 LT ISZERO PUSH2 0x26D JUMPI PUSH2 0x24E DUP6 PUSH2 0x233 PUSH1 0x1 DUP5 PUSH2 0x1606 JUMP JUMPDEST PUSH1 0x1B DUP2 LT PUSH2 0x243 JUMPI PUSH2 0x243 PUSH2 0x158C JUMP JUMPDEST PUSH1 0x20 MUL ADD MLOAD DUP4 PUSH2 0xDFC JUMP JUMPDEST DUP6 DUP3 PUSH1 0x1B DUP2 LT PUSH2 0x260 JUMPI PUSH2 0x260 PUSH2 0x158C JUMP JUMPDEST PUSH1 0x20 MUL ADD MSTORE PUSH1 0x1 ADD PUSH2 0x211 JUMP JUMPDEST POP POP POP SWAP3 POP SWAP3 SWAP1 POP JUMP JUMPDEST PUSH2 0x27F PUSH2 0xEDD JUMP JUMPDEST PUSH0 PUSH2 0x2A4 PUSH0 MLOAD PUSH1 0x20 PUSH2 0x1787 PUSH0 CODECOPY PUSH0 MLOAD SWAP1 PUSH0 MSTORE DUP6 PUSH1 0x40 MLOAD PUSH1 0x20 ADD PUSH2 0x1D5 SWAP2 DUP2 MSTORE PUSH1 0x20 ADD SWAP1 JUMP JUMPDEST SWAP4 POP PUSH2 0x2AF DUP5 PUSH2 0xDCC JUMP JUMPDEST POP DUP3 MSTORE PUSH1 0x1 JUMPDEST DUP4 DUP2 LT ISZERO PUSH2 0x326 JUMPI PUSH2 0x307 DUP4 PUSH2 0x2CC PUSH1 0x1 DUP5 PUSH2 0x1606 JUMP JUMPDEST PUSH1 0x1C DUP2 LT PUSH2 0x2DC JUMPI PUSH2 0x2DC PUSH2 0x158C JUMP JUMPDEST PUSH1 0x20 MUL ADD MLOAD DUP5 PUSH2 0x2ED PUSH1 0x1 DUP6 PUSH2 0x1606 JUMP JUMPDEST PUSH1 0x1C DUP2 LT PUSH2 0x2FD JUMPI PUSH2 0x2FD PUSH2 0x158C JUMP JUMPDEST PUSH1 0x20 MUL ADD MLOAD PUSH2 0xDFC JUMP JUMPDEST DUP4 DUP3 PUSH1 0x1C DUP2 LT PUSH2 0x319 JUMPI PUSH2 0x319 PUSH2 0x158C JUMP JUMPDEST PUSH1 0x20 MUL ADD MSTORE PUSH1 0x1 ADD PUSH2 0x2B5 JUMP JUMPDEST POP SWAP1 SWAP4 SWAP2 POP POP JUMP JUMPDEST PUSH0 PUSH0 PUSH2 0x338 PUSH2 0xEFC JUMP JUMPDEST DUP5 DUP2 MSTORE PUSH2 0x140 DUP5 ADD DUP1 MLOAD MLOAD MLOAD PUSH1 0x20 DUP1 DUP5 ADD SWAP2 SWAP1 SWAP2 MSTORE SWAP1 MLOAD MLOAD DUP2 ADD MLOAD PUSH1 0x40 DUP1 DUP5 ADD SWAP2 SWAP1 SWAP2 MSTORE PUSH2 0x160 DUP7 ADD MLOAD PUSH1 0x60 DUP5 ADD MSTORE MLOAD PUSH2 0x387 SWAP2 PUSH0 MLOAD PUSH1 0x20 PUSH2 0x1787 PUSH0 CODECOPY PUSH0 MLOAD SWAP1 PUSH0 MSTORE SWAP2 PUSH2 0x1D5 SWAP2 DUP6 SWAP2 ADD PUSH2 0x1619 JUMP JUMPDEST SWAP2 POP PUSH2 0x392 DUP3 PUSH2 0xDCC JUMP JUMPDEST POP SWAP6 SWAP2 SWAP5 POP SWAP1 SWAP3 POP POP POP JUMP JUMPDEST PUSH2 0x3A6 PUSH2 0xEDD JUMP JUMPDEST PUSH0 DUP1 JUMPDEST DUP4 DUP2 LT ISZERO PUSH2 0x471 JUMPI PUSH2 0x3B9 PUSH2 0xF1A JUMP JUMPDEST DUP6 DUP2 MSTORE PUSH0 JUMPDEST PUSH1 0x9 DUP2 LT ISZERO PUSH2 0x422 JUMPI DUP8 PUSH2 0x180 ADD MLOAD DUP4 PUSH1 0x1C DUP2 LT PUSH2 0x3DE JUMPI PUSH2 0x3DE PUSH2 0x158C JUMP JUMPDEST PUSH1 0x20 MUL ADD MLOAD DUP2 PUSH1 0x9 DUP2 LT PUSH2 0x3F4 JUMPI PUSH2 0x3F4 PUSH2 0x158C JUMP JUMPDEST PUSH1 0x20 MUL ADD MLOAD DUP3 PUSH2 0x405 DUP4 PUSH1 0x1 PUSH2 0x164C JUMP JUMPDEST PUSH1 0xA DUP2 LT PUSH2 0x415 JUMPI PUSH2 0x415 PUSH2 0x158C JUMP JUMPDEST PUSH1 0x20 MUL ADD MSTORE PUSH1 0x1 ADD PUSH2 0x3BE JUMP JUMPDEST POP PUSH2 0x445 PUSH0 MLOAD PUSH1 0x20 PUSH2 0x1787 PUSH0 CODECOPY PUSH0 MLOAD SWAP1 PUSH0 MSTORE DUP3 PUSH1 0x40 MLOAD PUSH1 0x20 ADD PUSH2 0x1D5 SWAP2 SWAP1 PUSH2 0x165F JUMP JUMPDEST SWAP6 POP PUSH2 0x450 DUP7 PUSH2 0xDCC JUMP JUMPDEST POP DUP5 DUP4 PUSH1 0x1C DUP2 LT PUSH2 0x463 JUMPI PUSH2 0x463 PUSH2 0x158C JUMP JUMPDEST PUSH1 0x20 MUL ADD MSTORE POP PUSH1 0x1 ADD PUSH2 0x3A9 JUMP JUMPDEST POP SWAP1 SWAP5 SWAP3 SWAP4 POP POP POP JUMP JUMPDEST PUSH0 PUSH0 PUSH2 0x485 PUSH2 0xF39 JUMP JUMPDEST DUP4 DUP2 MSTORE PUSH1 0x1 JUMPDEST PUSH2 0x497 PUSH1 0x1 PUSH1 0x29 PUSH2 0x164C JUMP JUMPDEST DUP2 GT PUSH2 0x4EC JUMPI PUSH2 0x1C0 DUP7 ADD MLOAD PUSH2 0x4AE PUSH1 0x1 DUP4 PUSH2 0x1606 JUMP JUMPDEST PUSH1 0x2A DUP2 LT PUSH2 0x4BE JUMPI PUSH2 0x4BE PUSH2 0x158C JUMP JUMPDEST PUSH1 0x20 MUL ADD MLOAD DUP3 DUP3 PUSH1 0x30 DUP2 LT PUSH2 0x4D5 JUMPI PUSH2 0x4D5 PUSH2 0x158C JUMP JUMPDEST PUSH1 0x20 MUL ADD MSTORE DUP1 PUSH2 0x4E4 DUP2 PUSH2 0x1693 JUMP JUMPDEST SWAP2 POP POP PUSH2 0x48B JUMP JUMPDEST DUP6 PUSH2 0x1A0 ADD MLOAD DUP3 DUP3 PUSH1 0x30 DUP2 LT PUSH2 0x504 JUMPI PUSH2 0x504 PUSH2 0x158C JUMP JUMPDEST PUSH1 0x20 MUL ADD MSTORE PUSH2 0x514 PUSH1 0x1 DUP3 PUSH2 0x164C JUMP JUMPDEST PUSH2 0x140 DUP8 ADD MLOAD PUSH1 0x20 ADD MLOAD MLOAD SWAP1 SWAP2 POP DUP3 DUP3 PUSH1 0x30 DUP2 LT PUSH2 0x534 JUMPI PUSH2 0x534 PUSH2 0x158C JUMP JUMPDEST PUSH1 0x20 MUL ADD MSTORE PUSH2 0x140 DUP7 ADD MLOAD PUSH1 0x1 PUSH1 0x20 MUL ADD MLOAD PUSH1 0x20 ADD MLOAD DUP3 DUP3 PUSH1 0x1 PUSH2 0x558 SWAP2 SWAP1 PUSH2 0x164C JUMP JUMPDEST PUSH1 0x30 DUP2 LT PUSH2 0x568 JUMPI PUSH2 0x568 PUSH2 0x158C JUMP JUMPDEST PUSH1 0x20 MUL ADD MSTORE PUSH2 0x578 PUSH1 0x2 DUP3 PUSH2 0x164C JUMP JUMPDEST PUSH2 0x140 DUP8 ADD MLOAD PUSH1 0x40 ADD MLOAD MLOAD SWAP1 SWAP2 POP DUP3 DUP3 PUSH1 0x30 DUP2 LT PUSH2 0x598 JUMPI PUSH2 0x598 PUSH2 0x158C JUMP JUMPDEST PUSH1 0x20 MUL ADD MSTORE PUSH2 0x140 DUP7 ADD MLOAD PUSH1 0x2 PUSH1 0x20 MUL ADD MLOAD PUSH1 0x20 ADD MLOAD DUP3 DUP3 PUSH1 0x1 PUSH2 0x5BC SWAP2 SWAP1 PUSH2 0x164C JUMP JUMPDEST PUSH1 0x30 DUP2 LT PUSH2 0x5CC JUMPI PUSH2 0x5CC PUSH2 0x158C JUMP JUMPDEST PUSH1 0x20 MUL ADD DUP2 DUP2 MSTORE POP POP PUSH2 0x5F7 PUSH0 MLOAD PUSH1 0x20 PUSH2 0x1787 PUSH0 CODECOPY PUSH0 MLOAD SWAP1 PUSH0 MSTORE DUP4 PUSH1 0x40 MLOAD PUSH1 0x20 ADD PUSH2 0x1D5 SWAP2 SWAP1 PUSH2 0x16AB JUMP JUMPDEST SWAP3 POP PUSH2 0x602 DUP4 PUSH2 0xDCC JUMP JUMPDEST POP SWAP7 SWAP3 SWAP6 POP SWAP2 SWAP4 POP POP POP POP JUMP JUMPDEST PUSH0 DUP1 DUP1 PUSH2 0x61D PUSH1 0x1 DUP6 PUSH2 0x1606 JUMP JUMPDEST PUSH2 0x628 SWAP1 PUSH1 0x2 PUSH2 0x16DF JUMP JUMPDEST PUSH2 0x633 SWAP1 PUSH1 0x1 PUSH2 0x164C JUMP JUMPDEST PUSH1 0x1 PUSH1 0x1 PUSH1 0x40 SHL SUB DUP2 GT ISZERO PUSH2 0x64A JUMPI PUSH2 0x64A PUSH2 0xF94 JUMP JUMPDEST PUSH1 0x40 MLOAD SWAP1 DUP1 DUP3 MSTORE DUP1 PUSH1 0x20 MUL PUSH1 0x20 ADD DUP3 ADD PUSH1 0x40 MSTORE DUP1 ISZERO PUSH2 0x673 JUMPI DUP2 PUSH1 0x20 ADD PUSH1 0x20 DUP3 MUL DUP1 CALLDATASIZE DUP4 CALLDATACOPY ADD SWAP1 POP JUMPDEST POP SWAP1 POP DUP5 DUP2 PUSH0 DUP2 MLOAD DUP2 LT PUSH2 0x689 JUMPI PUSH2 0x689 PUSH2 0x158C JUMP JUMPDEST PUSH1 0x20 SWAP1 DUP2 MUL SWAP2 SWAP1 SWAP2 ADD ADD MSTORE PUSH0 JUMPDEST PUSH2 0x6A1 PUSH1 0x1 DUP7 PUSH2 0x1606 JUMP JUMPDEST DUP2 LT ISZERO PUSH2 0x754 JUMPI DUP7 PUSH2 0x1E0 ADD MLOAD DUP2 PUSH1 0x1B DUP2 LT PUSH2 0x6BF JUMPI PUSH2 0x6BF PUSH2 0x158C JUMP JUMPDEST PUSH1 0x20 MUL ADD MLOAD MLOAD DUP3 PUSH2 0x6D1 DUP4 PUSH1 0x2 PUSH2 0x16DF JUMP JUMPDEST PUSH2 0x6DC SWAP1 PUSH1 0x1 PUSH2 0x164C JUMP JUMPDEST DUP2 MLOAD DUP2 LT PUSH2 0x6EC JUMPI PUSH2 0x6EC PUSH2 0x158C JUMP JUMPDEST PUSH1 0x20 MUL PUSH1 0x20 ADD ADD DUP2 DUP2 MSTORE POP POP DUP7 PUSH2 0x1E0 ADD MLOAD DUP2 PUSH1 0x1B DUP2 LT PUSH2 0x70F JUMPI PUSH2 0x70F PUSH2 0x158C JUMP JUMPDEST PUSH1 0x20 MUL ADD MLOAD PUSH1 0x20 ADD MLOAD DUP3 DUP3 PUSH1 0x2 PUSH2 0x726 SWAP2 SWAP1 PUSH2 0x16DF JUMP JUMPDEST PUSH2 0x731 SWAP1 PUSH1 0x2 PUSH2 0x164C JUMP JUMPDEST DUP2 MLOAD DUP2 LT PUSH2 0x741 JUMPI PUSH2 0x741 PUSH2 0x158C JUMP JUMPDEST PUSH1 0x20 SWAP1 DUP2 MUL SWAP2 SWAP1 SWAP2 ADD ADD MSTORE PUSH1 0x1 ADD PUSH2 0x696 JUMP JUMPDEST POP PUSH2 0x777 PUSH0 MLOAD PUSH1 0x20 PUSH2 0x1787 PUSH0 CODECOPY PUSH0 MLOAD SWAP1 PUSH0 MSTORE DUP3 PUSH1 0x40 MLOAD PUSH1 0x20 ADD PUSH2 0x1D5 SWAP2 SWAP1 PUSH2 0x16F6 JUMP JUMPDEST SWAP2 POP PUSH2 0x782 DUP3 PUSH2 0xDCC JUMP JUMPDEST POP SWAP7 SWAP2 SWAP6 POP SWAP1 SWAP4 POP POP POP POP JUMP JUMPDEST PUSH0 DUP1 DUP1 PUSH2 0x79D DUP5 PUSH1 0x1 PUSH2 0x164C JUMP JUMPDEST PUSH2 0x7A8 SWAP1 PUSH1 0x4 PUSH2 0x164C JUMP JUMPDEST PUSH1 0x1 PUSH1 0x1 PUSH1 0x40 SHL SUB DUP2 GT ISZERO PUSH2 0x7BF JUMPI PUSH2 0x7BF PUSH2 0xF94 JUMP JUMPDEST PUSH1 0x40 MLOAD SWAP1 DUP1 DUP3 MSTORE DUP1 PUSH1 0x20 MUL PUSH1 0x20 ADD DUP3 ADD PUSH1 0x40 MSTORE DUP1 ISZERO PUSH2 0x7E8 JUMPI DUP2 PUSH1 0x20 ADD PUSH1 0x20 DUP3 MUL DUP1 CALLDATASIZE DUP4 CALLDATACOPY ADD SWAP1 POP JUMPDEST POP SWAP1 POP DUP5 DUP2 PUSH0 DUP2 MLOAD DUP2 LT PUSH2 0x7FE JUMPI PUSH2 0x7FE PUSH2 0x158C JUMP JUMPDEST PUSH1 0x20 SWAP1 DUP2 MUL SWAP2 SWAP1 SWAP2 ADD ADD MSTORE PUSH1 0x1 JUMPDEST DUP5 DUP2 GT PUSH2 0x868 JUMPI PUSH2 0x200 DUP8 ADD MLOAD PUSH2 0x824 PUSH1 0x1 DUP4 PUSH2 0x1606 JUMP JUMPDEST PUSH1 0x1C DUP2 LT PUSH2 0x834 JUMPI PUSH2 0x834 PUSH2 0x158C JUMP JUMPDEST PUSH1 0x20 MUL ADD MLOAD DUP3 DUP3 DUP2 MLOAD DUP2 LT PUSH2 0x84B JUMPI PUSH2 0x84B PUSH2 0x158C JUMP JUMPDEST PUSH1 0x20 SWAP1 DUP2 MUL SWAP2 SWAP1 SWAP2 ADD ADD MSTORE DUP1 PUSH2 0x860 DUP2 PUSH2 0x1693 JUMP JUMPDEST SWAP2 POP POP PUSH2 0x80C JUMP JUMPDEST POP PUSH0 DUP1 PUSH2 0x876 DUP7 PUSH1 0x1 PUSH2 0x164C JUMP JUMPDEST SWAP1 POP JUMPDEST PUSH2 0x884 DUP7 PUSH1 0x4 PUSH2 0x164C JUMP JUMPDEST DUP2 GT PUSH2 0x8E3 JUMPI DUP8 PUSH2 0x220 ADD MLOAD DUP3 PUSH1 0x4 DUP2 LT PUSH2 0x8A1 JUMPI PUSH2 0x8A1 PUSH2 0x158C JUMP JUMPDEST PUSH1 0x20 MUL ADD MLOAD DUP4 DUP3 DUP2 MLOAD DUP2 LT PUSH2 0x8B8 JUMPI PUSH2 0x8B8 PUSH2 0x158C JUMP JUMPDEST PUSH1 0x20 SWAP1 DUP2 MUL SWAP2 SWAP1 SWAP2 ADD ADD MSTORE DUP2 PUSH2 0x8CD DUP2 PUSH2 0x1693 JUMP JUMPDEST SWAP3 POP POP DUP1 DUP1 PUSH2 0x8DB SWAP1 PUSH2 0x1693 JUMP JUMPDEST SWAP2 POP POP PUSH2 0x879 JUMP JUMPDEST POP PUSH2 0x906 PUSH0 MLOAD PUSH1 0x20 PUSH2 0x1787 PUSH0 CODECOPY PUSH0 MLOAD SWAP1 PUSH0 MSTORE DUP4 PUSH1 0x40 MLOAD PUSH1 0x20 ADD PUSH2 0x1D5 SWAP2 SWAP1 PUSH2 0x16F6 JUMP JUMPDEST SWAP3 POP PUSH2 0x911 DUP4 PUSH2 0xDCC JUMP JUMPDEST POP SWAP8 SWAP3 SWAP7 POP SWAP2 SWAP5 POP POP POP POP POP JUMP JUMPDEST PUSH0 PUSH0 PUSH2 0x929 PUSH2 0xF58 JUMP JUMPDEST DUP4 DUP2 MSTORE PUSH2 0x240 DUP6 ADD DUP1 MLOAD MLOAD PUSH1 0x20 DUP1 DUP5 ADD SWAP2 SWAP1 SWAP2 MSTORE SWAP1 MLOAD DUP2 ADD MLOAD PUSH1 0x40 DUP1 DUP5 ADD SWAP2 SWAP1 SWAP2 MSTORE MLOAD PUSH2 0x387 SWAP2 PUSH0 MLOAD PUSH1 0x20 PUSH2 0x1787 PUSH0 CODECOPY PUSH0 MLOAD SWAP1 PUSH0 MSTORE SWAP2 PUSH2 0x1D5 SWAP2 DUP6 SWAP2 ADD PUSH2 0x1720 JUMP JUMPDEST PUSH0 DUP1 DUP1 PUSH2 0x979 DUP5 PUSH1 0x1 PUSH2 0x164C JUMP JUMPDEST PUSH2 0x984 SWAP1 PUSH1 0x8 PUSH2 0x164C JUMP JUMPDEST PUSH1 0x1 PUSH1 0x1 PUSH1 0x40 SHL SUB DUP2 GT ISZERO PUSH2 0x99B JUMPI PUSH2 0x99B PUSH2 0xF94 JUMP JUMPDEST PUSH1 0x40 MLOAD SWAP1 DUP1 DUP3 MSTORE DUP1 PUSH1 0x20 MUL PUSH1 0x20 ADD DUP3 ADD PUSH1 0x40 MSTORE DUP1 ISZERO PUSH2 0x9C4 JUMPI DUP2 PUSH1 0x20 ADD PUSH1 0x20 DUP3 MUL DUP1 CALLDATASIZE DUP4 CALLDATACOPY ADD SWAP1 POP JUMPDEST POP SWAP1 POP DUP5 PUSH0 SHL DUP2 PUSH0 DUP2 MLOAD DUP2 LT PUSH2 0x9DC JUMPI PUSH2 0x9DC PUSH2 0x158C JUMP JUMPDEST PUSH1 0x20 SWAP1 DUP2 MUL SWAP2 SWAP1 SWAP2 ADD ADD MSTORE PUSH0 JUMPDEST PUSH2 0x9F4 PUSH1 0x8 DUP7 PUSH2 0x1606 JUMP JUMPDEST DUP2 LT ISZERO PUSH2 0xA8C JUMPI PUSH0 MLOAD PUSH1 0x20 PUSH2 0x1787 PUSH0 CODECOPY PUSH0 MLOAD SWAP1 PUSH0 MSTORE DUP9 DUP9 DUP4 DUP2 DUP2 LT PUSH2 0xA1B JUMPI PUSH2 0xA1B PUSH2 0x158C JUMP JUMPDEST SWAP1 POP PUSH1 0x20 MUL ADD CALLDATALOAD PUSH0 SHR LT PUSH2 0xA42 JUMPI PUSH1 0x40 MLOAD PUSH4 0x20A33589 PUSH1 0xE0 SHL DUP2 MSTORE PUSH1 0x4 ADD PUSH1 0x40 MLOAD DUP1 SWAP2 SUB SWAP1 REVERT JUMPDEST DUP8 DUP8 DUP3 DUP2 DUP2 LT PUSH2 0xA54 JUMPI PUSH2 0xA54 PUSH2 0x158C JUMP JUMPDEST SWAP1 POP PUSH1 0x20 MUL ADD CALLDATALOAD DUP3 DUP3 PUSH1 0x1 PUSH2 0xA69 SWAP2 SWAP1 PUSH2 0x164C JUMP JUMPDEST DUP2 MLOAD DUP2 LT PUSH2 0xA79 JUMPI PUSH2 0xA79 PUSH2 0x158C JUMP JUMPDEST PUSH1 0x20 SWAP1 DUP2 MUL SWAP2 SWAP1 SWAP2 ADD ADD MSTORE PUSH1 0x1 ADD PUSH2 0x9E9 JUMP JUMPDEST POP PUSH0 JUMPDEST PUSH1 0x8 DUP2 LT ISZERO PUSH2 0xAFD JUMPI DUP9 MLOAD PUSH2 0xAB7 SWAP1 DUP3 PUSH1 0x8 DUP2 LT PUSH2 0xAAF JUMPI PUSH2 0xAAF PUSH2 0x158C JUMP JUMPDEST PUSH1 0x20 MUL ADD MLOAD SWAP1 JUMP JUMPDEST DUP3 DUP3 PUSH1 0x8 PUSH2 0xAC6 DUP10 PUSH1 0x1 PUSH2 0x164C JUMP JUMPDEST PUSH2 0xAD0 SWAP2 SWAP1 PUSH2 0x1606 JUMP JUMPDEST PUSH2 0xADA SWAP2 SWAP1 PUSH2 0x164C JUMP JUMPDEST DUP2 MLOAD DUP2 LT PUSH2 0xAEA JUMPI PUSH2 0xAEA PUSH2 0x158C JUMP JUMPDEST PUSH1 0x20 SWAP1 DUP2 MUL SWAP2 SWAP1 SWAP2 ADD ADD MSTORE PUSH1 0x1 ADD PUSH2 0xA8F JUMP JUMPDEST POP PUSH1 0x20 DUP9 ADD MLOAD MLOAD DUP2 PUSH2 0xB10 DUP7 PUSH1 0x1 PUSH2 0x164C JUMP JUMPDEST DUP2 MLOAD DUP2 LT PUSH2 0xB20 JUMPI PUSH2 0xB20 PUSH2 0x158C JUMP JUMPDEST PUSH1 0x20 SWAP1 DUP2 MUL SWAP2 SWAP1 SWAP2 ADD DUP2 ADD SWAP2 SWAP1 SWAP2 MSTORE DUP9 DUP2 ADD MLOAD ADD MLOAD DUP2 PUSH2 0xB41 DUP7 PUSH1 0x1 PUSH2 0x164C JUMP JUMPDEST PUSH2 0xB4C SWAP1 PUSH1 0x1 PUSH2 0x164C JUMP JUMPDEST DUP2 MLOAD DUP2 LT PUSH2 0xB5C JUMPI PUSH2 0xB5C PUSH2 0x158C JUMP JUMPDEST PUSH1 0x20 SWAP1 DUP2 MUL SWAP2 SWAP1 SWAP2 ADD ADD MSTORE PUSH1 0x40 DUP9 ADD MLOAD MLOAD DUP2 PUSH2 0xB79 DUP7 PUSH1 0x1 PUSH2 0x164C JUMP JUMPDEST PUSH2 0xB84 SWAP1 PUSH1 0x2 PUSH2 0x164C JUMP JUMPDEST DUP2 MLOAD DUP2 LT PUSH2 0xB94 JUMPI PUSH2 0xB94 PUSH2 0x158C JUMP JUMPDEST PUSH1 0x20 SWAP1 DUP2 MUL SWAP2 SWAP1 SWAP2 ADD DUP2 ADD SWAP2 SWAP1 SWAP2 MSTORE PUSH1 0x40 DUP10 ADD MLOAD ADD MLOAD DUP2 PUSH2 0xBB6 DUP7 PUSH1 0x1 PUSH2 0x164C JUMP JUMPDEST PUSH2 0xBC1 SWAP1 PUSH1 0x3 PUSH2 0x164C JUMP JUMPDEST DUP2 MLOAD DUP2 LT PUSH2 0xBD1 JUMPI PUSH2 0xBD1 PUSH2 0x158C JUMP JUMPDEST PUSH1 0x20 SWAP1 DUP2 MUL SWAP2 SWAP1 SWAP2 ADD ADD MSTORE PUSH1 0x60 DUP9 ADD MLOAD MLOAD DUP2 PUSH2 0xBEE DUP7 PUSH1 0x1 PUSH2 0x164C JUMP JUMPDEST PUSH2 0xBF9 SWAP1 PUSH1 0x4 PUSH2 0x164C JUMP JUMPDEST DUP2 MLOAD DUP2 LT PUSH2 0xC09 JUMPI PUSH2 0xC09 PUSH2 0x158C JUMP JUMPDEST PUSH1 0x20 SWAP1 DUP2 MUL SWAP2 SWAP1 SWAP2 ADD DUP2 ADD SWAP2 SWAP1 SWAP2 MSTORE PUSH1 0x60 DUP10 ADD MLOAD ADD MLOAD DUP2 PUSH2 0xC2B DUP7 PUSH1 0x1 PUSH2 0x164C JUMP JUMPDEST PUSH2 0xC36 SWAP1 PUSH1 0x5 PUSH2 0x164C JUMP JUMPDEST DUP2 MLOAD DUP2 LT PUSH2 0xC46 JUMPI PUSH2 0xC46 PUSH2 0x158C JUMP JUMPDEST PUSH1 0x20 SWAP1 DUP2 MUL SWAP2 SWAP1 SWAP2 ADD ADD MSTORE PUSH1 0x80 DUP9 ADD MLOAD MLOAD DUP2 PUSH2 0xC63 DUP7 PUSH1 0x1 PUSH2 0x164C JUMP JUMPDEST PUSH2 0xC6E SWAP1 PUSH1 0x6 PUSH2 0x164C JUMP JUMPDEST DUP2 MLOAD DUP2 LT PUSH2 0xC7E JUMPI PUSH2 0xC7E PUSH2 0x158C JUMP JUMPDEST PUSH1 0x20 SWAP1 DUP2 MUL SWAP2 SWAP1 SWAP2 ADD DUP2 ADD SWAP2 SWAP1 SWAP2 MSTORE PUSH1 0x80 DUP10 ADD MLOAD ADD MLOAD DUP2 PUSH2 0xCA0 DUP7 PUSH1 0x1 PUSH2 0x164C JUMP JUMPDEST PUSH2 0xCAB SWAP1 PUSH1 0x7 PUSH2 0x164C JUMP JUMPDEST DUP2 MLOAD DUP2 LT PUSH2 0xCBB JUMPI PUSH2 0xCBB PUSH2 0x158C JUMP JUMPDEST PUSH1 0x20 MUL PUSH1 0x20 ADD ADD DUP2 DUP2 MSTORE POP POP PUSH2 0xCE9 PUSH0 MLOAD PUSH1 0x20 PUSH2 0x1787 PUSH0 CODECOPY PUSH0 MLOAD SWAP1 PUSH0 MSTORE DUP3 PUSH1 0x40 MLOAD PUSH1 0x20 ADD PUSH2 0x1D5 SWAP2 SWAP1 PUSH2 0x16F6 JUMP JUMPDEST SWAP2 POP PUSH2 0xCF4 DUP3 PUSH2 0xDCC JUMP JUMPDEST POP SWAP9 SWAP2 SWAP8 POP SWAP1 SWAP6 POP POP POP POP POP POP JUMP JUMPDEST PUSH0 PUSH0 PUSH0 PUSH2 0xD0E PUSH2 0xF76 JUMP JUMPDEST DUP6 DUP2 MSTORE PUSH1 0xC0 DUP6 DUP2 ADD DUP1 MLOAD MLOAD PUSH1 0x20 DUP1 DUP6 ADD SWAP2 SWAP1 SWAP2 MSTORE SWAP1 MLOAD DUP2 ADD MLOAD PUSH1 0x40 DUP1 DUP6 ADD SWAP2 SWAP1 SWAP2 MSTORE PUSH1 0xE0 DUP9 ADD DUP1 MLOAD MLOAD PUSH1 0x60 DUP7 ADD MSTORE MLOAD DUP3 ADD MLOAD PUSH1 0x80 DUP6 ADD MSTORE PUSH1 0xA0 DUP1 DUP10 ADD DUP1 MLOAD MLOAD SWAP2 DUP7 ADD SWAP2 SWAP1 SWAP2 MSTORE MLOAD DUP3 ADD MLOAD SWAP3 DUP5 ADD SWAP3 SWAP1 SWAP3 MSTORE SWAP1 MLOAD PUSH2 0xD80 SWAP2 PUSH0 MLOAD PUSH1 0x20 PUSH2 0x1787 PUSH0 CODECOPY PUSH0 MLOAD SWAP1 PUSH0 MSTORE SWAP2 PUSH2 0x1D5 SWAP2 DUP6 SWAP2 ADD PUSH2 0x1753 JUMP JUMPDEST SWAP2 POP PUSH2 0xD8B DUP3 PUSH2 0xDCC JUMP JUMPDEST SWAP1 SWAP8 SWAP1 SWAP7 POP SWAP2 SWAP5 POP SWAP1 SWAP3 POP POP POP JUMP JUMPDEST PUSH0 PUSH0 MLOAD PUSH1 0x20 PUSH2 0x1787 PUSH0 CODECOPY PUSH0 MLOAD SWAP1 PUSH0 MSTORE DUP3 LT PUSH2 0xDC8 JUMPI PUSH1 0x40 MLOAD PUSH4 0x20A33589 PUSH1 0xE0 SHL DUP2 MSTORE PUSH1 0x4 ADD PUSH1 0x40 MLOAD DUP1 SWAP2 SUB SWAP1 REVERT JUMPDEST POP SWAP1 JUMP JUMPDEST PUSH0 DUP1 DUP3 PUSH1 0x1 PUSH1 0x1 PUSH1 0x7F SHL SUB DUP2 AND PUSH1 0x7F DUP3 SWAP1 SHR PUSH2 0xDE7 DUP3 PUSH2 0xD9A JUMP JUMPDEST SWAP5 POP PUSH2 0xDF2 DUP2 PUSH2 0xD9A JUMP JUMPDEST SWAP4 POP POP POP POP SWAP2 POP SWAP2 JUMP JUMPDEST PUSH0 PUSH0 MLOAD PUSH1 0x20 PUSH2 0x1787 PUSH0 CODECOPY PUSH0 MLOAD SWAP1 PUSH0 MSTORE DUP3 DUP5 MULMOD SWAP1 POP JUMPDEST SWAP3 SWAP2 POP POP JUMP JUMPDEST PUSH1 0x40 MLOAD DUP1 PUSH2 0x140 ADD PUSH1 0x40 MSTORE DUP1 PUSH2 0xE2B PUSH2 0xE7C JUMP JUMPDEST DUP2 MSTORE PUSH1 0x20 ADD PUSH2 0xE38 PUSH2 0xEA0 JUMP JUMPDEST DUP2 MSTORE PUSH1 0x20 ADD PUSH2 0xE45 PUSH2 0xEDD JUMP JUMPDEST DUP2 MSTORE PUSH1 0x20 ADD PUSH0 DUP2 MSTORE PUSH1 0x20 ADD PUSH2 0xE58 PUSH2 0xEDD JUMP JUMPDEST DUP2 MSTORE PUSH1 0x20 ADD PUSH0 DUP2 MSTORE PUSH1 0x20 ADD PUSH0 DUP2 MSTORE PUSH1 0x20 ADD PUSH0 DUP2 MSTORE PUSH1 0x20 ADD PUSH0 DUP2 MSTORE PUSH1 0x20 ADD PUSH0 DUP2 MSTORE POP SWAP1 JUMP JUMPDEST PUSH1 0x40 MLOAD DUP1 PUSH1 0x80 ADD PUSH1 0x40 MSTORE DUP1 PUSH0 DUP2 MSTORE PUSH1 0x20 ADD PUSH0 DUP2 MSTORE PUSH1 0x20 ADD PUSH0 DUP2 MSTORE PUSH1 0x20 ADD PUSH0 DUP2 MSTORE POP SWAP1 JUMP JUMPDEST PUSH1 0x40 MLOAD DUP1 PUSH2 0x360 ADD PUSH1 0x40 MSTORE DUP1 PUSH1 0x1B SWAP1 PUSH1 0x20 DUP3 MUL DUP1 CALLDATASIZE DUP4 CALLDATACOPY POP SWAP2 SWAP3 SWAP2 POP POP JUMP JUMPDEST PUSH1 0x40 MLOAD DUP1 PUSH1 0xA0 ADD PUSH1 0x40 MSTORE DUP1 PUSH1 0x5 SWAP1 PUSH1 0x20 DUP3 MUL DUP1 CALLDATASIZE DUP4 CALLDATACOPY POP SWAP2 SWAP3 SWAP2 POP POP JUMP JUMPDEST PUSH1 0x40 MLOAD DUP1 PUSH2 0x380 ADD PUSH1 0x40 MSTORE DUP1 PUSH1 0x1C SWAP1 PUSH1 0x20 DUP3 MUL DUP1 CALLDATASIZE DUP4 CALLDATACOPY POP SWAP2 SWAP3 SWAP2 POP POP JUMP JUMPDEST PUSH1 0x40 MLOAD DUP1 PUSH1 0x80 ADD PUSH1 0x40 MSTORE DUP1 PUSH1 0x4 SWAP1 PUSH1 0x20 DUP3 MUL DUP1 CALLDATASIZE DUP4 CALLDATACOPY POP SWAP2 SWAP3 SWAP2 POP POP JUMP JUMPDEST PUSH1 0x40 MLOAD DUP1 PUSH2 0x140 ADD PUSH1 0x40 MSTORE DUP1 PUSH1 0xA SWAP1 PUSH1 0x20 DUP3 MUL DUP1 CALLDATASIZE DUP4 CALLDATACOPY POP SWAP2 SWAP3 SWAP2 POP POP JUMP JUMPDEST PUSH1 0x40 MLOAD DUP1 PUSH2 0x600 ADD PUSH1 0x40 MSTORE DUP1 PUSH1 0x30 SWAP1 PUSH1 0x20 DUP3 MUL DUP1 CALLDATASIZE DUP4 CALLDATACOPY POP SWAP2 SWAP3 SWAP2 POP POP JUMP JUMPDEST PUSH1 0x40 MLOAD DUP1 PUSH1 0x60 ADD PUSH1 0x40 MSTORE DUP1 PUSH1 0x3 SWAP1 PUSH1 0x20 DUP3 MUL DUP1 CALLDATASIZE DUP4 CALLDATACOPY POP SWAP2 SWAP3 SWAP2 POP POP JUMP JUMPDEST PUSH1 0x40 MLOAD DUP1 PUSH1 0xE0 ADD PUSH1 0x40 MSTORE DUP1 PUSH1 0x7 SWAP1 PUSH1 0x20 DUP3 MUL DUP1 CALLDATASIZE DUP4 CALLDATACOPY POP SWAP2 SWAP3 SWAP2 POP POP JUMP JUMPDEST PUSH4 0x4E487B71 PUSH1 0xE0 SHL PUSH0 MSTORE PUSH1 0x41 PUSH1 0x4 MSTORE PUSH1 0x24 PUSH0 REVERT JUMPDEST PUSH1 0x40 MLOAD PUSH2 0x280 DUP2 ADD PUSH1 0x1 PUSH1 0x1 PUSH1 0x40 SHL SUB DUP2 GT DUP3 DUP3 LT OR ISZERO PUSH2 0xFCB JUMPI PUSH2 0xFCB PUSH2 0xF94 JUMP JUMPDEST PUSH1 0x40 MSTORE SWAP1 JUMP JUMPDEST PUSH1 0x40 MLOAD PUSH1 0x1F DUP3 ADD PUSH1 0x1F NOT AND DUP2 ADD PUSH1 0x1 PUSH1 0x1 PUSH1 0x40 SHL SUB DUP2 GT DUP3 DUP3 LT OR ISZERO PUSH2 0xFF9 JUMPI PUSH2 0xFF9 PUSH2 0xF94 JUMP JUMPDEST PUSH1 0x40 MSTORE SWAP2 SWAP1 POP JUMP JUMPDEST PUSH0 DUP3 PUSH1 0x1F DUP4 ADD SLT PUSH2 0x1010 JUMPI PUSH0 PUSH0 REVERT JUMPDEST PUSH0 PUSH2 0x100 PUSH2 0x101D DUP2 PUSH2 0xFD1 JUMP JUMPDEST SWAP2 POP DUP4 ADD DUP2 DUP6 DUP3 GT ISZERO PUSH2 0x102E JUMPI PUSH0 PUSH0 REVERT JUMPDEST DUP5 JUMPDEST DUP3 DUP2 LT ISZERO PUSH2 0x1048 JUMPI DUP1 CALLDATALOAD DUP3 MSTORE PUSH1 0x20 SWAP2 DUP3 ADD SWAP2 ADD PUSH2 0x1030 JUMP JUMPDEST POP SWAP2 SWAP6 SWAP5 POP POP POP POP POP JUMP JUMPDEST PUSH0 PUSH1 0x40 DUP3 DUP5 SUB SLT ISZERO PUSH2 0x1063 JUMPI PUSH0 PUSH0 REVERT JUMPDEST PUSH1 0x40 DUP1 MLOAD SWAP1 DUP2 ADD PUSH1 0x1 PUSH1 0x1 PUSH1 0x40 SHL SUB DUP2 GT DUP3 DUP3 LT OR ISZERO PUSH2 0x1085 JUMPI PUSH2 0x1085 PUSH2 0xF94 JUMP JUMPDEST PUSH1 0x40 MSTORE DUP3 CALLDATALOAD DUP2 MSTORE PUSH1 0x20 SWAP3 DUP4 ADD CALLDATALOAD SWAP3 DUP2 ADD SWAP3 SWAP1 SWAP3 MSTORE POP SWAP2 SWAP1 POP JUMP JUMPDEST PUSH0 DUP3 PUSH1 0x1F DUP4 ADD SLT PUSH2 0x10AE JUMPI PUSH0 PUSH0 REVERT JUMPDEST PUSH0 PUSH2 0x10B9 PUSH1 0x60 PUSH2 0xFD1 JUMP JUMPDEST SWAP1 POP DUP1 PUSH1 0xC0 DUP5 ADD DUP6 DUP2 GT ISZERO PUSH2 0x10CC JUMPI PUSH0 PUSH0 REVERT JUMPDEST DUP5 JUMPDEST DUP2 DUP2 LT ISZERO PUSH2 0x1048 JUMPI PUSH2 0x10E0 DUP8 DUP3 PUSH2 0x1053 JUMP JUMPDEST DUP4 MSTORE PUSH1 0x20 SWAP1 SWAP3 ADD SWAP2 PUSH1 0x40 ADD PUSH2 0x10CE JUMP JUMPDEST PUSH0 DUP3 PUSH1 0x1F DUP4 ADD SLT PUSH2 0x10FF JUMPI PUSH0 PUSH0 REVERT JUMPDEST PUSH2 0x380 PUSH2 0x110B DUP2 PUSH2 0xFD1 JUMP JUMPDEST SWAP1 POP DUP1 PUSH2 0x1F80 DUP5 ADD DUP6 DUP2 GT ISZERO PUSH2 0x111F JUMPI PUSH0 PUSH0 REVERT JUMPDEST DUP5 JUMPDEST DUP2 DUP2 LT ISZERO PUSH2 0x1183 JUMPI DUP7 PUSH1 0x1F DUP3 ADD SLT PUSH2 0x1137 JUMPI PUSH0 PUSH0 REVERT JUMPDEST PUSH0 PUSH2 0x120 PUSH2 0x1144 DUP2 PUSH2 0xFD1 JUMP JUMPDEST SWAP2 POP DUP3 ADD DUP2 DUP10 DUP3 GT ISZERO PUSH2 0x1155 JUMPI PUSH0 PUSH0 REVERT JUMPDEST DUP4 JUMPDEST DUP3 DUP2 LT ISZERO PUSH2 0x116F JUMPI DUP1 CALLDATALOAD DUP3 MSTORE PUSH1 0x20 SWAP2 DUP3 ADD SWAP2 ADD PUSH2 0x1157 JUMP JUMPDEST POP POP POP DUP5 MSTORE PUSH1 0x20 SWAP1 SWAP4 ADD SWAP3 PUSH2 0x120 ADD PUSH2 0x1121 JUMP JUMPDEST POP SWAP1 SWAP6 SWAP5 POP POP POP POP POP JUMP JUMPDEST PUSH0 DUP3 PUSH1 0x1F DUP4 ADD SLT PUSH2 0x119D JUMPI PUSH0 PUSH0 REVERT JUMPDEST PUSH0 PUSH2 0x540 PUSH2 0x101D DUP2 PUSH2 0xFD1 JUMP JUMPDEST PUSH0 DUP3 PUSH1 0x1F DUP4 ADD SLT PUSH2 0x11B9 JUMPI PUSH0 PUSH0 REVERT JUMPDEST PUSH0 PUSH2 0x360 PUSH2 0x11C6 DUP2 PUSH2 0xFD1 JUMP JUMPDEST SWAP2 POP POP DUP1 PUSH2 0x6C0 DUP5 ADD DUP6 DUP2 GT ISZERO PUSH2 0x11DB JUMPI PUSH0 PUSH0 REVERT JUMPDEST DUP5 JUMPDEST DUP2 DUP2 LT ISZERO PUSH2 0x1048 JUMPI PUSH2 0x11EF DUP8 DUP3 PUSH2 0x1053 JUMP JUMPDEST DUP4 MSTORE PUSH1 0x20 SWAP1 SWAP3 ADD SWAP2 PUSH1 0x40 ADD PUSH2 0x11DD JUMP JUMPDEST PUSH0 DUP3 PUSH1 0x1F DUP4 ADD SLT PUSH2 0x120E JUMPI PUSH0 PUSH0 REVERT JUMPDEST PUSH0 PUSH2 0x380 PUSH2 0x101D DUP2 PUSH2 0xFD1 JUMP JUMPDEST PUSH0 DUP3 PUSH1 0x1F DUP4 ADD SLT PUSH2 0x122A JUMPI PUSH0 PUSH0 REVERT JUMPDEST PUSH0 PUSH2 0x1235 PUSH1 0x80 PUSH2 0xFD1 JUMP JUMPDEST SWAP1 POP DUP1 PUSH1 0x80 DUP5 ADD DUP6 DUP2 GT ISZERO PUSH2 0x1248 JUMPI PUSH0 PUSH0 REVERT JUMPDEST DUP5 JUMPDEST DUP2 DUP2 LT ISZERO PUSH2 0x1048 JUMPI DUP1 CALLDATALOAD DUP4 MSTORE PUSH1 0x20 SWAP3 DUP4 ADD SWAP3 ADD PUSH2 0x124A JUMP JUMPDEST PUSH0 PUSH0 DUP4 PUSH1 0x1F DUP5 ADD SLT PUSH2 0x1272 JUMPI PUSH0 PUSH0 REVERT JUMPDEST POP DUP2 CALLDATALOAD PUSH1 0x1 PUSH1 0x1 PUSH1 0x40 SHL SUB DUP2 GT ISZERO PUSH2 0x1288 JUMPI PUSH0 PUSH0 REVERT JUMPDEST PUSH1 0x20 DUP4 ADD SWAP2 POP DUP4 PUSH1 0x20 DUP3 PUSH1 0x5 SHL DUP6 ADD ADD GT ISZERO PUSH2 0x12A2 JUMPI PUSH0 PUSH0 REVERT JUMPDEST SWAP3 POP SWAP3 SWAP1 POP JUMP JUMPDEST PUSH0 PUSH0 PUSH0 PUSH0 PUSH0 PUSH0 DUP7 DUP9 SUB PUSH2 0x34C0 DUP2 SLT ISZERO PUSH2 0x12C0 JUMPI PUSH0 PUSH0 REVERT JUMPDEST PUSH2 0x3440 DUP2 SLT ISZERO PUSH2 0x12CE JUMPI PUSH0 PUSH0 REVERT JUMPDEST POP PUSH2 0x12D7 PUSH2 0xFA8 JUMP JUMPDEST PUSH2 0x12E1 DUP10 DUP10 PUSH2 0x1001 JUMP JUMPDEST DUP2 MSTORE PUSH2 0x12F1 DUP10 PUSH2 0x100 DUP11 ADD PUSH2 0x1053 JUMP JUMPDEST PUSH1 0x20 DUP3 ADD MSTORE PUSH2 0x1304 DUP10 PUSH2 0x140 DUP11 ADD PUSH2 0x1053 JUMP JUMPDEST PUSH1 0x40 DUP3 ADD MSTORE PUSH2 0x1317 DUP10 PUSH2 0x180 DUP11 ADD PUSH2 0x1053 JUMP JUMPDEST PUSH1 0x60 DUP3 ADD MSTORE PUSH2 0x132A DUP10 PUSH2 0x1C0 DUP11 ADD PUSH2 0x1053 JUMP JUMPDEST PUSH1 0x80 DUP3 ADD MSTORE PUSH2 0x133D DUP10 PUSH2 0x200 DUP11 ADD PUSH2 0x1053 JUMP JUMPDEST PUSH1 0xA0 DUP3 ADD MSTORE PUSH2 0x1350 DUP10 PUSH2 0x240 DUP11 ADD PUSH2 0x1053 JUMP JUMPDEST PUSH1 0xC0 DUP3 ADD MSTORE PUSH2 0x1363 DUP10 PUSH2 0x280 DUP11 ADD PUSH2 0x1053 JUMP JUMPDEST PUSH1 0xE0 DUP3 ADD MSTORE PUSH2 0x1376 DUP10 PUSH2 0x2C0 DUP11 ADD PUSH2 0x1053 JUMP JUMPDEST PUSH2 0x100 DUP3 ADD MSTORE PUSH2 0x138A DUP10 PUSH2 0x300 DUP11 ADD PUSH2 0x1053 JUMP JUMPDEST PUSH2 0x120 DUP3 ADD MSTORE PUSH2 0x139E DUP10 PUSH2 0x340 DUP11 ADD PUSH2 0x109F JUMP JUMPDEST PUSH2 0x140 DUP3 ADD MSTORE PUSH2 0x400 DUP9 ADD CALLDATALOAD PUSH2 0x160 DUP3 ADD MSTORE PUSH2 0x13BE DUP10 PUSH2 0x420 DUP11 ADD PUSH2 0x10F0 JUMP JUMPDEST PUSH2 0x180 DUP3 ADD MSTORE PUSH2 0x23A0 DUP9 ADD CALLDATALOAD PUSH2 0x1A0 DUP3 ADD MSTORE PUSH2 0x13DE DUP10 PUSH2 0x23C0 DUP11 ADD PUSH2 0x118E JUMP JUMPDEST PUSH2 0x1C0 DUP3 ADD MSTORE PUSH2 0x13F2 DUP10 PUSH2 0x2900 DUP11 ADD PUSH2 0x11AA JUMP JUMPDEST PUSH2 0x1E0 DUP3 ADD MSTORE PUSH2 0x1406 DUP10 PUSH2 0x2FC0 DUP11 ADD PUSH2 0x11FF JUMP JUMPDEST PUSH2 0x200 DUP3 ADD MSTORE PUSH2 0x141A DUP10 PUSH2 0x3340 DUP11 ADD PUSH2 0x121B JUMP JUMPDEST PUSH2 0x220 DUP3 ADD MSTORE PUSH2 0x142E DUP10 PUSH2 0x33C0 DUP11 ADD PUSH2 0x1053 JUMP JUMPDEST PUSH2 0x240 DUP3 ADD MSTORE PUSH2 0x1442 DUP10 PUSH2 0x3400 DUP11 ADD PUSH2 0x1053 JUMP JUMPDEST PUSH2 0x260 DUP3 ADD MSTORE SWAP6 POP PUSH2 0x3440 DUP8 ADD CALLDATALOAD PUSH1 0x1 PUSH1 0x1 PUSH1 0x40 SHL SUB DUP2 GT ISZERO PUSH2 0x1463 JUMPI PUSH0 PUSH0 REVERT JUMPDEST PUSH2 0x146F DUP10 DUP3 DUP11 ADD PUSH2 0x1262 JUMP JUMPDEST SWAP8 SWAP11 SWAP1 SWAP10 POP SWAP7 SWAP8 PUSH2 0x3460 DUP2 ADD CALLDATALOAD SWAP8 PUSH2 0x3480 DUP3 ADD CALLDATALOAD SWAP8 POP PUSH2 0x34A0 SWAP1 SWAP2 ADD CALLDATALOAD SWAP6 POP SWAP4 POP POP POP POP JUMP JUMPDEST DUP1 PUSH0 JUMPDEST PUSH1 0x1B DUP2 LT ISZERO PUSH2 0x14B7 JUMPI DUP2 MLOAD DUP5 MSTORE PUSH1 0x20 SWAP4 DUP5 ADD SWAP4 SWAP1 SWAP2 ADD SWAP1 PUSH1 0x1 ADD PUSH2 0x1498 JUMP JUMPDEST POP POP POP POP JUMP JUMPDEST DUP1 PUSH0 JUMPDEST PUSH1 0x1C DUP2 LT ISZERO PUSH2 0x14B7 JUMPI DUP2 MLOAD DUP5 MSTORE PUSH1 0x20 SWAP4 DUP5 ADD SWAP4 SWAP1 SWAP2 ADD SWAP1 PUSH1 0x1 ADD PUSH2 0x14C0 JUMP JUMPDEST DUP2 MLOAD DUP1 MLOAD DUP3 MSTORE PUSH1 0x20 DUP1 DUP3 ADD MLOAD SWAP1 DUP4 ADD MSTORE PUSH1 0x40 DUP1 DUP3 ADD MLOAD SWAP1 DUP4 ADD MSTORE PUSH1 0x60 SWAP1 DUP2 ADD MLOAD SWAP1 DUP3 ADD MSTORE PUSH2 0xBA0 DUP2 ADD PUSH1 0x20 DUP4 ADD MLOAD PUSH2 0x151A PUSH1 0x80 DUP5 ADD DUP3 PUSH2 0x1495 JUMP JUMPDEST POP PUSH1 0x40 DUP4 ADD MLOAD PUSH2 0x152E PUSH2 0x3E0 DUP5 ADD DUP3 PUSH2 0x14BD JUMP JUMPDEST POP PUSH1 0x60 DUP4 ADD MLOAD PUSH2 0x760 DUP4 ADD MSTORE PUSH1 0x80 DUP4 ADD MLOAD PUSH2 0x154D PUSH2 0x780 DUP5 ADD DUP3 PUSH2 0x14BD JUMP JUMPDEST POP PUSH1 0xA0 DUP4 ADD MLOAD PUSH2 0xB00 DUP4 ADD MSTORE PUSH1 0xC0 DUP4 ADD MLOAD PUSH2 0xB20 DUP4 ADD MSTORE PUSH1 0xE0 DUP4 ADD MLOAD PUSH2 0xB40 DUP4 ADD MSTORE PUSH2 0x100 DUP4 ADD MLOAD PUSH2 0xB60 DUP4 ADD MSTORE PUSH2 0x120 SWAP1 SWAP3 ADD MLOAD PUSH2 0xB80 SWAP1 SWAP2 ADD MSTORE SWAP1 JUMP JUMPDEST PUSH4 0x4E487B71 PUSH1 0xE0 SHL PUSH0 MSTORE PUSH1 0x32 PUSH1 0x4 MSTORE PUSH1 0x24 PUSH0 REVERT JUMPDEST PUSH0 DUP2 DUP4 DUP3 JUMPDEST PUSH1 0x5 DUP2 LT ISZERO PUSH2 0x15C4 JUMPI DUP2 MLOAD DUP4 MSTORE PUSH1 0x20 SWAP3 DUP4 ADD SWAP3 SWAP1 SWAP2 ADD SWAP1 PUSH1 0x1 ADD PUSH2 0x15A5 JUMP JUMPDEST POP POP POP PUSH1 0xA0 DUP3 ADD SWAP1 POP SWAP3 SWAP2 POP POP JUMP JUMPDEST PUSH0 DUP3 PUSH2 0x15ED JUMPI PUSH4 0x4E487B71 PUSH1 0xE0 SHL PUSH0 MSTORE PUSH1 0x12 PUSH1 0x4 MSTORE PUSH1 0x24 PUSH0 REVERT JUMPDEST POP MOD SWAP1 JUMP JUMPDEST PUSH4 0x4E487B71 PUSH1 0xE0 SHL PUSH0 MSTORE PUSH1 0x11 PUSH1 0x4 MSTORE PUSH1 0x24 PUSH0 REVERT JUMPDEST DUP2 DUP2 SUB DUP2 DUP2 GT ISZERO PUSH2 0xE11 JUMPI PUSH2 0xE11 PUSH2 0x15F2 JUMP JUMPDEST PUSH0 DUP2 DUP4 DUP3 JUMPDEST PUSH1 0x4 DUP2 LT ISZERO PUSH2 0x163D JUMPI DUP2 MLOAD DUP4 MSTORE PUSH1 0x20 SWAP3 DUP4 ADD SWAP3 SWAP1 SWAP2 ADD SWAP1 PUSH1 0x1 ADD PUSH2 0x161E JUMP JUMPDEST POP POP POP PUSH1 0x80 DUP3 ADD SWAP1 POP SWAP3 SWAP2 POP POP JUMP JUMPDEST DUP1 DUP3 ADD DUP1 DUP3 GT ISZERO PUSH2 0xE11 JUMPI PUSH2 0xE11 PUSH2 0x15F2 JUMP JUMPDEST PUSH0 DUP2 DUP4 DUP3 JUMPDEST PUSH1 0xA DUP2 LT ISZERO PUSH2 0x1683 JUMPI DUP2 MLOAD DUP4 MSTORE PUSH1 0x20 SWAP3 DUP4 ADD SWAP3 SWAP1 SWAP2 ADD SWAP1 PUSH1 0x1 ADD PUSH2 0x1664 JUMP JUMPDEST POP POP POP PUSH2 0x140 DUP3 ADD SWAP1 POP SWAP3 SWAP2 POP POP JUMP JUMPDEST PUSH0 PUSH1 0x1 DUP3 ADD PUSH2 0x16A4 JUMPI PUSH2 0x16A4 PUSH2 0x15F2 JUMP JUMPDEST POP PUSH1 0x1 ADD SWAP1 JUMP JUMPDEST PUSH0 DUP2 DUP4 DUP3 JUMPDEST PUSH1 0x30 DUP2 LT ISZERO PUSH2 0x16CF JUMPI DUP2 MLOAD DUP4 MSTORE PUSH1 0x20 SWAP3 DUP4 ADD SWAP3 SWAP1 SWAP2 ADD SWAP1 PUSH1 0x1 ADD PUSH2 0x16B0 JUMP JUMPDEST POP POP POP PUSH2 0x600 DUP3 ADD SWAP1 POP SWAP3 SWAP2 POP POP JUMP JUMPDEST DUP1 DUP3 MUL DUP2 ISZERO DUP3 DUP3 DIV DUP5 EQ OR PUSH2 0xE11 JUMPI PUSH2 0xE11 PUSH2 0x15F2 JUMP JUMPDEST DUP2 MLOAD PUSH0 SWAP1 DUP3 SWAP1 PUSH1 0x20 DUP6 ADD DUP4 JUMPDEST DUP3 DUP2 LT ISZERO PUSH2 0x1048 JUMPI DUP2 MLOAD DUP5 MSTORE PUSH1 0x20 SWAP4 DUP5 ADD SWAP4 SWAP1 SWAP2 ADD SWAP1 PUSH1 0x1 ADD PUSH2 0x1702 JUMP JUMPDEST PUSH0 DUP2 DUP4 DUP3 JUMPDEST PUSH1 0x3 DUP2 LT ISZERO PUSH2 0x1744 JUMPI DUP2 MLOAD DUP4 MSTORE PUSH1 0x20 SWAP3 DUP4 ADD SWAP3 SWAP1 SWAP2 ADD SWAP1 PUSH1 0x1 ADD PUSH2 0x1725 JUMP JUMPDEST POP POP POP PUSH1 0x60 DUP3 ADD SWAP1 POP SWAP3 SWAP2 POP POP JUMP JUMPDEST PUSH0 DUP2 DUP4 DUP3 JUMPDEST PUSH1 0x7 DUP2 LT ISZERO PUSH2 0x1777 JUMPI DUP2 MLOAD DUP4 MSTORE PUSH1 0x20 SWAP3 DUP4 ADD SWAP3 SWAP1 SWAP2 ADD SWAP1 PUSH1 0x1 ADD PUSH2 0x1758 JUMP JUMPDEST POP POP POP PUSH1 0xE0 DUP3 ADD SWAP1 POP SWAP3 SWAP2 POP POP JUMP INVALID ADDRESS PUSH5 0x4E72E131A0 0x29 0xB8 POP GASLIMIT 0xB6 DUP2 DUP2 PC TSTORE 0x28 CALLER 0xE8 BASEFEE PUSH26 0xB9709143E1F593F0000001A164736F6C634300081C000A000000 "},"methodIdentifiers":{"generateTranscript(Honk.ZKProof,bytes32[],uint256,uint256,uint256)":"995bf457"}}}}}