{"src/ElectionManager.sol":{"ElectionManager":{"abi":[{"inputs":[{"internalType":"bytes32","name":"_merkleRoot","type":"bytes32"},{"internalType":"uint8","name":"_numCandidates","type":"uint8"},{"internalType":"uint256","name":"_startTime","type":"uint256"},{"internalType":"uint256","name":"_endTime","type":"uint256"},{"internalType":"address","name":"_verifier","type":"address"},{"internalType":"bytes32","name":"_electionId","type":"bytes32"}],"stateMutability":"nonpayable","type":"constructor"},{"anonymous":false,"inputs":[{"indexed":true,"internalType":"bytes32","name":"nullifier","type":"bytes32"},{"indexed":true,"internalType":"uint8","name":"choice","type":"uint8"}],"name":"VoteCast","type":"event"},{"inputs":[{"internalType":"bytes","name":"proof","type":"bytes"},{"internalType":"bytes32[]","name":"publicInputs","type":"bytes32[]"}],"name":"castVote","outputs":[],"stateMutability":"nonpayable","type":"function"},{"inputs":[],"name":"electionId","outputs":[{"internalType":"bytes32","name":"","type":"bytes32"}],"stateMutability":"view","type":"function"},{"inputs":[],"name":"endTime","outputs":[{"internalType":"uint256","name":"","type":"uint256"}],"stateMutability":"view","type":"function"},{"inputs":[],"name":"getElectionInfo","outputs":[{"internalType":"bytes32","name":"root","type":"bytes32"},{"internalType":"uint8","name":"candidates","type":"uint8"},{"internalType":"uint256","name":"start","type":"uint256"},{"internalType":"uint256","name":"end","type":"uint256"},{"internalType":"bytes32","name":"id","type":"bytes32"}],"stateMutability":"view","type":"function"},{"inputs":[],"name":"getResults","outputs":[{"internalType":"uint256[4]","name":"","type":"uint256[4]"}],"stateMutability":"view","type":"function"},{"inputs":[],"name":"merkleRoot","outputs":[{"internalType":"bytes32","name":"","type":"bytes32"}],"stateMutability":"view","type":"function"},{"inputs":[],"name":"numCandidates","outputs":[{"internalType":"uint8","name":"","type":"uint8"}],"stateMutability":"view","type":"function"},{"inputs":[],"name":"startTime","outputs":[{"internalType":"uint256","name":"","type":"uint256"}],"stateMutability":"view","type":"function"},{"inputs":[{"internalType":"bytes32","name":"","type":"bytes32"}],"name":"usedNullifiers","outputs":[{"internalType":"bool","name":"","type":"bool"}],"stateMutability":"view","type":"function"},{"inputs":[],"name":"verifier","outputs":[{"internalType":"contract IVerifier","name":"","type":"address"}],"stateMutability":"view","type":"function"}],"evm":{"bytecode":{"linkReferences":{},"object":"610140604052348015610010575f5ffd5b50604051610d34380380610d3483398101604081905261002f91610114565b60018560ff1610158015610047575060048560ff1611155b6100985760405162461bcd60e51b815260206004820152601760248201527f696e76616c69642063616e64696461746520636f756e7400000000000000000060448201526064015b60405180910390fd5b8383116100e75760405162461bcd60e51b815260206004820152601760248201527f656e64206d757374206265206166746572207374617274000000000000000000604482015260640161008f565b60a09590955260ff90931660c05260e091909152610100526001600160a01b031660805261012052610184565b5f5f5f5f5f5f60c08789031215610129575f5ffd5b8651602088015190965060ff81168114610141575f5ffd5b6040880151606089015160808a015192975090955093506001600160a01b038116811461016c575f5ffd5b60a09790970151959894975092959194919391925050565b60805160a05160c05160e0516101005161012051610b1661021e5f395f818160950152818161029e015261051601525f818161016701528181610278015261038801525f81816101dc01528181610250015261031c01525f81816101a30152818161022901528181610585015261062e01525f818161014001528181610204015261043301525f818161010101526106ae0152610b165ff3fe608060405234801561000f575f5ffd5b506004361061008c575f3560e01c8063051364d414610090578063206137aa146100ca5780632b7ac3f3146100fc5780632eb4a7ab1461013b5780633197cbb6146101625780634717f97c146101895780635216509a1461019e57806378e97925146101d757806386852dca146101fe578063ac9dc270146102ca575b5f5ffd5b6100b77f000000000000000000000000000000000000000000000000000000000000000081565b6040519081526020015b60405180910390f35b6100ec6100d836600461091d565b5f6020819052908152604090205460ff1681565b60405190151581526020016100c1565b6101237f000000000000000000000000000000000000000000000000000000000000000081565b6040516001600160a01b0390911681526020016100c1565b6100b77f000000000000000000000000000000000000000000000000000000000000000081565b6100b77f000000000000000000000000000000000000000000000000000000000000000081565b6101916102df565b6040516100c19190610934565b6101c57f000000000000000000000000000000000000000000000000000000000000000081565b60405160ff90911681526020016100c1565b6100b77f000000000000000000000000000000000000000000000000000000000000000081565b604080517f0000000000000000000000000000000000000000000000000000000000000000815260ff7f00000000000000000000000000000000000000000000000000000000000000001660208201527f0000000000000000000000000000000000000000000000000000000000000000918101919091527f000000000000000000000000000000000000000000000000000000000000000060608201527f0000000000000000000000000000000000000000000000000000000000000000608082015260a0016100c1565b6102dd6102d8366004610964565b61031a565b005b6102e76108ff565b6040805160808101918290529060019060049082845b8154815260200190600101908083116102fd575050505050905090565b7f00000000000000000000000000000000000000000000000000000000000000004210156103865760405162461bcd60e51b8152602060048201526014602482015273115b1958dd1a5bdb881b9bdd081cdd185c9d195960621b60448201526064015b60405180910390fd5b7f000000000000000000000000000000000000000000000000000000000000000042106103e65760405162461bcd60e51b815260206004820152600e60248201526d115b1958dd1a5bdb88195b99195960921b604482015260640161037d565b604381146104315760405162461bcd60e51b81526020600482015260186024820152771ddc9bdb99c81c1d589b1a58c81a5b9c1d5d0818dbdd5b9d60421b604482015260640161037d565b7f000000000000000000000000000000000000000000000000000000000000000082825f81811061046457610464610a28565b90506020020135146104af5760405162461bcd60e51b81526020600482015260146024820152730dacae4d6d8ca40e4dedee840dad2e6dac2e8c6d60631b604482015260640161037d565b5f6104ba83836107df565b5f8181526020819052604090205490915060ff16156105145760405162461bcd60e51b81526020600482015260166024820152751b9d5b1b1a599a595c88185b1c9958591e481d5cd95960521b604482015260640161037d565b7f000000000000000000000000000000000000000000000000000000000000000061053f8484610879565b146105835760405162461bcd60e51b81526020600482015260146024820152730cad8cac6e8d2dedc40d2c840dad2e6dac2e8c6d60631b604482015260640161037d565b7f000000000000000000000000000000000000000000000000000000000000000060ff16838360428181106105ba576105ba610a28565b905060200201355f1c60ff161461060d5760405162461bcd60e51b81526020600482015260176024820152760dceadabec6c2dcc8d2c8c2e8cae640dad2e6dac2e8c6d604b1b604482015260640161037d565b5f8383602181811061062157610621610a28565b905060200201355f1c90507f000000000000000000000000000000000000000000000000000000000000000060ff168160ff16106106975760405162461bcd60e51b815260206004820152601360248201527263686f696365206f7574206f662072616e676560681b604482015260640161037d565b604051633a94343960e21b81526001600160a01b037f0000000000000000000000000000000000000000000000000000000000000000169063ea50d0e4906106e9908990899089908990600401610a3c565b602060405180830381865afa158015610704573d5f5f3e3d5ffd5b505050506040513d601f19601f820116820180604052508101906107289190610a9e565b6107645760405162461bcd60e51b815260206004820152600d60248201526c34b73b30b634b210383937b7b360991b604482015260640161037d565b5f828152602081905260409020805460ff191660019081179091558060ff83166004811061079457610794610a28565b015f8282546107a39190610ac4565b909155505060405160ff82169083907fbcdab89a6d8014daadd409f8ebd44d9b18593d97f9b0ae90ca165a3fb8fad6ba905f90a3505050505050565b6040805160208082528183019092525f918291906020820181803683370190505090505f5b602081101561086557848461081a836001610ac4565b81811061082957610829610a28565b905060200201355f1c60f81b82828151811061084757610847610a28565b60200101906001600160f81b03191690815f1a905350600101610804565b5061086f81610ae3565b9150505b92915050565b6040805160208082528183019092525f918291906020820181803683370190505090505f5b60208110156108655784846108b4836022610ac4565b8181106108c3576108c3610a28565b905060200201355f1c60f81b8282815181106108e1576108e1610a28565b60200101906001600160f81b03191690815f1a90535060010161089e565b60405180608001604052806004906020820280368337509192915050565b5f6020828403121561092d575f5ffd5b5035919050565b6080810181835f5b600481101561095b57815183526020928301929091019060010161093c565b50505092915050565b5f5f5f5f60408587031215610977575f5ffd5b84356001600160401b0381111561098c575f5ffd5b8501601f8101871361099c575f5ffd5b80356001600160401b038111156109b1575f5ffd5b8760208284010111156109c2575f5ffd5b6020918201955093508501356001600160401b038111156109e1575f5ffd5b8501601f810187136109f1575f5ffd5b80356001600160401b03811115610a06575f5ffd5b8760208260051b8401011115610a1a575f5ffd5b949793965060200194505050565b634e487b7160e01b5f52603260045260245ffd5b60408152836040820152838560608301375f60608583018101829052601f19601f8701168301838103820160208501529081018490526001600160fb1b03841115610a85575f5ffd5b8360051b80866080840137016080019695505050505050565b5f60208284031215610aae575f5ffd5b81518015158114610abd575f5ffd5b9392505050565b8082018082111561087357634e487b7160e01b5f52601160045260245ffd5b80516020808301519190811015610b03575f198160200360031b1b821691505b5091905056fea164736f6c634300081c000a","opcodes":"PUSH2 0x140 PUSH1 0x40 MSTORE CALLVALUE DUP1 ISZERO PUSH2 0x10 JUMPI PUSH0 PUSH0 REVERT JUMPDEST POP PUSH1 0x40 MLOAD PUSH2 0xD34 CODESIZE SUB DUP1 PUSH2 0xD34 DUP4 CODECOPY DUP2 ADD PUSH1 0x40 DUP2 SWAP1 MSTORE PUSH2 0x2F SWAP2 PUSH2 0x114 JUMP JUMPDEST PUSH1 0x1 DUP6 PUSH1 0xFF AND LT ISZERO DUP1 ISZERO PUSH2 0x47 JUMPI POP PUSH1 0x4 DUP6 PUSH1 0xFF AND GT ISZERO JUMPDEST PUSH2 0x98 JUMPI PUSH1 0x40 MLOAD PUSH3 0x461BCD PUSH1 0xE5 SHL DUP2 MSTORE PUSH1 0x20 PUSH1 0x4 DUP3 ADD MSTORE PUSH1 0x17 PUSH1 0x24 DUP3 ADD MSTORE PUSH32 0x696E76616C69642063616E64696461746520636F756E74000000000000000000 PUSH1 0x44 DUP3 ADD MSTORE PUSH1 0x64 ADD JUMPDEST PUSH1 0x40 MLOAD DUP1 SWAP2 SUB SWAP1 REVERT JUMPDEST DUP4 DUP4 GT PUSH2 0xE7 JUMPI PUSH1 0x40 MLOAD PUSH3 0x461BCD PUSH1 0xE5 SHL DUP2 MSTORE PUSH1 0x20 PUSH1 0x4 DUP3 ADD MSTORE PUSH1 0x17 PUSH1 0x24 DUP3 ADD MSTORE PUSH32 0x656E64206D757374206265206166746572207374617274000000000000000000 PUSH1 0x44 DUP3 ADD MSTORE PUSH1 0x64 ADD PUSH2 0x8F JUMP JUMPDEST PUSH1 0xA0 SWAP6 SWAP1 SWAP6 MSTORE PUSH1 0xFF SWAP1 SWAP4 AND PUSH1 0xC0 MSTORE PUSH1 0xE0 SWAP2 SWAP1 SWAP2 MSTORE PUSH2 0x100 MSTORE PUSH1 0x1 PUSH1 0x1 PUSH1 0xA0 SHL SUB AND PUSH1 0x80 MSTORE PUSH2 0x120 MSTORE PUSH2 0x184 JUMP JUMPDEST PUSH0 PUSH0 PUSH0 PUSH0 PUSH0 PUSH0 PUSH1 0xC0 DUP8 DUP10 SUB SLT ISZERO PUSH2 0x129 JUMPI PUSH0 PUSH0 REVERT JUMPDEST DUP7 MLOAD PUSH1 0x20 DUP9 ADD MLOAD SWAP1 SWAP7 POP PUSH1 0xFF DUP2 AND DUP2 EQ PUSH2 0x141 JUMPI PUSH0 PUSH0 REVERT JUMPDEST PUSH1 0x40 DUP9 ADD MLOAD PUSH1 0x60 DUP10 ADD MLOAD PUSH1 0x80 DUP11 ADD MLOAD SWAP3 SWAP8 POP SWAP1 SWAP6 POP SWAP4 POP PUSH1 0x1 PUSH1 0x1 PUSH1 0xA0 SHL SUB DUP2 AND DUP2 EQ PUSH2 0x16C JUMPI PUSH0 PUSH0 REVERT JUMPDEST PUSH1 0xA0 SWAP8 SWAP1 SWAP8 ADD MLOAD SWAP6 SWAP9 SWAP5 SWAP8 POP SWAP3 SWAP6 SWAP2 SWAP5 SWAP2 SWAP4 SWAP2 SWAP3 POP POP JUMP JUMPDEST PUSH1 0x80 MLOAD PUSH1 0xA0 MLOAD PUSH1 0xC0 MLOAD PUSH1 0xE0 MLOAD PUSH2 0x100 MLOAD PUSH2 0x120 MLOAD PUSH2 0xB16 PUSH2 0x21E PUSH0 CODECOPY PUSH0 DUP2 DUP2 PUSH1 0x95 ADD MSTORE DUP2 DUP2 PUSH2 0x29E ADD MSTORE PUSH2 0x516 ADD MSTORE PUSH0 DUP2 DUP2 PUSH2 0x167 ADD MSTORE DUP2 DUP2 PUSH2 0x278 ADD MSTORE PUSH2 0x388 ADD MSTORE PUSH0 DUP2 DUP2 PUSH2 0x1DC ADD MSTORE DUP2 DUP2 PUSH2 0x250 ADD MSTORE PUSH2 0x31C ADD MSTORE PUSH0 DUP2 DUP2 PUSH2 0x1A3 ADD MSTORE DUP2 DUP2 PUSH2 0x229 ADD MSTORE DUP2 DUP2 PUSH2 0x585 ADD MSTORE PUSH2 0x62E ADD MSTORE PUSH0 DUP2 DUP2 PUSH2 0x140 ADD MSTORE DUP2 DUP2 PUSH2 0x204 ADD MSTORE PUSH2 0x433 ADD MSTORE PUSH0 DUP2 DUP2 PUSH2 0x101 ADD MSTORE PUSH2 0x6AE ADD MSTORE PUSH2 0xB16 PUSH0 RETURN INVALID PUSH1 0x80 PUSH1 0x40 MSTORE CALLVALUE DUP1 ISZERO PUSH2 0xF JUMPI PUSH0 PUSH0 REVERT JUMPDEST POP PUSH1 0x4 CALLDATASIZE LT PUSH2 0x8C JUMPI PUSH0 CALLDATALOAD PUSH1 0xE0 SHR DUP1 PUSH4 0x51364D4 EQ PUSH2 0x90 JUMPI DUP1 PUSH4 0x206137AA EQ PUSH2 0xCA JUMPI DUP1 PUSH4 0x2B7AC3F3 EQ PUSH2 0xFC JUMPI DUP1 PUSH4 0x2EB4A7AB EQ PUSH2 0x13B JUMPI DUP1 PUSH4 0x3197CBB6 EQ PUSH2 0x162 JUMPI DUP1 PUSH4 0x4717F97C EQ PUSH2 0x189 JUMPI DUP1 PUSH4 0x5216509A EQ PUSH2 0x19E JUMPI DUP1 PUSH4 0x78E97925 EQ PUSH2 0x1D7 JUMPI DUP1 PUSH4 0x86852DCA EQ PUSH2 0x1FE JUMPI DUP1 PUSH4 0xAC9DC270 EQ PUSH2 0x2CA JUMPI JUMPDEST PUSH0 PUSH0 REVERT JUMPDEST PUSH2 0xB7 PUSH32 0x0 DUP2 JUMP JUMPDEST PUSH1 0x40 MLOAD SWAP1 DUP2 MSTORE PUSH1 0x20 ADD JUMPDEST PUSH1 0x40 MLOAD DUP1 SWAP2 SUB SWAP1 RETURN JUMPDEST PUSH2 0xEC PUSH2 0xD8 CALLDATASIZE PUSH1 0x4 PUSH2 0x91D JUMP JUMPDEST PUSH0 PUSH1 0x20 DUP2 SWAP1 MSTORE SWAP1 DUP2 MSTORE PUSH1 0x40 SWAP1 KECCAK256 SLOAD PUSH1 0xFF AND DUP2 JUMP JUMPDEST PUSH1 0x40 MLOAD SWAP1 ISZERO ISZERO DUP2 MSTORE PUSH1 0x20 ADD PUSH2 0xC1 JUMP JUMPDEST PUSH2 0x123 PUSH32 0x0 DUP2 JUMP JUMPDEST PUSH1 0x40 MLOAD PUSH1 0x1 PUSH1 0x1 PUSH1 0xA0 SHL SUB SWAP1 SWAP2 AND DUP2 MSTORE PUSH1 0x20 ADD PUSH2 0xC1 JUMP JUMPDEST PUSH2 0xB7 PUSH32 0x0 DUP2 JUMP JUMPDEST PUSH2 0xB7 PUSH32 0x0 DUP2 JUMP JUMPDEST PUSH2 0x191 PUSH2 0x2DF JUMP JUMPDEST PUSH1 0x40 MLOAD PUSH2 0xC1 SWAP2 SWAP1 PUSH2 0x934 JUMP JUMPDEST PUSH2 0x1C5 PUSH32 0x0 DUP2 JUMP JUMPDEST PUSH1 0x40 MLOAD PUSH1 0xFF SWAP1 SWAP2 AND DUP2 MSTORE PUSH1 0x20 ADD PUSH2 0xC1 JUMP JUMPDEST PUSH2 0xB7 PUSH32 0x0 DUP2 JUMP JUMPDEST PUSH1 0x40 DUP1 MLOAD PUSH32 0x0 DUP2 MSTORE PUSH1 0xFF PUSH32 0x0 AND PUSH1 0x20 DUP3 ADD MSTORE PUSH32 0x0 SWAP2 DUP2 ADD SWAP2 SWAP1 SWAP2 MSTORE PUSH32 0x0 PUSH1 0x60 DUP3 ADD MSTORE PUSH32 0x0 PUSH1 0x80 DUP3 ADD MSTORE PUSH1 0xA0 ADD PUSH2 0xC1 JUMP JUMPDEST PUSH2 0x2DD PUSH2 0x2D8 CALLDATASIZE PUSH1 0x4 PUSH2 0x964 JUMP JUMPDEST PUSH2 0x31A JUMP JUMPDEST STOP JUMPDEST PUSH2 0x2E7 PUSH2 0x8FF JUMP JUMPDEST PUSH1 0x40 DUP1 MLOAD PUSH1 0x80 DUP2 ADD SWAP2 DUP3 SWAP1 MSTORE SWAP1 PUSH1 0x1 SWAP1 PUSH1 0x4 SWAP1 DUP3 DUP5 JUMPDEST DUP2 SLOAD DUP2 MSTORE PUSH1 0x20 ADD SWAP1 PUSH1 0x1 ADD SWAP1 DUP1 DUP4 GT PUSH2 0x2FD JUMPI POP POP POP POP POP SWAP1 POP SWAP1 JUMP JUMPDEST PUSH32 0x0 TIMESTAMP LT ISZERO PUSH2 0x386 JUMPI PUSH1 0x40 MLOAD PUSH3 0x461BCD PUSH1 0xE5 SHL DUP2 MSTORE PUSH1 0x20 PUSH1 0x4 DUP3 ADD MSTORE PUSH1 0x14 PUSH1 0x24 DUP3 ADD MSTORE PUSH20 0x115B1958DD1A5BDB881B9BDD081CDD185C9D1959 PUSH1 0x62 SHL PUSH1 0x44 DUP3 ADD MSTORE PUSH1 0x64 ADD JUMPDEST PUSH1 0x40 MLOAD DUP1 SWAP2 SUB SWAP1 REVERT JUMPDEST PUSH32 0x0 TIMESTAMP LT PUSH2 0x3E6 JUMPI PUSH1 0x40 MLOAD PUSH3 0x461BCD PUSH1 0xE5 SHL DUP2 MSTORE PUSH1 0x20 PUSH1 0x4 DUP3 ADD MSTORE PUSH1 0xE PUSH1 0x24 DUP3 ADD MSTORE PUSH14 0x115B1958DD1A5BDB88195B991959 PUSH1 0x92 SHL PUSH1 0x44 DUP3 ADD MSTORE PUSH1 0x64 ADD PUSH2 0x37D JUMP JUMPDEST PUSH1 0x43 DUP2 EQ PUSH2 0x431 JUMPI PUSH1 0x40 MLOAD PUSH3 0x461BCD PUSH1 0xE5 SHL DUP2 MSTORE PUSH1 0x20 PUSH1 0x4 DUP3 ADD MSTORE PUSH1 0x18 PUSH1 0x24 DUP3 ADD MSTORE PUSH24 0x1DDC9BDB99C81C1D589B1A58C81A5B9C1D5D0818DBDD5B9D PUSH1 0x42 SHL PUSH1 0x44 DUP3 ADD MSTORE PUSH1 0x64 ADD PUSH2 0x37D JUMP JUMPDEST PUSH32 0x0 DUP3 DUP3 PUSH0 DUP2 DUP2 LT PUSH2 0x464 JUMPI PUSH2 0x464 PUSH2 0xA28 JUMP JUMPDEST SWAP1 POP PUSH1 0x20 MUL ADD CALLDATALOAD EQ PUSH2 0x4AF JUMPI PUSH1 0x40 MLOAD PUSH3 0x461BCD PUSH1 0xE5 SHL DUP2 MSTORE PUSH1 0x20 PUSH1 0x4 DUP3 ADD MSTORE PUSH1 0x14 PUSH1 0x24 DUP3 ADD MSTORE PUSH20 0xDACAE4D6D8CA40E4DEDEE840DAD2E6DAC2E8C6D PUSH1 0x63 SHL PUSH1 0x44 DUP3 ADD MSTORE PUSH1 0x64 ADD PUSH2 0x37D JUMP JUMPDEST PUSH0 PUSH2 0x4BA DUP4 DUP4 PUSH2 0x7DF JUMP JUMPDEST PUSH0 DUP2 DUP2 MSTORE PUSH1 0x20 DUP2 SWAP1 MSTORE PUSH1 0x40 SWAP1 KECCAK256 SLOAD SWAP1 SWAP2 POP PUSH1 0xFF AND ISZERO PUSH2 0x514 JUMPI PUSH1 0x40 MLOAD PUSH3 0x461BCD PUSH1 0xE5 SHL DUP2 MSTORE PUSH1 0x20 PUSH1 0x4 DUP3 ADD MSTORE PUSH1 0x16 PUSH1 0x24 DUP3 ADD MSTORE PUSH22 0x1B9D5B1B1A599A595C88185B1C9958591E481D5CD959 PUSH1 0x52 SHL PUSH1 0x44 DUP3 ADD MSTORE PUSH1 0x64 ADD PUSH2 0x37D JUMP JUMPDEST PUSH32 0x0 PUSH2 0x53F DUP5 DUP5 PUSH2 0x879 JUMP JUMPDEST EQ PUSH2 0x583 JUMPI PUSH1 0x40 MLOAD PUSH3 0x461BCD PUSH1 0xE5 SHL DUP2 MSTORE PUSH1 0x20 PUSH1 0x4 DUP3 ADD MSTORE PUSH1 0x14 PUSH1 0x24 DUP3 ADD MSTORE PUSH20 0xCAD8CAC6E8D2DEDC40D2C840DAD2E6DAC2E8C6D PUSH1 0x63 SHL PUSH1 0x44 DUP3 ADD MSTORE PUSH1 0x64 ADD PUSH2 0x37D JUMP JUMPDEST PUSH32 0x0 PUSH1 0xFF AND DUP4 DUP4 PUSH1 0x42 DUP2 DUP2 LT PUSH2 0x5BA JUMPI PUSH2 0x5BA PUSH2 0xA28 JUMP JUMPDEST SWAP1 POP PUSH1 0x20 MUL ADD CALLDATALOAD PUSH0 SHR PUSH1 0xFF AND EQ PUSH2 0x60D JUMPI PUSH1 0x40 MLOAD PUSH3 0x461BCD PUSH1 0xE5 SHL DUP2 MSTORE PUSH1 0x20 PUSH1 0x4 DUP3 ADD MSTORE PUSH1 0x17 PUSH1 0x24 DUP3 ADD MSTORE PUSH23 0xDCEADABEC6C2DCC8D2C8C2E8CAE640DAD2E6DAC2E8C6D PUSH1 0x4B SHL PUSH1 0x44 DUP3 ADD MSTORE PUSH1 0x64 ADD PUSH2 0x37D JUMP JUMPDEST PUSH0 DUP4 DUP4 PUSH1 0x21 DUP2 DUP2 LT PUSH2 0x621 JUMPI PUSH2 0x621 PUSH2 0xA28 JUMP JUMPDEST SWAP1 POP PUSH1 0x20 MUL ADD CALLDATALOAD PUSH0 SHR SWAP1 POP PUSH32 0x0 PUSH1 0xFF AND DUP2 PUSH1 0xFF AND LT PUSH2 0x697 JUMPI PUSH1 0x40 MLOAD PUSH3 0x461BCD PUSH1 0xE5 SHL DUP2 MSTORE PUSH1 0x20 PUSH1 0x4 DUP3 ADD MSTORE PUSH1 0x13 PUSH1 0x24 DUP3 ADD MSTORE PUSH19 0x63686F696365206F7574206F662072616E6765 PUSH1 0x68 SHL PUSH1 0x44 DUP3 ADD MSTORE PUSH1 0x64 ADD PUSH2 0x37D JUMP JUMPDEST PUSH1 0x40 MLOAD PUSH4 0x3A943439 PUSH1 0xE2 SHL DUP2 MSTORE PUSH1 0x1 PUSH1 0x1 PUSH1 0xA0 SHL SUB PUSH32 0x0 AND SWAP1 PUSH4 0xEA50D0E4 SWAP1 PUSH2 0x6E9 SWAP1 DUP10 SWAP1 DUP10 SWAP1 DUP10 SWAP1 DUP10 SWAP1 PUSH1 0x4 ADD PUSH2 0xA3C JUMP JUMPDEST PUSH1 0x20 PUSH1 0x40 MLOAD DUP1 DUP4 SUB DUP2 DUP7 GAS STATICCALL ISZERO DUP1 ISZERO PUSH2 0x704 JUMPI RETURNDATASIZE PUSH0 PUSH0 RETURNDATACOPY RETURNDATASIZE PUSH0 REVERT JUMPDEST POP POP POP POP PUSH1 0x40 MLOAD RETURNDATASIZE PUSH1 0x1F NOT PUSH1 0x1F DUP3 ADD AND DUP3 ADD DUP1 PUSH1 0x40 MSTORE POP DUP2 ADD SWAP1 PUSH2 0x728 SWAP2 SWAP1 PUSH2 0xA9E JUMP JUMPDEST PUSH2 0x764 JUMPI PUSH1 0x40 MLOAD PUSH3 0x461BCD PUSH1 0xE5 SHL DUP2 MSTORE PUSH1 0x20 PUSH1 0x4 DUP3 ADD MSTORE PUSH1 0xD PUSH1 0x24 DUP3 ADD MSTORE PUSH13 0x34B73B30B634B210383937B7B3 PUSH1 0x99 SHL PUSH1 0x44 DUP3 ADD MSTORE PUSH1 0x64 ADD PUSH2 0x37D JUMP JUMPDEST PUSH0 DUP3 DUP2 MSTORE PUSH1 0x20 DUP2 SWAP1 MSTORE PUSH1 0x40 SWAP1 KECCAK256 DUP1 SLOAD PUSH1 0xFF NOT AND PUSH1 0x1 SWAP1 DUP2 OR SWAP1 SWAP2 SSTORE DUP1 PUSH1 0xFF DUP4 AND PUSH1 0x4 DUP2 LT PUSH2 0x794 JUMPI PUSH2 0x794 PUSH2 0xA28 JUMP JUMPDEST ADD PUSH0 DUP3 DUP3 SLOAD PUSH2 0x7A3 SWAP2 SWAP1 PUSH2 0xAC4 JUMP JUMPDEST SWAP1 SWAP2 SSTORE POP POP PUSH1 0x40 MLOAD PUSH1 0xFF DUP3 AND SWAP1 DUP4 SWAP1 PUSH32 0xBCDAB89A6D8014DAADD409F8EBD44D9B18593D97F9B0AE90CA165A3FB8FAD6BA SWAP1 PUSH0 SWAP1 LOG3 POP POP POP POP POP POP JUMP JUMPDEST PUSH1 0x40 DUP1 MLOAD PUSH1 0x20 DUP1 DUP3 MSTORE DUP2 DUP4 ADD SWAP1 SWAP3 MSTORE PUSH0 SWAP2 DUP3 SWAP2 SWAP1 PUSH1 0x20 DUP3 ADD DUP2 DUP1 CALLDATASIZE DUP4 CALLDATACOPY ADD SWAP1 POP POP SWAP1 POP PUSH0 JUMPDEST PUSH1 0x20 DUP2 LT ISZERO PUSH2 0x865 JUMPI DUP5 DUP5 PUSH2 0x81A DUP4 PUSH1 0x1 PUSH2 0xAC4 JUMP JUMPDEST DUP2 DUP2 LT PUSH2 0x829 JUMPI PUSH2 0x829 PUSH2 0xA28 JUMP JUMPDEST SWAP1 POP PUSH1 0x20 MUL ADD CALLDATALOAD PUSH0 SHR PUSH1 0xF8 SHL DUP3 DUP3 DUP2 MLOAD DUP2 LT PUSH2 0x847 JUMPI PUSH2 0x847 PUSH2 0xA28 JUMP JUMPDEST PUSH1 0x20 ADD ADD SWAP1 PUSH1 0x1 PUSH1 0x1 PUSH1 0xF8 SHL SUB NOT AND SWAP1 DUP2 PUSH0 BYTE SWAP1 MSTORE8 POP PUSH1 0x1 ADD PUSH2 0x804 JUMP JUMPDEST POP PUSH2 0x86F DUP2 PUSH2 0xAE3 JUMP JUMPDEST SWAP2 POP POP JUMPDEST SWAP3 SWAP2 POP POP JUMP JUMPDEST PUSH1 0x40 DUP1 MLOAD PUSH1 0x20 DUP1 DUP3 MSTORE DUP2 DUP4 ADD SWAP1 SWAP3 MSTORE PUSH0 SWAP2 DUP3 SWAP2 SWAP1 PUSH1 0x20 DUP3 ADD DUP2 DUP1 CALLDATASIZE DUP4 CALLDATACOPY ADD SWAP1 POP POP SWAP1 POP PUSH0 JUMPDEST PUSH1 0x20 DUP2 LT ISZERO PUSH2 0x865 JUMPI DUP5 DUP5 PUSH2 0x8B4 DUP4 PUSH1 0x22 PUSH2 0xAC4 JUMP JUMPDEST DUP2 DUP2 LT PUSH2 0x8C3 JUMPI PUSH2 0x8C3 PUSH2 0xA28 JUMP JUMPDEST SWAP1 POP PUSH1 0x20 MUL ADD CALLDATALOAD PUSH0 SHR PUSH1 0xF8 SHL DUP3 DUP3 DUP2 MLOAD DUP2 LT PUSH2 0x8E1 JUMPI PUSH2 0x8E1 PUSH2 0xA28 JUMP JUMPDEST PUSH1 0x20 ADD ADD SWAP1 PUSH1 0x1 PUSH1 0x1 PUSH1 0xF8 SHL SUB NOT AND SWAP1 DUP2 PUSH0 BYTE SWAP1 MSTORE8 POP PUSH1 0x1 ADD PUSH2 0x89E JUMP JUMPDEST PUSH1 0x40 MLOAD DUP1 PUSH1 0x80 ADD PUSH1 0x40 MSTORE DUP1 PUSH1 0x4 SWAP1 PUSH1 0x20 DUP3 MUL DUP1 CALLDATASIZE DUP4 CALLDATACOPY POP SWAP2 SWAP3 SWAP2 POP POP JUMP JUMPDEST PUSH0 PUSH1 0x20 DUP3 DUP5 SUB SLT ISZERO PUSH2 0x92D JUMPI PUSH0 PUSH0 REVERT JUMPDEST POP CALLDATALOAD SWAP2 SWAP1 POP JUMP JUMPDEST PUSH1 0x80 DUP2 ADD DUP2 DUP4 PUSH0 JUMPDEST PUSH1 0x4 DUP2 LT ISZERO PUSH2 0x95B JUMPI DUP2 MLOAD DUP4 MSTORE PUSH1 0x20 SWAP3 DUP4 ADD SWAP3 SWAP1 SWAP2 ADD SWAP1 PUSH1 0x1 ADD PUSH2 0x93C JUMP JUMPDEST POP POP POP SWAP3 SWAP2 POP POP JUMP JUMPDEST PUSH0 PUSH0 PUSH0 PUSH0 PUSH1 0x40 DUP6 DUP8 SUB SLT ISZERO PUSH2 0x977 JUMPI PUSH0 PUSH0 REVERT JUMPDEST DUP5 CALLDATALOAD PUSH1 0x1 PUSH1 0x1 PUSH1 0x40 SHL SUB DUP2 GT ISZERO PUSH2 0x98C JUMPI PUSH0 PUSH0 REVERT JUMPDEST DUP6 ADD PUSH1 0x1F DUP2 ADD DUP8 SGT PUSH2 0x99C JUMPI PUSH0 PUSH0 REVERT JUMPDEST DUP1 CALLDATALOAD PUSH1 0x1 PUSH1 0x1 PUSH1 0x40 SHL SUB DUP2 GT ISZERO PUSH2 0x9B1 JUMPI PUSH0 PUSH0 REVERT JUMPDEST DUP8 PUSH1 0x20 DUP3 DUP5 ADD ADD GT ISZERO PUSH2 0x9C2 JUMPI PUSH0 PUSH0 REVERT JUMPDEST PUSH1 0x20 SWAP2 DUP3 ADD SWAP6 POP SWAP4 POP DUP6 ADD CALLDATALOAD PUSH1 0x1 PUSH1 0x1 PUSH1 0x40 SHL SUB DUP2 GT ISZERO PUSH2 0x9E1 JUMPI PUSH0 PUSH0 REVERT JUMPDEST DUP6 ADD PUSH1 0x1F DUP2 ADD DUP8 SGT PUSH2 0x9F1 JUMPI PUSH0 PUSH0 REVERT JUMPDEST DUP1 CALLDATALOAD PUSH1 0x1 PUSH1 0x1 PUSH1 0x40 SHL SUB DUP2 GT ISZERO PUSH2 0xA06 JUMPI PUSH0 PUSH0 REVERT JUMPDEST DUP8 PUSH1 0x20 DUP3 PUSH1 0x5 SHL DUP5 ADD ADD GT ISZERO PUSH2 0xA1A JUMPI PUSH0 PUSH0 REVERT JUMPDEST SWAP5 SWAP8 SWAP4 SWAP7 POP PUSH1 0x20 ADD SWAP5 POP POP POP JUMP JUMPDEST PUSH4 0x4E487B71 PUSH1 0xE0 SHL PUSH0 MSTORE PUSH1 0x32 PUSH1 0x4 MSTORE PUSH1 0x24 PUSH0 REVERT JUMPDEST PUSH1 0x40 DUP2 MSTORE DUP4 PUSH1 0x40 DUP3 ADD MSTORE DUP4 DUP6 PUSH1 0x60 DUP4 ADD CALLDATACOPY PUSH0 PUSH1 0x60 DUP6 DUP4 ADD DUP2 ADD DUP3 SWAP1 MSTORE PUSH1 0x1F NOT PUSH1 0x1F DUP8 ADD AND DUP4 ADD DUP4 DUP2 SUB DUP3 ADD PUSH1 0x20 DUP6 ADD MSTORE SWAP1 DUP2 ADD DUP5 SWAP1 MSTORE PUSH1 0x1 PUSH1 0x1 PUSH1 0xFB SHL SUB DUP5 GT ISZERO PUSH2 0xA85 JUMPI PUSH0 PUSH0 REVERT JUMPDEST DUP4 PUSH1 0x5 SHL DUP1 DUP7 PUSH1 0x80 DUP5 ADD CALLDATACOPY ADD PUSH1 0x80 ADD SWAP7 SWAP6 POP POP POP POP POP POP JUMP JUMPDEST PUSH0 PUSH1 0x20 DUP3 DUP5 SUB SLT ISZERO PUSH2 0xAAE JUMPI PUSH0 PUSH0 REVERT JUMPDEST DUP2 MLOAD DUP1 ISZERO ISZERO DUP2 EQ PUSH2 0xABD JUMPI PUSH0 PUSH0 REVERT JUMPDEST SWAP4 SWAP3 POP POP POP JUMP JUMPDEST DUP1 DUP3 ADD DUP1 DUP3 GT ISZERO PUSH2 0x873 JUMPI PUSH4 0x4E487B71 PUSH1 0xE0 SHL PUSH0 MSTORE PUSH1 0x11 PUSH1 0x4 MSTORE PUSH1 0x24 PUSH0 REVERT JUMPDEST DUP1 MLOAD PUSH1 0x20 DUP1 DUP4 ADD MLOAD SWAP2 SWAP1 DUP2 LT ISZERO PUSH2 0xB03 JUMPI PUSH0 NOT DUP2 PUSH1 0x20 SUB PUSH1 0x3 SHL SHL DUP3 AND SWAP2 POP JUMPDEST POP SWAP2 SWAP1 POP JUMP INVALID LOG1 PUSH5 0x736F6C6343 STOP ADDMOD SHR STOP EXP "},"methodIdentifiers":{"castVote(bytes,bytes32[])":"ac9dc270","electionId()":"051364d4","endTime()":"3197cbb6","getElectionInfo()":"86852dca","getResults()":"4717f97c","merkleRoot()":"2eb4a7ab","numCandidates()":"5216509a","startTime()":"78e97925","usedNullifiers(bytes32)":"206137aa","verifier()":"2b7ac3f3"}}}}}