{"src/Verifier.sol":{"HonkVerifier":{"abi":[{"inputs":[],"name":"ConsistencyCheckFailed","type":"error"},{"inputs":[],"name":"GeminiChallengeInSubgroup","type":"error"},{"inputs":[],"name":"InvertOfZero","type":"error"},{"inputs":[],"name":"NotPowerOfTwo","type":"error"},{"inputs":[],"name":"PointAtInfinity","type":"error"},{"inputs":[{"internalType":"uint256","name":"logN","type":"uint256"},{"internalType":"uint256","name":"actualLength","type":"uint256"},{"internalType":"uint256","name":"expectedLength","type":"uint256"}],"name":"ProofLengthWrongWithLogN","type":"error"},{"inputs":[],"name":"PublicInputsLengthWrong","type":"error"},{"inputs":[],"name":"ShpleminiFailed","type":"error"},{"inputs":[],"name":"SumcheckFailed","type":"error"},{"inputs":[],"name":"ValueGeFieldOrder","type":"error"},{"inputs":[],"name":"ValueGeGroupOrder","type":"error"},{"inputs":[],"name":"ValueGeLimbMax","type":"error"},{"inputs":[{"internalType":"bytes","name":"proof","type":"bytes"},{"internalType":"bytes32[]","name":"publicInputs","type":"bytes32[]"}],"name":"verify","outputs":[{"internalType":"bool","name":"verified","type":"bool"}],"stateMutability":"view","type":"function"}],"evm":{"bytecode":{"linkReferences":{"src/Verifier.sol":{"ZKTranscriptLib":[{"length":20,"start":670}]}},"object":"610120604052348015610010575f5ffd5b50620200006080819052601160a08190527f2a5648566edcd71a509524dbf6f44bb01bcd034261a3a3207765f3ca2550a11960c0819052604b60e081905260038361005d6001602461008a565b610067919061008a565b610071919061008a565b61007c90600261008a565b61010052506100af92505050565b808201808211156100a957634e487b7160e01b5f52601160045260245ffd5b92915050565b60805160a05160c05160e05161010051615e966101485f395f8181610cb301528181610d180152612f5c01525f818161019e015261095e01525f61017c01525f8181605b0152818160830152818160ef015281816101c001528181610a8c01528181610bed01528181610c8a015281816115820152818161163c0152818161166f015281816118790152612c5f01525f5050615e965ff3fe608060405234801561000f575f5ffd5b5060043610610029575f3560e01c8063ea50d0e41461002d575b5f5ffd5b61004061003b3660046155b1565b610054565b604051901515815260200160405180910390f35b5f5f61007f7f00000000000000000000000000000000000000000000000000000000000000006102dc565b90507f000000000000000000000000000000000000000000000000000000000000000085828181146100d9576040516359895a5360e01b815260048101939093526024830191909152604482015260640160405180910390fd5b5050505f6100e56103f6565b90505f61011388887f000000000000000000000000000000000000000000000000000000000000000061040b565b9050600882604001516101269190615689565b85146101455760405163fa06659360e01b815260040160405180910390fd5b60405163995bf45760e01b81525f9073__$5d9570e42d70145f8f7a9033d82e58ea5d$__9063995bf457906101e89085908b908b907f0000000000000000000000000000000000000000000000000000000000000000907f0000000000000000000000000000000000000000000000000000000000000000907f00000000000000000000000000000000000000000000000000000000000000009060040161580d565b610ba060405180830381865af4158015610204573d5f5f3e3d5ffd5b505050506040513d601f19601f820116820180604052508101906102289190615b03565b90506102788787808060200260200160405190810160405280939291908181526020018383602002808284375f920191909152505085518551602081015160409091015191935091506001610908565b8151606001526102888282610a6f565b6102a5576040516313f8744360e31b815260040160405180910390fd5b6102b0828483610c76565b6102cd576040516352ec174560e11b815260040160405180910390fd5b50600198975050505050505050565b5f8060026102ec60016008615bad565b6102f69190615bc0565b905061030460026003615bc0565b61030e9082615bad565b9050600161031d600985615bc0565b6103279190615bc0565b6103319082615bad565b90506001610340816029615bad565b61034a9190615bc0565b6103549082615bad565b905061036260016002615bc0565b61036c9082615bad565b9050610379600184615bc0565b6103839082615bad565b905061039160016004615bc0565b61039b9082615bad565b905060026103aa600185615689565b6103b49190615bc0565b6103be9082615bad565b90506103cb600280615bc0565b6103d59082615bad565b90506103e2600882615bad565b90506103ef816020615bc0565b9392505050565b6103fe615103565b610406611c8a565b905090565b61041361528d565b5f805b60088110156104c7575f86838761042e602083615bad565b9261043b93929190615bd7565b61044491615bfe565b9050610451600283615c1b565b1561045d576078610460565b60885b61046b906002615d1d565b811061048a5760405163eb73e0bd60e01b815260040160405180910390fd5b610493816125c5565b845183600881106104a6576104a6615d2b565b6020020181815250506020836104bc9190615bad565b925050600101610416565b506104eb8582866104d9604083615bad565b926104e693929190615bd7565b6125f7565b60208301526104fb604082615bad565b905061050e8582866104d9604083615bad565b6040808401919091526105219082615bad565b90506105348582866104d9604083615bad565b6060830152610544604082615bad565b90506105578582866104d9604083615bad565b6080830152610567604082615bad565b905061057a8582866104d9604083615bad565b60c083015261058a604082615bad565b905061059d8582866104d9604083615bad565b60e08301526105ad604082615bad565b90506105c08582866104d9604083615bad565b60a08301526105d0604082615bad565b90506105e38582866104d9604083615bad565b6101008301526105f4604082615bad565b90506106078582866104d9604083615bad565b610120830152610618604082615bad565b905061062b8582866104d9604083615bad565b6101408301515261063d604082615bad565b9050610662858286610650602083615bad565b9261065d93929190615bd7565b6126b2565b610160830152610673602082615bad565b90505f5b838110156106f1575f5b60098110156106e85761069b878488610650602083615bad565b84610180015183601c81106106b2576106b2615d2b565b602002015182600981106106c8576106c8615d2b565b6020020181815250506020836106de9190615bad565b9250600101610681565b50600101610677565b505f5b61070060016029615bad565b81101561074f57610718868387610650602083615bad565b836101c0015182602a811061072f5761072f615d2b565b6020020181815250506020826107459190615bad565b91506001016106f4565b50610761858286610650602083615bad565b6101a0830152610772602082615bad565b90506107858582866104d9604083615bad565b6101408301516020015261079a604082615bad565b90506107ad8582866104d9604083615bad565b610140830151600260200201526107c5604082615bad565b90505f5b6107d4600185615689565b81101561081d576107ec8683876104d9604083615bad565b836101e0015182601b811061080357610803615d2b565b6020020152610813604083615bad565b91506001016107c9565b505f5b8381101561087057610839868387610650602083615bad565b83610200015182601c811061085057610850615d2b565b6020020181815250506020826108669190615bad565b9150600101610820565b505f5b60048110156108c45761088d868387610650602083615bad565b83610220015182600481106108a4576108a4615d2b565b6020020181815250506020826108ba9190615bad565b9150600101610873565b506108d68582866104d9604083615bad565b6102408301526108e7604082615bad565b90506108fa8582866104d9604083615bad565b610260830152509392505050565b5f60018082610935866109308961092b6109268a6310000000615bad565b6125c5565b6126c5565b6126e0565b90505f6109538761094e8a61092b6109268b6001615bad565b6126f9565b90505f5b61098260087f0000000000000000000000000000000000000000000000000000000000000000615689565b8110156109ef575f6109ac8c838151811061099f5761099f615d2b565b6020026020010151612721565b90506109bc8661092b86846126e0565b95506109cc8561092b85846126e0565b94506109d8848b6126e0565b93506109e4838b6126f9565b925050600101610957565b505f5b6008811015610a56575f8a8260088110610a0e57610a0e615d2b565b60200201519050610a238661092b86846126e0565b9550610a338561092b85846126e0565b9450610a3f848b6126e0565b9350610a4b838b6126f9565b9250506001016109f2565b50610a618484612750565b9a9950505050505050505050565b5f5f610a8483606001518561016001516126c5565b905060015f5b7f0000000000000000000000000000000000000000000000000000000000000000811015610b76575f86610180015182601c8110610aca57610aca615d2b565b602002015180519091505f90610ae8908360015b60200201516126e0565b9050848114610b0a576040516313f8744360e31b815260040160405180910390fd5b5f876080015184601c8110610b2157610b21615d2b565b60200201519050610b32838261275e565b9550610b668561092b60016109308561092b8e604001518b601c8110610b5a57610b5a615d2b565b602002015160016126f9565b9450505050806001019050610a8a565b50610b7f615370565b5f5b6029811015610bcf576101c0870151610b9b600183615bad565b602a8110610bab57610bab615d2b565b6020020151828260298110610bc257610bc2615d2b565b6020020152600101610b81565b505f610be482875f01518860200151866128c0565b9050600160025b7f0000000000000000000000000000000000000000000000000000000000000000811015610c4157610c3782896080015183601c8110610c2d57610c2d615d2b565b60200201516126c5565b9150600101610beb565b50610c67610c548361092b6001856126f9565b6109308a6101a001518a606001516126c5565b94909414979650505050505050565b5f610c7f61538f565b5f610cae8460c001517f0000000000000000000000000000000000000000000000000000000000000000612939565b90505f7f00000000000000000000000000000000000000000000000000000000000000006001600160401b03811115610ce957610ce96159c8565b604051908082528060200260200182016040528015610d12578160200160208202803683370190505b5090505f7f00000000000000000000000000000000000000000000000000000000000000006001600160401b03811115610d4e57610d4e6159c8565b604051908082528060200260200182016040528015610d8757816020015b610d746153ff565b815260200190600190039081610d6c5790505b509050610dba610db5876101000151855f81518110610da857610da8615d2b565b60200260200101516126f9565b612a02565b84610120018181525050610def610db5876101000151855f81518110610de257610de2615d2b565b60200260200101516126e0565b610140850181905261012085015160e0880151610e109261093091906126c5565b845260c0860151610e4090610e2490612a02565b61092b86610120015161094e8a60e001518961014001516126c5565b6020850152815160019083905f90610e5a57610e5a615d2b565b602002602001018181525050876102400151815f81518110610e7e57610e7e615d2b565b6020908102919091010152600160a08501525f60c08501528351610ea190612a9a565b60408501526020840151610eb490612a9a565b606085015260015b610ec860016024615bad565b8111610f6957610ee085604001518660a001516126c5565b838281518110610ef257610ef2615d2b565b602002602001018181525050610f3b8560c001516109308b6101c00151600185610f1c9190615689565b602a8110610f2c57610f2c615d2b565b60200201518860a001516126c5565b60c086015260a08086015190880151610f5491906126c5565b60a0860152610f6281615d3f565b9050610ebc565b505f5b6005811015611042575f610f81601e83615bad565b90505f610f9060016024615bad565b610f9a9084615bad565b9050610fcb858381518110610fb157610fb1615d2b565b602002602001015161093089606001518a60a001516126c5565b858381518110610fdd57610fdd615d2b565b60200260200101818152505061101a8760c001516109308d6101c0015184602a811061100b5761100b615d2b565b60200201518a60a001516126c5565b60c088015260a080880151908a015161103391906126c5565b60a08801525050600101610f6c565b5087602001518160018151811061105b5761105b615d2b565b602002602001018190525086606001518160028151811061107e5761107e615d2b565b60200260200101819052508660800151816003815181106110a1576110a1615d2b565b60200260200101819052508660a00151816004815181106110c4576110c4615d2b565b60200260200101819052508660c00151816005815181106110e7576110e7615d2b565b60200260200101819052508660e001518160068151811061110a5761110a615d2b565b60200260200101819052508661010001518160078151811061112e5761112e615d2b565b60200260200101819052508661012001518160088151811061115257611152615d2b565b60200260200101819052508661014001518160098151811061117657611176615d2b565b602002602001018190525086610160015181600a8151811061119a5761119a615d2b565b6020026020010181905250866101c0015181600b815181106111be576111be615d2b565b602002602001018190525086610180015181600c815181106111e2576111e2615d2b565b6020026020010181905250866101a0015181600d8151811061120657611206615d2b565b6020026020010181905250866101e0015181600e8151811061122a5761122a615d2b565b602002602001018190525086610200015181600f8151811061124e5761124e615d2b565b60200260200101819052508661022001518160108151811061127257611272615d2b565b60200260200101819052508661024001518160118151811061129657611296615d2b565b6020026020010181905250866102600151816012815181106112ba576112ba615d2b565b6020026020010181905250866102800151816013815181106112de576112de615d2b565b6020026020010181905250866102a001518160148151811061130257611302615d2b565b6020026020010181905250866102c001518160158151811061132657611326615d2b565b6020026020010181905250866102e001518160168151811061134a5761134a615d2b565b60200260200101819052508661030001518160178151811061136e5761136e615d2b565b60200260200101819052508661032001518160188151811061139257611392615d2b565b6020026020010181905250866103400151816019815181106113b6576113b6615d2b565b602002602001018190525086610360015181601a815181106113da576113da615d2b565b602002602001018190525086610380015181601b815181106113fe576113fe615d2b565b6020026020010181905250866103a0015181601c8151811061142257611422615d2b565b6020026020010181905250866103c0015181601d8151811061144657611446615d2b565b6020026020010181905250876040015181601e8151811061146957611469615d2b565b6020026020010181905250876060015181601f8151811061148c5761148c615d2b565b60200260200101819052508760800151816020815181106114af576114af615d2b565b60200260200101819052508760a00151816021815181106114d2576114d2615d2b565b6020026020010181905250876101200151816022815181106114f6576114f6615d2b565b60200260200101819052508761010001518160238151811061151a5761151a615d2b565b60200260200101819052508760c001518160248151811061153d5761153d615d2b565b60200260200101819052508760e001518160258151811061156057611560615d2b565b60200260200101819052505f6115a687608001518660c001518b6102000151877f0000000000000000000000000000000000000000000000000000000000000000612aac565b90506115d0815f815181106115bd576115bd615d2b565b60200260200101518661012001516126c5565b608086018190526102008a01515160e08901516116019291610930916115f691906126c5565b8861014001516126c5565b608086015260e087015161161490612c0a565b60a08601525f61162660016024615bad565b611631906001615bad565b90505f5b61166060017f0000000000000000000000000000000000000000000000000000000000000000615689565b811015611871575f61169360017f0000000000000000000000000000000000000000000000000000000000000000615689565b821015905080611802576116c7610db58b6101000151898560016116b79190615bad565b81518110610da857610da8615d2b565b6101208901526101008a01516116f790610db590896116e7866001615bad565b81518110610de257610de2615d2b565b61014089015260a088015161012089015161171291906126c5565b61016089015260a088015160e08b015161173a9161172f916126c5565b8961014001516126c5565b610180890181905261175d9061174f90612a9a565b6109308a6101600151612a9a565b866117688486615bad565b8151811061177857611778615d2b565b6020026020010181815250505f6117b18961018001518e61020001518560016117a19190615bad565b601c8110610c2d57610c2d615d2b565b90506117eb816109308b6101600151888760016117ce9190615bad565b815181106117de576117de615d2b565b60200260200101516126c5565b90506117fb8960800151826126e0565b60808a0152505b6118216118178960a001518c60e001516126c5565b8b60e001516126c5565b60a08901526101e08c015182601b811061183d5761183d615d2b565b60200201518561184d8486615bad565b8151811061185d5761185d615d2b565b602090810291909101015250600101611635565b5061189d60017f0000000000000000000000000000000000000000000000000000000000000000615689565b6118a79082615bad565b90506118c76118bf8961010001518a60c001516126f9565b600190612750565b60e08701515261010088015160c089015161190b916118bf9161094e907f07b0c561a6148404f086204a9f36ffb0617942546750f230c893619174a57a76906126c5565b60e0878101805160200192909252815180516040909101529051805160609091015260a08701519089015161194d91611943916126c5565b8960e001516126c5565b60a08701525f5b60048110156119fb575f6119868860e00151836004811061197757611977615d2b565b60200201518960a001516126c5565b905061199181612a9a565b88610100015183600481106119a8576119a8615d2b565b602002015260a088015160e08b01516119c191906126c5565b8860a00181815250506119ed8860800151610930838f61022001518660048110610c2d57610c2d615d2b565b608089015250600101611954565b50610100860151518451859083908110611a1757611a17615d2b565b60209081029190910181019190915261010087015190810151611a3b916002610ade565b84611a47836001615bad565b81518110611a5757611a57615d2b565b60209081029190910101526101008601516060015184611a78836002615bad565b81518110611a8857611a88615d2b565b60209081029190910101525f5b6003811015611aea578a61014001518160038110611ab557611ab5615d2b565b60200201518483611ac581615d3f565b945081518110611ad757611ad7615d2b565b6020908102919091010152600101611a95565b506040518060400160405280600181526020016002815250838281518110611b1457611b14615d2b565b60200260200101819052508560800151848280611b3090615d3f565b935081518110611b4257611b42615d2b565b602002602001018181525050611b6c8a61022001518960c001518a608001518d6101a00151612c15565b611b895760405163a2a2ac8360e01b815260040160405180910390fd5b5f8a6102600151905080848381518110611ba557611ba5615d2b565b6020026020010181905250886101000151858381518110611bc857611bc8615d2b565b602002602001018181525050611bdc615417565b611be68587612f52565b8152611bf18261304a565b60208201528b51611c0190613081565b611c69575f611c1b8d5f0151835f015184602001516130ba565b90505f5f611c2b8f5f0151613161565b91509150611c388261323e565b611c418161323e565b8351611c4e908385613268565b84526020840151611c60908285613268565b60208501525050505b611c7a815f01518260200151613297565b9c9b505050505050505050505050565b611c92615103565b50604080516103e0810182526202000081526011602080830191909152604b82840152825180840184527f2c15207009dfd2178694160a095951e234325a3cc480a4defdca45f5ed63120281527f1807cb478b71e37f9b242d259380b05d082439327095901816c810265ed513c0818301526060830152825180840184527f101b72de2d8acc6f384d3d4c54be3fba3251a0e97d02266d835047b580ecd07381527f0b3df04c448837249a6a4fcabdbfb48b240382293daf13c097c0468df0e9ce05818301526080830152825180840184527f21ef27b5afd622b30d2eed08a0b3fc323eddc6005f5c47a552acf4ebc868b10281527f059ab496b30466487a469ad55f199b378d59457e60e439abc58fa3970c57d8b38183015260a0830152825180840184527f19aa6a0b0ebd9738acae962db338b35b134efeb222a56c0782a1bcf6a6e4838181527f2b3eb14ad18ff40be33db6edd16b9b3cdaf8d33fbed62c8797576116f2fc7a2b8183015260c0830152825180840184527f13cb97bb5a20f0135d2e00ec3ff35a91233967ad8a382b2f16687927da774d3381527f0b72166a79685e47db434cda717400c1202a7cc0d66b2324f47c77e88b16dc838183015260e0830152825180840184527f1b86c38ecd6e52ac945840af5a59dd739634d16bd2d854f88d635ddb0888531a81527f11ba534bc0e4483e199dd4535c230074d479d415e887b2f935ad4a662b10d3e381830152610100830152825180840184527f0e17d1cc6b95fe0dbff7f51087ba8cfedb8b6139251eda1fb09ff314204f356081527f24a1c632832a8bd01c65bc5c49fbdbf8efb789732be52e68d916ebaa353c61c981830152610120830152825180840184527f25a54373462404e6688acf7b7d8840e48db9b2fe22415a772ba261e486b4c6b081527f2986291a3fa7ff65463b824afd8caf27e5a50a75e606f1f9b716615a56932fff81830152610140830152825180840184527f0900b06feb20eeb9ccabde3776a0ca8eb0cb4e70bf31212bcdf836505709a20481527f2f4130fe073ca971345df8186347fd578b44eb21e455f82149ad1db7a59c4c0481830152610160830152825180840184527f0e9d36d147156a4a616f495548e3c72b0e1e97dc6a32790130774e9205fdd4a781527f2829d755480d89f7ddd0a68a79b543bbe8fbc378d6cdb23512afced6b5b9371881830152610180830152825180840184527f144b03614e7401e588ba3674c62fb3de91f02ef43c7695713eb36b76311e055381527f176f218b6c2210ed03ff8467ca2b524ce7e730f266e2be3d702c100c55efba92818301526101a0830152825180840184527f2d275ce71b9c2b49554246c87963652bdae79e50a39c27b74605a994cffd0f1781527f115e57bf6f387c63b82eda9e468872d4e9ad9fce406c5cf98ead11c780655b8f818301526101c0830152825180840184527f1bdb456588472d8350e9d28867fb3d668c9af8eca28f2034416672f696a14ecd81527f1d26509d90547d1273866cfbb242de364491a7226633a77fa38baf29cf4132dc818301526101e0830152825180840184527f2de270d7eb5b1a0bba248311298da60f08655efce2b6ac6161d72c9d06e8e71e81527f070f5b2e6c7d9aa97e3859e1bae904fdd079615c4b05c1e04e9ae02c9bbed42d81830152610200830152825180840184527f2cbe215d352bc09be427532a1afac37557b59955ee77327a87d9a1eb696dd42681527f152eb407454027a6ea5e386cbfd7b048112d85947aafbd19cbbdfb889ef029bc81830152610220830152825180840184527f018a770fb5254b220338fd8bf52923cdb31ab13dfc25e1ffb008685ccbfde80581527f2c06f0eef9be7bf243ff7b79bae38cd7e0c275a2c660207b357979bd3471165f81830152610240830152825180840184527f037e0063a1035cf60dabbf2530e18706347d97652e890c0314b506957ca7437c81527f0b691cbcf77e80f25b1482c3de38b023edd74662f9e8eda4c1fdac29f2274c5881830152610260830152825180840184527f133dfb39cc105254582c9dd1a7f139434dc3b2254fcf858374f2b7095dabccd581527f2060787c50336e346ff099074c88d77b5d835c46600c1c16d5f561c8fcc81bf581830152610280830152825180840184527f24716033ff47c403e51282d48ed6add66b794fbcb79974a60a71708c1a3bc7df81527f20c09738a1c3fd3c2311119d77508a0b08ee1d312c080571ecd36e45dc8138ca818301526102a0830152825180840184527f2c49f21150b792c69bac79a2028f454107bfa956379d5f2fd164f32f20165c4781527f11dbf67ced04a233d49a993f6de553644dbfa6f9493e5eeaa8444d5708b22b4d818301526102c0830152825180840184527f025f03df7e0586b9b76cec55eb3e872b9a8929260107cb16823fc49ac08be2be81527f21eb467484eadbf7f6b7c17b57b869d4337413831481fecfc5b7459c98122778818301526102e0830152825180840184527f0fd22ac5c05eae847d3676f91d2859570248f694a284a125343d6f255aa857ea81527f1f57718fa5840241b6ba928a0515c745439cb1d5887ce02143dfb3c1e5f87eca81830152610300830152825180840184527f0cf2c983f9f1a8ca3e4b02d65a92ab3217b45d144439c80abfea08e2cf0e7b6f81527f136d9d7e96be52e87daf7ce5aaa8bb2e69b3301f46ba5b60b423871ed508b9db81830152610320830152825180840184527f0186beb9c0287a3f39daa49853417d19a364bb1e2dd4cfc81fe5c8213dae727481527f12bb6f86b9e8897a07421448585df02f55b55f44d91701ff41a3a4e3607f5cb381830152610340830152825180840184527f2adf10845b60ec4db02cf64eeb25a00371a1f40e195ef3f547e0912152e9f0eb81527f0bddd2c3d062c96d10c07270eada67f47fa32e993f2db36665cdc32cb573b42b81830152610360830152825180840184527f23f80a90ea5bd0931d48beea7a3a92b2728d17fbe207c68b74cd89e5131ed2bc81527f1f59f989b339e8f30d0dfc9276331672119d20b8bdd3d3c73aad2d9c4bd7924b8183015261038083015282518084018452600181526002818301526103a083015282518084019093527f229b08fae40db2d2e32e3bcb693b9045969abcfb23353a319c2f4a832201e49183527f0883016658308eaacb34f94e5078251ed12584ec4eda03c05e29190d4ecdc406908301526103c081019190915290565b5f5f516020615e4a5f395f51905f5282106125f3576040516320a3358960e01b815260040160405180910390fd5b5090565b6125ff6153ff565b5f61260d6020828587615bd7565b61261691615bfe565b90505f612627604060208688615bd7565b61263091615bfe565b90505f516020615e0a5f395f51905f528210801561265a57505f516020615e0a5f395f51905f5281105b6126775760405163303df09f60e11b815260040160405180910390fd5b8082175f0361269957604051634ddaa5e560e01b815260040160405180910390fd5b6040805180820190915291825260208201529392505050565b5f6103ef6126c08385615bfe565b612721565b5f5f516020615e4a5f395f51905f5282840990505b92915050565b5f5f516020615e4a5f395f51905f528284089392505050565b5f5f516020615e4a5f395f51905f52825f516020615e4a5f395f51905f520384089392505050565b5f815f516020615e4a5f395f51905f5281106126da576040516320a3358960e01b815260040160405180910390fd5b5f6103ef8361092b84612a02565b5f5f604051806101200160405280619d8081526020015f516020615e6a5f395f51905f5281526020016105a081526020015f516020615dea5f395f51905f52815260200161024081526020015f516020615dea5f395f51905f5281526020016105a081526020015f516020615e6a5f395f51905f528152602001619d8081525090505f600190505f5f90505b600981101561280b576128018261092b87846126f9565b91506001016127ea565b5061281461542a565b5f5b600981101561286557612846610db585836009811061283757612837615d2b565b602002015161092b89856126f9565b82826009811061285857612858615d2b565b6020020152600101612816565b505f5b60098110156128ab576128a18561093089846009811061288a5761288a615d2b565b6020020151858560098110610c2d57610c2d615d2b565b9450600101612868565b506128b684836126c5565b9695505050505050565b5f6128c9615449565b6128d486828561348b565b6128e086868386613637565b6128ec8686838661381f565b6128f7868285613a68565b612902868285613c5c565b61290e86868386613f9f565b612919868285614451565b612924868285614863565b61292f868285614c24565b6128b68185614f24565b60605f826001600160401b03811115612954576129546159c8565b60405190808252806020026020018201604052801561297d578160200160208202803683370190505b50905083815f8151811061299357612993615d2b565b602090810291909101015260015b838110156129fa576129d5826129b8600184615689565b815181106129c8576129c8615d2b565b6020026020010151612c0a565b8282815181106129e7576129e7615d2b565b60209081029190910101526001016129a1565b509392505050565b5f81808203612a2457604051635964a97160e11b815260040160405180910390fd5b5f604051602081526020808201526020604082015282606082015260025f516020615e4a5f395f51905f520360808201525f516020615e4a5f395f51905f5260a082015260205f60c08360055afa80612a865763f8d6170960e01b5f5260045ffd5b505f5160c091909101604052949350505050565b5f516020615e4a5f395f51905f520390565b60605f826001600160401b03811115612ac757612ac76159c8565b604051908082528060200260200182016040528015612af0578160200160208202803683370190505b509050825b8015612bff575f85612b08600184615689565b81518110612b1857612b18615d2b565b602002602001015190505f89600184612b319190615689565b601c8110612b4157612b41615d2b565b602002015190505f612b9c612b60612b59858d6126c5565b60026126c5565b61094e8b612b6f600189615689565b601c8110612b7f57612b7f615d2b565b602002015161092b612b968861092b60018a6126f9565b876126f9565b9050612bbd8161092b610db5612bb78761092b6001896126f9565b866126e0565b99508990508085612bcf600187615689565b81518110612bdf57612bdf615d2b565b60200260200101818152505050505080612bf890615d57565b9050612af5565b509695505050505050565b5f6126da82836126c5565b5f600181612c2e612c2887610100614f7d565b836126f9565b905080612c4e5760405163835eb8f760e01b815260040160405180910390fd5b612c56615468565b80518390525f5b7f0000000000000000000000000000000000000000000000000000000000000000811015612d3f575f612c91826009615bc0565b612c9c906001615bad565b905084835f0151826101008110612cb557612cb5615d2b565b60200201525f612cc6826001615bad565b90505b612cd4600983615bad565b811015612d35578351612d1490612cec600184615689565b6101008110612cfd57612cfd615d2b565b60200201518a85601c8110610c2d57610c2d615d2b565b8451826101008110612d2857612d28615d2b565b6020020152600101612cc9565b5050600101612c5d565b50608081018390525f602082018190525b610100811015612e3d57612d71612d6b83608001518a6126c5565b856126f9565b8260a00151826101008110612d8857612d88615d2b565b602002015260a0820151612db290826101008110612da857612da8615d2b565b6020020151612a02565b8260a00151826101008110612dc957612dc9615d2b565b602002018181525050612e0f8260200151610930845f0151846101008110612df357612df3615d2b565b60200201518560a00151856101008110610c2d57610c2d615d2b565b60208301526080820151612e30905f516020615e2a5f395f51905f526126c5565b6080830152600101612d50565b505f612e4e8361092b610100612a02565b9050612e5e8260200151826126c5565b602083015260a0820151612e79905f5b6020020151826126c5565b604083015260a0820151612ea590612e946001610100615689565b6101008110612e6e57612e6e615d2b565b60608301526040820151612ebb908a6002610c2d565b60c08301819052612f0890610930612ee08b5f516020615e2a5f395f51905f526126f9565b60208d015160408e015161092b91612ef7916126f9565b8e51602089015161094e91906126c5565b60c083018190526060830151612f3d91612f31916109309061092b8e600260200201518c6126f9565b61094e858c6003610c2d565b60c08301819052159998505050505050505050565b612f5a6153ff565b7f00000000000000000000000000000000000000000000000000000000000000005f5b81811015612faf57612fa7858281518110612f9a57612f9a615d2b565b602002602001015161323e565b600101612f7d565b50604051600190815b600184018110156130145760208102870160208202870181515160408501528151602001516060850152805160808501525050604080830160606040850160075afa8316925060408260808460065afa90921691600101612fb8565b5080518452602081015160208501525080613042576040516352ec174560e11b815260040160405180910390fd5b505092915050565b6130526153ff565b6020820151156125f3576020820151613078905f516020615e0a5f395f51905f52615689565b60208301525090565b5f80805b60088110156130b2578381600881106130a0576130a0615d2b565b60200201519190911790600101613085565b501592915050565b5f5f5f6130c686613161565b915091506130d26154ac565b82518152602080840151818301528251604080840191909152838201516060840152875160808401528782015160a0840152865160c08401528682015160e084015251613156915f516020615e4a5f395f51905f529161313491859101615d6c565b604051602081830303815290604052805190602001205f1c6109269190615c1b565b979650505050505050565b6131696153ff565b6131716153ff565b8251602084015160408501516060860151608087015160a088015160c089015160e08a0151608896871b9097179693861b9094179490811b9091179291901b175f516020615e0a5f395f51905f52841080156131d957505f516020615e0a5f395f51905f5283105b80156131f157505f516020615e0a5f395f51905f5282105b801561320957505f516020615e0a5f395f51905f5281105b6132265760405163303df09f60e11b815260040160405180910390fd5b92855260208086019290925283528201529092909150565b60208101518151175f0361326557604051634ddaa5e560e01b815260040160405180910390fd5b50565b6132706153ff565b6132786153ff565b613282838661501c565b905061328e8185615072565b95945050505050565b81516020808401518351848301516040805194850195909552938301919091527f198e9393920d483a7260bfb731fb5d25f1aa493335a9e71297e485b7aef312c260608301527f1800deef121f1e76426a00665e5c4479674322d4f75edadd46debd5cd992f6ed60808301527f090689d0585ff075ec9e99ad690c3395bc4b313370b38ef355acdadcd122975b60a08301527f12c85ea5db8c6deb4aab71808dcb408fe3d1e7690c43d37b4ce6cc0166fa7daa60c083015260e08201526101008101919091527f260e01b251f6f1c7e7ff4e580791dee8ea51d87a358e038b4efe30fac09383c16101208201527f0118c4d5b837bcc2bc89b5b398b5974e9f5944073b32078b7e231fec938883b06101408201527f04fc6369f7110fe3d25156c1bb9a72859cf2a04641f99ba4ee413c80da6a5fe46101608201527f22febda3c0c0632a56475b4214e5615e11e6dd3f96e6cea2854a87d4dacc5e556101808201525f9081906101a00160405160208183030381529060405290505f5f60086001600160a01b03168360405161342d9190615da0565b5f60405180830381855afa9150503d805f8114613465576040519150601f19603f3d011682016040523d82523d5f602084013e61346a565b606091505b50915091508180156128b65750808060200190518101906128b69190615db6565b5f6134978460076150d3565b90507f183227397098d014dc2822db40c0ac2e9419f4243cdcb848a1f0fac9f80000005f6134f86134f26134cc8560036126f9565b61092b6134e76134dc8b5f6150d3565b61092b8c601d6150d3565b61092b8b601c6150d3565b836126c5565b905061357961356e61355561353c613523856109306135188d60026150d3565b61092b8e601c6150d3565b6109306135318c60036150d3565b61092b8d601d6150d3565b61093061354a8b60046150d3565b61092b8c601e6150d3565b6109306135638a60056150d3565b61092b8b601f6150d3565b6109308860016150d3565b90506135988161093061358d8660016126f9565b61092b8a60276150d3565b90506135a481846126c5565b90506135b081856126c5565b8552505f90506135ea6135e06135d56135ca88601c6150d3565b61093089601f6150d3565b61094e8860246150d3565b610930875f6150d3565b90506135fb8161092b8460026126f9565b905061360c8161092b8460016126f9565b905061361881836126c5565b905061362481846126c5565b9050808460015b60200201525050505050565b5f5f5f61366d61366361364b89601c6150d3565b6109306136598b60126150d3565b8a602001516126c5565b87604001516126e0565b90506136a68161092b61369c6136848b601d6150d3565b6109306136928d60136150d3565b8c602001516126c5565b89604001516126e0565b90506136cb8161092b61369c6136bd8b601e6150d3565b6109306136928d60146150d3565b90506136f08161092b61369c6136e28b601f6150d3565b6109306136928d60156150d3565b92505f905061371461366361370689601c6150d3565b6109306136598b600e6150d3565b90506137398161092b61369c61372b8b601d6150d3565b6109306136928d600f6150d3565b905061375e8161092b61369c6137508b601e6150d3565b6109306136928d60106150d3565b90506137838161092b61369c6137758b601f6150d3565b6109306136928d60116150d3565b91505f90506137aa6137a46137998960206150d3565b6109308a601a6150d3565b846126c5565b90506137df8161094e6137d96137c18b60286150d3565b6109306137cf8d601b6150d3565b8c606001516126c5565b856126c5565b90506137eb81856126c5565b6040860152505f61380e6137d961380389601b6150d3565b61092b8a60286150d3565b606090950194909452505050505050565b5f5f5f613834866020015187602001516126c5565b905061389861387d61386f61385761384d8b60166150d3565b8a604001516126e0565b6109306138658c60176150d3565b8b602001516126c5565b6109306137d98b60186150d3565b61093061388e6137d98b60196150d3565b89602001516126c5565b9250505f6138ae866020015187602001516126c5565b90505f6138db6138c261369c8a601c6150d3565b6109306138d08b60036150d3565b61092b8c60246150d3565b90505f6139046138ec8a601d6150d3565b6109306138f98c5f6150d3565b61092b8d60256150d3565b90505f61392e6139158b601e6150d3565b6109306139238d60016150d3565b61092b8e60266150d3565b905061396961395261394885610930868e602001516126c5565b61093084886126c5565b6109306136926139638e60046150d3565b886126c5565b9450505050505f61397e6137a48860216150d3565b90505f61398f6137a48960216150d3565b90505f6139c76139ae6139a38b60236150d3565b6109308c60066150d3565b61094e6139bc8c60236150d3565b61092b8d60066150d3565b90505f6139e5612c286139da87896126c5565b61092b8d60216150d3565b90506139f181886126c5565b90505f613a19613a0b613a058d60066150d3565b876126c5565b61094e613a058e60226150d3565b90505f613a278c60236150d3565b90505f613a37612c2883846126c5565b60808c0185905260a08c018490529050613a51818b6126c5565b8b6006602002015250505050505050505050505050565b5f613a745f60016126f9565b90505f613a825f60026126f9565b90505f613a905f60036126f9565b90505f613aac613aa188601d6150d3565b61094e89601c6150d3565b90505f613ac8613abd89601e6150d3565b61094e8a601d6150d3565b90505f613ae4613ad98a601f6150d3565b61094e8b601e6150d3565b90505f613b00613af58b60246150d3565b61094e8c601f6150d3565b905083613b118161092b818b6126e0565b9050613b218161092b878a6126e0565b9050613b318161092b87896126e0565b9050613b428161092b8d60086150d3565b9050613b4e818a6126c5565b60e08b01525082613b638161092b818b6126e0565b9050613b738161092b868a6126e0565b9050613b838161092b86896126e0565b9050613b948161092b8d60086150d3565b9050613ba0818a6126c5565b6101008b01525081613bb68161092b818b6126e0565b9050613bc68161092b858a6126e0565b9050613bd68161092b85896126e0565b9050613be78161092b8d60086150d3565b9050613bf3818a6126c5565b6101208b01525080613c098161092b818b6126e0565b9050613c198161092b848a6126e0565b9050613c298161092b84896126e0565b9050613c3a8161092b8d60086150d3565b9050613c46818a6126c5565b610140909a019990995250505050505050505050565b613c956040518060e001604052805f81526020015f81526020015f81526020015f81526020015f81526020015f81526020015f81525090565b613ca084601d6150d3565b8152613cad84601e6150d3565b6020820152613cbd8460246150d3565b6040820152613ccd8460276150d3565b6060820152613cdd8460266150d3565b6080820152613ced8460256150d3565b60a08201525f613cfe8560026150d3565b90505f613d0b865f6150d3565b90505f613d1f8460400151855f01516126f9565b90505f613d34856020015186602001516126c5565b606086015190915086905f90613d4a90806126c5565b90505f613d6261396389602001518a606001516126c5565b90505f613d81613d7a8a60a001518b604001516126e0565b8a516126e0565b9050613d90613a0582886126c5565b9050613db7613db1613dab613da584876126f9565b886126f9565b846126e0565b836126e0565b9050613ddf613dd4613dc983876126c5565b61092b8f60096150d3565b61092b60018a6126f9565b6101608c015250505050602085015160808601515f91613dfe916126e0565b90505f613e1c613e128860600151886126c5565b88602001516126f9565b90505f613e40613e2c84876126c5565b6109306137d98b60a001518c5f01516126f9565b9050613e68613e5d613e52838c6126c5565b61092b8e60096150d3565b61092b6001896126f9565b6101808b0152505f9150613e899050613e828360116126e0565b87516126c5565b90505f613e9683846126e0565b9050613ea281826126e0565b90505f613eb08360096126c5565b9050613ed9613ed36137a4613ecc8b60a001518c5f01516126e0565b8b516126e0565b826126f9565b60c089018190525f90613ef49061396390613dc9908d6126c5565b9050613f078b600b6020020151826126e0565b6101608c0152505086515f9250613f2e9150613e8290613f2790806126e0565b88516126e0565b90505f613f6e613f498361092b8a5f01518b60a001516126f9565b602089015161094e90613f5c90806126e0565b61092b8b602001518c608001516126e0565b9050613f8b89600c6020020151610930613963613dc9858d6126c5565b89600c602002015250505050505050505050565b614009604051806101e001604052805f81526020015f81526020015f81526020015f81526020015f81526020015f81526020015f81526020015f81526020015f81526020015f81526020015f81526020015f81526020015f81526020015f81526020015f81525090565b83515f9061401790806126c5565b90505f61402782875f01516126c5565b905061403d61403788601e6150d3565b826126c5565b808452614052906109306137d98a601d6150d3565b80845261406e906109306140678a601c6150d3565b89516126c5565b808452614080906109308960016150d3565b808452602084018190526140999061094e89601f6150d3565b83526140a9613aa18860246150d3565b60808401526140c76140bc8860276150d3565b61094e89601f6150d3565b606084015260808301516140e09061092b8160016126f9565b6101c08401526080830151614120906141169061410f9061092b60015f516020615e4a5f395f51905f52615689565b60016126e0565b84606001516126c5565b60a08401819052614156906141489061092b61413d8b60026150d3565b61092b8c60036150d3565b61092b613a058a600a6150d3565b85600e60200201526101c083015161417a906141489061092b61413d8b60026150d3565b6101e0860152825161419f9061092b6141948a60026150d3565b61092b8b60036150d3565b6101208401525f6141be6141b489601f6150d3565b85602001516126f9565b90506141cf8161092b8360016126f9565b60e08501526141e26134f28960266150d3565b60408501819052614201906109306141fb8b60256150d3565b866126c5565b604085018190526142219061093061421a8b60246150d3565b8a516126c5565b604085015261423e6142348960276150d3565b85604001516126f9565b60408501525f614252613ad98a60266150d3565b90506142a461427f6134f261410f886080015160015f516020615e4a5f395f51905f5261092b9190615689565b61092b61410f886040015160015f516020615e4a5f395f51905f5261092b9190615689565b60c086015260408501516142c6906142bc90806126c5565b86604001516126f9565b61010086015260c08501516142f8906142e49061092b8c60046150d3565b61092b6142f28c600a6150d3565b896126c5565b6102008801526101c0850151614317906142e49061092b8c60046150d3565b610220880152610100850151614336906142e49061092b8c60046150d3565b61024088015260e08501516143509061092b8b60046150d3565b61014086015261436f6143648a60256150d3565b61094e8b601d6150d3565b61016086015260808501516143ad90613ad9906143a29061410f9061092b60015f516020615e4a5f395f51905f52615689565b8761016001516126c5565b61018086018190526101208601516101a087018190526143e4916109309061092b6143d98e60056150d3565b61092b8f60026150d3565b6101a08601819052855161440491906109309061092b6143d98e5f6150d3565b6101a0860181905261014086015161441c91906126e0565b6101a086018190526144369061092b6142f28c600a6150d3565b6101a0860181905287600d6020020152505050505050505050565b61448a6040518060e001604052805f81526020015f81526020015f81526020015f81526020015f81526020015f81526020015f81525090565b6144bf6144a661449b86601c6150d3565b61092b8760256150d3565b6109306144b48760246150d3565b61092b88601d6150d3565b81526145046144f96144e06144d587601c6150d3565b61092b88601f6150d3565b6109306144ee88601d6150d3565b61092b89601e6150d3565b61094e8660266150d3565b6040820181905261451990600160441b6126c5565b6040820181905261452f9061094e8660276150d3565b60408201819052815161454291906126e0565b604082018190526145589061092b8660056150d3565b6040820152805161456d90600160441b6126c5565b80825261458d906109306145828760246150d3565b61092b8860256150d3565b808252602082018190526145b49061094e6145a987601e6150d3565b61093088601f6150d3565b602082018190526145ca9061092b8660046150d3565b60208201528051606082018190526145e79061093086601f6150d3565b6060820181905261460b9061094e6146008760266150d3565b6109308860276150d3565b606082018190526146209061092b865f6150d3565b8160600181815250505f61464961463f836020015184604001516126e0565b83606001516126e0565b905061465a8161092b8760036150d3565b905061467261466a8660256150d3565b6140006126c5565b60808301819052614688906109308760246150d3565b6080830181905261469b906140006126c5565b608083018190526146b19061093087601e6150d3565b608083018190526146c4906140006126c5565b608083018190526146da9061093087601d6150d3565b608083018190526146ed906140006126c5565b608083018190526147039061093087601c6150d3565b608083018190526147199061094e87601f6150d3565b6080830181905261472f9061092b8760056150d3565b608083015261474261466a8660266150d3565b60a08301819052614758906109308760256150d3565b60a0830181905261476b906140006126c5565b60a08301819052614781906109308760246150d3565b60a08301819052614794906140006126c5565b60a083018190526147aa9061093087601f6150d3565b60a083018190526147bd906140006126c5565b60a083018190526147d39061093087601e6150d3565b60a083018190526147e99061094e8760276150d3565b60a083018190526147fe9061092b875f6150d3565b60a0830181905260808301515f9161481691906126e0565b90506148278161092b8860046150d3565b905061483382826126e0565b60c0840181905261484c9061092b613a0589600b6150d3565b60c084018190528560136020020152505050505050565b6148d96040518061022001604052805f81526020015f81526020015f81526020015f81526020015f81526020015f81526020015f81526020015f81526020015f81526020015f81526020015f81526020015f81526020015f81526020015f81526020015f81526020015f81526020015f81525090565b6148f26148e785601c6150d3565b6109308660026150d3565b815261490d61490285601d6150d3565b6109308660036150d3565b602082015261492b61492085601e6150d3565b6109308660046150d3565b604082015261494961493e85601f6150d3565b6109308660056150d3565b6060820152805161497b906149749061496d9061496690806126c5565b84516126c5565b83516126c5565b82516126c5565b608082015260208101516149b9906149af906149a59061499b90806126c5565b84602001516126c5565b83602001516126c5565b82602001516126c5565b60a082015260408101516149f7906149ed906149e3906149d990806126c5565b84604001516126c5565b83604001516126c5565b82604001516126c5565b60c08201526060810151614a2b90614a2190614a179061411690806126c5565b83606001516126c5565b82606001516126c5565b60e0820152608081015160a0820151614a4491906126e0565b61010082015260c081015160e0820151614a5e91906126e0565b61012082015260a0810151614a8290614a7790806126e0565b8261012001516126e0565b61014082015260e0810151614aa690614a9b90806126e0565b8261010001516126e0565b610160820152610120810151614abc90806126e0565b6101e08201819052614add90614ad290806126e0565b8261016001516126e0565b6101e0820152610100810151614af390806126e0565b6101a08201819052614b1490614b0990806126e0565b8261014001516126e0565b6101a08201819052610160820151614b2b916126e0565b6101808201526101408101516101e0820151614b4791906126e0565b6101c0820152614b5b6134f285600c6150d3565b6102008201819052610280840151610180830151614b86926109309161092b9061094e8a60246150d3565b8360146020020152614bb6836015602002015161093083610200015161092b856101a0015161094e8a60256150d3565b8360156020020152614be6836016602002015161093083610200015161092b856101c0015161094e8a60266150d3565b8360166020020152614c16836017602002015161093083610200015161092b856101e0015161094e8a60276150d3565b836017602002015250505050565b614c766040518061016001604052805f81526020015f81526020015f81526020015f81526020015f81526020015f81526020015f81526020015f81526020015f81526020015f81526020015f81525090565b5f6040518060800160405280614cab7f10dc6e9c006ea38b04b1e03b4bd9490c0d03f98929ca1d7fb56821fd19d3b6e76125c5565b8152602001614cd97f0c28145b6a44df3e0149b3d0a30b3bb599df9756d4dd9b84a86b38cfb45a740b6125c5565b8152602001614d067e544b8338791518b2c7645a50392798b21f75bb60e3596170067d00141cac156125c5565b8152602001614d347f222c01175718386f2e2e82eb122789e352e105a3b8fa852613bc534433ee428b6125c5565b90529050614d51614d4686601c6150d3565b6109308760026150d3565b6101208301819052614d9090614d8590614d7a90614d6f90806126c5565b8561012001516126c5565b8461012001516126c5565b8361012001516126c5565b8252614d9d85601d6150d3565b6020830152614dad85601e6150d3565b6040830152614dbd85601f6150d3565b606083015281516020830151614de59161463f91614ddb91906126e0565b84604001516126e0565b6080830152614df86137a486600d6150d3565b6101408301528151614e1990614e0f90835f610c2d565b83608001516126e0565b60a0830152614e45846018602002015161093084610140015161092b8660a0015161094e8b60246150d3565b6103008501526020820151614e6090614e0f90836001610c2d565b60c0830152614e8c846019602002015161093084610140015161092b8660c0015161094e8b60256150d3565b6103208501526040820151614ea790614e0f90836002610c2d565b60e0830152614ed384601a602002015161093084610140015161092b8660e0015161094e8b60266150d3565b6103408501526060820151614eee90614e0f90836003610c2d565b610100830152614f1c84601b602002015161093084610140015161092b86610100015161094e8b60276150d3565b84601b61362b565b815160015b601c811015614f7657614f6c826109308684601c8110614f4b57614f4b615d2b565b602002015186614f5c600187615689565b601b8110610c2d57610c2d615d2b565b9150600101614f29565b5092915050565b5f828215801590614f985750614f94600184615689565b8316155b614fb55760405163127473a160e11b815260040160405180910390fd5b5f60405160208152602080820152602060408201528260608201528460808201525f516020615e4a5f395f51905f5260a082015260205f60c08360055afa806150075763f8d6170960e01b5f5260045ffd5b505f5160c09190910160405295945050505050565b6150246153ff565b61502c6153ff565b604051835181526020840151602082015284604082015260408160608360075afa80615056575f5ffd5b5080518252602080820151908301526060016040529392505050565b61507a6153ff565b6150826153ff565b6040518451815260208501516020820152835160408201526020840151606082015260408160808360065afa806150b7575f5ffd5b5080518252602080820151908301526080016040529392505050565b5f828260288111156150e7576150e7615dd5565b602981106150f7576150f7615d2b565b60200201519392505050565b604051806103e001604052805f81526020015f81526020015f81526020016151296153ff565b81526020016151366153ff565b81526020016151436153ff565b81526020016151506153ff565b815260200161515d6153ff565b815260200161516a6153ff565b81526020016151776153ff565b81526020016151846153ff565b81526020016151916153ff565b815260200161519e6153ff565b81526020016151ab6153ff565b81526020016151b86153ff565b81526020016151c56153ff565b81526020016151d26153ff565b81526020016151df6153ff565b81526020016151ec6153ff565b81526020016151f96153ff565b81526020016152066153ff565b81526020016152136153ff565b81526020016152206153ff565b815260200161522d6153ff565b815260200161523a6153ff565b81526020016152476153ff565b81526020016152546153ff565b81526020016152616153ff565b815260200161526e6153ff565b815260200161527b6153ff565b81526020016152886153ff565b905290565b6040518061028001604052806152a16154ac565b81526020016152ae6153ff565b81526020016152bb6153ff565b81526020016152c86153ff565b81526020016152d56153ff565b81526020016152e26153ff565b81526020016152ef6153ff565b81526020016152fc6153ff565b81526020016153096153ff565b81526020016153166153ff565b81526020016153236154cb565b81526020015f81526020016153366154f8565b81526020015f8152602001615349615526565b8152602001615356615545565b8152602001615363615449565b815260200161526e615573565b6040518061052001604052806029906020820280368337509192915050565b604051806101c001604052805f81526020015f81526020015f81526020015f81526020015f81526020015f81526020015f81526020016153cd615573565b81526020016153da615573565b81526020015f81526020015f81526020015f81526020015f8152602001606081525090565b60405180604001604052805f81526020015f81525090565b604051806040016040528061527b6153ff565b6040518061012001604052806009906020820280368337509192915050565b604051806103800160405280601c906020820280368337509192915050565b6040518060e0016040528061547b615591565b81526020015f81526020015f81526020015f81526020015f81526020016154a0615591565b81526020015f81525090565b6040518061010001604052806008906020820280368337509192915050565b60405180606001604052806003905b6154e26153ff565b8152602001906001900390816154da5790505090565b604051806103800160405280601c905b61551061542a565b8152602001906001900390816155085790505090565b604051806105400160405280602a906020820280368337509192915050565b604051806103600160405280601b905b61555d6153ff565b8152602001906001900390816155555790505090565b60405180608001604052806004906020820280368337509192915050565b604051806120000160405280610100906020820280368337509192915050565b5f5f5f5f604085870312156155c4575f5ffd5b84356001600160401b038111156155d9575f5ffd5b8501601f810187136155e9575f5ffd5b80356001600160401b038111156155fe575f5ffd5b87602082840101111561560f575f5ffd5b6020918201955093508501356001600160401b0381111561562e575f5ffd5b8501601f8101871361563e575f5ffd5b80356001600160401b03811115615653575f5ffd5b8760208260051b8401011115615667575f5ffd5b949793965060200194505050565b634e487b7160e01b5f52601160045260245ffd5b818103818111156126da576126da615675565b805f5b60088110156156be57815184526020938401939091019060010161569f565b50505050565b80518252602090810151910152565b805f5b60038110156156be576156ea8483516156c4565b60409390930192602091909101906001016156d6565b805f5b601c8110156156be578151845f5b6009811015615730578251825260209283019290910190600101615711565b505050610120939093019260209190910190600101615703565b805f5b602a8110156156be57815184526020938401939091019060010161574d565b805f5b601b8110156156be576157838483516156c4565b604093909301926020919091019060010161576f565b805f5b601c8110156156be57815184526020938401939091019060010161579c565b805f5b60048110156156be5781518452602093840193909101906001016157be565b8183525f6001600160fb1b038311156157f4575f5ffd5b8260051b80836020870137939093016020019392505050565b61581881885161569c565b5f602088015161582c6101008401826156c4565b5060408801516158406101408401826156c4565b5060608801516158546101808401826156c4565b5060808801516158686101c08401826156c4565b5060a088015161587c6102008401826156c4565b5060c08801516158906102408401826156c4565b5060e08801516158a46102808401826156c4565b506101008801516158b96102c08401826156c4565b506101208801516158ce6103008401826156c4565b506101408801516158e36103408401826156d3565b50610160880151610400830152610180880151615904610420840182615700565b506101a08801516123a08301526101c08801516159256123c084018261574a565b506101e088015161593a61290084018261576c565b5061020088015161594f612fc0840182615799565b506102208801516159646133408401826157bb565b506102408801516159796133c08401826156c4565b5061026088015161598e6134008401826156c4565b506134c06134408301526159a76134c0830187896157dd565b613460830195909552506134808101929092526134a0909101529392505050565b634e487b7160e01b5f52604160045260245ffd5b60405161014081016001600160401b03811182821017156159ff576159ff6159c8565b60405290565b604051601f8201601f191681016001600160401b0381118282101715615a2d57615a2d6159c8565b604052919050565b5f60808284031215615a45575f5ffd5b604051608081016001600160401b0381118282101715615a6757615a676159c8565b6040908152835182526020808501519083015283810151908201526060928301519281019290925250919050565b5f82601f830112615aa4575f5ffd5b5f610360615ab181615a05565b915083018185821115615ac2575f5ffd5b845b82811015615adc578051825260209182019101615ac4565b509195945050505050565b5f82601f830112615af6575f5ffd5b5f610380615ab181615a05565b5f610ba0828403128015615b15575f5ffd5b50615b1e6159dc565b615b288484615a35565b8152615b378460808501615a95565b6020820152615b4a846103e08501615ae7565b60408201526107608301516060820152615b68846107808501615ae7565b6080820152610b0083015160a0820152610b2083015160c0820152610b4083015160e0820152610b60830151610100820152610b809092015161012083015250919050565b808201808211156126da576126da615675565b80820281158282048414176126da576126da615675565b5f5f85851115615be5575f5ffd5b83861115615bf1575f5ffd5b5050820193919092039150565b803560208310156126da575f19602084900360031b1b1692915050565b5f82615c3557634e487b7160e01b5f52601260045260245ffd5b500690565b6001815b6001841115615c7557808504811115615c5957615c59615675565b6001841615615c6757908102905b60019390931c928002615c3e565b935093915050565b5f82615c8b575060016126da565b81615c9757505f6126da565b8160018114615cad5760028114615cb757615cd3565b60019150506126da565b60ff841115615cc857615cc8615675565b50506001821b6126da565b5060208310610133831016604e8410600b8410161715615cf6575081810a6126da565b615d025f198484615c3a565b805f1904821115615d1557615d15615675565b029392505050565b5f6103ef60ff841683615c7d565b634e487b7160e01b5f52603260045260245ffd5b5f60018201615d5057615d50615675565b5060010190565b5f81615d6557615d65615675565b505f190190565b5f8183825b6008811015615d90578151835260209283019290910190600101615d71565b5050506101008201905092915050565b5f82518060208501845e5f920191825250919050565b5f60208284031215615dc6575f5ffd5b815180151581146103ef575f5ffd5b634e487b7160e01b5f52602160045260245ffdfe30644e72e131a029b85045b68181585d2833e84879b9709143e1f593effffd3130644e72e131a029b85045b68181585d97816a916871ca8d3c208c16d87cfd47204bd3277422fad364751ad938e2b5e6a54cf8c68712848a692c553d0329f5d630644e72e131a029b85045b68181585d2833e84879b9709143e1f593f000000130644e72e131a029b85045b68181585d2833e84879b9709143e1f593efffec51a164736f6c634300081c000a","opcodes":"PUSH2 0x120 PUSH1 0x40 MSTORE CALLVALUE DUP1 ISZERO PUSH2 0x10 JUMPI PUSH0 PUSH0 REVERT JUMPDEST POP PUSH3 0x20000 PUSH1 0x80 DUP2 SWAP1 MSTORE PUSH1 0x11 PUSH1 0xA0 DUP2 SWAP1 MSTORE PUSH32 0x2A5648566EDCD71A509524DBF6F44BB01BCD034261A3A3207765F3CA2550A119 PUSH1 0xC0 DUP2 SWAP1 MSTORE PUSH1 0x4B PUSH1 0xE0 DUP2 SWAP1 MSTORE PUSH1 0x3 DUP4 PUSH2 0x5D PUSH1 0x1 PUSH1 0x24 PUSH2 0x8A JUMP JUMPDEST PUSH2 0x67 SWAP2 SWAP1 PUSH2 0x8A JUMP JUMPDEST PUSH2 0x71 SWAP2 SWAP1 PUSH2 0x8A JUMP JUMPDEST PUSH2 0x7C SWAP1 PUSH1 0x2 PUSH2 0x8A JUMP JUMPDEST PUSH2 0x100 MSTORE POP PUSH2 0xAF SWAP3 POP POP POP JUMP JUMPDEST DUP1 DUP3 ADD DUP1 DUP3 GT ISZERO PUSH2 0xA9 JUMPI PUSH4 0x4E487B71 PUSH1 0xE0 SHL PUSH0 MSTORE PUSH1 0x11 PUSH1 0x4 MSTORE PUSH1 0x24 PUSH0 REVERT JUMPDEST SWAP3 SWAP2 POP POP JUMP JUMPDEST PUSH1 0x80 MLOAD PUSH1 0xA0 MLOAD PUSH1 0xC0 MLOAD PUSH1 0xE0 MLOAD PUSH2 0x100 MLOAD PUSH2 0x5E96 PUSH2 0x148 PUSH0 CODECOPY PUSH0 DUP2 DUP2 PUSH2 0xCB3 ADD MSTORE DUP2 DUP2 PUSH2 0xD18 ADD MSTORE PUSH2 0x2F5C ADD MSTORE PUSH0 DUP2 DUP2 PUSH2 0x19E ADD MSTORE PUSH2 0x95E ADD MSTORE PUSH0 PUSH2 0x17C ADD MSTORE PUSH0 DUP2 DUP2 PUSH1 0x5B ADD MSTORE DUP2 DUP2 PUSH1 0x83 ADD MSTORE DUP2 DUP2 PUSH1 0xEF ADD MSTORE DUP2 DUP2 PUSH2 0x1C0 ADD MSTORE DUP2 DUP2 PUSH2 0xA8C ADD MSTORE DUP2 DUP2 PUSH2 0xBED ADD MSTORE DUP2 DUP2 PUSH2 0xC8A ADD MSTORE DUP2 DUP2 PUSH2 0x1582 ADD MSTORE DUP2 DUP2 PUSH2 0x163C ADD MSTORE DUP2 DUP2 PUSH2 0x166F ADD MSTORE DUP2 DUP2 PUSH2 0x1879 ADD MSTORE PUSH2 0x2C5F ADD MSTORE PUSH0 POP POP PUSH2 0x5E96 PUSH0 RETURN INVALID PUSH1 0x80 PUSH1 0x40 MSTORE CALLVALUE DUP1 ISZERO PUSH2 0xF JUMPI PUSH0 PUSH0 REVERT JUMPDEST POP PUSH1 0x4 CALLDATASIZE LT PUSH2 0x29 JUMPI PUSH0 CALLDATALOAD PUSH1 0xE0 SHR DUP1 PUSH4 0xEA50D0E4 EQ PUSH2 0x2D JUMPI JUMPDEST PUSH0 PUSH0 REVERT JUMPDEST PUSH2 0x40 PUSH2 0x3B CALLDATASIZE PUSH1 0x4 PUSH2 0x55B1 JUMP JUMPDEST PUSH2 0x54 JUMP JUMPDEST PUSH1 0x40 MLOAD SWAP1 ISZERO ISZERO DUP2 MSTORE PUSH1 0x20 ADD PUSH1 0x40 MLOAD DUP1 SWAP2 SUB SWAP1 RETURN JUMPDEST PUSH0 PUSH0 PUSH2 0x7F PUSH32 0x0 PUSH2 0x2DC JUMP JUMPDEST SWAP1 POP PUSH32 0x0 DUP6 DUP3 DUP2 DUP2 EQ PUSH2 0xD9 JUMPI PUSH1 0x40 MLOAD PUSH4 0x59895A53 PUSH1 0xE0 SHL DUP2 MSTORE PUSH1 0x4 DUP2 ADD SWAP4 SWAP1 SWAP4 MSTORE PUSH1 0x24 DUP4 ADD SWAP2 SWAP1 SWAP2 MSTORE PUSH1 0x44 DUP3 ADD MSTORE PUSH1 0x64 ADD PUSH1 0x40 MLOAD DUP1 SWAP2 SUB SWAP1 REVERT JUMPDEST POP POP POP PUSH0 PUSH2 0xE5 PUSH2 0x3F6 JUMP JUMPDEST SWAP1 POP PUSH0 PUSH2 0x113 DUP9 DUP9 PUSH32 0x0 PUSH2 0x40B JUMP JUMPDEST SWAP1 POP PUSH1 0x8 DUP3 PUSH1 0x40 ADD MLOAD PUSH2 0x126 SWAP2 SWAP1 PUSH2 0x5689 JUMP JUMPDEST DUP6 EQ PUSH2 0x145 JUMPI PUSH1 0x40 MLOAD PUSH4 0xFA066593 PUSH1 0xE0 SHL DUP2 MSTORE PUSH1 0x4 ADD PUSH1 0x40 MLOAD DUP1 SWAP2 SUB SWAP1 REVERT JUMPDEST PUSH1 0x40 MLOAD PUSH4 0x995BF457 PUSH1 0xE0 SHL DUP2 MSTORE PUSH0 SWAP1 PUSH20 0x0 SWAP1 PUSH4 0x995BF457 SWAP1 PUSH2 0x1E8 SWAP1 DUP6 SWAP1 DUP12 SWAP1 DUP12 SWAP1 PUSH32 0x0 SWAP1 PUSH32 0x0 SWAP1 PUSH32 0x0 SWAP1 PUSH1 0x4 ADD PUSH2 0x580D JUMP JUMPDEST PUSH2 0xBA0 PUSH1 0x40 MLOAD DUP1 DUP4 SUB DUP2 DUP7 GAS DELEGATECALL ISZERO DUP1 ISZERO PUSH2 0x204 JUMPI RETURNDATASIZE PUSH0 PUSH0 RETURNDATACOPY RETURNDATASIZE PUSH0 REVERT JUMPDEST POP POP POP POP PUSH1 0x40 MLOAD RETURNDATASIZE PUSH1 0x1F NOT PUSH1 0x1F DUP3 ADD AND DUP3 ADD DUP1 PUSH1 0x40 MSTORE POP DUP2 ADD SWAP1 PUSH2 0x228 SWAP2 SWAP1 PUSH2 0x5B03 JUMP JUMPDEST SWAP1 POP PUSH2 0x278 DUP8 DUP8 DUP1 DUP1 PUSH1 0x20 MUL PUSH1 0x20 ADD PUSH1 0x40 MLOAD SWAP1 DUP2 ADD PUSH1 0x40 MSTORE DUP1 SWAP4 SWAP3 SWAP2 SWAP1 DUP2 DUP2 MSTORE PUSH1 0x20 ADD DUP4 DUP4 PUSH1 0x20 MUL DUP1 DUP3 DUP5 CALLDATACOPY PUSH0 SWAP3 ADD SWAP2 SWAP1 SWAP2 MSTORE POP POP DUP6 MLOAD DUP6 MLOAD PUSH1 0x20 DUP2 ADD MLOAD PUSH1 0x40 SWAP1 SWAP2 ADD MLOAD SWAP2 SWAP4 POP SWAP2 POP PUSH1 0x1 PUSH2 0x908 JUMP JUMPDEST DUP2 MLOAD PUSH1 0x60 ADD MSTORE PUSH2 0x288 DUP3 DUP3 PUSH2 0xA6F JUMP JUMPDEST PUSH2 0x2A5 JUMPI PUSH1 0x40 MLOAD PUSH4 0x13F87443 PUSH1 0xE3 SHL DUP2 MSTORE PUSH1 0x4 ADD PUSH1 0x40 MLOAD DUP1 SWAP2 SUB SWAP1 REVERT JUMPDEST PUSH2 0x2B0 DUP3 DUP5 DUP4 PUSH2 0xC76 JUMP JUMPDEST PUSH2 0x2CD JUMPI PUSH1 0x40 MLOAD PUSH4 0x52EC1745 PUSH1 0xE1 SHL DUP2 MSTORE PUSH1 0x4 ADD PUSH1 0x40 MLOAD DUP1 SWAP2 SUB SWAP1 REVERT JUMPDEST POP PUSH1 0x1 SWAP9 SWAP8 POP POP POP POP POP POP POP POP JUMP JUMPDEST PUSH0 DUP1 PUSH1 0x2 PUSH2 0x2EC PUSH1 0x1 PUSH1 0x8 PUSH2 0x5BAD JUMP JUMPDEST PUSH2 0x2F6 SWAP2 SWAP1 PUSH2 0x5BC0 JUMP JUMPDEST SWAP1 POP PUSH2 0x304 PUSH1 0x2 PUSH1 0x3 PUSH2 0x5BC0 JUMP JUMPDEST PUSH2 0x30E SWAP1 DUP3 PUSH2 0x5BAD JUMP JUMPDEST SWAP1 POP PUSH1 0x1 PUSH2 0x31D PUSH1 0x9 DUP6 PUSH2 0x5BC0 JUMP JUMPDEST PUSH2 0x327 SWAP2 SWAP1 PUSH2 0x5BC0 JUMP JUMPDEST PUSH2 0x331 SWAP1 DUP3 PUSH2 0x5BAD JUMP JUMPDEST SWAP1 POP PUSH1 0x1 PUSH2 0x340 DUP2 PUSH1 0x29 PUSH2 0x5BAD JUMP JUMPDEST PUSH2 0x34A SWAP2 SWAP1 PUSH2 0x5BC0 JUMP JUMPDEST PUSH2 0x354 SWAP1 DUP3 PUSH2 0x5BAD JUMP JUMPDEST SWAP1 POP PUSH2 0x362 PUSH1 0x1 PUSH1 0x2 PUSH2 0x5BC0 JUMP JUMPDEST PUSH2 0x36C SWAP1 DUP3 PUSH2 0x5BAD JUMP JUMPDEST SWAP1 POP PUSH2 0x379 PUSH1 0x1 DUP5 PUSH2 0x5BC0 JUMP JUMPDEST PUSH2 0x383 SWAP1 DUP3 PUSH2 0x5BAD JUMP JUMPDEST SWAP1 POP PUSH2 0x391 PUSH1 0x1 PUSH1 0x4 PUSH2 0x5BC0 JUMP JUMPDEST PUSH2 0x39B SWAP1 DUP3 PUSH2 0x5BAD JUMP JUMPDEST SWAP1 POP PUSH1 0x2 PUSH2 0x3AA PUSH1 0x1 DUP6 PUSH2 0x5689 JUMP JUMPDEST PUSH2 0x3B4 SWAP2 SWAP1 PUSH2 0x5BC0 JUMP JUMPDEST PUSH2 0x3BE SWAP1 DUP3 PUSH2 0x5BAD JUMP JUMPDEST SWAP1 POP PUSH2 0x3CB PUSH1 0x2 DUP1 PUSH2 0x5BC0 JUMP JUMPDEST PUSH2 0x3D5 SWAP1 DUP3 PUSH2 0x5BAD JUMP JUMPDEST SWAP1 POP PUSH2 0x3E2 PUSH1 0x8 DUP3 PUSH2 0x5BAD JUMP JUMPDEST SWAP1 POP PUSH2 0x3EF DUP2 PUSH1 0x20 PUSH2 0x5BC0 JUMP JUMPDEST SWAP4 SWAP3 POP POP POP JUMP JUMPDEST PUSH2 0x3FE PUSH2 0x5103 JUMP JUMPDEST PUSH2 0x406 PUSH2 0x1C8A JUMP JUMPDEST SWAP1 POP SWAP1 JUMP JUMPDEST PUSH2 0x413 PUSH2 0x528D JUMP JUMPDEST PUSH0 DUP1 JUMPDEST PUSH1 0x8 DUP2 LT ISZERO PUSH2 0x4C7 JUMPI PUSH0 DUP7 DUP4 DUP8 PUSH2 0x42E PUSH1 0x20 DUP4 PUSH2 0x5BAD JUMP JUMPDEST SWAP3 PUSH2 0x43B SWAP4 SWAP3 SWAP2 SWAP1 PUSH2 0x5BD7 JUMP JUMPDEST PUSH2 0x444 SWAP2 PUSH2 0x5BFE JUMP JUMPDEST SWAP1 POP PUSH2 0x451 PUSH1 0x2 DUP4 PUSH2 0x5C1B JUMP JUMPDEST ISZERO PUSH2 0x45D JUMPI PUSH1 0x78 PUSH2 0x460 JUMP JUMPDEST PUSH1 0x88 JUMPDEST PUSH2 0x46B SWAP1 PUSH1 0x2 PUSH2 0x5D1D JUMP JUMPDEST DUP2 LT PUSH2 0x48A JUMPI PUSH1 0x40 MLOAD PUSH4 0xEB73E0BD PUSH1 0xE0 SHL DUP2 MSTORE PUSH1 0x4 ADD PUSH1 0x40 MLOAD DUP1 SWAP2 SUB SWAP1 REVERT JUMPDEST PUSH2 0x493 DUP2 PUSH2 0x25C5 JUMP JUMPDEST DUP5 MLOAD DUP4 PUSH1 0x8 DUP2 LT PUSH2 0x4A6 JUMPI PUSH2 0x4A6 PUSH2 0x5D2B JUMP JUMPDEST PUSH1 0x20 MUL ADD DUP2 DUP2 MSTORE POP POP PUSH1 0x20 DUP4 PUSH2 0x4BC SWAP2 SWAP1 PUSH2 0x5BAD JUMP JUMPDEST SWAP3 POP POP PUSH1 0x1 ADD PUSH2 0x416 JUMP JUMPDEST POP PUSH2 0x4EB DUP6 DUP3 DUP7 PUSH2 0x4D9 PUSH1 0x40 DUP4 PUSH2 0x5BAD JUMP JUMPDEST SWAP3 PUSH2 0x4E6 SWAP4 SWAP3 SWAP2 SWAP1 PUSH2 0x5BD7 JUMP JUMPDEST PUSH2 0x25F7 JUMP JUMPDEST PUSH1 0x20 DUP4 ADD MSTORE PUSH2 0x4FB PUSH1 0x40 DUP3 PUSH2 0x5BAD JUMP JUMPDEST SWAP1 POP PUSH2 0x50E DUP6 DUP3 DUP7 PUSH2 0x4D9 PUSH1 0x40 DUP4 PUSH2 0x5BAD JUMP JUMPDEST PUSH1 0x40 DUP1 DUP5 ADD SWAP2 SWAP1 SWAP2 MSTORE PUSH2 0x521 SWAP1 DUP3 PUSH2 0x5BAD JUMP JUMPDEST SWAP1 POP PUSH2 0x534 DUP6 DUP3 DUP7 PUSH2 0x4D9 PUSH1 0x40 DUP4 PUSH2 0x5BAD JUMP JUMPDEST PUSH1 0x60 DUP4 ADD MSTORE PUSH2 0x544 PUSH1 0x40 DUP3 PUSH2 0x5BAD JUMP JUMPDEST SWAP1 POP PUSH2 0x557 DUP6 DUP3 DUP7 PUSH2 0x4D9 PUSH1 0x40 DUP4 PUSH2 0x5BAD JUMP JUMPDEST PUSH1 0x80 DUP4 ADD MSTORE PUSH2 0x567 PUSH1 0x40 DUP3 PUSH2 0x5BAD JUMP JUMPDEST SWAP1 POP PUSH2 0x57A DUP6 DUP3 DUP7 PUSH2 0x4D9 PUSH1 0x40 DUP4 PUSH2 0x5BAD JUMP JUMPDEST PUSH1 0xC0 DUP4 ADD MSTORE PUSH2 0x58A PUSH1 0x40 DUP3 PUSH2 0x5BAD JUMP JUMPDEST SWAP1 POP PUSH2 0x59D DUP6 DUP3 DUP7 PUSH2 0x4D9 PUSH1 0x40 DUP4 PUSH2 0x5BAD JUMP JUMPDEST PUSH1 0xE0 DUP4 ADD MSTORE PUSH2 0x5AD PUSH1 0x40 DUP3 PUSH2 0x5BAD JUMP JUMPDEST SWAP1 POP PUSH2 0x5C0 DUP6 DUP3 DUP7 PUSH2 0x4D9 PUSH1 0x40 DUP4 PUSH2 0x5BAD JUMP JUMPDEST PUSH1 0xA0 DUP4 ADD MSTORE PUSH2 0x5D0 PUSH1 0x40 DUP3 PUSH2 0x5BAD JUMP JUMPDEST SWAP1 POP PUSH2 0x5E3 DUP6 DUP3 DUP7 PUSH2 0x4D9 PUSH1 0x40 DUP4 PUSH2 0x5BAD JUMP JUMPDEST PUSH2 0x100 DUP4 ADD MSTORE PUSH2 0x5F4 PUSH1 0x40 DUP3 PUSH2 0x5BAD JUMP JUMPDEST SWAP1 POP PUSH2 0x607 DUP6 DUP3 DUP7 PUSH2 0x4D9 PUSH1 0x40 DUP4 PUSH2 0x5BAD JUMP JUMPDEST PUSH2 0x120 DUP4 ADD MSTORE PUSH2 0x618 PUSH1 0x40 DUP3 PUSH2 0x5BAD JUMP JUMPDEST SWAP1 POP PUSH2 0x62B DUP6 DUP3 DUP7 PUSH2 0x4D9 PUSH1 0x40 DUP4 PUSH2 0x5BAD JUMP JUMPDEST PUSH2 0x140 DUP4 ADD MLOAD MSTORE PUSH2 0x63D PUSH1 0x40 DUP3 PUSH2 0x5BAD JUMP JUMPDEST SWAP1 POP PUSH2 0x662 DUP6 DUP3 DUP7 PUSH2 0x650 PUSH1 0x20 DUP4 PUSH2 0x5BAD JUMP JUMPDEST SWAP3 PUSH2 0x65D SWAP4 SWAP3 SWAP2 SWAP1 PUSH2 0x5BD7 JUMP JUMPDEST PUSH2 0x26B2 JUMP JUMPDEST PUSH2 0x160 DUP4 ADD MSTORE PUSH2 0x673 PUSH1 0x20 DUP3 PUSH2 0x5BAD JUMP JUMPDEST SWAP1 POP PUSH0 JUMPDEST DUP4 DUP2 LT ISZERO PUSH2 0x6F1 JUMPI PUSH0 JUMPDEST PUSH1 0x9 DUP2 LT ISZERO PUSH2 0x6E8 JUMPI PUSH2 0x69B DUP8 DUP5 DUP9 PUSH2 0x650 PUSH1 0x20 DUP4 PUSH2 0x5BAD JUMP JUMPDEST DUP5 PUSH2 0x180 ADD MLOAD DUP4 PUSH1 0x1C DUP2 LT PUSH2 0x6B2 JUMPI PUSH2 0x6B2 PUSH2 0x5D2B JUMP JUMPDEST PUSH1 0x20 MUL ADD MLOAD DUP3 PUSH1 0x9 DUP2 LT PUSH2 0x6C8 JUMPI PUSH2 0x6C8 PUSH2 0x5D2B JUMP JUMPDEST PUSH1 0x20 MUL ADD DUP2 DUP2 MSTORE POP POP PUSH1 0x20 DUP4 PUSH2 0x6DE SWAP2 SWAP1 PUSH2 0x5BAD JUMP JUMPDEST SWAP3 POP PUSH1 0x1 ADD PUSH2 0x681 JUMP JUMPDEST POP PUSH1 0x1 ADD PUSH2 0x677 JUMP JUMPDEST POP PUSH0 JUMPDEST PUSH2 0x700 PUSH1 0x1 PUSH1 0x29 PUSH2 0x5BAD JUMP JUMPDEST DUP2 LT ISZERO PUSH2 0x74F JUMPI PUSH2 0x718 DUP7 DUP4 DUP8 PUSH2 0x650 PUSH1 0x20 DUP4 PUSH2 0x5BAD JUMP JUMPDEST DUP4 PUSH2 0x1C0 ADD MLOAD DUP3 PUSH1 0x2A DUP2 LT PUSH2 0x72F JUMPI PUSH2 0x72F PUSH2 0x5D2B JUMP JUMPDEST PUSH1 0x20 MUL ADD DUP2 DUP2 MSTORE POP POP PUSH1 0x20 DUP3 PUSH2 0x745 SWAP2 SWAP1 PUSH2 0x5BAD JUMP JUMPDEST SWAP2 POP PUSH1 0x1 ADD PUSH2 0x6F4 JUMP JUMPDEST POP PUSH2 0x761 DUP6 DUP3 DUP7 PUSH2 0x650 PUSH1 0x20 DUP4 PUSH2 0x5BAD JUMP JUMPDEST PUSH2 0x1A0 DUP4 ADD MSTORE PUSH2 0x772 PUSH1 0x20 DUP3 PUSH2 0x5BAD JUMP JUMPDEST SWAP1 POP PUSH2 0x785 DUP6 DUP3 DUP7 PUSH2 0x4D9 PUSH1 0x40 DUP4 PUSH2 0x5BAD JUMP JUMPDEST PUSH2 0x140 DUP4 ADD MLOAD PUSH1 0x20 ADD MSTORE PUSH2 0x79A PUSH1 0x40 DUP3 PUSH2 0x5BAD JUMP JUMPDEST SWAP1 POP PUSH2 0x7AD DUP6 DUP3 DUP7 PUSH2 0x4D9 PUSH1 0x40 DUP4 PUSH2 0x5BAD JUMP JUMPDEST PUSH2 0x140 DUP4 ADD MLOAD PUSH1 0x2 PUSH1 0x20 MUL ADD MSTORE PUSH2 0x7C5 PUSH1 0x40 DUP3 PUSH2 0x5BAD JUMP JUMPDEST SWAP1 POP PUSH0 JUMPDEST PUSH2 0x7D4 PUSH1 0x1 DUP6 PUSH2 0x5689 JUMP JUMPDEST DUP2 LT ISZERO PUSH2 0x81D JUMPI PUSH2 0x7EC DUP7 DUP4 DUP8 PUSH2 0x4D9 PUSH1 0x40 DUP4 PUSH2 0x5BAD JUMP JUMPDEST DUP4 PUSH2 0x1E0 ADD MLOAD DUP3 PUSH1 0x1B DUP2 LT PUSH2 0x803 JUMPI PUSH2 0x803 PUSH2 0x5D2B JUMP JUMPDEST PUSH1 0x20 MUL ADD MSTORE PUSH2 0x813 PUSH1 0x40 DUP4 PUSH2 0x5BAD JUMP JUMPDEST SWAP2 POP PUSH1 0x1 ADD PUSH2 0x7C9 JUMP JUMPDEST POP PUSH0 JUMPDEST DUP4 DUP2 LT ISZERO PUSH2 0x870 JUMPI PUSH2 0x839 DUP7 DUP4 DUP8 PUSH2 0x650 PUSH1 0x20 DUP4 PUSH2 0x5BAD JUMP JUMPDEST DUP4 PUSH2 0x200 ADD MLOAD DUP3 PUSH1 0x1C DUP2 LT PUSH2 0x850 JUMPI PUSH2 0x850 PUSH2 0x5D2B JUMP JUMPDEST PUSH1 0x20 MUL ADD DUP2 DUP2 MSTORE POP POP PUSH1 0x20 DUP3 PUSH2 0x866 SWAP2 SWAP1 PUSH2 0x5BAD JUMP JUMPDEST SWAP2 POP PUSH1 0x1 ADD PUSH2 0x820 JUMP JUMPDEST POP PUSH0 JUMPDEST PUSH1 0x4 DUP2 LT ISZERO PUSH2 0x8C4 JUMPI PUSH2 0x88D DUP7 DUP4 DUP8 PUSH2 0x650 PUSH1 0x20 DUP4 PUSH2 0x5BAD JUMP JUMPDEST DUP4 PUSH2 0x220 ADD MLOAD DUP3 PUSH1 0x4 DUP2 LT PUSH2 0x8A4 JUMPI PUSH2 0x8A4 PUSH2 0x5D2B JUMP JUMPDEST PUSH1 0x20 MUL ADD DUP2 DUP2 MSTORE POP POP PUSH1 0x20 DUP3 PUSH2 0x8BA SWAP2 SWAP1 PUSH2 0x5BAD JUMP JUMPDEST SWAP2 POP PUSH1 0x1 ADD PUSH2 0x873 JUMP JUMPDEST POP PUSH2 0x8D6 DUP6 DUP3 DUP7 PUSH2 0x4D9 PUSH1 0x40 DUP4 PUSH2 0x5BAD JUMP JUMPDEST PUSH2 0x240 DUP4 ADD MSTORE PUSH2 0x8E7 PUSH1 0x40 DUP3 PUSH2 0x5BAD JUMP JUMPDEST SWAP1 POP PUSH2 0x8FA DUP6 DUP3 DUP7 PUSH2 0x4D9 PUSH1 0x40 DUP4 PUSH2 0x5BAD JUMP JUMPDEST PUSH2 0x260 DUP4 ADD MSTORE POP SWAP4 SWAP3 POP POP POP JUMP JUMPDEST PUSH0 PUSH1 0x1 DUP1 DUP3 PUSH2 0x935 DUP7 PUSH2 0x930 DUP10 PUSH2 0x92B PUSH2 0x926 DUP11 PUSH4 0x10000000 PUSH2 0x5BAD JUMP JUMPDEST PUSH2 0x25C5 JUMP JUMPDEST PUSH2 0x26C5 JUMP JUMPDEST PUSH2 0x26E0 JUMP JUMPDEST SWAP1 POP PUSH0 PUSH2 0x953 DUP8 PUSH2 0x94E DUP11 PUSH2 0x92B PUSH2 0x926 DUP12 PUSH1 0x1 PUSH2 0x5BAD JUMP JUMPDEST PUSH2 0x26F9 JUMP JUMPDEST SWAP1 POP PUSH0 JUMPDEST PUSH2 0x982 PUSH1 0x8 PUSH32 0x0 PUSH2 0x5689 JUMP JUMPDEST DUP2 LT ISZERO PUSH2 0x9EF JUMPI PUSH0 PUSH2 0x9AC DUP13 DUP4 DUP2 MLOAD DUP2 LT PUSH2 0x99F JUMPI PUSH2 0x99F PUSH2 0x5D2B JUMP JUMPDEST PUSH1 0x20 MUL PUSH1 0x20 ADD ADD MLOAD PUSH2 0x2721 JUMP JUMPDEST SWAP1 POP PUSH2 0x9BC DUP7 PUSH2 0x92B DUP7 DUP5 PUSH2 0x26E0 JUMP JUMPDEST SWAP6 POP PUSH2 0x9CC DUP6 PUSH2 0x92B DUP6 DUP5 PUSH2 0x26E0 JUMP JUMPDEST SWAP5 POP PUSH2 0x9D8 DUP5 DUP12 PUSH2 0x26E0 JUMP JUMPDEST SWAP4 POP PUSH2 0x9E4 DUP4 DUP12 PUSH2 0x26F9 JUMP JUMPDEST SWAP3 POP POP PUSH1 0x1 ADD PUSH2 0x957 JUMP JUMPDEST POP PUSH0 JUMPDEST PUSH1 0x8 DUP2 LT ISZERO PUSH2 0xA56 JUMPI PUSH0 DUP11 DUP3 PUSH1 0x8 DUP2 LT PUSH2 0xA0E JUMPI PUSH2 0xA0E PUSH2 0x5D2B JUMP JUMPDEST PUSH1 0x20 MUL ADD MLOAD SWAP1 POP PUSH2 0xA23 DUP7 PUSH2 0x92B DUP7 DUP5 PUSH2 0x26E0 JUMP JUMPDEST SWAP6 POP PUSH2 0xA33 DUP6 PUSH2 0x92B DUP6 DUP5 PUSH2 0x26E0 JUMP JUMPDEST SWAP5 POP PUSH2 0xA3F DUP5 DUP12 PUSH2 0x26E0 JUMP JUMPDEST SWAP4 POP PUSH2 0xA4B DUP4 DUP12 PUSH2 0x26F9 JUMP JUMPDEST SWAP3 POP POP PUSH1 0x1 ADD PUSH2 0x9F2 JUMP JUMPDEST POP PUSH2 0xA61 DUP5 DUP5 PUSH2 0x2750 JUMP JUMPDEST SWAP11 SWAP10 POP POP POP POP POP POP POP POP POP POP JUMP JUMPDEST PUSH0 PUSH0 PUSH2 0xA84 DUP4 PUSH1 0x60 ADD MLOAD DUP6 PUSH2 0x160 ADD MLOAD PUSH2 0x26C5 JUMP JUMPDEST SWAP1 POP PUSH1 0x1 PUSH0 JUMPDEST PUSH32 0x0 DUP2 LT ISZERO PUSH2 0xB76 JUMPI PUSH0 DUP7 PUSH2 0x180 ADD MLOAD DUP3 PUSH1 0x1C DUP2 LT PUSH2 0xACA JUMPI PUSH2 0xACA PUSH2 0x5D2B JUMP JUMPDEST PUSH1 0x20 MUL ADD MLOAD DUP1 MLOAD SWAP1 SWAP2 POP PUSH0 SWAP1 PUSH2 0xAE8 SWAP1 DUP4 PUSH1 0x1 JUMPDEST PUSH1 0x20 MUL ADD MLOAD PUSH2 0x26E0 JUMP JUMPDEST SWAP1 POP DUP5 DUP2 EQ PUSH2 0xB0A JUMPI PUSH1 0x40 MLOAD PUSH4 0x13F87443 PUSH1 0xE3 SHL DUP2 MSTORE PUSH1 0x4 ADD PUSH1 0x40 MLOAD DUP1 SWAP2 SUB SWAP1 REVERT JUMPDEST PUSH0 DUP8 PUSH1 0x80 ADD MLOAD DUP5 PUSH1 0x1C DUP2 LT PUSH2 0xB21 JUMPI PUSH2 0xB21 PUSH2 0x5D2B JUMP JUMPDEST PUSH1 0x20 MUL ADD MLOAD SWAP1 POP PUSH2 0xB32 DUP4 DUP3 PUSH2 0x275E JUMP JUMPDEST SWAP6 POP PUSH2 0xB66 DUP6 PUSH2 0x92B PUSH1 0x1 PUSH2 0x930 DUP6 PUSH2 0x92B DUP15 PUSH1 0x40 ADD MLOAD DUP12 PUSH1 0x1C DUP2 LT PUSH2 0xB5A JUMPI PUSH2 0xB5A PUSH2 0x5D2B JUMP JUMPDEST PUSH1 0x20 MUL ADD MLOAD PUSH1 0x1 PUSH2 0x26F9 JUMP JUMPDEST SWAP5 POP POP POP POP DUP1 PUSH1 0x1 ADD SWAP1 POP PUSH2 0xA8A JUMP JUMPDEST POP PUSH2 0xB7F PUSH2 0x5370 JUMP JUMPDEST PUSH0 JUMPDEST PUSH1 0x29 DUP2 LT ISZERO PUSH2 0xBCF JUMPI PUSH2 0x1C0 DUP8 ADD MLOAD PUSH2 0xB9B PUSH1 0x1 DUP4 PUSH2 0x5BAD JUMP JUMPDEST PUSH1 0x2A DUP2 LT PUSH2 0xBAB JUMPI PUSH2 0xBAB PUSH2 0x5D2B JUMP JUMPDEST PUSH1 0x20 MUL ADD MLOAD DUP3 DUP3 PUSH1 0x29 DUP2 LT PUSH2 0xBC2 JUMPI PUSH2 0xBC2 PUSH2 0x5D2B JUMP JUMPDEST PUSH1 0x20 MUL ADD MSTORE PUSH1 0x1 ADD PUSH2 0xB81 JUMP JUMPDEST POP PUSH0 PUSH2 0xBE4 DUP3 DUP8 PUSH0 ADD MLOAD DUP9 PUSH1 0x20 ADD MLOAD DUP7 PUSH2 0x28C0 JUMP JUMPDEST SWAP1 POP PUSH1 0x1 PUSH1 0x2 JUMPDEST PUSH32 0x0 DUP2 LT ISZERO PUSH2 0xC41 JUMPI PUSH2 0xC37 DUP3 DUP10 PUSH1 0x80 ADD MLOAD DUP4 PUSH1 0x1C DUP2 LT PUSH2 0xC2D JUMPI PUSH2 0xC2D PUSH2 0x5D2B JUMP JUMPDEST PUSH1 0x20 MUL ADD MLOAD PUSH2 0x26C5 JUMP JUMPDEST SWAP2 POP PUSH1 0x1 ADD PUSH2 0xBEB JUMP JUMPDEST POP PUSH2 0xC67 PUSH2 0xC54 DUP4 PUSH2 0x92B PUSH1 0x1 DUP6 PUSH2 0x26F9 JUMP JUMPDEST PUSH2 0x930 DUP11 PUSH2 0x1A0 ADD MLOAD DUP11 PUSH1 0x60 ADD MLOAD PUSH2 0x26C5 JUMP JUMPDEST SWAP5 SWAP1 SWAP5 EQ SWAP8 SWAP7 POP POP POP POP POP POP POP JUMP JUMPDEST PUSH0 PUSH2 0xC7F PUSH2 0x538F JUMP JUMPDEST PUSH0 PUSH2 0xCAE DUP5 PUSH1 0xC0 ADD MLOAD PUSH32 0x0 PUSH2 0x2939 JUMP JUMPDEST SWAP1 POP PUSH0 PUSH32 0x0 PUSH1 0x1 PUSH1 0x1 PUSH1 0x40 SHL SUB DUP2 GT ISZERO PUSH2 0xCE9 JUMPI PUSH2 0xCE9 PUSH2 0x59C8 JUMP JUMPDEST PUSH1 0x40 MLOAD SWAP1 DUP1 DUP3 MSTORE DUP1 PUSH1 0x20 MUL PUSH1 0x20 ADD DUP3 ADD PUSH1 0x40 MSTORE DUP1 ISZERO PUSH2 0xD12 JUMPI DUP2 PUSH1 0x20 ADD PUSH1 0x20 DUP3 MUL DUP1 CALLDATASIZE DUP4 CALLDATACOPY ADD SWAP1 POP JUMPDEST POP SWAP1 POP PUSH0 PUSH32 0x0 PUSH1 0x1 PUSH1 0x1 PUSH1 0x40 SHL SUB DUP2 GT ISZERO PUSH2 0xD4E JUMPI PUSH2 0xD4E PUSH2 0x59C8 JUMP JUMPDEST PUSH1 0x40 MLOAD SWAP1 DUP1 DUP3 MSTORE DUP1 PUSH1 0x20 MUL PUSH1 0x20 ADD DUP3 ADD PUSH1 0x40 MSTORE DUP1 ISZERO PUSH2 0xD87 JUMPI DUP2 PUSH1 0x20 ADD JUMPDEST PUSH2 0xD74 PUSH2 0x53FF JUMP JUMPDEST DUP2 MSTORE PUSH1 0x20 ADD SWAP1 PUSH1 0x1 SWAP1 SUB SWAP1 DUP2 PUSH2 0xD6C JUMPI SWAP1 POP JUMPDEST POP SWAP1 POP PUSH2 0xDBA PUSH2 0xDB5 DUP8 PUSH2 0x100 ADD MLOAD DUP6 PUSH0 DUP2 MLOAD DUP2 LT PUSH2 0xDA8 JUMPI PUSH2 0xDA8 PUSH2 0x5D2B JUMP JUMPDEST PUSH1 0x20 MUL PUSH1 0x20 ADD ADD MLOAD PUSH2 0x26F9 JUMP JUMPDEST PUSH2 0x2A02 JUMP JUMPDEST DUP5 PUSH2 0x120 ADD DUP2 DUP2 MSTORE POP POP PUSH2 0xDEF PUSH2 0xDB5 DUP8 PUSH2 0x100 ADD MLOAD DUP6 PUSH0 DUP2 MLOAD DUP2 LT PUSH2 0xDE2 JUMPI PUSH2 0xDE2 PUSH2 0x5D2B JUMP JUMPDEST PUSH1 0x20 MUL PUSH1 0x20 ADD ADD MLOAD PUSH2 0x26E0 JUMP JUMPDEST PUSH2 0x140 DUP6 ADD DUP2 SWAP1 MSTORE PUSH2 0x120 DUP6 ADD MLOAD PUSH1 0xE0 DUP9 ADD MLOAD PUSH2 0xE10 SWAP3 PUSH2 0x930 SWAP2 SWAP1 PUSH2 0x26C5 JUMP JUMPDEST DUP5 MSTORE PUSH1 0xC0 DUP7 ADD MLOAD PUSH2 0xE40 SWAP1 PUSH2 0xE24 SWAP1 PUSH2 0x2A02 JUMP JUMPDEST PUSH2 0x92B DUP7 PUSH2 0x120 ADD MLOAD PUSH2 0x94E DUP11 PUSH1 0xE0 ADD MLOAD DUP10 PUSH2 0x140 ADD MLOAD PUSH2 0x26C5 JUMP JUMPDEST PUSH1 0x20 DUP6 ADD MSTORE DUP2 MLOAD PUSH1 0x1 SWAP1 DUP4 SWAP1 PUSH0 SWAP1 PUSH2 0xE5A JUMPI PUSH2 0xE5A PUSH2 0x5D2B JUMP JUMPDEST PUSH1 0x20 MUL PUSH1 0x20 ADD ADD DUP2 DUP2 MSTORE POP POP DUP8 PUSH2 0x240 ADD MLOAD DUP2 PUSH0 DUP2 MLOAD DUP2 LT PUSH2 0xE7E JUMPI PUSH2 0xE7E PUSH2 0x5D2B JUMP JUMPDEST PUSH1 0x20 SWAP1 DUP2 MUL SWAP2 SWAP1 SWAP2 ADD ADD MSTORE PUSH1 0x1 PUSH1 0xA0 DUP6 ADD MSTORE PUSH0 PUSH1 0xC0 DUP6 ADD MSTORE DUP4 MLOAD PUSH2 0xEA1 SWAP1 PUSH2 0x2A9A JUMP JUMPDEST PUSH1 0x40 DUP6 ADD MSTORE PUSH1 0x20 DUP5 ADD MLOAD PUSH2 0xEB4 SWAP1 PUSH2 0x2A9A JUMP JUMPDEST PUSH1 0x60 DUP6 ADD MSTORE PUSH1 0x1 JUMPDEST PUSH2 0xEC8 PUSH1 0x1 PUSH1 0x24 PUSH2 0x5BAD JUMP JUMPDEST DUP2 GT PUSH2 0xF69 JUMPI PUSH2 0xEE0 DUP6 PUSH1 0x40 ADD MLOAD DUP7 PUSH1 0xA0 ADD MLOAD PUSH2 0x26C5 JUMP JUMPDEST DUP4 DUP3 DUP2 MLOAD DUP2 LT PUSH2 0xEF2 JUMPI PUSH2 0xEF2 PUSH2 0x5D2B JUMP JUMPDEST PUSH1 0x20 MUL PUSH1 0x20 ADD ADD DUP2 DUP2 MSTORE POP POP PUSH2 0xF3B DUP6 PUSH1 0xC0 ADD MLOAD PUSH2 0x930 DUP12 PUSH2 0x1C0 ADD MLOAD PUSH1 0x1 DUP6 PUSH2 0xF1C SWAP2 SWAP1 PUSH2 0x5689 JUMP JUMPDEST PUSH1 0x2A DUP2 LT PUSH2 0xF2C JUMPI PUSH2 0xF2C PUSH2 0x5D2B JUMP JUMPDEST PUSH1 0x20 MUL ADD MLOAD DUP9 PUSH1 0xA0 ADD MLOAD PUSH2 0x26C5 JUMP JUMPDEST PUSH1 0xC0 DUP7 ADD MSTORE PUSH1 0xA0 DUP1 DUP7 ADD MLOAD SWAP1 DUP9 ADD MLOAD PUSH2 0xF54 SWAP2 SWAP1 PUSH2 0x26C5 JUMP JUMPDEST PUSH1 0xA0 DUP7 ADD MSTORE PUSH2 0xF62 DUP2 PUSH2 0x5D3F JUMP JUMPDEST SWAP1 POP PUSH2 0xEBC JUMP JUMPDEST POP PUSH0 JUMPDEST PUSH1 0x5 DUP2 LT ISZERO PUSH2 0x1042 JUMPI PUSH0 PUSH2 0xF81 PUSH1 0x1E DUP4 PUSH2 0x5BAD JUMP JUMPDEST SWAP1 POP PUSH0 PUSH2 0xF90 PUSH1 0x1 PUSH1 0x24 PUSH2 0x5BAD JUMP JUMPDEST PUSH2 0xF9A SWAP1 DUP5 PUSH2 0x5BAD JUMP JUMPDEST SWAP1 POP PUSH2 0xFCB DUP6 DUP4 DUP2 MLOAD DUP2 LT PUSH2 0xFB1 JUMPI PUSH2 0xFB1 PUSH2 0x5D2B JUMP JUMPDEST PUSH1 0x20 MUL PUSH1 0x20 ADD ADD MLOAD PUSH2 0x930 DUP10 PUSH1 0x60 ADD MLOAD DUP11 PUSH1 0xA0 ADD MLOAD PUSH2 0x26C5 JUMP JUMPDEST DUP6 DUP4 DUP2 MLOAD DUP2 LT PUSH2 0xFDD JUMPI PUSH2 0xFDD PUSH2 0x5D2B JUMP JUMPDEST PUSH1 0x20 MUL PUSH1 0x20 ADD ADD DUP2 DUP2 MSTORE POP POP PUSH2 0x101A DUP8 PUSH1 0xC0 ADD MLOAD PUSH2 0x930 DUP14 PUSH2 0x1C0 ADD MLOAD DUP5 PUSH1 0x2A DUP2 LT PUSH2 0x100B JUMPI PUSH2 0x100B PUSH2 0x5D2B JUMP JUMPDEST PUSH1 0x20 MUL ADD MLOAD DUP11 PUSH1 0xA0 ADD MLOAD PUSH2 0x26C5 JUMP JUMPDEST PUSH1 0xC0 DUP9 ADD MSTORE PUSH1 0xA0 DUP1 DUP9 ADD MLOAD SWAP1 DUP11 ADD MLOAD PUSH2 0x1033 SWAP2 SWAP1 PUSH2 0x26C5 JUMP JUMPDEST PUSH1 0xA0 DUP9 ADD MSTORE POP POP PUSH1 0x1 ADD PUSH2 0xF6C JUMP JUMPDEST POP DUP8 PUSH1 0x20 ADD MLOAD DUP2 PUSH1 0x1 DUP2 MLOAD DUP2 LT PUSH2 0x105B JUMPI PUSH2 0x105B PUSH2 0x5D2B JUMP JUMPDEST PUSH1 0x20 MUL PUSH1 0x20 ADD ADD DUP2 SWAP1 MSTORE POP DUP7 PUSH1 0x60 ADD MLOAD DUP2 PUSH1 0x2 DUP2 MLOAD DUP2 LT PUSH2 0x107E JUMPI PUSH2 0x107E PUSH2 0x5D2B JUMP JUMPDEST PUSH1 0x20 MUL PUSH1 0x20 ADD ADD DUP2 SWAP1 MSTORE POP DUP7 PUSH1 0x80 ADD MLOAD DUP2 PUSH1 0x3 DUP2 MLOAD DUP2 LT PUSH2 0x10A1 JUMPI PUSH2 0x10A1 PUSH2 0x5D2B JUMP JUMPDEST PUSH1 0x20 MUL PUSH1 0x20 ADD ADD DUP2 SWAP1 MSTORE POP DUP7 PUSH1 0xA0 ADD MLOAD DUP2 PUSH1 0x4 DUP2 MLOAD DUP2 LT PUSH2 0x10C4 JUMPI PUSH2 0x10C4 PUSH2 0x5D2B JUMP JUMPDEST PUSH1 0x20 MUL PUSH1 0x20 ADD ADD DUP2 SWAP1 MSTORE POP DUP7 PUSH1 0xC0 ADD MLOAD DUP2 PUSH1 0x5 DUP2 MLOAD DUP2 LT PUSH2 0x10E7 JUMPI PUSH2 0x10E7 PUSH2 0x5D2B JUMP JUMPDEST PUSH1 0x20 MUL PUSH1 0x20 ADD ADD DUP2 SWAP1 MSTORE POP DUP7 PUSH1 0xE0 ADD MLOAD DUP2 PUSH1 0x6 DUP2 MLOAD DUP2 LT PUSH2 0x110A JUMPI PUSH2 0x110A PUSH2 0x5D2B JUMP JUMPDEST PUSH1 0x20 MUL PUSH1 0x20 ADD ADD DUP2 SWAP1 MSTORE POP DUP7 PUSH2 0x100 ADD MLOAD DUP2 PUSH1 0x7 DUP2 MLOAD DUP2 LT PUSH2 0x112E JUMPI PUSH2 0x112E PUSH2 0x5D2B JUMP JUMPDEST PUSH1 0x20 MUL PUSH1 0x20 ADD ADD DUP2 SWAP1 MSTORE POP DUP7 PUSH2 0x120 ADD MLOAD DUP2 PUSH1 0x8 DUP2 MLOAD DUP2 LT PUSH2 0x1152 JUMPI PUSH2 0x1152 PUSH2 0x5D2B JUMP JUMPDEST PUSH1 0x20 MUL PUSH1 0x20 ADD ADD DUP2 SWAP1 MSTORE POP DUP7 PUSH2 0x140 ADD MLOAD DUP2 PUSH1 0x9 DUP2 MLOAD DUP2 LT PUSH2 0x1176 JUMPI PUSH2 0x1176 PUSH2 0x5D2B JUMP JUMPDEST PUSH1 0x20 MUL PUSH1 0x20 ADD ADD DUP2 SWAP1 MSTORE POP DUP7 PUSH2 0x160 ADD MLOAD DUP2 PUSH1 0xA DUP2 MLOAD DUP2 LT PUSH2 0x119A JUMPI PUSH2 0x119A PUSH2 0x5D2B JUMP JUMPDEST PUSH1 0x20 MUL PUSH1 0x20 ADD ADD DUP2 SWAP1 MSTORE POP DUP7 PUSH2 0x1C0 ADD MLOAD DUP2 PUSH1 0xB DUP2 MLOAD DUP2 LT PUSH2 0x11BE JUMPI PUSH2 0x11BE PUSH2 0x5D2B JUMP JUMPDEST PUSH1 0x20 MUL PUSH1 0x20 ADD ADD DUP2 SWAP1 MSTORE POP DUP7 PUSH2 0x180 ADD MLOAD DUP2 PUSH1 0xC DUP2 MLOAD DUP2 LT PUSH2 0x11E2 JUMPI PUSH2 0x11E2 PUSH2 0x5D2B JUMP JUMPDEST PUSH1 0x20 MUL PUSH1 0x20 ADD ADD DUP2 SWAP1 MSTORE POP DUP7 PUSH2 0x1A0 ADD MLOAD DUP2 PUSH1 0xD DUP2 MLOAD DUP2 LT PUSH2 0x1206 JUMPI PUSH2 0x1206 PUSH2 0x5D2B JUMP JUMPDEST PUSH1 0x20 MUL PUSH1 0x20 ADD ADD DUP2 SWAP1 MSTORE POP DUP7 PUSH2 0x1E0 ADD MLOAD DUP2 PUSH1 0xE DUP2 MLOAD DUP2 LT PUSH2 0x122A JUMPI PUSH2 0x122A PUSH2 0x5D2B JUMP JUMPDEST PUSH1 0x20 MUL PUSH1 0x20 ADD ADD DUP2 SWAP1 MSTORE POP DUP7 PUSH2 0x200 ADD MLOAD DUP2 PUSH1 0xF DUP2 MLOAD DUP2 LT PUSH2 0x124E JUMPI PUSH2 0x124E PUSH2 0x5D2B JUMP JUMPDEST PUSH1 0x20 MUL PUSH1 0x20 ADD ADD DUP2 SWAP1 MSTORE POP DUP7 PUSH2 0x220 ADD MLOAD DUP2 PUSH1 0x10 DUP2 MLOAD DUP2 LT PUSH2 0x1272 JUMPI PUSH2 0x1272 PUSH2 0x5D2B JUMP JUMPDEST PUSH1 0x20 MUL PUSH1 0x20 ADD ADD DUP2 SWAP1 MSTORE POP DUP7 PUSH2 0x240 ADD MLOAD DUP2 PUSH1 0x11 DUP2 MLOAD DUP2 LT PUSH2 0x1296 JUMPI PUSH2 0x1296 PUSH2 0x5D2B JUMP JUMPDEST PUSH1 0x20 MUL PUSH1 0x20 ADD ADD DUP2 SWAP1 MSTORE POP DUP7 PUSH2 0x260 ADD MLOAD DUP2 PUSH1 0x12 DUP2 MLOAD DUP2 LT PUSH2 0x12BA JUMPI PUSH2 0x12BA PUSH2 0x5D2B JUMP JUMPDEST PUSH1 0x20 MUL PUSH1 0x20 ADD ADD DUP2 SWAP1 MSTORE POP DUP7 PUSH2 0x280 ADD MLOAD DUP2 PUSH1 0x13 DUP2 MLOAD DUP2 LT PUSH2 0x12DE JUMPI PUSH2 0x12DE PUSH2 0x5D2B JUMP JUMPDEST PUSH1 0x20 MUL PUSH1 0x20 ADD ADD DUP2 SWAP1 MSTORE POP DUP7 PUSH2 0x2A0 ADD MLOAD DUP2 PUSH1 0x14 DUP2 MLOAD DUP2 LT PUSH2 0x1302 JUMPI PUSH2 0x1302 PUSH2 0x5D2B JUMP JUMPDEST PUSH1 0x20 MUL PUSH1 0x20 ADD ADD DUP2 SWAP1 MSTORE POP DUP7 PUSH2 0x2C0 ADD MLOAD DUP2 PUSH1 0x15 DUP2 MLOAD DUP2 LT PUSH2 0x1326 JUMPI PUSH2 0x1326 PUSH2 0x5D2B JUMP JUMPDEST PUSH1 0x20 MUL PUSH1 0x20 ADD ADD DUP2 SWAP1 MSTORE POP DUP7 PUSH2 0x2E0 ADD MLOAD DUP2 PUSH1 0x16 DUP2 MLOAD DUP2 LT PUSH2 0x134A JUMPI PUSH2 0x134A PUSH2 0x5D2B JUMP JUMPDEST PUSH1 0x20 MUL PUSH1 0x20 ADD ADD DUP2 SWAP1 MSTORE POP DUP7 PUSH2 0x300 ADD MLOAD DUP2 PUSH1 0x17 DUP2 MLOAD DUP2 LT PUSH2 0x136E JUMPI PUSH2 0x136E PUSH2 0x5D2B JUMP JUMPDEST PUSH1 0x20 MUL PUSH1 0x20 ADD ADD DUP2 SWAP1 MSTORE POP DUP7 PUSH2 0x320 ADD MLOAD DUP2 PUSH1 0x18 DUP2 MLOAD DUP2 LT PUSH2 0x1392 JUMPI PUSH2 0x1392 PUSH2 0x5D2B JUMP JUMPDEST PUSH1 0x20 MUL PUSH1 0x20 ADD ADD DUP2 SWAP1 MSTORE POP DUP7 PUSH2 0x340 ADD MLOAD DUP2 PUSH1 0x19 DUP2 MLOAD DUP2 LT PUSH2 0x13B6 JUMPI PUSH2 0x13B6 PUSH2 0x5D2B JUMP JUMPDEST PUSH1 0x20 MUL PUSH1 0x20 ADD ADD DUP2 SWAP1 MSTORE POP DUP7 PUSH2 0x360 ADD MLOAD DUP2 PUSH1 0x1A DUP2 MLOAD DUP2 LT PUSH2 0x13DA JUMPI PUSH2 0x13DA PUSH2 0x5D2B JUMP JUMPDEST PUSH1 0x20 MUL PUSH1 0x20 ADD ADD DUP2 SWAP1 MSTORE POP DUP7 PUSH2 0x380 ADD MLOAD DUP2 PUSH1 0x1B DUP2 MLOAD DUP2 LT PUSH2 0x13FE JUMPI PUSH2 0x13FE PUSH2 0x5D2B JUMP JUMPDEST PUSH1 0x20 MUL PUSH1 0x20 ADD ADD DUP2 SWAP1 MSTORE POP DUP7 PUSH2 0x3A0 ADD MLOAD DUP2 PUSH1 0x1C DUP2 MLOAD DUP2 LT PUSH2 0x1422 JUMPI PUSH2 0x1422 PUSH2 0x5D2B JUMP JUMPDEST PUSH1 0x20 MUL PUSH1 0x20 ADD ADD DUP2 SWAP1 MSTORE POP DUP7 PUSH2 0x3C0 ADD MLOAD DUP2 PUSH1 0x1D DUP2 MLOAD DUP2 LT PUSH2 0x1446 JUMPI PUSH2 0x1446 PUSH2 0x5D2B JUMP JUMPDEST PUSH1 0x20 MUL PUSH1 0x20 ADD ADD DUP2 SWAP1 MSTORE POP DUP8 PUSH1 0x40 ADD MLOAD DUP2 PUSH1 0x1E DUP2 MLOAD DUP2 LT PUSH2 0x1469 JUMPI PUSH2 0x1469 PUSH2 0x5D2B JUMP JUMPDEST PUSH1 0x20 MUL PUSH1 0x20 ADD ADD DUP2 SWAP1 MSTORE POP DUP8 PUSH1 0x60 ADD MLOAD DUP2 PUSH1 0x1F DUP2 MLOAD DUP2 LT PUSH2 0x148C JUMPI PUSH2 0x148C PUSH2 0x5D2B JUMP JUMPDEST PUSH1 0x20 MUL PUSH1 0x20 ADD ADD DUP2 SWAP1 MSTORE POP DUP8 PUSH1 0x80 ADD MLOAD DUP2 PUSH1 0x20 DUP2 MLOAD DUP2 LT PUSH2 0x14AF JUMPI PUSH2 0x14AF PUSH2 0x5D2B JUMP JUMPDEST PUSH1 0x20 MUL PUSH1 0x20 ADD ADD DUP2 SWAP1 MSTORE POP DUP8 PUSH1 0xA0 ADD MLOAD DUP2 PUSH1 0x21 DUP2 MLOAD DUP2 LT PUSH2 0x14D2 JUMPI PUSH2 0x14D2 PUSH2 0x5D2B JUMP JUMPDEST PUSH1 0x20 MUL PUSH1 0x20 ADD ADD DUP2 SWAP1 MSTORE POP DUP8 PUSH2 0x120 ADD MLOAD DUP2 PUSH1 0x22 DUP2 MLOAD DUP2 LT PUSH2 0x14F6 JUMPI PUSH2 0x14F6 PUSH2 0x5D2B JUMP JUMPDEST PUSH1 0x20 MUL PUSH1 0x20 ADD ADD DUP2 SWAP1 MSTORE POP DUP8 PUSH2 0x100 ADD MLOAD DUP2 PUSH1 0x23 DUP2 MLOAD DUP2 LT PUSH2 0x151A JUMPI PUSH2 0x151A PUSH2 0x5D2B JUMP JUMPDEST PUSH1 0x20 MUL PUSH1 0x20 ADD ADD DUP2 SWAP1 MSTORE POP DUP8 PUSH1 0xC0 ADD MLOAD DUP2 PUSH1 0x24 DUP2 MLOAD DUP2 LT PUSH2 0x153D JUMPI PUSH2 0x153D PUSH2 0x5D2B JUMP JUMPDEST PUSH1 0x20 MUL PUSH1 0x20 ADD ADD DUP2 SWAP1 MSTORE POP DUP8 PUSH1 0xE0 ADD MLOAD DUP2 PUSH1 0x25 DUP2 MLOAD DUP2 LT PUSH2 0x1560 JUMPI PUSH2 0x1560 PUSH2 0x5D2B JUMP JUMPDEST PUSH1 0x20 MUL PUSH1 0x20 ADD ADD DUP2 SWAP1 MSTORE POP PUSH0 PUSH2 0x15A6 DUP8 PUSH1 0x80 ADD MLOAD DUP7 PUSH1 0xC0 ADD MLOAD DUP12 PUSH2 0x200 ADD MLOAD DUP8 PUSH32 0x0 PUSH2 0x2AAC JUMP JUMPDEST SWAP1 POP PUSH2 0x15D0 DUP2 PUSH0 DUP2 MLOAD DUP2 LT PUSH2 0x15BD JUMPI PUSH2 0x15BD PUSH2 0x5D2B JUMP JUMPDEST PUSH1 0x20 MUL PUSH1 0x20 ADD ADD MLOAD DUP7 PUSH2 0x120 ADD MLOAD PUSH2 0x26C5 JUMP JUMPDEST PUSH1 0x80 DUP7 ADD DUP2 SWAP1 MSTORE PUSH2 0x200 DUP11 ADD MLOAD MLOAD PUSH1 0xE0 DUP10 ADD MLOAD PUSH2 0x1601 SWAP3 SWAP2 PUSH2 0x930 SWAP2 PUSH2 0x15F6 SWAP2 SWAP1 PUSH2 0x26C5 JUMP JUMPDEST DUP9 PUSH2 0x140 ADD MLOAD PUSH2 0x26C5 JUMP JUMPDEST PUSH1 0x80 DUP7 ADD MSTORE PUSH1 0xE0 DUP8 ADD MLOAD PUSH2 0x1614 SWAP1 PUSH2 0x2C0A JUMP JUMPDEST PUSH1 0xA0 DUP7 ADD MSTORE PUSH0 PUSH2 0x1626 PUSH1 0x1 PUSH1 0x24 PUSH2 0x5BAD JUMP JUMPDEST PUSH2 0x1631 SWAP1 PUSH1 0x1 PUSH2 0x5BAD JUMP JUMPDEST SWAP1 POP PUSH0 JUMPDEST PUSH2 0x1660 PUSH1 0x1 PUSH32 0x0 PUSH2 0x5689 JUMP JUMPDEST DUP2 LT ISZERO PUSH2 0x1871 JUMPI PUSH0 PUSH2 0x1693 PUSH1 0x1 PUSH32 0x0 PUSH2 0x5689 JUMP JUMPDEST DUP3 LT ISZERO SWAP1 POP DUP1 PUSH2 0x1802 JUMPI PUSH2 0x16C7 PUSH2 0xDB5 DUP12 PUSH2 0x100 ADD MLOAD DUP10 DUP6 PUSH1 0x1 PUSH2 0x16B7 SWAP2 SWAP1 PUSH2 0x5BAD JUMP JUMPDEST DUP2 MLOAD DUP2 LT PUSH2 0xDA8 JUMPI PUSH2 0xDA8 PUSH2 0x5D2B JUMP JUMPDEST PUSH2 0x120 DUP10 ADD MSTORE PUSH2 0x100 DUP11 ADD MLOAD PUSH2 0x16F7 SWAP1 PUSH2 0xDB5 SWAP1 DUP10 PUSH2 0x16E7 DUP7 PUSH1 0x1 PUSH2 0x5BAD JUMP JUMPDEST DUP2 MLOAD DUP2 LT PUSH2 0xDE2 JUMPI PUSH2 0xDE2 PUSH2 0x5D2B JUMP JUMPDEST PUSH2 0x140 DUP10 ADD MSTORE PUSH1 0xA0 DUP9 ADD MLOAD PUSH2 0x120 DUP10 ADD MLOAD PUSH2 0x1712 SWAP2 SWAP1 PUSH2 0x26C5 JUMP JUMPDEST PUSH2 0x160 DUP10 ADD MSTORE PUSH1 0xA0 DUP9 ADD MLOAD PUSH1 0xE0 DUP12 ADD MLOAD PUSH2 0x173A SWAP2 PUSH2 0x172F SWAP2 PUSH2 0x26C5 JUMP JUMPDEST DUP10 PUSH2 0x140 ADD MLOAD PUSH2 0x26C5 JUMP JUMPDEST PUSH2 0x180 DUP10 ADD DUP2 SWAP1 MSTORE PUSH2 0x175D SWAP1 PUSH2 0x174F SWAP1 PUSH2 0x2A9A JUMP JUMPDEST PUSH2 0x930 DUP11 PUSH2 0x160 ADD MLOAD PUSH2 0x2A9A JUMP JUMPDEST DUP7 PUSH2 0x1768 DUP5 DUP7 PUSH2 0x5BAD JUMP JUMPDEST DUP2 MLOAD DUP2 LT PUSH2 0x1778 JUMPI PUSH2 0x1778 PUSH2 0x5D2B JUMP JUMPDEST PUSH1 0x20 MUL PUSH1 0x20 ADD ADD DUP2 DUP2 MSTORE POP POP PUSH0 PUSH2 0x17B1 DUP10 PUSH2 0x180 ADD MLOAD DUP15 PUSH2 0x200 ADD MLOAD DUP6 PUSH1 0x1 PUSH2 0x17A1 SWAP2 SWAP1 PUSH2 0x5BAD JUMP JUMPDEST PUSH1 0x1C DUP2 LT PUSH2 0xC2D JUMPI PUSH2 0xC2D PUSH2 0x5D2B JUMP JUMPDEST SWAP1 POP PUSH2 0x17EB DUP2 PUSH2 0x930 DUP12 PUSH2 0x160 ADD MLOAD DUP9 DUP8 PUSH1 0x1 PUSH2 0x17CE SWAP2 SWAP1 PUSH2 0x5BAD JUMP JUMPDEST DUP2 MLOAD DUP2 LT PUSH2 0x17DE JUMPI PUSH2 0x17DE PUSH2 0x5D2B JUMP JUMPDEST PUSH1 0x20 MUL PUSH1 0x20 ADD ADD MLOAD PUSH2 0x26C5 JUMP JUMPDEST SWAP1 POP PUSH2 0x17FB DUP10 PUSH1 0x80 ADD MLOAD DUP3 PUSH2 0x26E0 JUMP JUMPDEST PUSH1 0x80 DUP11 ADD MSTORE POP JUMPDEST PUSH2 0x1821 PUSH2 0x1817 DUP10 PUSH1 0xA0 ADD MLOAD DUP13 PUSH1 0xE0 ADD MLOAD PUSH2 0x26C5 JUMP JUMPDEST DUP12 PUSH1 0xE0 ADD MLOAD PUSH2 0x26C5 JUMP JUMPDEST PUSH1 0xA0 DUP10 ADD MSTORE PUSH2 0x1E0 DUP13 ADD MLOAD DUP3 PUSH1 0x1B DUP2 LT PUSH2 0x183D JUMPI PUSH2 0x183D PUSH2 0x5D2B JUMP JUMPDEST PUSH1 0x20 MUL ADD MLOAD DUP6 PUSH2 0x184D DUP5 DUP7 PUSH2 0x5BAD JUMP JUMPDEST DUP2 MLOAD DUP2 LT PUSH2 0x185D JUMPI PUSH2 0x185D PUSH2 0x5D2B JUMP JUMPDEST PUSH1 0x20 SWAP1 DUP2 MUL SWAP2 SWAP1 SWAP2 ADD ADD MSTORE POP PUSH1 0x1 ADD PUSH2 0x1635 JUMP JUMPDEST POP PUSH2 0x189D PUSH1 0x1 PUSH32 0x0 PUSH2 0x5689 JUMP JUMPDEST PUSH2 0x18A7 SWAP1 DUP3 PUSH2 0x5BAD JUMP JUMPDEST SWAP1 POP PUSH2 0x18C7 PUSH2 0x18BF DUP10 PUSH2 0x100 ADD MLOAD DUP11 PUSH1 0xC0 ADD MLOAD PUSH2 0x26F9 JUMP JUMPDEST PUSH1 0x1 SWAP1 PUSH2 0x2750 JUMP JUMPDEST PUSH1 0xE0 DUP8 ADD MLOAD MSTORE PUSH2 0x100 DUP9 ADD MLOAD PUSH1 0xC0 DUP10 ADD MLOAD PUSH2 0x190B SWAP2 PUSH2 0x18BF SWAP2 PUSH2 0x94E SWAP1 PUSH32 0x7B0C561A6148404F086204A9F36FFB0617942546750F230C893619174A57A76 SWAP1 PUSH2 0x26C5 JUMP JUMPDEST PUSH1 0xE0 DUP8 DUP2 ADD DUP1 MLOAD PUSH1 0x20 ADD SWAP3 SWAP1 SWAP3 MSTORE DUP2 MLOAD DUP1 MLOAD PUSH1 0x40 SWAP1 SWAP2 ADD MSTORE SWAP1 MLOAD DUP1 MLOAD PUSH1 0x60 SWAP1 SWAP2 ADD MSTORE PUSH1 0xA0 DUP8 ADD MLOAD SWAP1 DUP10 ADD MLOAD PUSH2 0x194D SWAP2 PUSH2 0x1943 SWAP2 PUSH2 0x26C5 JUMP JUMPDEST DUP10 PUSH1 0xE0 ADD MLOAD PUSH2 0x26C5 JUMP JUMPDEST PUSH1 0xA0 DUP8 ADD MSTORE PUSH0 JUMPDEST PUSH1 0x4 DUP2 LT ISZERO PUSH2 0x19FB JUMPI PUSH0 PUSH2 0x1986 DUP9 PUSH1 0xE0 ADD MLOAD DUP4 PUSH1 0x4 DUP2 LT PUSH2 0x1977 JUMPI PUSH2 0x1977 PUSH2 0x5D2B JUMP JUMPDEST PUSH1 0x20 MUL ADD MLOAD DUP10 PUSH1 0xA0 ADD MLOAD PUSH2 0x26C5 JUMP JUMPDEST SWAP1 POP PUSH2 0x1991 DUP2 PUSH2 0x2A9A JUMP JUMPDEST DUP9 PUSH2 0x100 ADD MLOAD DUP4 PUSH1 0x4 DUP2 LT PUSH2 0x19A8 JUMPI PUSH2 0x19A8 PUSH2 0x5D2B JUMP JUMPDEST PUSH1 0x20 MUL ADD MSTORE PUSH1 0xA0 DUP9 ADD MLOAD PUSH1 0xE0 DUP12 ADD MLOAD PUSH2 0x19C1 SWAP2 SWAP1 PUSH2 0x26C5 JUMP JUMPDEST DUP9 PUSH1 0xA0 ADD DUP2 DUP2 MSTORE POP POP PUSH2 0x19ED DUP9 PUSH1 0x80 ADD MLOAD PUSH2 0x930 DUP4 DUP16 PUSH2 0x220 ADD MLOAD DUP7 PUSH1 0x4 DUP2 LT PUSH2 0xC2D JUMPI PUSH2 0xC2D PUSH2 0x5D2B JUMP JUMPDEST PUSH1 0x80 DUP10 ADD MSTORE POP PUSH1 0x1 ADD PUSH2 0x1954 JUMP JUMPDEST POP PUSH2 0x100 DUP7 ADD MLOAD MLOAD DUP5 MLOAD DUP6 SWAP1 DUP4 SWAP1 DUP2 LT PUSH2 0x1A17 JUMPI PUSH2 0x1A17 PUSH2 0x5D2B JUMP JUMPDEST PUSH1 0x20 SWAP1 DUP2 MUL SWAP2 SWAP1 SWAP2 ADD DUP2 ADD SWAP2 SWAP1 SWAP2 MSTORE PUSH2 0x100 DUP8 ADD MLOAD SWAP1 DUP2 ADD MLOAD PUSH2 0x1A3B SWAP2 PUSH1 0x2 PUSH2 0xADE JUMP JUMPDEST DUP5 PUSH2 0x1A47 DUP4 PUSH1 0x1 PUSH2 0x5BAD JUMP JUMPDEST DUP2 MLOAD DUP2 LT PUSH2 0x1A57 JUMPI PUSH2 0x1A57 PUSH2 0x5D2B JUMP JUMPDEST PUSH1 0x20 SWAP1 DUP2 MUL SWAP2 SWAP1 SWAP2 ADD ADD MSTORE PUSH2 0x100 DUP7 ADD MLOAD PUSH1 0x60 ADD MLOAD DUP5 PUSH2 0x1A78 DUP4 PUSH1 0x2 PUSH2 0x5BAD JUMP JUMPDEST DUP2 MLOAD DUP2 LT PUSH2 0x1A88 JUMPI PUSH2 0x1A88 PUSH2 0x5D2B JUMP JUMPDEST PUSH1 0x20 SWAP1 DUP2 MUL SWAP2 SWAP1 SWAP2 ADD ADD MSTORE PUSH0 JUMPDEST PUSH1 0x3 DUP2 LT ISZERO PUSH2 0x1AEA JUMPI DUP11 PUSH2 0x140 ADD MLOAD DUP2 PUSH1 0x3 DUP2 LT PUSH2 0x1AB5 JUMPI PUSH2 0x1AB5 PUSH2 0x5D2B JUMP JUMPDEST PUSH1 0x20 MUL ADD MLOAD DUP5 DUP4 PUSH2 0x1AC5 DUP2 PUSH2 0x5D3F JUMP JUMPDEST SWAP5 POP DUP2 MLOAD DUP2 LT PUSH2 0x1AD7 JUMPI PUSH2 0x1AD7 PUSH2 0x5D2B JUMP JUMPDEST PUSH1 0x20 SWAP1 DUP2 MUL SWAP2 SWAP1 SWAP2 ADD ADD MSTORE PUSH1 0x1 ADD PUSH2 0x1A95 JUMP JUMPDEST POP PUSH1 0x40 MLOAD DUP1 PUSH1 0x40 ADD PUSH1 0x40 MSTORE DUP1 PUSH1 0x1 DUP2 MSTORE PUSH1 0x20 ADD PUSH1 0x2 DUP2 MSTORE POP DUP4 DUP3 DUP2 MLOAD DUP2 LT PUSH2 0x1B14 JUMPI PUSH2 0x1B14 PUSH2 0x5D2B JUMP JUMPDEST PUSH1 0x20 MUL PUSH1 0x20 ADD ADD DUP2 SWAP1 MSTORE POP DUP6 PUSH1 0x80 ADD MLOAD DUP5 DUP3 DUP1 PUSH2 0x1B30 SWAP1 PUSH2 0x5D3F JUMP JUMPDEST SWAP4 POP DUP2 MLOAD DUP2 LT PUSH2 0x1B42 JUMPI PUSH2 0x1B42 PUSH2 0x5D2B JUMP JUMPDEST PUSH1 0x20 MUL PUSH1 0x20 ADD ADD DUP2 DUP2 MSTORE POP POP PUSH2 0x1B6C DUP11 PUSH2 0x220 ADD MLOAD DUP10 PUSH1 0xC0 ADD MLOAD DUP11 PUSH1 0x80 ADD MLOAD DUP14 PUSH2 0x1A0 ADD MLOAD PUSH2 0x2C15 JUMP JUMPDEST PUSH2 0x1B89 JUMPI PUSH1 0x40 MLOAD PUSH4 0xA2A2AC83 PUSH1 0xE0 SHL DUP2 MSTORE PUSH1 0x4 ADD PUSH1 0x40 MLOAD DUP1 SWAP2 SUB SWAP1 REVERT JUMPDEST PUSH0 DUP11 PUSH2 0x260 ADD MLOAD SWAP1 POP DUP1 DUP5 DUP4 DUP2 MLOAD DUP2 LT PUSH2 0x1BA5 JUMPI PUSH2 0x1BA5 PUSH2 0x5D2B JUMP JUMPDEST PUSH1 0x20 MUL PUSH1 0x20 ADD ADD DUP2 SWAP1 MSTORE POP DUP9 PUSH2 0x100 ADD MLOAD DUP6 DUP4 DUP2 MLOAD DUP2 LT PUSH2 0x1BC8 JUMPI PUSH2 0x1BC8 PUSH2 0x5D2B JUMP JUMPDEST PUSH1 0x20 MUL PUSH1 0x20 ADD ADD DUP2 DUP2 MSTORE POP POP PUSH2 0x1BDC PUSH2 0x5417 JUMP JUMPDEST PUSH2 0x1BE6 DUP6 DUP8 PUSH2 0x2F52 JUMP JUMPDEST DUP2 MSTORE PUSH2 0x1BF1 DUP3 PUSH2 0x304A JUMP JUMPDEST PUSH1 0x20 DUP3 ADD MSTORE DUP12 MLOAD PUSH2 0x1C01 SWAP1 PUSH2 0x3081 JUMP JUMPDEST PUSH2 0x1C69 JUMPI PUSH0 PUSH2 0x1C1B DUP14 PUSH0 ADD MLOAD DUP4 PUSH0 ADD MLOAD DUP5 PUSH1 0x20 ADD MLOAD PUSH2 0x30BA JUMP JUMPDEST SWAP1 POP PUSH0 PUSH0 PUSH2 0x1C2B DUP16 PUSH0 ADD MLOAD PUSH2 0x3161 JUMP JUMPDEST SWAP2 POP SWAP2 POP PUSH2 0x1C38 DUP3 PUSH2 0x323E JUMP JUMPDEST PUSH2 0x1C41 DUP2 PUSH2 0x323E JUMP JUMPDEST DUP4 MLOAD PUSH2 0x1C4E SWAP1 DUP4 DUP6 PUSH2 0x3268 JUMP JUMPDEST DUP5 MSTORE PUSH1 0x20 DUP5 ADD MLOAD PUSH2 0x1C60 SWAP1 DUP3 DUP6 PUSH2 0x3268 JUMP JUMPDEST PUSH1 0x20 DUP6 ADD MSTORE POP POP POP JUMPDEST PUSH2 0x1C7A DUP2 PUSH0 ADD MLOAD DUP3 PUSH1 0x20 ADD MLOAD PUSH2 0x3297 JUMP JUMPDEST SWAP13 SWAP12 POP POP POP POP POP POP POP POP POP POP POP POP JUMP JUMPDEST PUSH2 0x1C92 PUSH2 0x5103 JUMP JUMPDEST POP PUSH1 0x40 DUP1 MLOAD PUSH2 0x3E0 DUP2 ADD DUP3 MSTORE PUSH3 0x20000 DUP2 MSTORE PUSH1 0x11 PUSH1 0x20 DUP1 DUP4 ADD SWAP2 SWAP1 SWAP2 MSTORE PUSH1 0x4B DUP3 DUP5 ADD MSTORE DUP3 MLOAD DUP1 DUP5 ADD DUP5 MSTORE PUSH32 0x2C15207009DFD2178694160A095951E234325A3CC480A4DEFDCA45F5ED631202 DUP2 MSTORE PUSH32 0x1807CB478B71E37F9B242D259380B05D082439327095901816C810265ED513C0 DUP2 DUP4 ADD MSTORE PUSH1 0x60 DUP4 ADD MSTORE DUP3 MLOAD DUP1 DUP5 ADD DUP5 MSTORE PUSH32 0x101B72DE2D8ACC6F384D3D4C54BE3FBA3251A0E97D02266D835047B580ECD073 DUP2 MSTORE PUSH32 0xB3DF04C448837249A6A4FCABDBFB48B240382293DAF13C097C0468DF0E9CE05 DUP2 DUP4 ADD MSTORE PUSH1 0x80 DUP4 ADD MSTORE DUP3 MLOAD DUP1 DUP5 ADD DUP5 MSTORE PUSH32 0x21EF27B5AFD622B30D2EED08A0B3FC323EDDC6005F5C47A552ACF4EBC868B102 DUP2 MSTORE PUSH32 0x59AB496B30466487A469AD55F199B378D59457E60E439ABC58FA3970C57D8B3 DUP2 DUP4 ADD MSTORE PUSH1 0xA0 DUP4 ADD MSTORE DUP3 MLOAD DUP1 DUP5 ADD DUP5 MSTORE PUSH32 0x19AA6A0B0EBD9738ACAE962DB338B35B134EFEB222A56C0782A1BCF6A6E48381 DUP2 MSTORE PUSH32 0x2B3EB14AD18FF40BE33DB6EDD16B9B3CDAF8D33FBED62C8797576116F2FC7A2B DUP2 DUP4 ADD MSTORE PUSH1 0xC0 DUP4 ADD MSTORE DUP3 MLOAD DUP1 DUP5 ADD DUP5 MSTORE PUSH32 0x13CB97BB5A20F0135D2E00EC3FF35A91233967AD8A382B2F16687927DA774D33 DUP2 MSTORE PUSH32 0xB72166A79685E47DB434CDA717400C1202A7CC0D66B2324F47C77E88B16DC83 DUP2 DUP4 ADD MSTORE PUSH1 0xE0 DUP4 ADD MSTORE DUP3 MLOAD DUP1 DUP5 ADD DUP5 MSTORE PUSH32 0x1B86C38ECD6E52AC945840AF5A59DD739634D16BD2D854F88D635DDB0888531A DUP2 MSTORE PUSH32 0x11BA534BC0E4483E199DD4535C230074D479D415E887B2F935AD4A662B10D3E3 DUP2 DUP4 ADD MSTORE PUSH2 0x100 DUP4 ADD MSTORE DUP3 MLOAD DUP1 DUP5 ADD DUP5 MSTORE PUSH32 0xE17D1CC6B95FE0DBFF7F51087BA8CFEDB8B6139251EDA1FB09FF314204F3560 DUP2 MSTORE PUSH32 0x24A1C632832A8BD01C65BC5C49FBDBF8EFB789732BE52E68D916EBAA353C61C9 DUP2 DUP4 ADD MSTORE PUSH2 0x120 DUP4 ADD MSTORE DUP3 MLOAD DUP1 DUP5 ADD DUP5 MSTORE PUSH32 0x25A54373462404E6688ACF7B7D8840E48DB9B2FE22415A772BA261E486B4C6B0 DUP2 MSTORE PUSH32 0x2986291A3FA7FF65463B824AFD8CAF27E5A50A75E606F1F9B716615A56932FFF DUP2 DUP4 ADD MSTORE PUSH2 0x140 DUP4 ADD MSTORE DUP3 MLOAD DUP1 DUP5 ADD DUP5 MSTORE PUSH32 0x900B06FEB20EEB9CCABDE3776A0CA8EB0CB4E70BF31212BCDF836505709A204 DUP2 MSTORE PUSH32 0x2F4130FE073CA971345DF8186347FD578B44EB21E455F82149AD1DB7A59C4C04 DUP2 DUP4 ADD MSTORE PUSH2 0x160 DUP4 ADD MSTORE DUP3 MLOAD DUP1 DUP5 ADD DUP5 MSTORE PUSH32 0xE9D36D147156A4A616F495548E3C72B0E1E97DC6A32790130774E9205FDD4A7 DUP2 MSTORE PUSH32 0x2829D755480D89F7DDD0A68A79B543BBE8FBC378D6CDB23512AFCED6B5B93718 DUP2 DUP4 ADD MSTORE PUSH2 0x180 DUP4 ADD MSTORE DUP3 MLOAD DUP1 DUP5 ADD DUP5 MSTORE PUSH32 0x144B03614E7401E588BA3674C62FB3DE91F02EF43C7695713EB36B76311E0553 DUP2 MSTORE PUSH32 0x176F218B6C2210ED03FF8467CA2B524CE7E730F266E2BE3D702C100C55EFBA92 DUP2 DUP4 ADD MSTORE PUSH2 0x1A0 DUP4 ADD MSTORE DUP3 MLOAD DUP1 DUP5 ADD DUP5 MSTORE PUSH32 0x2D275CE71B9C2B49554246C87963652BDAE79E50A39C27B74605A994CFFD0F17 DUP2 MSTORE PUSH32 0x115E57BF6F387C63B82EDA9E468872D4E9AD9FCE406C5CF98EAD11C780655B8F DUP2 DUP4 ADD MSTORE PUSH2 0x1C0 DUP4 ADD MSTORE DUP3 MLOAD DUP1 DUP5 ADD DUP5 MSTORE PUSH32 0x1BDB456588472D8350E9D28867FB3D668C9AF8ECA28F2034416672F696A14ECD DUP2 MSTORE PUSH32 0x1D26509D90547D1273866CFBB242DE364491A7226633A77FA38BAF29CF4132DC DUP2 DUP4 ADD MSTORE PUSH2 0x1E0 DUP4 ADD MSTORE DUP3 MLOAD DUP1 DUP5 ADD DUP5 MSTORE PUSH32 0x2DE270D7EB5B1A0BBA248311298DA60F08655EFCE2B6AC6161D72C9D06E8E71E DUP2 MSTORE PUSH32 0x70F5B2E6C7D9AA97E3859E1BAE904FDD079615C4B05C1E04E9AE02C9BBED42D DUP2 DUP4 ADD MSTORE PUSH2 0x200 DUP4 ADD MSTORE DUP3 MLOAD DUP1 DUP5 ADD DUP5 MSTORE PUSH32 0x2CBE215D352BC09BE427532A1AFAC37557B59955EE77327A87D9A1EB696DD426 DUP2 MSTORE PUSH32 0x152EB407454027A6EA5E386CBFD7B048112D85947AAFBD19CBBDFB889EF029BC DUP2 DUP4 ADD MSTORE PUSH2 0x220 DUP4 ADD MSTORE DUP3 MLOAD DUP1 DUP5 ADD DUP5 MSTORE PUSH32 0x18A770FB5254B220338FD8BF52923CDB31AB13DFC25E1FFB008685CCBFDE805 DUP2 MSTORE PUSH32 0x2C06F0EEF9BE7BF243FF7B79BAE38CD7E0C275A2C660207B357979BD3471165F DUP2 DUP4 ADD MSTORE PUSH2 0x240 DUP4 ADD MSTORE DUP3 MLOAD DUP1 DUP5 ADD DUP5 MSTORE PUSH32 0x37E0063A1035CF60DABBF2530E18706347D97652E890C0314B506957CA7437C DUP2 MSTORE PUSH32 0xB691CBCF77E80F25B1482C3DE38B023EDD74662F9E8EDA4C1FDAC29F2274C58 DUP2 DUP4 ADD MSTORE PUSH2 0x260 DUP4 ADD MSTORE DUP3 MLOAD DUP1 DUP5 ADD DUP5 MSTORE PUSH32 0x133DFB39CC105254582C9DD1A7F139434DC3B2254FCF858374F2B7095DABCCD5 DUP2 MSTORE PUSH32 0x2060787C50336E346FF099074C88D77B5D835C46600C1C16D5F561C8FCC81BF5 DUP2 DUP4 ADD MSTORE PUSH2 0x280 DUP4 ADD MSTORE DUP3 MLOAD DUP1 DUP5 ADD DUP5 MSTORE PUSH32 0x24716033FF47C403E51282D48ED6ADD66B794FBCB79974A60A71708C1A3BC7DF DUP2 MSTORE PUSH32 0x20C09738A1C3FD3C2311119D77508A0B08EE1D312C080571ECD36E45DC8138CA DUP2 DUP4 ADD MSTORE PUSH2 0x2A0 DUP4 ADD MSTORE DUP3 MLOAD DUP1 DUP5 ADD DUP5 MSTORE PUSH32 0x2C49F21150B792C69BAC79A2028F454107BFA956379D5F2FD164F32F20165C47 DUP2 MSTORE PUSH32 0x11DBF67CED04A233D49A993F6DE553644DBFA6F9493E5EEAA8444D5708B22B4D DUP2 DUP4 ADD MSTORE PUSH2 0x2C0 DUP4 ADD MSTORE DUP3 MLOAD DUP1 DUP5 ADD DUP5 MSTORE PUSH32 0x25F03DF7E0586B9B76CEC55EB3E872B9A8929260107CB16823FC49AC08BE2BE DUP2 MSTORE PUSH32 0x21EB467484EADBF7F6B7C17B57B869D4337413831481FECFC5B7459C98122778 DUP2 DUP4 ADD MSTORE PUSH2 0x2E0 DUP4 ADD MSTORE DUP3 MLOAD DUP1 DUP5 ADD DUP5 MSTORE PUSH32 0xFD22AC5C05EAE847D3676F91D2859570248F694A284A125343D6F255AA857EA DUP2 MSTORE PUSH32 0x1F57718FA5840241B6BA928A0515C745439CB1D5887CE02143DFB3C1E5F87ECA DUP2 DUP4 ADD MSTORE PUSH2 0x300 DUP4 ADD MSTORE DUP3 MLOAD DUP1 DUP5 ADD DUP5 MSTORE PUSH32 0xCF2C983F9F1A8CA3E4B02D65A92AB3217B45D144439C80ABFEA08E2CF0E7B6F DUP2 MSTORE PUSH32 0x136D9D7E96BE52E87DAF7CE5AAA8BB2E69B3301F46BA5B60B423871ED508B9DB DUP2 DUP4 ADD MSTORE PUSH2 0x320 DUP4 ADD MSTORE DUP3 MLOAD DUP1 DUP5 ADD DUP5 MSTORE PUSH32 0x186BEB9C0287A3F39DAA49853417D19A364BB1E2DD4CFC81FE5C8213DAE7274 DUP2 MSTORE PUSH32 0x12BB6F86B9E8897A07421448585DF02F55B55F44D91701FF41A3A4E3607F5CB3 DUP2 DUP4 ADD MSTORE PUSH2 0x340 DUP4 ADD MSTORE DUP3 MLOAD DUP1 DUP5 ADD DUP5 MSTORE PUSH32 0x2ADF10845B60EC4DB02CF64EEB25A00371A1F40E195EF3F547E0912152E9F0EB DUP2 MSTORE PUSH32 0xBDDD2C3D062C96D10C07270EADA67F47FA32E993F2DB36665CDC32CB573B42B DUP2 DUP4 ADD MSTORE PUSH2 0x360 DUP4 ADD MSTORE DUP3 MLOAD DUP1 DUP5 ADD DUP5 MSTORE PUSH32 0x23F80A90EA5BD0931D48BEEA7A3A92B2728D17FBE207C68B74CD89E5131ED2BC DUP2 MSTORE PUSH32 0x1F59F989B339E8F30D0DFC9276331672119D20B8BDD3D3C73AAD2D9C4BD7924B DUP2 DUP4 ADD MSTORE PUSH2 0x380 DUP4 ADD MSTORE DUP3 MLOAD DUP1 DUP5 ADD DUP5 MSTORE PUSH1 0x1 DUP2 MSTORE PUSH1 0x2 DUP2 DUP4 ADD MSTORE PUSH2 0x3A0 DUP4 ADD MSTORE DUP3 MLOAD DUP1 DUP5 ADD SWAP1 SWAP4 MSTORE PUSH32 0x229B08FAE40DB2D2E32E3BCB693B9045969ABCFB23353A319C2F4A832201E491 DUP4 MSTORE PUSH32 0x883016658308EAACB34F94E5078251ED12584EC4EDA03C05E29190D4ECDC406 SWAP1 DUP4 ADD MSTORE PUSH2 0x3C0 DUP2 ADD SWAP2 SWAP1 SWAP2 MSTORE SWAP1 JUMP JUMPDEST PUSH0 PUSH0 MLOAD PUSH1 0x20 PUSH2 0x5E4A PUSH0 CODECOPY PUSH0 MLOAD SWAP1 PUSH0 MSTORE DUP3 LT PUSH2 0x25F3 JUMPI PUSH1 0x40 MLOAD PUSH4 0x20A33589 PUSH1 0xE0 SHL DUP2 MSTORE PUSH1 0x4 ADD PUSH1 0x40 MLOAD DUP1 SWAP2 SUB SWAP1 REVERT JUMPDEST POP SWAP1 JUMP JUMPDEST PUSH2 0x25FF PUSH2 0x53FF JUMP JUMPDEST PUSH0 PUSH2 0x260D PUSH1 0x20 DUP3 DUP6 DUP8 PUSH2 0x5BD7 JUMP JUMPDEST PUSH2 0x2616 SWAP2 PUSH2 0x5BFE JUMP JUMPDEST SWAP1 POP PUSH0 PUSH2 0x2627 PUSH1 0x40 PUSH1 0x20 DUP7 DUP9 PUSH2 0x5BD7 JUMP JUMPDEST PUSH2 0x2630 SWAP2 PUSH2 0x5BFE JUMP JUMPDEST SWAP1 POP PUSH0 MLOAD PUSH1 0x20 PUSH2 0x5E0A PUSH0 CODECOPY PUSH0 MLOAD SWAP1 PUSH0 MSTORE DUP3 LT DUP1 ISZERO PUSH2 0x265A JUMPI POP PUSH0 MLOAD PUSH1 0x20 PUSH2 0x5E0A PUSH0 CODECOPY PUSH0 MLOAD SWAP1 PUSH0 MSTORE DUP2 LT JUMPDEST PUSH2 0x2677 JUMPI PUSH1 0x40 MLOAD PUSH4 0x303DF09F PUSH1 0xE1 SHL DUP2 MSTORE PUSH1 0x4 ADD PUSH1 0x40 MLOAD DUP1 SWAP2 SUB SWAP1 REVERT JUMPDEST DUP1 DUP3 OR PUSH0 SUB PUSH2 0x2699 JUMPI PUSH1 0x40 MLOAD PUSH4 0x4DDAA5E5 PUSH1 0xE0 SHL DUP2 MSTORE PUSH1 0x4 ADD PUSH1 0x40 MLOAD DUP1 SWAP2 SUB SWAP1 REVERT JUMPDEST PUSH1 0x40 DUP1 MLOAD DUP1 DUP3 ADD SWAP1 SWAP2 MSTORE SWAP2 DUP3 MSTORE PUSH1 0x20 DUP3 ADD MSTORE SWAP4 SWAP3 POP POP POP JUMP JUMPDEST PUSH0 PUSH2 0x3EF PUSH2 0x26C0 DUP4 DUP6 PUSH2 0x5BFE JUMP JUMPDEST PUSH2 0x2721 JUMP JUMPDEST PUSH0 PUSH0 MLOAD PUSH1 0x20 PUSH2 0x5E4A PUSH0 CODECOPY PUSH0 MLOAD SWAP1 PUSH0 MSTORE DUP3 DUP5 MULMOD SWAP1 POP JUMPDEST SWAP3 SWAP2 POP POP JUMP JUMPDEST PUSH0 PUSH0 MLOAD PUSH1 0x20 PUSH2 0x5E4A PUSH0 CODECOPY PUSH0 MLOAD SWAP1 PUSH0 MSTORE DUP3 DUP5 ADDMOD SWAP4 SWAP3 POP POP POP JUMP JUMPDEST PUSH0 PUSH0 MLOAD PUSH1 0x20 PUSH2 0x5E4A PUSH0 CODECOPY PUSH0 MLOAD SWAP1 PUSH0 MSTORE DUP3 PUSH0 MLOAD PUSH1 0x20 PUSH2 0x5E4A PUSH0 CODECOPY PUSH0 MLOAD SWAP1 PUSH0 MSTORE SUB DUP5 ADDMOD SWAP4 SWAP3 POP POP POP JUMP JUMPDEST PUSH0 DUP2 PUSH0 MLOAD PUSH1 0x20 PUSH2 0x5E4A PUSH0 CODECOPY PUSH0 MLOAD SWAP1 PUSH0 MSTORE DUP2 LT PUSH2 0x26DA JUMPI PUSH1 0x40 MLOAD PUSH4 0x20A33589 PUSH1 0xE0 SHL DUP2 MSTORE PUSH1 0x4 ADD PUSH1 0x40 MLOAD DUP1 SWAP2 SUB SWAP1 REVERT JUMPDEST PUSH0 PUSH2 0x3EF DUP4 PUSH2 0x92B DUP5 PUSH2 0x2A02 JUMP JUMPDEST PUSH0 PUSH0 PUSH1 0x40 MLOAD DUP1 PUSH2 0x120 ADD PUSH1 0x40 MSTORE DUP1 PUSH2 0x9D80 DUP2 MSTORE PUSH1 0x20 ADD PUSH0 MLOAD PUSH1 0x20 PUSH2 0x5E6A PUSH0 CODECOPY PUSH0 MLOAD SWAP1 PUSH0 MSTORE DUP2 MSTORE PUSH1 0x20 ADD PUSH2 0x5A0 DUP2 MSTORE PUSH1 0x20 ADD PUSH0 MLOAD PUSH1 0x20 PUSH2 0x5DEA PUSH0 CODECOPY PUSH0 MLOAD SWAP1 PUSH0 MSTORE DUP2 MSTORE PUSH1 0x20 ADD PUSH2 0x240 DUP2 MSTORE PUSH1 0x20 ADD PUSH0 MLOAD PUSH1 0x20 PUSH2 0x5DEA PUSH0 CODECOPY PUSH0 MLOAD SWAP1 PUSH0 MSTORE DUP2 MSTORE PUSH1 0x20 ADD PUSH2 0x5A0 DUP2 MSTORE PUSH1 0x20 ADD PUSH0 MLOAD PUSH1 0x20 PUSH2 0x5E6A PUSH0 CODECOPY PUSH0 MLOAD SWAP1 PUSH0 MSTORE DUP2 MSTORE PUSH1 0x20 ADD PUSH2 0x9D80 DUP2 MSTORE POP SWAP1 POP PUSH0 PUSH1 0x1 SWAP1 POP PUSH0 PUSH0 SWAP1 POP JUMPDEST PUSH1 0x9 DUP2 LT ISZERO PUSH2 0x280B JUMPI PUSH2 0x2801 DUP3 PUSH2 0x92B DUP8 DUP5 PUSH2 0x26F9 JUMP JUMPDEST SWAP2 POP PUSH1 0x1 ADD PUSH2 0x27EA JUMP JUMPDEST POP PUSH2 0x2814 PUSH2 0x542A JUMP JUMPDEST PUSH0 JUMPDEST PUSH1 0x9 DUP2 LT ISZERO PUSH2 0x2865 JUMPI PUSH2 0x2846 PUSH2 0xDB5 DUP6 DUP4 PUSH1 0x9 DUP2 LT PUSH2 0x2837 JUMPI PUSH2 0x2837 PUSH2 0x5D2B JUMP JUMPDEST PUSH1 0x20 MUL ADD MLOAD PUSH2 0x92B DUP10 DUP6 PUSH2 0x26F9 JUMP JUMPDEST DUP3 DUP3 PUSH1 0x9 DUP2 LT PUSH2 0x2858 JUMPI PUSH2 0x2858 PUSH2 0x5D2B JUMP JUMPDEST PUSH1 0x20 MUL ADD MSTORE PUSH1 0x1 ADD PUSH2 0x2816 JUMP JUMPDEST POP PUSH0 JUMPDEST PUSH1 0x9 DUP2 LT ISZERO PUSH2 0x28AB JUMPI PUSH2 0x28A1 DUP6 PUSH2 0x930 DUP10 DUP5 PUSH1 0x9 DUP2 LT PUSH2 0x288A JUMPI PUSH2 0x288A PUSH2 0x5D2B JUMP JUMPDEST PUSH1 0x20 MUL ADD MLOAD DUP6 DUP6 PUSH1 0x9 DUP2 LT PUSH2 0xC2D JUMPI PUSH2 0xC2D PUSH2 0x5D2B JUMP JUMPDEST SWAP5 POP PUSH1 0x1 ADD PUSH2 0x2868 JUMP JUMPDEST POP PUSH2 0x28B6 DUP5 DUP4 PUSH2 0x26C5 JUMP JUMPDEST SWAP7 SWAP6 POP POP POP POP POP POP JUMP JUMPDEST PUSH0 PUSH2 0x28C9 PUSH2 0x5449 JUMP JUMPDEST PUSH2 0x28D4 DUP7 DUP3 DUP6 PUSH2 0x348B JUMP JUMPDEST PUSH2 0x28E0 DUP7 DUP7 DUP4 DUP7 PUSH2 0x3637 JUMP JUMPDEST PUSH2 0x28EC DUP7 DUP7 DUP4 DUP7 PUSH2 0x381F JUMP JUMPDEST PUSH2 0x28F7 DUP7 DUP3 DUP6 PUSH2 0x3A68 JUMP JUMPDEST PUSH2 0x2902 DUP7 DUP3 DUP6 PUSH2 0x3C5C JUMP JUMPDEST PUSH2 0x290E DUP7 DUP7 DUP4 DUP7 PUSH2 0x3F9F JUMP JUMPDEST PUSH2 0x2919 DUP7 DUP3 DUP6 PUSH2 0x4451 JUMP JUMPDEST PUSH2 0x2924 DUP7 DUP3 DUP6 PUSH2 0x4863 JUMP JUMPDEST PUSH2 0x292F DUP7 DUP3 DUP6 PUSH2 0x4C24 JUMP JUMPDEST PUSH2 0x28B6 DUP2 DUP6 PUSH2 0x4F24 JUMP JUMPDEST PUSH1 0x60 PUSH0 DUP3 PUSH1 0x1 PUSH1 0x1 PUSH1 0x40 SHL SUB DUP2 GT ISZERO PUSH2 0x2954 JUMPI PUSH2 0x2954 PUSH2 0x59C8 JUMP JUMPDEST PUSH1 0x40 MLOAD SWAP1 DUP1 DUP3 MSTORE DUP1 PUSH1 0x20 MUL PUSH1 0x20 ADD DUP3 ADD PUSH1 0x40 MSTORE DUP1 ISZERO PUSH2 0x297D JUMPI DUP2 PUSH1 0x20 ADD PUSH1 0x20 DUP3 MUL DUP1 CALLDATASIZE DUP4 CALLDATACOPY ADD SWAP1 POP JUMPDEST POP SWAP1 POP DUP4 DUP2 PUSH0 DUP2 MLOAD DUP2 LT PUSH2 0x2993 JUMPI PUSH2 0x2993 PUSH2 0x5D2B JUMP JUMPDEST PUSH1 0x20 SWAP1 DUP2 MUL SWAP2 SWAP1 SWAP2 ADD ADD MSTORE PUSH1 0x1 JUMPDEST DUP4 DUP2 LT ISZERO PUSH2 0x29FA JUMPI PUSH2 0x29D5 DUP3 PUSH2 0x29B8 PUSH1 0x1 DUP5 PUSH2 0x5689 JUMP JUMPDEST DUP2 MLOAD DUP2 LT PUSH2 0x29C8 JUMPI PUSH2 0x29C8 PUSH2 0x5D2B JUMP JUMPDEST PUSH1 0x20 MUL PUSH1 0x20 ADD ADD MLOAD PUSH2 0x2C0A JUMP JUMPDEST DUP3 DUP3 DUP2 MLOAD DUP2 LT PUSH2 0x29E7 JUMPI PUSH2 0x29E7 PUSH2 0x5D2B JUMP JUMPDEST PUSH1 0x20 SWAP1 DUP2 MUL SWAP2 SWAP1 SWAP2 ADD ADD MSTORE PUSH1 0x1 ADD PUSH2 0x29A1 JUMP JUMPDEST POP SWAP4 SWAP3 POP POP POP JUMP JUMPDEST PUSH0 DUP2 DUP1 DUP3 SUB PUSH2 0x2A24 JUMPI PUSH1 0x40 MLOAD PUSH4 0x5964A971 PUSH1 0xE1 SHL DUP2 MSTORE PUSH1 0x4 ADD PUSH1 0x40 MLOAD DUP1 SWAP2 SUB SWAP1 REVERT JUMPDEST PUSH0 PUSH1 0x40 MLOAD PUSH1 0x20 DUP2 MSTORE PUSH1 0x20 DUP1 DUP3 ADD MSTORE PUSH1 0x20 PUSH1 0x40 DUP3 ADD MSTORE DUP3 PUSH1 0x60 DUP3 ADD MSTORE PUSH1 0x2 PUSH0 MLOAD PUSH1 0x20 PUSH2 0x5E4A PUSH0 CODECOPY PUSH0 MLOAD SWAP1 PUSH0 MSTORE SUB PUSH1 0x80 DUP3 ADD MSTORE PUSH0 MLOAD PUSH1 0x20 PUSH2 0x5E4A PUSH0 CODECOPY PUSH0 MLOAD SWAP1 PUSH0 MSTORE PUSH1 0xA0 DUP3 ADD MSTORE PUSH1 0x20 PUSH0 PUSH1 0xC0 DUP4 PUSH1 0x5 GAS STATICCALL DUP1 PUSH2 0x2A86 JUMPI PUSH4 0xF8D61709 PUSH1 0xE0 SHL PUSH0 MSTORE PUSH1 0x4 PUSH0 REVERT JUMPDEST POP PUSH0 MLOAD PUSH1 0xC0 SWAP2 SWAP1 SWAP2 ADD PUSH1 0x40 MSTORE SWAP5 SWAP4 POP POP POP POP JUMP JUMPDEST PUSH0 MLOAD PUSH1 0x20 PUSH2 0x5E4A PUSH0 CODECOPY PUSH0 MLOAD SWAP1 PUSH0 MSTORE SUB SWAP1 JUMP JUMPDEST PUSH1 0x60 PUSH0 DUP3 PUSH1 0x1 PUSH1 0x1 PUSH1 0x40 SHL SUB DUP2 GT ISZERO PUSH2 0x2AC7 JUMPI PUSH2 0x2AC7 PUSH2 0x59C8 JUMP JUMPDEST PUSH1 0x40 MLOAD SWAP1 DUP1 DUP3 MSTORE DUP1 PUSH1 0x20 MUL PUSH1 0x20 ADD DUP3 ADD PUSH1 0x40 MSTORE DUP1 ISZERO PUSH2 0x2AF0 JUMPI DUP2 PUSH1 0x20 ADD PUSH1 0x20 DUP3 MUL DUP1 CALLDATASIZE DUP4 CALLDATACOPY ADD SWAP1 POP JUMPDEST POP SWAP1 POP DUP3 JUMPDEST DUP1 ISZERO PUSH2 0x2BFF JUMPI PUSH0 DUP6 PUSH2 0x2B08 PUSH1 0x1 DUP5 PUSH2 0x5689 JUMP JUMPDEST DUP2 MLOAD DUP2 LT PUSH2 0x2B18 JUMPI PUSH2 0x2B18 PUSH2 0x5D2B JUMP JUMPDEST PUSH1 0x20 MUL PUSH1 0x20 ADD ADD MLOAD SWAP1 POP PUSH0 DUP10 PUSH1 0x1 DUP5 PUSH2 0x2B31 SWAP2 SWAP1 PUSH2 0x5689 JUMP JUMPDEST PUSH1 0x1C DUP2 LT PUSH2 0x2B41 JUMPI PUSH2 0x2B41 PUSH2 0x5D2B JUMP JUMPDEST PUSH1 0x20 MUL ADD MLOAD SWAP1 POP PUSH0 PUSH2 0x2B9C PUSH2 0x2B60 PUSH2 0x2B59 DUP6 DUP14 PUSH2 0x26C5 JUMP JUMPDEST PUSH1 0x2 PUSH2 0x26C5 JUMP JUMPDEST PUSH2 0x94E DUP12 PUSH2 0x2B6F PUSH1 0x1 DUP10 PUSH2 0x5689 JUMP JUMPDEST PUSH1 0x1C DUP2 LT PUSH2 0x2B7F JUMPI PUSH2 0x2B7F PUSH2 0x5D2B JUMP JUMPDEST PUSH1 0x20 MUL ADD MLOAD PUSH2 0x92B PUSH2 0x2B96 DUP9 PUSH2 0x92B PUSH1 0x1 DUP11 PUSH2 0x26F9 JUMP JUMPDEST DUP8 PUSH2 0x26F9 JUMP JUMPDEST SWAP1 POP PUSH2 0x2BBD DUP2 PUSH2 0x92B PUSH2 0xDB5 PUSH2 0x2BB7 DUP8 PUSH2 0x92B PUSH1 0x1 DUP10 PUSH2 0x26F9 JUMP JUMPDEST DUP7 PUSH2 0x26E0 JUMP JUMPDEST SWAP10 POP DUP10 SWAP1 POP DUP1 DUP6 PUSH2 0x2BCF PUSH1 0x1 DUP8 PUSH2 0x5689 JUMP JUMPDEST DUP2 MLOAD DUP2 LT PUSH2 0x2BDF JUMPI PUSH2 0x2BDF PUSH2 0x5D2B JUMP JUMPDEST PUSH1 0x20 MUL PUSH1 0x20 ADD ADD DUP2 DUP2 MSTORE POP POP POP POP POP DUP1 PUSH2 0x2BF8 SWAP1 PUSH2 0x5D57 JUMP JUMPDEST SWAP1 POP PUSH2 0x2AF5 JUMP JUMPDEST POP SWAP7 SWAP6 POP POP POP POP POP POP JUMP JUMPDEST PUSH0 PUSH2 0x26DA DUP3 DUP4 PUSH2 0x26C5 JUMP JUMPDEST PUSH0 PUSH1 0x1 DUP2 PUSH2 0x2C2E PUSH2 0x2C28 DUP8 PUSH2 0x100 PUSH2 0x4F7D JUMP JUMPDEST DUP4 PUSH2 0x26F9 JUMP JUMPDEST SWAP1 POP DUP1 PUSH2 0x2C4E JUMPI PUSH1 0x40 MLOAD PUSH4 0x835EB8F7 PUSH1 0xE0 SHL DUP2 MSTORE PUSH1 0x4 ADD PUSH1 0x40 MLOAD DUP1 SWAP2 SUB SWAP1 REVERT JUMPDEST PUSH2 0x2C56 PUSH2 0x5468 JUMP JUMPDEST DUP1 MLOAD DUP4 SWAP1 MSTORE PUSH0 JUMPDEST PUSH32 0x0 DUP2 LT ISZERO PUSH2 0x2D3F JUMPI PUSH0 PUSH2 0x2C91 DUP3 PUSH1 0x9 PUSH2 0x5BC0 JUMP JUMPDEST PUSH2 0x2C9C SWAP1 PUSH1 0x1 PUSH2 0x5BAD JUMP JUMPDEST SWAP1 POP DUP5 DUP4 PUSH0 ADD MLOAD DUP3 PUSH2 0x100 DUP2 LT PUSH2 0x2CB5 JUMPI PUSH2 0x2CB5 PUSH2 0x5D2B JUMP JUMPDEST PUSH1 0x20 MUL ADD MSTORE PUSH0 PUSH2 0x2CC6 DUP3 PUSH1 0x1 PUSH2 0x5BAD JUMP JUMPDEST SWAP1 POP JUMPDEST PUSH2 0x2CD4 PUSH1 0x9 DUP4 PUSH2 0x5BAD JUMP JUMPDEST DUP2 LT ISZERO PUSH2 0x2D35 JUMPI DUP4 MLOAD PUSH2 0x2D14 SWAP1 PUSH2 0x2CEC PUSH1 0x1 DUP5 PUSH2 0x5689 JUMP JUMPDEST PUSH2 0x100 DUP2 LT PUSH2 0x2CFD JUMPI PUSH2 0x2CFD PUSH2 0x5D2B JUMP JUMPDEST PUSH1 0x20 MUL ADD MLOAD DUP11 DUP6 PUSH1 0x1C DUP2 LT PUSH2 0xC2D JUMPI PUSH2 0xC2D PUSH2 0x5D2B JUMP JUMPDEST DUP5 MLOAD DUP3 PUSH2 0x100 DUP2 LT PUSH2 0x2D28 JUMPI PUSH2 0x2D28 PUSH2 0x5D2B JUMP JUMPDEST PUSH1 0x20 MUL ADD MSTORE PUSH1 0x1 ADD PUSH2 0x2CC9 JUMP JUMPDEST POP POP PUSH1 0x1 ADD PUSH2 0x2C5D JUMP JUMPDEST POP PUSH1 0x80 DUP2 ADD DUP4 SWAP1 MSTORE PUSH0 PUSH1 0x20 DUP3 ADD DUP2 SWAP1 MSTORE JUMPDEST PUSH2 0x100 DUP2 LT ISZERO PUSH2 0x2E3D JUMPI PUSH2 0x2D71 PUSH2 0x2D6B DUP4 PUSH1 0x80 ADD MLOAD DUP11 PUSH2 0x26C5 JUMP JUMPDEST DUP6 PUSH2 0x26F9 JUMP JUMPDEST DUP3 PUSH1 0xA0 ADD MLOAD DUP3 PUSH2 0x100 DUP2 LT PUSH2 0x2D88 JUMPI PUSH2 0x2D88 PUSH2 0x5D2B JUMP JUMPDEST PUSH1 0x20 MUL ADD MSTORE PUSH1 0xA0 DUP3 ADD MLOAD PUSH2 0x2DB2 SWAP1 DUP3 PUSH2 0x100 DUP2 LT PUSH2 0x2DA8 JUMPI PUSH2 0x2DA8 PUSH2 0x5D2B JUMP JUMPDEST PUSH1 0x20 MUL ADD MLOAD PUSH2 0x2A02 JUMP JUMPDEST DUP3 PUSH1 0xA0 ADD MLOAD DUP3 PUSH2 0x100 DUP2 LT PUSH2 0x2DC9 JUMPI PUSH2 0x2DC9 PUSH2 0x5D2B JUMP JUMPDEST PUSH1 0x20 MUL ADD DUP2 DUP2 MSTORE POP POP PUSH2 0x2E0F DUP3 PUSH1 0x20 ADD MLOAD PUSH2 0x930 DUP5 PUSH0 ADD MLOAD DUP5 PUSH2 0x100 DUP2 LT PUSH2 0x2DF3 JUMPI PUSH2 0x2DF3 PUSH2 0x5D2B JUMP JUMPDEST PUSH1 0x20 MUL ADD MLOAD DUP6 PUSH1 0xA0 ADD MLOAD DUP6 PUSH2 0x100 DUP2 LT PUSH2 0xC2D JUMPI PUSH2 0xC2D PUSH2 0x5D2B JUMP JUMPDEST PUSH1 0x20 DUP4 ADD MSTORE PUSH1 0x80 DUP3 ADD MLOAD PUSH2 0x2E30 SWAP1 PUSH0 MLOAD PUSH1 0x20 PUSH2 0x5E2A PUSH0 CODECOPY PUSH0 MLOAD SWAP1 PUSH0 MSTORE PUSH2 0x26C5 JUMP JUMPDEST PUSH1 0x80 DUP4 ADD MSTORE PUSH1 0x1 ADD PUSH2 0x2D50 JUMP JUMPDEST POP PUSH0 PUSH2 0x2E4E DUP4 PUSH2 0x92B PUSH2 0x100 PUSH2 0x2A02 JUMP JUMPDEST SWAP1 POP PUSH2 0x2E5E DUP3 PUSH1 0x20 ADD MLOAD DUP3 PUSH2 0x26C5 JUMP JUMPDEST PUSH1 0x20 DUP4 ADD MSTORE PUSH1 0xA0 DUP3 ADD MLOAD PUSH2 0x2E79 SWAP1 PUSH0 JUMPDEST PUSH1 0x20 MUL ADD MLOAD DUP3 PUSH2 0x26C5 JUMP JUMPDEST PUSH1 0x40 DUP4 ADD MSTORE PUSH1 0xA0 DUP3 ADD MLOAD PUSH2 0x2EA5 SWAP1 PUSH2 0x2E94 PUSH1 0x1 PUSH2 0x100 PUSH2 0x5689 JUMP JUMPDEST PUSH2 0x100 DUP2 LT PUSH2 0x2E6E JUMPI PUSH2 0x2E6E PUSH2 0x5D2B JUMP JUMPDEST PUSH1 0x60 DUP4 ADD MSTORE PUSH1 0x40 DUP3 ADD MLOAD PUSH2 0x2EBB SWAP1 DUP11 PUSH1 0x2 PUSH2 0xC2D JUMP JUMPDEST PUSH1 0xC0 DUP4 ADD DUP2 SWAP1 MSTORE PUSH2 0x2F08 SWAP1 PUSH2 0x930 PUSH2 0x2EE0 DUP12 PUSH0 MLOAD PUSH1 0x20 PUSH2 0x5E2A PUSH0 CODECOPY PUSH0 MLOAD SWAP1 PUSH0 MSTORE PUSH2 0x26F9 JUMP JUMPDEST PUSH1 0x20 DUP14 ADD MLOAD PUSH1 0x40 DUP15 ADD MLOAD PUSH2 0x92B SWAP2 PUSH2 0x2EF7 SWAP2 PUSH2 0x26F9 JUMP JUMPDEST DUP15 MLOAD PUSH1 0x20 DUP10 ADD MLOAD PUSH2 0x94E SWAP2 SWAP1 PUSH2 0x26C5 JUMP JUMPDEST PUSH1 0xC0 DUP4 ADD DUP2 SWAP1 MSTORE PUSH1 0x60 DUP4 ADD MLOAD PUSH2 0x2F3D SWAP2 PUSH2 0x2F31 SWAP2 PUSH2 0x930 SWAP1 PUSH2 0x92B DUP15 PUSH1 0x2 PUSH1 0x20 MUL ADD MLOAD DUP13 PUSH2 0x26F9 JUMP JUMPDEST PUSH2 0x94E DUP6 DUP13 PUSH1 0x3 PUSH2 0xC2D JUMP JUMPDEST PUSH1 0xC0 DUP4 ADD DUP2 SWAP1 MSTORE ISZERO SWAP10 SWAP9 POP POP POP POP POP POP POP POP POP JUMP JUMPDEST PUSH2 0x2F5A PUSH2 0x53FF JUMP JUMPDEST PUSH32 0x0 PUSH0 JUMPDEST DUP2 DUP2 LT ISZERO PUSH2 0x2FAF JUMPI PUSH2 0x2FA7 DUP6 DUP3 DUP2 MLOAD DUP2 LT PUSH2 0x2F9A JUMPI PUSH2 0x2F9A PUSH2 0x5D2B JUMP JUMPDEST PUSH1 0x20 MUL PUSH1 0x20 ADD ADD MLOAD PUSH2 0x323E JUMP JUMPDEST PUSH1 0x1 ADD PUSH2 0x2F7D JUMP JUMPDEST POP PUSH1 0x40 MLOAD PUSH1 0x1 SWAP1 DUP2 JUMPDEST PUSH1 0x1 DUP5 ADD DUP2 LT ISZERO PUSH2 0x3014 JUMPI PUSH1 0x20 DUP2 MUL DUP8 ADD PUSH1 0x20 DUP3 MUL DUP8 ADD DUP2 MLOAD MLOAD PUSH1 0x40 DUP6 ADD MSTORE DUP2 MLOAD PUSH1 0x20 ADD MLOAD PUSH1 0x60 DUP6 ADD MSTORE DUP1 MLOAD PUSH1 0x80 DUP6 ADD MSTORE POP POP PUSH1 0x40 DUP1 DUP4 ADD PUSH1 0x60 PUSH1 0x40 DUP6 ADD PUSH1 0x7 GAS STATICCALL DUP4 AND SWAP3 POP PUSH1 0x40 DUP3 PUSH1 0x80 DUP5 PUSH1 0x6 GAS STATICCALL SWAP1 SWAP3 AND SWAP2 PUSH1 0x1 ADD PUSH2 0x2FB8 JUMP JUMPDEST POP DUP1 MLOAD DUP5 MSTORE PUSH1 0x20 DUP2 ADD MLOAD PUSH1 0x20 DUP6 ADD MSTORE POP DUP1 PUSH2 0x3042 JUMPI PUSH1 0x40 MLOAD PUSH4 0x52EC1745 PUSH1 0xE1 SHL DUP2 MSTORE PUSH1 0x4 ADD PUSH1 0x40 MLOAD DUP1 SWAP2 SUB SWAP1 REVERT JUMPDEST POP POP SWAP3 SWAP2 POP POP JUMP JUMPDEST PUSH2 0x3052 PUSH2 0x53FF JUMP JUMPDEST PUSH1 0x20 DUP3 ADD MLOAD ISZERO PUSH2 0x25F3 JUMPI PUSH1 0x20 DUP3 ADD MLOAD PUSH2 0x3078 SWAP1 PUSH0 MLOAD PUSH1 0x20 PUSH2 0x5E0A PUSH0 CODECOPY PUSH0 MLOAD SWAP1 PUSH0 MSTORE PUSH2 0x5689 JUMP JUMPDEST PUSH1 0x20 DUP4 ADD MSTORE POP SWAP1 JUMP JUMPDEST PUSH0 DUP1 DUP1 JUMPDEST PUSH1 0x8 DUP2 LT ISZERO PUSH2 0x30B2 JUMPI DUP4 DUP2 PUSH1 0x8 DUP2 LT PUSH2 0x30A0 JUMPI PUSH2 0x30A0 PUSH2 0x5D2B JUMP JUMPDEST PUSH1 0x20 MUL ADD MLOAD SWAP2 SWAP1 SWAP2 OR SWAP1 PUSH1 0x1 ADD PUSH2 0x3085 JUMP JUMPDEST POP ISZERO SWAP3 SWAP2 POP POP JUMP JUMPDEST PUSH0 PUSH0 PUSH0 PUSH2 0x30C6 DUP7 PUSH2 0x3161 JUMP JUMPDEST SWAP2 POP SWAP2 POP PUSH2 0x30D2 PUSH2 0x54AC JUMP JUMPDEST DUP3 MLOAD DUP2 MSTORE PUSH1 0x20 DUP1 DUP5 ADD MLOAD DUP2 DUP4 ADD MSTORE DUP3 MLOAD PUSH1 0x40 DUP1 DUP5 ADD SWAP2 SWAP1 SWAP2 MSTORE DUP4 DUP3 ADD MLOAD PUSH1 0x60 DUP5 ADD MSTORE DUP8 MLOAD PUSH1 0x80 DUP5 ADD MSTORE DUP8 DUP3 ADD MLOAD PUSH1 0xA0 DUP5 ADD MSTORE DUP7 MLOAD PUSH1 0xC0 DUP5 ADD MSTORE DUP7 DUP3 ADD MLOAD PUSH1 0xE0 DUP5 ADD MSTORE MLOAD PUSH2 0x3156 SWAP2 PUSH0 MLOAD PUSH1 0x20 PUSH2 0x5E4A PUSH0 CODECOPY PUSH0 MLOAD SWAP1 PUSH0 MSTORE SWAP2 PUSH2 0x3134 SWAP2 DUP6 SWAP2 ADD PUSH2 0x5D6C JUMP JUMPDEST PUSH1 0x40 MLOAD PUSH1 0x20 DUP2 DUP4 SUB SUB DUP2 MSTORE SWAP1 PUSH1 0x40 MSTORE DUP1 MLOAD SWAP1 PUSH1 0x20 ADD KECCAK256 PUSH0 SHR PUSH2 0x926 SWAP2 SWAP1 PUSH2 0x5C1B JUMP JUMPDEST SWAP8 SWAP7 POP POP POP POP POP POP POP JUMP JUMPDEST PUSH2 0x3169 PUSH2 0x53FF JUMP JUMPDEST PUSH2 0x3171 PUSH2 0x53FF JUMP JUMPDEST DUP3 MLOAD PUSH1 0x20 DUP5 ADD MLOAD PUSH1 0x40 DUP6 ADD MLOAD PUSH1 0x60 DUP7 ADD MLOAD PUSH1 0x80 DUP8 ADD MLOAD PUSH1 0xA0 DUP9 ADD MLOAD PUSH1 0xC0 DUP10 ADD MLOAD PUSH1 0xE0 DUP11 ADD MLOAD PUSH1 0x88 SWAP7 DUP8 SHL SWAP1 SWAP8 OR SWAP7 SWAP4 DUP7 SHL SWAP1 SWAP5 OR SWAP5 SWAP1 DUP2 SHL SWAP1 SWAP2 OR SWAP3 SWAP2 SWAP1 SHL OR PUSH0 MLOAD PUSH1 0x20 PUSH2 0x5E0A PUSH0 CODECOPY PUSH0 MLOAD SWAP1 PUSH0 MSTORE DUP5 LT DUP1 ISZERO PUSH2 0x31D9 JUMPI POP PUSH0 MLOAD PUSH1 0x20 PUSH2 0x5E0A PUSH0 CODECOPY PUSH0 MLOAD SWAP1 PUSH0 MSTORE DUP4 LT JUMPDEST DUP1 ISZERO PUSH2 0x31F1 JUMPI POP PUSH0 MLOAD PUSH1 0x20 PUSH2 0x5E0A PUSH0 CODECOPY PUSH0 MLOAD SWAP1 PUSH0 MSTORE DUP3 LT JUMPDEST DUP1 ISZERO PUSH2 0x3209 JUMPI POP PUSH0 MLOAD PUSH1 0x20 PUSH2 0x5E0A PUSH0 CODECOPY PUSH0 MLOAD SWAP1 PUSH0 MSTORE DUP2 LT JUMPDEST PUSH2 0x3226 JUMPI PUSH1 0x40 MLOAD PUSH4 0x303DF09F PUSH1 0xE1 SHL DUP2 MSTORE PUSH1 0x4 ADD PUSH1 0x40 MLOAD DUP1 SWAP2 SUB SWAP1 REVERT JUMPDEST SWAP3 DUP6 MSTORE PUSH1 0x20 DUP1 DUP7 ADD SWAP3 SWAP1 SWAP3 MSTORE DUP4 MSTORE DUP3 ADD MSTORE SWAP1 SWAP3 SWAP1 SWAP2 POP JUMP JUMPDEST PUSH1 0x20 DUP2 ADD MLOAD DUP2 MLOAD OR PUSH0 SUB PUSH2 0x3265 JUMPI PUSH1 0x40 MLOAD PUSH4 0x4DDAA5E5 PUSH1 0xE0 SHL DUP2 MSTORE PUSH1 0x4 ADD PUSH1 0x40 MLOAD DUP1 SWAP2 SUB SWAP1 REVERT JUMPDEST POP JUMP JUMPDEST PUSH2 0x3270 PUSH2 0x53FF JUMP JUMPDEST PUSH2 0x3278 PUSH2 0x53FF JUMP JUMPDEST PUSH2 0x3282 DUP4 DUP7 PUSH2 0x501C JUMP JUMPDEST SWAP1 POP PUSH2 0x328E DUP2 DUP6 PUSH2 0x5072 JUMP JUMPDEST SWAP6 SWAP5 POP POP POP POP POP JUMP JUMPDEST DUP2 MLOAD PUSH1 0x20 DUP1 DUP5 ADD MLOAD DUP4 MLOAD DUP5 DUP4 ADD MLOAD PUSH1 0x40 DUP1 MLOAD SWAP5 DUP6 ADD SWAP6 SWAP1 SWAP6 MSTORE SWAP4 DUP4 ADD SWAP2 SWAP1 SWAP2 MSTORE PUSH32 0x198E9393920D483A7260BFB731FB5D25F1AA493335A9E71297E485B7AEF312C2 PUSH1 0x60 DUP4 ADD MSTORE PUSH32 0x1800DEEF121F1E76426A00665E5C4479674322D4F75EDADD46DEBD5CD992F6ED PUSH1 0x80 DUP4 ADD MSTORE PUSH32 0x90689D0585FF075EC9E99AD690C3395BC4B313370B38EF355ACDADCD122975B PUSH1 0xA0 DUP4 ADD MSTORE PUSH32 0x12C85EA5DB8C6DEB4AAB71808DCB408FE3D1E7690C43D37B4CE6CC0166FA7DAA PUSH1 0xC0 DUP4 ADD MSTORE PUSH1 0xE0 DUP3 ADD MSTORE PUSH2 0x100 DUP2 ADD SWAP2 SWAP1 SWAP2 MSTORE PUSH32 0x260E01B251F6F1C7E7FF4E580791DEE8EA51D87A358E038B4EFE30FAC09383C1 PUSH2 0x120 DUP3 ADD MSTORE PUSH32 0x118C4D5B837BCC2BC89B5B398B5974E9F5944073B32078B7E231FEC938883B0 PUSH2 0x140 DUP3 ADD MSTORE PUSH32 0x4FC6369F7110FE3D25156C1BB9A72859CF2A04641F99BA4EE413C80DA6A5FE4 PUSH2 0x160 DUP3 ADD MSTORE PUSH32 0x22FEBDA3C0C0632A56475B4214E5615E11E6DD3F96E6CEA2854A87D4DACC5E55 PUSH2 0x180 DUP3 ADD MSTORE PUSH0 SWAP1 DUP2 SWAP1 PUSH2 0x1A0 ADD PUSH1 0x40 MLOAD PUSH1 0x20 DUP2 DUP4 SUB SUB DUP2 MSTORE SWAP1 PUSH1 0x40 MSTORE SWAP1 POP PUSH0 PUSH0 PUSH1 0x8 PUSH1 0x1 PUSH1 0x1 PUSH1 0xA0 SHL SUB AND DUP4 PUSH1 0x40 MLOAD PUSH2 0x342D SWAP2 SWAP1 PUSH2 0x5DA0 JUMP JUMPDEST PUSH0 PUSH1 0x40 MLOAD DUP1 DUP4 SUB DUP2 DUP6 GAS STATICCALL SWAP2 POP POP RETURNDATASIZE DUP1 PUSH0 DUP2 EQ PUSH2 0x3465 JUMPI PUSH1 0x40 MLOAD SWAP2 POP PUSH1 0x1F NOT PUSH1 0x3F RETURNDATASIZE ADD AND DUP3 ADD PUSH1 0x40 MSTORE RETURNDATASIZE DUP3 MSTORE RETURNDATASIZE PUSH0 PUSH1 0x20 DUP5 ADD RETURNDATACOPY PUSH2 0x346A JUMP JUMPDEST PUSH1 0x60 SWAP2 POP JUMPDEST POP SWAP2 POP SWAP2 POP DUP2 DUP1 ISZERO PUSH2 0x28B6 JUMPI POP DUP1 DUP1 PUSH1 0x20 ADD SWAP1 MLOAD DUP2 ADD SWAP1 PUSH2 0x28B6 SWAP2 SWAP1 PUSH2 0x5DB6 JUMP JUMPDEST PUSH0 PUSH2 0x3497 DUP5 PUSH1 0x7 PUSH2 0x50D3 JUMP JUMPDEST SWAP1 POP PUSH32 0x183227397098D014DC2822DB40C0AC2E9419F4243CDCB848A1F0FAC9F8000000 PUSH0 PUSH2 0x34F8 PUSH2 0x34F2 PUSH2 0x34CC DUP6 PUSH1 0x3 PUSH2 0x26F9 JUMP JUMPDEST PUSH2 0x92B PUSH2 0x34E7 PUSH2 0x34DC DUP12 PUSH0 PUSH2 0x50D3 JUMP JUMPDEST PUSH2 0x92B DUP13 PUSH1 0x1D PUSH2 0x50D3 JUMP JUMPDEST PUSH2 0x92B DUP12 PUSH1 0x1C PUSH2 0x50D3 JUMP JUMPDEST DUP4 PUSH2 0x26C5 JUMP JUMPDEST SWAP1 POP PUSH2 0x3579 PUSH2 0x356E PUSH2 0x3555 PUSH2 0x353C PUSH2 0x3523 DUP6 PUSH2 0x930 PUSH2 0x3518 DUP14 PUSH1 0x2 PUSH2 0x50D3 JUMP JUMPDEST PUSH2 0x92B DUP15 PUSH1 0x1C PUSH2 0x50D3 JUMP JUMPDEST PUSH2 0x930 PUSH2 0x3531 DUP13 PUSH1 0x3 PUSH2 0x50D3 JUMP JUMPDEST PUSH2 0x92B DUP14 PUSH1 0x1D PUSH2 0x50D3 JUMP JUMPDEST PUSH2 0x930 PUSH2 0x354A DUP12 PUSH1 0x4 PUSH2 0x50D3 JUMP JUMPDEST PUSH2 0x92B DUP13 PUSH1 0x1E PUSH2 0x50D3 JUMP JUMPDEST PUSH2 0x930 PUSH2 0x3563 DUP11 PUSH1 0x5 PUSH2 0x50D3 JUMP JUMPDEST PUSH2 0x92B DUP12 PUSH1 0x1F PUSH2 0x50D3 JUMP JUMPDEST PUSH2 0x930 DUP9 PUSH1 0x1 PUSH2 0x50D3 JUMP JUMPDEST SWAP1 POP PUSH2 0x3598 DUP2 PUSH2 0x930 PUSH2 0x358D DUP7 PUSH1 0x1 PUSH2 0x26F9 JUMP JUMPDEST PUSH2 0x92B DUP11 PUSH1 0x27 PUSH2 0x50D3 JUMP JUMPDEST SWAP1 POP PUSH2 0x35A4 DUP2 DUP5 PUSH2 0x26C5 JUMP JUMPDEST SWAP1 POP PUSH2 0x35B0 DUP2 DUP6 PUSH2 0x26C5 JUMP JUMPDEST DUP6 MSTORE POP PUSH0 SWAP1 POP PUSH2 0x35EA PUSH2 0x35E0 PUSH2 0x35D5 PUSH2 0x35CA DUP9 PUSH1 0x1C PUSH2 0x50D3 JUMP JUMPDEST PUSH2 0x930 DUP10 PUSH1 0x1F PUSH2 0x50D3 JUMP JUMPDEST PUSH2 0x94E DUP9 PUSH1 0x24 PUSH2 0x50D3 JUMP JUMPDEST PUSH2 0x930 DUP8 PUSH0 PUSH2 0x50D3 JUMP JUMPDEST SWAP1 POP PUSH2 0x35FB DUP2 PUSH2 0x92B DUP5 PUSH1 0x2 PUSH2 0x26F9 JUMP JUMPDEST SWAP1 POP PUSH2 0x360C DUP2 PUSH2 0x92B DUP5 PUSH1 0x1 PUSH2 0x26F9 JUMP JUMPDEST SWAP1 POP PUSH2 0x3618 DUP2 DUP4 PUSH2 0x26C5 JUMP JUMPDEST SWAP1 POP PUSH2 0x3624 DUP2 DUP5 PUSH2 0x26C5 JUMP JUMPDEST SWAP1 POP DUP1 DUP5 PUSH1 0x1 JUMPDEST PUSH1 0x20 MUL ADD MSTORE POP POP POP POP POP JUMP JUMPDEST PUSH0 PUSH0 PUSH0 PUSH2 0x366D PUSH2 0x3663 PUSH2 0x364B DUP10 PUSH1 0x1C PUSH2 0x50D3 JUMP JUMPDEST PUSH2 0x930 PUSH2 0x3659 DUP12 PUSH1 0x12 PUSH2 0x50D3 JUMP JUMPDEST DUP11 PUSH1 0x20 ADD MLOAD PUSH2 0x26C5 JUMP JUMPDEST DUP8 PUSH1 0x40 ADD MLOAD PUSH2 0x26E0 JUMP JUMPDEST SWAP1 POP PUSH2 0x36A6 DUP2 PUSH2 0x92B PUSH2 0x369C PUSH2 0x3684 DUP12 PUSH1 0x1D PUSH2 0x50D3 JUMP JUMPDEST PUSH2 0x930 PUSH2 0x3692 DUP14 PUSH1 0x13 PUSH2 0x50D3 JUMP JUMPDEST DUP13 PUSH1 0x20 ADD MLOAD PUSH2 0x26C5 JUMP JUMPDEST DUP10 PUSH1 0x40 ADD MLOAD PUSH2 0x26E0 JUMP JUMPDEST SWAP1 POP PUSH2 0x36CB DUP2 PUSH2 0x92B PUSH2 0x369C PUSH2 0x36BD DUP12 PUSH1 0x1E PUSH2 0x50D3 JUMP JUMPDEST PUSH2 0x930 PUSH2 0x3692 DUP14 PUSH1 0x14 PUSH2 0x50D3 JUMP JUMPDEST SWAP1 POP PUSH2 0x36F0 DUP2 PUSH2 0x92B PUSH2 0x369C PUSH2 0x36E2 DUP12 PUSH1 0x1F PUSH2 0x50D3 JUMP JUMPDEST PUSH2 0x930 PUSH2 0x3692 DUP14 PUSH1 0x15 PUSH2 0x50D3 JUMP JUMPDEST SWAP3 POP PUSH0 SWAP1 POP PUSH2 0x3714 PUSH2 0x3663 PUSH2 0x3706 DUP10 PUSH1 0x1C PUSH2 0x50D3 JUMP JUMPDEST PUSH2 0x930 PUSH2 0x3659 DUP12 PUSH1 0xE PUSH2 0x50D3 JUMP JUMPDEST SWAP1 POP PUSH2 0x3739 DUP2 PUSH2 0x92B PUSH2 0x369C PUSH2 0x372B DUP12 PUSH1 0x1D PUSH2 0x50D3 JUMP JUMPDEST PUSH2 0x930 PUSH2 0x3692 DUP14 PUSH1 0xF PUSH2 0x50D3 JUMP JUMPDEST SWAP1 POP PUSH2 0x375E DUP2 PUSH2 0x92B PUSH2 0x369C PUSH2 0x3750 DUP12 PUSH1 0x1E PUSH2 0x50D3 JUMP JUMPDEST PUSH2 0x930 PUSH2 0x3692 DUP14 PUSH1 0x10 PUSH2 0x50D3 JUMP JUMPDEST SWAP1 POP PUSH2 0x3783 DUP2 PUSH2 0x92B PUSH2 0x369C PUSH2 0x3775 DUP12 PUSH1 0x1F PUSH2 0x50D3 JUMP JUMPDEST PUSH2 0x930 PUSH2 0x3692 DUP14 PUSH1 0x11 PUSH2 0x50D3 JUMP JUMPDEST SWAP2 POP PUSH0 SWAP1 POP PUSH2 0x37AA PUSH2 0x37A4 PUSH2 0x3799 DUP10 PUSH1 0x20 PUSH2 0x50D3 JUMP JUMPDEST PUSH2 0x930 DUP11 PUSH1 0x1A PUSH2 0x50D3 JUMP JUMPDEST DUP5 PUSH2 0x26C5 JUMP JUMPDEST SWAP1 POP PUSH2 0x37DF DUP2 PUSH2 0x94E PUSH2 0x37D9 PUSH2 0x37C1 DUP12 PUSH1 0x28 PUSH2 0x50D3 JUMP JUMPDEST PUSH2 0x930 PUSH2 0x37CF DUP14 PUSH1 0x1B PUSH2 0x50D3 JUMP JUMPDEST DUP13 PUSH1 0x60 ADD MLOAD PUSH2 0x26C5 JUMP JUMPDEST DUP6 PUSH2 0x26C5 JUMP JUMPDEST SWAP1 POP PUSH2 0x37EB DUP2 DUP6 PUSH2 0x26C5 JUMP JUMPDEST PUSH1 0x40 DUP7 ADD MSTORE POP PUSH0 PUSH2 0x380E PUSH2 0x37D9 PUSH2 0x3803 DUP10 PUSH1 0x1B PUSH2 0x50D3 JUMP JUMPDEST PUSH2 0x92B DUP11 PUSH1 0x28 PUSH2 0x50D3 JUMP JUMPDEST PUSH1 0x60 SWAP1 SWAP6 ADD SWAP5 SWAP1 SWAP5 MSTORE POP POP POP POP POP POP JUMP JUMPDEST PUSH0 PUSH0 PUSH0 PUSH2 0x3834 DUP7 PUSH1 0x20 ADD MLOAD DUP8 PUSH1 0x20 ADD MLOAD PUSH2 0x26C5 JUMP JUMPDEST SWAP1 POP PUSH2 0x3898 PUSH2 0x387D PUSH2 0x386F PUSH2 0x3857 PUSH2 0x384D DUP12 PUSH1 0x16 PUSH2 0x50D3 JUMP JUMPDEST DUP11 PUSH1 0x40 ADD MLOAD PUSH2 0x26E0 JUMP JUMPDEST PUSH2 0x930 PUSH2 0x3865 DUP13 PUSH1 0x17 PUSH2 0x50D3 JUMP JUMPDEST DUP12 PUSH1 0x20 ADD MLOAD PUSH2 0x26C5 JUMP JUMPDEST PUSH2 0x930 PUSH2 0x37D9 DUP12 PUSH1 0x18 PUSH2 0x50D3 JUMP JUMPDEST PUSH2 0x930 PUSH2 0x388E PUSH2 0x37D9 DUP12 PUSH1 0x19 PUSH2 0x50D3 JUMP JUMPDEST DUP10 PUSH1 0x20 ADD MLOAD PUSH2 0x26C5 JUMP JUMPDEST SWAP3 POP POP PUSH0 PUSH2 0x38AE DUP7 PUSH1 0x20 ADD MLOAD DUP8 PUSH1 0x20 ADD MLOAD PUSH2 0x26C5 JUMP JUMPDEST SWAP1 POP PUSH0 PUSH2 0x38DB PUSH2 0x38C2 PUSH2 0x369C DUP11 PUSH1 0x1C PUSH2 0x50D3 JUMP JUMPDEST PUSH2 0x930 PUSH2 0x38D0 DUP12 PUSH1 0x3 PUSH2 0x50D3 JUMP JUMPDEST PUSH2 0x92B DUP13 PUSH1 0x24 PUSH2 0x50D3 JUMP JUMPDEST SWAP1 POP PUSH0 PUSH2 0x3904 PUSH2 0x38EC DUP11 PUSH1 0x1D PUSH2 0x50D3 JUMP JUMPDEST PUSH2 0x930 PUSH2 0x38F9 DUP13 PUSH0 PUSH2 0x50D3 JUMP JUMPDEST PUSH2 0x92B DUP14 PUSH1 0x25 PUSH2 0x50D3 JUMP JUMPDEST SWAP1 POP PUSH0 PUSH2 0x392E PUSH2 0x3915 DUP12 PUSH1 0x1E PUSH2 0x50D3 JUMP JUMPDEST PUSH2 0x930 PUSH2 0x3923 DUP14 PUSH1 0x1 PUSH2 0x50D3 JUMP JUMPDEST PUSH2 0x92B DUP15 PUSH1 0x26 PUSH2 0x50D3 JUMP JUMPDEST SWAP1 POP PUSH2 0x3969 PUSH2 0x3952 PUSH2 0x3948 DUP6 PUSH2 0x930 DUP7 DUP15 PUSH1 0x20 ADD MLOAD PUSH2 0x26C5 JUMP JUMPDEST PUSH2 0x930 DUP5 DUP9 PUSH2 0x26C5 JUMP JUMPDEST PUSH2 0x930 PUSH2 0x3692 PUSH2 0x3963 DUP15 PUSH1 0x4 PUSH2 0x50D3 JUMP JUMPDEST DUP9 PUSH2 0x26C5 JUMP JUMPDEST SWAP5 POP POP POP POP POP PUSH0 PUSH2 0x397E PUSH2 0x37A4 DUP9 PUSH1 0x21 PUSH2 0x50D3 JUMP JUMPDEST SWAP1 POP PUSH0 PUSH2 0x398F PUSH2 0x37A4 DUP10 PUSH1 0x21 PUSH2 0x50D3 JUMP JUMPDEST SWAP1 POP PUSH0 PUSH2 0x39C7 PUSH2 0x39AE PUSH2 0x39A3 DUP12 PUSH1 0x23 PUSH2 0x50D3 JUMP JUMPDEST PUSH2 0x930 DUP13 PUSH1 0x6 PUSH2 0x50D3 JUMP JUMPDEST PUSH2 0x94E PUSH2 0x39BC DUP13 PUSH1 0x23 PUSH2 0x50D3 JUMP JUMPDEST PUSH2 0x92B DUP14 PUSH1 0x6 PUSH2 0x50D3 JUMP JUMPDEST SWAP1 POP PUSH0 PUSH2 0x39E5 PUSH2 0x2C28 PUSH2 0x39DA DUP8 DUP10 PUSH2 0x26C5 JUMP JUMPDEST PUSH2 0x92B DUP14 PUSH1 0x21 PUSH2 0x50D3 JUMP JUMPDEST SWAP1 POP PUSH2 0x39F1 DUP2 DUP9 PUSH2 0x26C5 JUMP JUMPDEST SWAP1 POP PUSH0 PUSH2 0x3A19 PUSH2 0x3A0B PUSH2 0x3A05 DUP14 PUSH1 0x6 PUSH2 0x50D3 JUMP JUMPDEST DUP8 PUSH2 0x26C5 JUMP JUMPDEST PUSH2 0x94E PUSH2 0x3A05 DUP15 PUSH1 0x22 PUSH2 0x50D3 JUMP JUMPDEST SWAP1 POP PUSH0 PUSH2 0x3A27 DUP13 PUSH1 0x23 PUSH2 0x50D3 JUMP JUMPDEST SWAP1 POP PUSH0 PUSH2 0x3A37 PUSH2 0x2C28 DUP4 DUP5 PUSH2 0x26C5 JUMP JUMPDEST PUSH1 0x80 DUP13 ADD DUP6 SWAP1 MSTORE PUSH1 0xA0 DUP13 ADD DUP5 SWAP1 MSTORE SWAP1 POP PUSH2 0x3A51 DUP2 DUP12 PUSH2 0x26C5 JUMP JUMPDEST DUP12 PUSH1 0x6 PUSH1 0x20 MUL ADD MSTORE POP POP POP POP POP POP POP POP POP POP POP POP POP JUMP JUMPDEST PUSH0 PUSH2 0x3A74 PUSH0 PUSH1 0x1 PUSH2 0x26F9 JUMP JUMPDEST SWAP1 POP PUSH0 PUSH2 0x3A82 PUSH0 PUSH1 0x2 PUSH2 0x26F9 JUMP JUMPDEST SWAP1 POP PUSH0 PUSH2 0x3A90 PUSH0 PUSH1 0x3 PUSH2 0x26F9 JUMP JUMPDEST SWAP1 POP PUSH0 PUSH2 0x3AAC PUSH2 0x3AA1 DUP9 PUSH1 0x1D PUSH2 0x50D3 JUMP JUMPDEST PUSH2 0x94E DUP10 PUSH1 0x1C PUSH2 0x50D3 JUMP JUMPDEST SWAP1 POP PUSH0 PUSH2 0x3AC8 PUSH2 0x3ABD DUP10 PUSH1 0x1E PUSH2 0x50D3 JUMP JUMPDEST PUSH2 0x94E DUP11 PUSH1 0x1D PUSH2 0x50D3 JUMP JUMPDEST SWAP1 POP PUSH0 PUSH2 0x3AE4 PUSH2 0x3AD9 DUP11 PUSH1 0x1F PUSH2 0x50D3 JUMP JUMPDEST PUSH2 0x94E DUP12 PUSH1 0x1E PUSH2 0x50D3 JUMP JUMPDEST SWAP1 POP PUSH0 PUSH2 0x3B00 PUSH2 0x3AF5 DUP12 PUSH1 0x24 PUSH2 0x50D3 JUMP JUMPDEST PUSH2 0x94E DUP13 PUSH1 0x1F PUSH2 0x50D3 JUMP JUMPDEST SWAP1 POP DUP4 PUSH2 0x3B11 DUP2 PUSH2 0x92B DUP2 DUP12 PUSH2 0x26E0 JUMP JUMPDEST SWAP1 POP PUSH2 0x3B21 DUP2 PUSH2 0x92B DUP8 DUP11 PUSH2 0x26E0 JUMP JUMPDEST SWAP1 POP PUSH2 0x3B31 DUP2 PUSH2 0x92B DUP8 DUP10 PUSH2 0x26E0 JUMP JUMPDEST SWAP1 POP PUSH2 0x3B42 DUP2 PUSH2 0x92B DUP14 PUSH1 0x8 PUSH2 0x50D3 JUMP JUMPDEST SWAP1 POP PUSH2 0x3B4E DUP2 DUP11 PUSH2 0x26C5 JUMP JUMPDEST PUSH1 0xE0 DUP12 ADD MSTORE POP DUP3 PUSH2 0x3B63 DUP2 PUSH2 0x92B DUP2 DUP12 PUSH2 0x26E0 JUMP JUMPDEST SWAP1 POP PUSH2 0x3B73 DUP2 PUSH2 0x92B DUP7 DUP11 PUSH2 0x26E0 JUMP JUMPDEST SWAP1 POP PUSH2 0x3B83 DUP2 PUSH2 0x92B DUP7 DUP10 PUSH2 0x26E0 JUMP JUMPDEST SWAP1 POP PUSH2 0x3B94 DUP2 PUSH2 0x92B DUP14 PUSH1 0x8 PUSH2 0x50D3 JUMP JUMPDEST SWAP1 POP PUSH2 0x3BA0 DUP2 DUP11 PUSH2 0x26C5 JUMP JUMPDEST PUSH2 0x100 DUP12 ADD MSTORE POP DUP2 PUSH2 0x3BB6 DUP2 PUSH2 0x92B DUP2 DUP12 PUSH2 0x26E0 JUMP JUMPDEST SWAP1 POP PUSH2 0x3BC6 DUP2 PUSH2 0x92B DUP6 DUP11 PUSH2 0x26E0 JUMP JUMPDEST SWAP1 POP PUSH2 0x3BD6 DUP2 PUSH2 0x92B DUP6 DUP10 PUSH2 0x26E0 JUMP JUMPDEST SWAP1 POP PUSH2 0x3BE7 DUP2 PUSH2 0x92B DUP14 PUSH1 0x8 PUSH2 0x50D3 JUMP JUMPDEST SWAP1 POP PUSH2 0x3BF3 DUP2 DUP11 PUSH2 0x26C5 JUMP JUMPDEST PUSH2 0x120 DUP12 ADD MSTORE POP DUP1 PUSH2 0x3C09 DUP2 PUSH2 0x92B DUP2 DUP12 PUSH2 0x26E0 JUMP JUMPDEST SWAP1 POP PUSH2 0x3C19 DUP2 PUSH2 0x92B DUP5 DUP11 PUSH2 0x26E0 JUMP JUMPDEST SWAP1 POP PUSH2 0x3C29 DUP2 PUSH2 0x92B DUP5 DUP10 PUSH2 0x26E0 JUMP JUMPDEST SWAP1 POP PUSH2 0x3C3A DUP2 PUSH2 0x92B DUP14 PUSH1 0x8 PUSH2 0x50D3 JUMP JUMPDEST SWAP1 POP PUSH2 0x3C46 DUP2 DUP11 PUSH2 0x26C5 JUMP JUMPDEST PUSH2 0x140 SWAP1 SWAP11 ADD SWAP10 SWAP1 SWAP10 MSTORE POP POP POP POP POP POP POP POP POP POP JUMP JUMPDEST PUSH2 0x3C95 PUSH1 0x40 MLOAD DUP1 PUSH1 0xE0 ADD PUSH1 0x40 MSTORE DUP1 PUSH0 DUP2 MSTORE PUSH1 0x20 ADD PUSH0 DUP2 MSTORE PUSH1 0x20 ADD PUSH0 DUP2 MSTORE PUSH1 0x20 ADD PUSH0 DUP2 MSTORE PUSH1 0x20 ADD PUSH0 DUP2 MSTORE PUSH1 0x20 ADD PUSH0 DUP2 MSTORE PUSH1 0x20 ADD PUSH0 DUP2 MSTORE POP SWAP1 JUMP JUMPDEST PUSH2 0x3CA0 DUP5 PUSH1 0x1D PUSH2 0x50D3 JUMP JUMPDEST DUP2 MSTORE PUSH2 0x3CAD DUP5 PUSH1 0x1E PUSH2 0x50D3 JUMP JUMPDEST PUSH1 0x20 DUP3 ADD MSTORE PUSH2 0x3CBD DUP5 PUSH1 0x24 PUSH2 0x50D3 JUMP JUMPDEST PUSH1 0x40 DUP3 ADD MSTORE PUSH2 0x3CCD DUP5 PUSH1 0x27 PUSH2 0x50D3 JUMP JUMPDEST PUSH1 0x60 DUP3 ADD MSTORE PUSH2 0x3CDD DUP5 PUSH1 0x26 PUSH2 0x50D3 JUMP JUMPDEST PUSH1 0x80 DUP3 ADD MSTORE PUSH2 0x3CED DUP5 PUSH1 0x25 PUSH2 0x50D3 JUMP JUMPDEST PUSH1 0xA0 DUP3 ADD MSTORE PUSH0 PUSH2 0x3CFE DUP6 PUSH1 0x2 PUSH2 0x50D3 JUMP JUMPDEST SWAP1 POP PUSH0 PUSH2 0x3D0B DUP7 PUSH0 PUSH2 0x50D3 JUMP JUMPDEST SWAP1 POP PUSH0 PUSH2 0x3D1F DUP5 PUSH1 0x40 ADD MLOAD DUP6 PUSH0 ADD MLOAD PUSH2 0x26F9 JUMP JUMPDEST SWAP1 POP PUSH0 PUSH2 0x3D34 DUP6 PUSH1 0x20 ADD MLOAD DUP7 PUSH1 0x20 ADD MLOAD PUSH2 0x26C5 JUMP JUMPDEST PUSH1 0x60 DUP7 ADD MLOAD SWAP1 SWAP2 POP DUP7 SWAP1 PUSH0 SWAP1 PUSH2 0x3D4A SWAP1 DUP1 PUSH2 0x26C5 JUMP JUMPDEST SWAP1 POP PUSH0 PUSH2 0x3D62 PUSH2 0x3963 DUP10 PUSH1 0x20 ADD MLOAD DUP11 PUSH1 0x60 ADD MLOAD PUSH2 0x26C5 JUMP JUMPDEST SWAP1 POP PUSH0 PUSH2 0x3D81 PUSH2 0x3D7A DUP11 PUSH1 0xA0 ADD MLOAD DUP12 PUSH1 0x40 ADD MLOAD PUSH2 0x26E0 JUMP JUMPDEST DUP11 MLOAD PUSH2 0x26E0 JUMP JUMPDEST SWAP1 POP PUSH2 0x3D90 PUSH2 0x3A05 DUP3 DUP9 PUSH2 0x26C5 JUMP JUMPDEST SWAP1 POP PUSH2 0x3DB7 PUSH2 0x3DB1 PUSH2 0x3DAB PUSH2 0x3DA5 DUP5 DUP8 PUSH2 0x26F9 JUMP JUMPDEST DUP9 PUSH2 0x26F9 JUMP JUMPDEST DUP5 PUSH2 0x26E0 JUMP JUMPDEST DUP4 PUSH2 0x26E0 JUMP JUMPDEST SWAP1 POP PUSH2 0x3DDF PUSH2 0x3DD4 PUSH2 0x3DC9 DUP4 DUP8 PUSH2 0x26C5 JUMP JUMPDEST PUSH2 0x92B DUP16 PUSH1 0x9 PUSH2 0x50D3 JUMP JUMPDEST PUSH2 0x92B PUSH1 0x1 DUP11 PUSH2 0x26F9 JUMP JUMPDEST PUSH2 0x160 DUP13 ADD MSTORE POP POP POP POP PUSH1 0x20 DUP6 ADD MLOAD PUSH1 0x80 DUP7 ADD MLOAD PUSH0 SWAP2 PUSH2 0x3DFE SWAP2 PUSH2 0x26E0 JUMP JUMPDEST SWAP1 POP PUSH0 PUSH2 0x3E1C PUSH2 0x3E12 DUP9 PUSH1 0x60 ADD MLOAD DUP9 PUSH2 0x26C5 JUMP JUMPDEST DUP9 PUSH1 0x20 ADD MLOAD PUSH2 0x26F9 JUMP JUMPDEST SWAP1 POP PUSH0 PUSH2 0x3E40 PUSH2 0x3E2C DUP5 DUP8 PUSH2 0x26C5 JUMP JUMPDEST PUSH2 0x930 PUSH2 0x37D9 DUP12 PUSH1 0xA0 ADD MLOAD DUP13 PUSH0 ADD MLOAD PUSH2 0x26F9 JUMP JUMPDEST SWAP1 POP PUSH2 0x3E68 PUSH2 0x3E5D PUSH2 0x3E52 DUP4 DUP13 PUSH2 0x26C5 JUMP JUMPDEST PUSH2 0x92B DUP15 PUSH1 0x9 PUSH2 0x50D3 JUMP JUMPDEST PUSH2 0x92B PUSH1 0x1 DUP10 PUSH2 0x26F9 JUMP JUMPDEST PUSH2 0x180 DUP12 ADD MSTORE POP PUSH0 SWAP2 POP PUSH2 0x3E89 SWAP1 POP PUSH2 0x3E82 DUP4 PUSH1 0x11 PUSH2 0x26E0 JUMP JUMPDEST DUP8 MLOAD PUSH2 0x26C5 JUMP JUMPDEST SWAP1 POP PUSH0 PUSH2 0x3E96 DUP4 DUP5 PUSH2 0x26E0 JUMP JUMPDEST SWAP1 POP PUSH2 0x3EA2 DUP2 DUP3 PUSH2 0x26E0 JUMP JUMPDEST SWAP1 POP PUSH0 PUSH2 0x3EB0 DUP4 PUSH1 0x9 PUSH2 0x26C5 JUMP JUMPDEST SWAP1 POP PUSH2 0x3ED9 PUSH2 0x3ED3 PUSH2 0x37A4 PUSH2 0x3ECC DUP12 PUSH1 0xA0 ADD MLOAD DUP13 PUSH0 ADD MLOAD PUSH2 0x26E0 JUMP JUMPDEST DUP12 MLOAD PUSH2 0x26E0 JUMP JUMPDEST DUP3 PUSH2 0x26F9 JUMP JUMPDEST PUSH1 0xC0 DUP10 ADD DUP2 SWAP1 MSTORE PUSH0 SWAP1 PUSH2 0x3EF4 SWAP1 PUSH2 0x3963 SWAP1 PUSH2 0x3DC9 SWAP1 DUP14 PUSH2 0x26C5 JUMP JUMPDEST SWAP1 POP PUSH2 0x3F07 DUP12 PUSH1 0xB PUSH1 0x20 MUL ADD MLOAD DUP3 PUSH2 0x26E0 JUMP JUMPDEST PUSH2 0x160 DUP13 ADD MSTORE POP POP DUP7 MLOAD PUSH0 SWAP3 POP PUSH2 0x3F2E SWAP2 POP PUSH2 0x3E82 SWAP1 PUSH2 0x3F27 SWAP1 DUP1 PUSH2 0x26E0 JUMP JUMPDEST DUP9 MLOAD PUSH2 0x26E0 JUMP JUMPDEST SWAP1 POP PUSH0 PUSH2 0x3F6E PUSH2 0x3F49 DUP4 PUSH2 0x92B DUP11 PUSH0 ADD MLOAD DUP12 PUSH1 0xA0 ADD MLOAD PUSH2 0x26F9 JUMP JUMPDEST PUSH1 0x20 DUP10 ADD MLOAD PUSH2 0x94E SWAP1 PUSH2 0x3F5C SWAP1 DUP1 PUSH2 0x26E0 JUMP JUMPDEST PUSH2 0x92B DUP12 PUSH1 0x20 ADD MLOAD DUP13 PUSH1 0x80 ADD MLOAD PUSH2 0x26E0 JUMP JUMPDEST SWAP1 POP PUSH2 0x3F8B DUP10 PUSH1 0xC PUSH1 0x20 MUL ADD MLOAD PUSH2 0x930 PUSH2 0x3963 PUSH2 0x3DC9 DUP6 DUP14 PUSH2 0x26C5 JUMP JUMPDEST DUP10 PUSH1 0xC PUSH1 0x20 MUL ADD MSTORE POP POP POP POP POP POP POP POP POP POP JUMP JUMPDEST PUSH2 0x4009 PUSH1 0x40 MLOAD DUP1 PUSH2 0x1E0 ADD PUSH1 0x40 MSTORE DUP1 PUSH0 DUP2 MSTORE PUSH1 0x20 ADD PUSH0 DUP2 MSTORE PUSH1 0x20 ADD PUSH0 DUP2 MSTORE PUSH1 0x20 ADD PUSH0 DUP2 MSTORE PUSH1 0x20 ADD PUSH0 DUP2 MSTORE PUSH1 0x20 ADD PUSH0 DUP2 MSTORE PUSH1 0x20 ADD PUSH0 DUP2 MSTORE PUSH1 0x20 ADD PUSH0 DUP2 MSTORE PUSH1 0x20 ADD PUSH0 DUP2 MSTORE PUSH1 0x20 ADD PUSH0 DUP2 MSTORE PUSH1 0x20 ADD PUSH0 DUP2 MSTORE PUSH1 0x20 ADD PUSH0 DUP2 MSTORE PUSH1 0x20 ADD PUSH0 DUP2 MSTORE PUSH1 0x20 ADD PUSH0 DUP2 MSTORE PUSH1 0x20 ADD PUSH0 DUP2 MSTORE POP SWAP1 JUMP JUMPDEST DUP4 MLOAD PUSH0 SWAP1 PUSH2 0x4017 SWAP1 DUP1 PUSH2 0x26C5 JUMP JUMPDEST SWAP1 POP PUSH0 PUSH2 0x4027 DUP3 DUP8 PUSH0 ADD MLOAD PUSH2 0x26C5 JUMP JUMPDEST SWAP1 POP PUSH2 0x403D PUSH2 0x4037 DUP9 PUSH1 0x1E PUSH2 0x50D3 JUMP JUMPDEST DUP3 PUSH2 0x26C5 JUMP JUMPDEST DUP1 DUP5 MSTORE PUSH2 0x4052 SWAP1 PUSH2 0x930 PUSH2 0x37D9 DUP11 PUSH1 0x1D PUSH2 0x50D3 JUMP JUMPDEST DUP1 DUP5 MSTORE PUSH2 0x406E SWAP1 PUSH2 0x930 PUSH2 0x4067 DUP11 PUSH1 0x1C PUSH2 0x50D3 JUMP JUMPDEST DUP10 MLOAD PUSH2 0x26C5 JUMP JUMPDEST DUP1 DUP5 MSTORE PUSH2 0x4080 SWAP1 PUSH2 0x930 DUP10 PUSH1 0x1 PUSH2 0x50D3 JUMP JUMPDEST DUP1 DUP5 MSTORE PUSH1 0x20 DUP5 ADD DUP2 SWAP1 MSTORE PUSH2 0x4099 SWAP1 PUSH2 0x94E DUP10 PUSH1 0x1F PUSH2 0x50D3 JUMP JUMPDEST DUP4 MSTORE PUSH2 0x40A9 PUSH2 0x3AA1 DUP9 PUSH1 0x24 PUSH2 0x50D3 JUMP JUMPDEST PUSH1 0x80 DUP5 ADD MSTORE PUSH2 0x40C7 PUSH2 0x40BC DUP9 PUSH1 0x27 PUSH2 0x50D3 JUMP JUMPDEST PUSH2 0x94E DUP10 PUSH1 0x1F PUSH2 0x50D3 JUMP JUMPDEST PUSH1 0x60 DUP5 ADD MSTORE PUSH1 0x80 DUP4 ADD MLOAD PUSH2 0x40E0 SWAP1 PUSH2 0x92B DUP2 PUSH1 0x1 PUSH2 0x26F9 JUMP JUMPDEST PUSH2 0x1C0 DUP5 ADD MSTORE PUSH1 0x80 DUP4 ADD MLOAD PUSH2 0x4120 SWAP1 PUSH2 0x4116 SWAP1 PUSH2 0x410F SWAP1 PUSH2 0x92B PUSH1 0x1 PUSH0 MLOAD PUSH1 0x20 PUSH2 0x5E4A PUSH0 CODECOPY PUSH0 MLOAD SWAP1 PUSH0 MSTORE PUSH2 0x5689 JUMP JUMPDEST PUSH1 0x1 PUSH2 0x26E0 JUMP JUMPDEST DUP5 PUSH1 0x60 ADD MLOAD PUSH2 0x26C5 JUMP JUMPDEST PUSH1 0xA0 DUP5 ADD DUP2 SWAP1 MSTORE PUSH2 0x4156 SWAP1 PUSH2 0x4148 SWAP1 PUSH2 0x92B PUSH2 0x413D DUP12 PUSH1 0x2 PUSH2 0x50D3 JUMP JUMPDEST PUSH2 0x92B DUP13 PUSH1 0x3 PUSH2 0x50D3 JUMP JUMPDEST PUSH2 0x92B PUSH2 0x3A05 DUP11 PUSH1 0xA PUSH2 0x50D3 JUMP JUMPDEST DUP6 PUSH1 0xE PUSH1 0x20 MUL ADD MSTORE PUSH2 0x1C0 DUP4 ADD MLOAD PUSH2 0x417A SWAP1 PUSH2 0x4148 SWAP1 PUSH2 0x92B PUSH2 0x413D DUP12 PUSH1 0x2 PUSH2 0x50D3 JUMP JUMPDEST PUSH2 0x1E0 DUP7 ADD MSTORE DUP3 MLOAD PUSH2 0x419F SWAP1 PUSH2 0x92B PUSH2 0x4194 DUP11 PUSH1 0x2 PUSH2 0x50D3 JUMP JUMPDEST PUSH2 0x92B DUP12 PUSH1 0x3 PUSH2 0x50D3 JUMP JUMPDEST PUSH2 0x120 DUP5 ADD MSTORE PUSH0 PUSH2 0x41BE PUSH2 0x41B4 DUP10 PUSH1 0x1F PUSH2 0x50D3 JUMP JUMPDEST DUP6 PUSH1 0x20 ADD MLOAD PUSH2 0x26F9 JUMP JUMPDEST SWAP1 POP PUSH2 0x41CF DUP2 PUSH2 0x92B DUP4 PUSH1 0x1 PUSH2 0x26F9 JUMP JUMPDEST PUSH1 0xE0 DUP6 ADD MSTORE PUSH2 0x41E2 PUSH2 0x34F2 DUP10 PUSH1 0x26 PUSH2 0x50D3 JUMP JUMPDEST PUSH1 0x40 DUP6 ADD DUP2 SWAP1 MSTORE PUSH2 0x4201 SWAP1 PUSH2 0x930 PUSH2 0x41FB DUP12 PUSH1 0x25 PUSH2 0x50D3 JUMP JUMPDEST DUP7 PUSH2 0x26C5 JUMP JUMPDEST PUSH1 0x40 DUP6 ADD DUP2 SWAP1 MSTORE PUSH2 0x4221 SWAP1 PUSH2 0x930 PUSH2 0x421A DUP12 PUSH1 0x24 PUSH2 0x50D3 JUMP JUMPDEST DUP11 MLOAD PUSH2 0x26C5 JUMP JUMPDEST PUSH1 0x40 DUP6 ADD MSTORE PUSH2 0x423E PUSH2 0x4234 DUP10 PUSH1 0x27 PUSH2 0x50D3 JUMP JUMPDEST DUP6 PUSH1 0x40 ADD MLOAD PUSH2 0x26F9 JUMP JUMPDEST PUSH1 0x40 DUP6 ADD MSTORE PUSH0 PUSH2 0x4252 PUSH2 0x3AD9 DUP11 PUSH1 0x26 PUSH2 0x50D3 JUMP JUMPDEST SWAP1 POP PUSH2 0x42A4 PUSH2 0x427F PUSH2 0x34F2 PUSH2 0x410F DUP9 PUSH1 0x80 ADD MLOAD PUSH1 0x1 PUSH0 MLOAD PUSH1 0x20 PUSH2 0x5E4A PUSH0 CODECOPY PUSH0 MLOAD SWAP1 PUSH0 MSTORE PUSH2 0x92B SWAP2 SWAP1 PUSH2 0x5689 JUMP JUMPDEST PUSH2 0x92B PUSH2 0x410F DUP9 PUSH1 0x40 ADD MLOAD PUSH1 0x1 PUSH0 MLOAD PUSH1 0x20 PUSH2 0x5E4A PUSH0 CODECOPY PUSH0 MLOAD SWAP1 PUSH0 MSTORE PUSH2 0x92B SWAP2 SWAP1 PUSH2 0x5689 JUMP JUMPDEST PUSH1 0xC0 DUP7 ADD MSTORE PUSH1 0x40 DUP6 ADD MLOAD PUSH2 0x42C6 SWAP1 PUSH2 0x42BC SWAP1 DUP1 PUSH2 0x26C5 JUMP JUMPDEST DUP7 PUSH1 0x40 ADD MLOAD PUSH2 0x26F9 JUMP JUMPDEST PUSH2 0x100 DUP7 ADD MSTORE PUSH1 0xC0 DUP6 ADD MLOAD PUSH2 0x42F8 SWAP1 PUSH2 0x42E4 SWAP1 PUSH2 0x92B DUP13 PUSH1 0x4 PUSH2 0x50D3 JUMP JUMPDEST PUSH2 0x92B PUSH2 0x42F2 DUP13 PUSH1 0xA PUSH2 0x50D3 JUMP JUMPDEST DUP10 PUSH2 0x26C5 JUMP JUMPDEST PUSH2 0x200 DUP9 ADD MSTORE PUSH2 0x1C0 DUP6 ADD MLOAD PUSH2 0x4317 SWAP1 PUSH2 0x42E4 SWAP1 PUSH2 0x92B DUP13 PUSH1 0x4 PUSH2 0x50D3 JUMP JUMPDEST PUSH2 0x220 DUP9 ADD MSTORE PUSH2 0x100 DUP6 ADD MLOAD PUSH2 0x4336 SWAP1 PUSH2 0x42E4 SWAP1 PUSH2 0x92B DUP13 PUSH1 0x4 PUSH2 0x50D3 JUMP JUMPDEST PUSH2 0x240 DUP9 ADD MSTORE PUSH1 0xE0 DUP6 ADD MLOAD PUSH2 0x4350 SWAP1 PUSH2 0x92B DUP12 PUSH1 0x4 PUSH2 0x50D3 JUMP JUMPDEST PUSH2 0x140 DUP7 ADD MSTORE PUSH2 0x436F PUSH2 0x4364 DUP11 PUSH1 0x25 PUSH2 0x50D3 JUMP JUMPDEST PUSH2 0x94E DUP12 PUSH1 0x1D PUSH2 0x50D3 JUMP JUMPDEST PUSH2 0x160 DUP7 ADD MSTORE PUSH1 0x80 DUP6 ADD MLOAD PUSH2 0x43AD SWAP1 PUSH2 0x3AD9 SWAP1 PUSH2 0x43A2 SWAP1 PUSH2 0x410F SWAP1 PUSH2 0x92B PUSH1 0x1 PUSH0 MLOAD PUSH1 0x20 PUSH2 0x5E4A PUSH0 CODECOPY PUSH0 MLOAD SWAP1 PUSH0 MSTORE PUSH2 0x5689 JUMP JUMPDEST DUP8 PUSH2 0x160 ADD MLOAD PUSH2 0x26C5 JUMP JUMPDEST PUSH2 0x180 DUP7 ADD DUP2 SWAP1 MSTORE PUSH2 0x120 DUP7 ADD MLOAD PUSH2 0x1A0 DUP8 ADD DUP2 SWAP1 MSTORE PUSH2 0x43E4 SWAP2 PUSH2 0x930 SWAP1 PUSH2 0x92B PUSH2 0x43D9 DUP15 PUSH1 0x5 PUSH2 0x50D3 JUMP JUMPDEST PUSH2 0x92B DUP16 PUSH1 0x2 PUSH2 0x50D3 JUMP JUMPDEST PUSH2 0x1A0 DUP7 ADD DUP2 SWAP1 MSTORE DUP6 MLOAD PUSH2 0x4404 SWAP2 SWAP1 PUSH2 0x930 SWAP1 PUSH2 0x92B PUSH2 0x43D9 DUP15 PUSH0 PUSH2 0x50D3 JUMP JUMPDEST PUSH2 0x1A0 DUP7 ADD DUP2 SWAP1 MSTORE PUSH2 0x140 DUP7 ADD MLOAD PUSH2 0x441C SWAP2 SWAP1 PUSH2 0x26E0 JUMP JUMPDEST PUSH2 0x1A0 DUP7 ADD DUP2 SWAP1 MSTORE PUSH2 0x4436 SWAP1 PUSH2 0x92B PUSH2 0x42F2 DUP13 PUSH1 0xA PUSH2 0x50D3 JUMP JUMPDEST PUSH2 0x1A0 DUP7 ADD DUP2 SWAP1 MSTORE DUP8 PUSH1 0xD PUSH1 0x20 MUL ADD MSTORE POP POP POP POP POP POP POP POP POP JUMP JUMPDEST PUSH2 0x448A PUSH1 0x40 MLOAD DUP1 PUSH1 0xE0 ADD PUSH1 0x40 MSTORE DUP1 PUSH0 DUP2 MSTORE PUSH1 0x20 ADD PUSH0 DUP2 MSTORE PUSH1 0x20 ADD PUSH0 DUP2 MSTORE PUSH1 0x20 ADD PUSH0 DUP2 MSTORE PUSH1 0x20 ADD PUSH0 DUP2 MSTORE PUSH1 0x20 ADD PUSH0 DUP2 MSTORE PUSH1 0x20 ADD PUSH0 DUP2 MSTORE POP SWAP1 JUMP JUMPDEST PUSH2 0x44BF PUSH2 0x44A6 PUSH2 0x449B DUP7 PUSH1 0x1C PUSH2 0x50D3 JUMP JUMPDEST PUSH2 0x92B DUP8 PUSH1 0x25 PUSH2 0x50D3 JUMP JUMPDEST PUSH2 0x930 PUSH2 0x44B4 DUP8 PUSH1 0x24 PUSH2 0x50D3 JUMP JUMPDEST PUSH2 0x92B DUP9 PUSH1 0x1D PUSH2 0x50D3 JUMP JUMPDEST DUP2 MSTORE PUSH2 0x4504 PUSH2 0x44F9 PUSH2 0x44E0 PUSH2 0x44D5 DUP8 PUSH1 0x1C PUSH2 0x50D3 JUMP JUMPDEST PUSH2 0x92B DUP9 PUSH1 0x1F PUSH2 0x50D3 JUMP JUMPDEST PUSH2 0x930 PUSH2 0x44EE DUP9 PUSH1 0x1D PUSH2 0x50D3 JUMP JUMPDEST PUSH2 0x92B DUP10 PUSH1 0x1E PUSH2 0x50D3 JUMP JUMPDEST PUSH2 0x94E DUP7 PUSH1 0x26 PUSH2 0x50D3 JUMP JUMPDEST PUSH1 0x40 DUP3 ADD DUP2 SWAP1 MSTORE PUSH2 0x4519 SWAP1 PUSH1 0x1 PUSH1 0x44 SHL PUSH2 0x26C5 JUMP JUMPDEST PUSH1 0x40 DUP3 ADD DUP2 SWAP1 MSTORE PUSH2 0x452F SWAP1 PUSH2 0x94E DUP7 PUSH1 0x27 PUSH2 0x50D3 JUMP JUMPDEST PUSH1 0x40 DUP3 ADD DUP2 SWAP1 MSTORE DUP2 MLOAD PUSH2 0x4542 SWAP2 SWAP1 PUSH2 0x26E0 JUMP JUMPDEST PUSH1 0x40 DUP3 ADD DUP2 SWAP1 MSTORE PUSH2 0x4558 SWAP1 PUSH2 0x92B DUP7 PUSH1 0x5 PUSH2 0x50D3 JUMP JUMPDEST PUSH1 0x40 DUP3 ADD MSTORE DUP1 MLOAD PUSH2 0x456D SWAP1 PUSH1 0x1 PUSH1 0x44 SHL PUSH2 0x26C5 JUMP JUMPDEST DUP1 DUP3 MSTORE PUSH2 0x458D SWAP1 PUSH2 0x930 PUSH2 0x4582 DUP8 PUSH1 0x24 PUSH2 0x50D3 JUMP JUMPDEST PUSH2 0x92B DUP9 PUSH1 0x25 PUSH2 0x50D3 JUMP JUMPDEST DUP1 DUP3 MSTORE PUSH1 0x20 DUP3 ADD DUP2 SWAP1 MSTORE PUSH2 0x45B4 SWAP1 PUSH2 0x94E PUSH2 0x45A9 DUP8 PUSH1 0x1E PUSH2 0x50D3 JUMP JUMPDEST PUSH2 0x930 DUP9 PUSH1 0x1F PUSH2 0x50D3 JUMP JUMPDEST PUSH1 0x20 DUP3 ADD DUP2 SWAP1 MSTORE PUSH2 0x45CA SWAP1 PUSH2 0x92B DUP7 PUSH1 0x4 PUSH2 0x50D3 JUMP JUMPDEST PUSH1 0x20 DUP3 ADD MSTORE DUP1 MLOAD PUSH1 0x60 DUP3 ADD DUP2 SWAP1 MSTORE PUSH2 0x45E7 SWAP1 PUSH2 0x930 DUP7 PUSH1 0x1F PUSH2 0x50D3 JUMP JUMPDEST PUSH1 0x60 DUP3 ADD DUP2 SWAP1 MSTORE PUSH2 0x460B SWAP1 PUSH2 0x94E PUSH2 0x4600 DUP8 PUSH1 0x26 PUSH2 0x50D3 JUMP JUMPDEST PUSH2 0x930 DUP9 PUSH1 0x27 PUSH2 0x50D3 JUMP JUMPDEST PUSH1 0x60 DUP3 ADD DUP2 SWAP1 MSTORE PUSH2 0x4620 SWAP1 PUSH2 0x92B DUP7 PUSH0 PUSH2 0x50D3 JUMP JUMPDEST DUP2 PUSH1 0x60 ADD DUP2 DUP2 MSTORE POP POP PUSH0 PUSH2 0x4649 PUSH2 0x463F DUP4 PUSH1 0x20 ADD MLOAD DUP5 PUSH1 0x40 ADD MLOAD PUSH2 0x26E0 JUMP JUMPDEST DUP4 PUSH1 0x60 ADD MLOAD PUSH2 0x26E0 JUMP JUMPDEST SWAP1 POP PUSH2 0x465A DUP2 PUSH2 0x92B DUP8 PUSH1 0x3 PUSH2 0x50D3 JUMP JUMPDEST SWAP1 POP PUSH2 0x4672 PUSH2 0x466A DUP7 PUSH1 0x25 PUSH2 0x50D3 JUMP JUMPDEST PUSH2 0x4000 PUSH2 0x26C5 JUMP JUMPDEST PUSH1 0x80 DUP4 ADD DUP2 SWAP1 MSTORE PUSH2 0x4688 SWAP1 PUSH2 0x930 DUP8 PUSH1 0x24 PUSH2 0x50D3 JUMP JUMPDEST PUSH1 0x80 DUP4 ADD DUP2 SWAP1 MSTORE PUSH2 0x469B SWAP1 PUSH2 0x4000 PUSH2 0x26C5 JUMP JUMPDEST PUSH1 0x80 DUP4 ADD DUP2 SWAP1 MSTORE PUSH2 0x46B1 SWAP1 PUSH2 0x930 DUP8 PUSH1 0x1E PUSH2 0x50D3 JUMP JUMPDEST PUSH1 0x80 DUP4 ADD DUP2 SWAP1 MSTORE PUSH2 0x46C4 SWAP1 PUSH2 0x4000 PUSH2 0x26C5 JUMP JUMPDEST PUSH1 0x80 DUP4 ADD DUP2 SWAP1 MSTORE PUSH2 0x46DA SWAP1 PUSH2 0x930 DUP8 PUSH1 0x1D PUSH2 0x50D3 JUMP JUMPDEST PUSH1 0x80 DUP4 ADD DUP2 SWAP1 MSTORE PUSH2 0x46ED SWAP1 PUSH2 0x4000 PUSH2 0x26C5 JUMP JUMPDEST PUSH1 0x80 DUP4 ADD DUP2 SWAP1 MSTORE PUSH2 0x4703 SWAP1 PUSH2 0x930 DUP8 PUSH1 0x1C PUSH2 0x50D3 JUMP JUMPDEST PUSH1 0x80 DUP4 ADD DUP2 SWAP1 MSTORE PUSH2 0x4719 SWAP1 PUSH2 0x94E DUP8 PUSH1 0x1F PUSH2 0x50D3 JUMP JUMPDEST PUSH1 0x80 DUP4 ADD DUP2 SWAP1 MSTORE PUSH2 0x472F SWAP1 PUSH2 0x92B DUP8 PUSH1 0x5 PUSH2 0x50D3 JUMP JUMPDEST PUSH1 0x80 DUP4 ADD MSTORE PUSH2 0x4742 PUSH2 0x466A DUP7 PUSH1 0x26 PUSH2 0x50D3 JUMP JUMPDEST PUSH1 0xA0 DUP4 ADD DUP2 SWAP1 MSTORE PUSH2 0x4758 SWAP1 PUSH2 0x930 DUP8 PUSH1 0x25 PUSH2 0x50D3 JUMP JUMPDEST PUSH1 0xA0 DUP4 ADD DUP2 SWAP1 MSTORE PUSH2 0x476B SWAP1 PUSH2 0x4000 PUSH2 0x26C5 JUMP JUMPDEST PUSH1 0xA0 DUP4 ADD DUP2 SWAP1 MSTORE PUSH2 0x4781 SWAP1 PUSH2 0x930 DUP8 PUSH1 0x24 PUSH2 0x50D3 JUMP JUMPDEST PUSH1 0xA0 DUP4 ADD DUP2 SWAP1 MSTORE PUSH2 0x4794 SWAP1 PUSH2 0x4000 PUSH2 0x26C5 JUMP JUMPDEST PUSH1 0xA0 DUP4 ADD DUP2 SWAP1 MSTORE PUSH2 0x47AA SWAP1 PUSH2 0x930 DUP8 PUSH1 0x1F PUSH2 0x50D3 JUMP JUMPDEST PUSH1 0xA0 DUP4 ADD DUP2 SWAP1 MSTORE PUSH2 0x47BD SWAP1 PUSH2 0x4000 PUSH2 0x26C5 JUMP JUMPDEST PUSH1 0xA0 DUP4 ADD DUP2 SWAP1 MSTORE PUSH2 0x47D3 SWAP1 PUSH2 0x930 DUP8 PUSH1 0x1E PUSH2 0x50D3 JUMP JUMPDEST PUSH1 0xA0 DUP4 ADD DUP2 SWAP1 MSTORE PUSH2 0x47E9 SWAP1 PUSH2 0x94E DUP8 PUSH1 0x27 PUSH2 0x50D3 JUMP JUMPDEST PUSH1 0xA0 DUP4 ADD DUP2 SWAP1 MSTORE PUSH2 0x47FE SWAP1 PUSH2 0x92B DUP8 PUSH0 PUSH2 0x50D3 JUMP JUMPDEST PUSH1 0xA0 DUP4 ADD DUP2 SWAP1 MSTORE PUSH1 0x80 DUP4 ADD MLOAD PUSH0 SWAP2 PUSH2 0x4816 SWAP2 SWAP1 PUSH2 0x26E0 JUMP JUMPDEST SWAP1 POP PUSH2 0x4827 DUP2 PUSH2 0x92B DUP9 PUSH1 0x4 PUSH2 0x50D3 JUMP JUMPDEST SWAP1 POP PUSH2 0x4833 DUP3 DUP3 PUSH2 0x26E0 JUMP JUMPDEST PUSH1 0xC0 DUP5 ADD DUP2 SWAP1 MSTORE PUSH2 0x484C SWAP1 PUSH2 0x92B PUSH2 0x3A05 DUP10 PUSH1 0xB PUSH2 0x50D3 JUMP JUMPDEST PUSH1 0xC0 DUP5 ADD DUP2 SWAP1 MSTORE DUP6 PUSH1 0x13 PUSH1 0x20 MUL ADD MSTORE POP POP POP POP POP POP JUMP JUMPDEST PUSH2 0x48D9 PUSH1 0x40 MLOAD DUP1 PUSH2 0x220 ADD PUSH1 0x40 MSTORE DUP1 PUSH0 DUP2 MSTORE PUSH1 0x20 ADD PUSH0 DUP2 MSTORE PUSH1 0x20 ADD PUSH0 DUP2 MSTORE PUSH1 0x20 ADD PUSH0 DUP2 MSTORE PUSH1 0x20 ADD PUSH0 DUP2 MSTORE PUSH1 0x20 ADD PUSH0 DUP2 MSTORE PUSH1 0x20 ADD PUSH0 DUP2 MSTORE PUSH1 0x20 ADD PUSH0 DUP2 MSTORE PUSH1 0x20 ADD PUSH0 DUP2 MSTORE PUSH1 0x20 ADD PUSH0 DUP2 MSTORE PUSH1 0x20 ADD PUSH0 DUP2 MSTORE PUSH1 0x20 ADD PUSH0 DUP2 MSTORE PUSH1 0x20 ADD PUSH0 DUP2 MSTORE PUSH1 0x20 ADD PUSH0 DUP2 MSTORE PUSH1 0x20 ADD PUSH0 DUP2 MSTORE PUSH1 0x20 ADD PUSH0 DUP2 MSTORE PUSH1 0x20 ADD PUSH0 DUP2 MSTORE POP SWAP1 JUMP JUMPDEST PUSH2 0x48F2 PUSH2 0x48E7 DUP6 PUSH1 0x1C PUSH2 0x50D3 JUMP JUMPDEST PUSH2 0x930 DUP7 PUSH1 0x2 PUSH2 0x50D3 JUMP JUMPDEST DUP2 MSTORE PUSH2 0x490D PUSH2 0x4902 DUP6 PUSH1 0x1D PUSH2 0x50D3 JUMP JUMPDEST PUSH2 0x930 DUP7 PUSH1 0x3 PUSH2 0x50D3 JUMP JUMPDEST PUSH1 0x20 DUP3 ADD MSTORE PUSH2 0x492B PUSH2 0x4920 DUP6 PUSH1 0x1E PUSH2 0x50D3 JUMP JUMPDEST PUSH2 0x930 DUP7 PUSH1 0x4 PUSH2 0x50D3 JUMP JUMPDEST PUSH1 0x40 DUP3 ADD MSTORE PUSH2 0x4949 PUSH2 0x493E DUP6 PUSH1 0x1F PUSH2 0x50D3 JUMP JUMPDEST PUSH2 0x930 DUP7 PUSH1 0x5 PUSH2 0x50D3 JUMP JUMPDEST PUSH1 0x60 DUP3 ADD MSTORE DUP1 MLOAD PUSH2 0x497B SWAP1 PUSH2 0x4974 SWAP1 PUSH2 0x496D SWAP1 PUSH2 0x4966 SWAP1 DUP1 PUSH2 0x26C5 JUMP JUMPDEST DUP5 MLOAD PUSH2 0x26C5 JUMP JUMPDEST DUP4 MLOAD PUSH2 0x26C5 JUMP JUMPDEST DUP3 MLOAD PUSH2 0x26C5 JUMP JUMPDEST PUSH1 0x80 DUP3 ADD MSTORE PUSH1 0x20 DUP2 ADD MLOAD PUSH2 0x49B9 SWAP1 PUSH2 0x49AF SWAP1 PUSH2 0x49A5 SWAP1 PUSH2 0x499B SWAP1 DUP1 PUSH2 0x26C5 JUMP JUMPDEST DUP5 PUSH1 0x20 ADD MLOAD PUSH2 0x26C5 JUMP JUMPDEST DUP4 PUSH1 0x20 ADD MLOAD PUSH2 0x26C5 JUMP JUMPDEST DUP3 PUSH1 0x20 ADD MLOAD PUSH2 0x26C5 JUMP JUMPDEST PUSH1 0xA0 DUP3 ADD MSTORE PUSH1 0x40 DUP2 ADD MLOAD PUSH2 0x49F7 SWAP1 PUSH2 0x49ED SWAP1 PUSH2 0x49E3 SWAP1 PUSH2 0x49D9 SWAP1 DUP1 PUSH2 0x26C5 JUMP JUMPDEST DUP5 PUSH1 0x40 ADD MLOAD PUSH2 0x26C5 JUMP JUMPDEST DUP4 PUSH1 0x40 ADD MLOAD PUSH2 0x26C5 JUMP JUMPDEST DUP3 PUSH1 0x40 ADD MLOAD PUSH2 0x26C5 JUMP JUMPDEST PUSH1 0xC0 DUP3 ADD MSTORE PUSH1 0x60 DUP2 ADD MLOAD PUSH2 0x4A2B SWAP1 PUSH2 0x4A21 SWAP1 PUSH2 0x4A17 SWAP1 PUSH2 0x4116 SWAP1 DUP1 PUSH2 0x26C5 JUMP JUMPDEST DUP4 PUSH1 0x60 ADD MLOAD PUSH2 0x26C5 JUMP JUMPDEST DUP3 PUSH1 0x60 ADD MLOAD PUSH2 0x26C5 JUMP JUMPDEST PUSH1 0xE0 DUP3 ADD MSTORE PUSH1 0x80 DUP2 ADD MLOAD PUSH1 0xA0 DUP3 ADD MLOAD PUSH2 0x4A44 SWAP2 SWAP1 PUSH2 0x26E0 JUMP JUMPDEST PUSH2 0x100 DUP3 ADD MSTORE PUSH1 0xC0 DUP2 ADD MLOAD PUSH1 0xE0 DUP3 ADD MLOAD PUSH2 0x4A5E SWAP2 SWAP1 PUSH2 0x26E0 JUMP JUMPDEST PUSH2 0x120 DUP3 ADD MSTORE PUSH1 0xA0 DUP2 ADD MLOAD PUSH2 0x4A82 SWAP1 PUSH2 0x4A77 SWAP1 DUP1 PUSH2 0x26E0 JUMP JUMPDEST DUP3 PUSH2 0x120 ADD MLOAD PUSH2 0x26E0 JUMP JUMPDEST PUSH2 0x140 DUP3 ADD MSTORE PUSH1 0xE0 DUP2 ADD MLOAD PUSH2 0x4AA6 SWAP1 PUSH2 0x4A9B SWAP1 DUP1 PUSH2 0x26E0 JUMP JUMPDEST DUP3 PUSH2 0x100 ADD MLOAD PUSH2 0x26E0 JUMP JUMPDEST PUSH2 0x160 DUP3 ADD MSTORE PUSH2 0x120 DUP2 ADD MLOAD PUSH2 0x4ABC SWAP1 DUP1 PUSH2 0x26E0 JUMP JUMPDEST PUSH2 0x1E0 DUP3 ADD DUP2 SWAP1 MSTORE PUSH2 0x4ADD SWAP1 PUSH2 0x4AD2 SWAP1 DUP1 PUSH2 0x26E0 JUMP JUMPDEST DUP3 PUSH2 0x160 ADD MLOAD PUSH2 0x26E0 JUMP JUMPDEST PUSH2 0x1E0 DUP3 ADD MSTORE PUSH2 0x100 DUP2 ADD MLOAD PUSH2 0x4AF3 SWAP1 DUP1 PUSH2 0x26E0 JUMP JUMPDEST PUSH2 0x1A0 DUP3 ADD DUP2 SWAP1 MSTORE PUSH2 0x4B14 SWAP1 PUSH2 0x4B09 SWAP1 DUP1 PUSH2 0x26E0 JUMP JUMPDEST DUP3 PUSH2 0x140 ADD MLOAD PUSH2 0x26E0 JUMP JUMPDEST PUSH2 0x1A0 DUP3 ADD DUP2 SWAP1 MSTORE PUSH2 0x160 DUP3 ADD MLOAD PUSH2 0x4B2B SWAP2 PUSH2 0x26E0 JUMP JUMPDEST PUSH2 0x180 DUP3 ADD MSTORE PUSH2 0x140 DUP2 ADD MLOAD PUSH2 0x1E0 DUP3 ADD MLOAD PUSH2 0x4B47 SWAP2 SWAP1 PUSH2 0x26E0 JUMP JUMPDEST PUSH2 0x1C0 DUP3 ADD MSTORE PUSH2 0x4B5B PUSH2 0x34F2 DUP6 PUSH1 0xC PUSH2 0x50D3 JUMP JUMPDEST PUSH2 0x200 DUP3 ADD DUP2 SWAP1 MSTORE PUSH2 0x280 DUP5 ADD MLOAD PUSH2 0x180 DUP4 ADD MLOAD PUSH2 0x4B86 SWAP3 PUSH2 0x930 SWAP2 PUSH2 0x92B SWAP1 PUSH2 0x94E DUP11 PUSH1 0x24 PUSH2 0x50D3 JUMP JUMPDEST DUP4 PUSH1 0x14 PUSH1 0x20 MUL ADD MSTORE PUSH2 0x4BB6 DUP4 PUSH1 0x15 PUSH1 0x20 MUL ADD MLOAD PUSH2 0x930 DUP4 PUSH2 0x200 ADD MLOAD PUSH2 0x92B DUP6 PUSH2 0x1A0 ADD MLOAD PUSH2 0x94E DUP11 PUSH1 0x25 PUSH2 0x50D3 JUMP JUMPDEST DUP4 PUSH1 0x15 PUSH1 0x20 MUL ADD MSTORE PUSH2 0x4BE6 DUP4 PUSH1 0x16 PUSH1 0x20 MUL ADD MLOAD PUSH2 0x930 DUP4 PUSH2 0x200 ADD MLOAD PUSH2 0x92B DUP6 PUSH2 0x1C0 ADD MLOAD PUSH2 0x94E DUP11 PUSH1 0x26 PUSH2 0x50D3 JUMP JUMPDEST DUP4 PUSH1 0x16 PUSH1 0x20 MUL ADD MSTORE PUSH2 0x4C16 DUP4 PUSH1 0x17 PUSH1 0x20 MUL ADD MLOAD PUSH2 0x930 DUP4 PUSH2 0x200 ADD MLOAD PUSH2 0x92B DUP6 PUSH2 0x1E0 ADD MLOAD PUSH2 0x94E DUP11 PUSH1 0x27 PUSH2 0x50D3 JUMP JUMPDEST DUP4 PUSH1 0x17 PUSH1 0x20 MUL ADD MSTORE POP POP POP POP JUMP JUMPDEST PUSH2 0x4C76 PUSH1 0x40 MLOAD DUP1 PUSH2 0x160 ADD PUSH1 0x40 MSTORE DUP1 PUSH0 DUP2 MSTORE PUSH1 0x20 ADD PUSH0 DUP2 MSTORE PUSH1 0x20 ADD PUSH0 DUP2 MSTORE PUSH1 0x20 ADD PUSH0 DUP2 MSTORE PUSH1 0x20 ADD PUSH0 DUP2 MSTORE PUSH1 0x20 ADD PUSH0 DUP2 MSTORE PUSH1 0x20 ADD PUSH0 DUP2 MSTORE PUSH1 0x20 ADD PUSH0 DUP2 MSTORE PUSH1 0x20 ADD PUSH0 DUP2 MSTORE PUSH1 0x20 ADD PUSH0 DUP2 MSTORE PUSH1 0x20 ADD PUSH0 DUP2 MSTORE POP SWAP1 JUMP JUMPDEST PUSH0 PUSH1 0x40 MLOAD DUP1 PUSH1 0x80 ADD PUSH1 0x40 MSTORE DUP1 PUSH2 0x4CAB PUSH32 0x10DC6E9C006EA38B04B1E03B4BD9490C0D03F98929CA1D7FB56821FD19D3B6E7 PUSH2 0x25C5 JUMP JUMPDEST DUP2 MSTORE PUSH1 0x20 ADD PUSH2 0x4CD9 PUSH32 0xC28145B6A44DF3E0149B3D0A30B3BB599DF9756D4DD9B84A86B38CFB45A740B PUSH2 0x25C5 JUMP JUMPDEST DUP2 MSTORE PUSH1 0x20 ADD PUSH2 0x4D06 PUSH31 0x544B8338791518B2C7645A50392798B21F75BB60E3596170067D00141CAC15 PUSH2 0x25C5 JUMP JUMPDEST DUP2 MSTORE PUSH1 0x20 ADD PUSH2 0x4D34 PUSH32 0x222C01175718386F2E2E82EB122789E352E105A3B8FA852613BC534433EE428B PUSH2 0x25C5 JUMP JUMPDEST SWAP1 MSTORE SWAP1 POP PUSH2 0x4D51 PUSH2 0x4D46 DUP7 PUSH1 0x1C PUSH2 0x50D3 JUMP JUMPDEST PUSH2 0x930 DUP8 PUSH1 0x2 PUSH2 0x50D3 JUMP JUMPDEST PUSH2 0x120 DUP4 ADD DUP2 SWAP1 MSTORE PUSH2 0x4D90 SWAP1 PUSH2 0x4D85 SWAP1 PUSH2 0x4D7A SWAP1 PUSH2 0x4D6F SWAP1 DUP1 PUSH2 0x26C5 JUMP JUMPDEST DUP6 PUSH2 0x120 ADD MLOAD PUSH2 0x26C5 JUMP JUMPDEST DUP5 PUSH2 0x120 ADD MLOAD PUSH2 0x26C5 JUMP JUMPDEST DUP4 PUSH2 0x120 ADD MLOAD PUSH2 0x26C5 JUMP JUMPDEST DUP3 MSTORE PUSH2 0x4D9D DUP6 PUSH1 0x1D PUSH2 0x50D3 JUMP JUMPDEST PUSH1 0x20 DUP4 ADD MSTORE PUSH2 0x4DAD DUP6 PUSH1 0x1E PUSH2 0x50D3 JUMP JUMPDEST PUSH1 0x40 DUP4 ADD MSTORE PUSH2 0x4DBD DUP6 PUSH1 0x1F PUSH2 0x50D3 JUMP JUMPDEST PUSH1 0x60 DUP4 ADD MSTORE DUP2 MLOAD PUSH1 0x20 DUP4 ADD MLOAD PUSH2 0x4DE5 SWAP2 PUSH2 0x463F SWAP2 PUSH2 0x4DDB SWAP2 SWAP1 PUSH2 0x26E0 JUMP JUMPDEST DUP5 PUSH1 0x40 ADD MLOAD PUSH2 0x26E0 JUMP JUMPDEST PUSH1 0x80 DUP4 ADD MSTORE PUSH2 0x4DF8 PUSH2 0x37A4 DUP7 PUSH1 0xD PUSH2 0x50D3 JUMP JUMPDEST PUSH2 0x140 DUP4 ADD MSTORE DUP2 MLOAD PUSH2 0x4E19 SWAP1 PUSH2 0x4E0F SWAP1 DUP4 PUSH0 PUSH2 0xC2D JUMP JUMPDEST DUP4 PUSH1 0x80 ADD MLOAD PUSH2 0x26E0 JUMP JUMPDEST PUSH1 0xA0 DUP4 ADD MSTORE PUSH2 0x4E45 DUP5 PUSH1 0x18 PUSH1 0x20 MUL ADD MLOAD PUSH2 0x930 DUP5 PUSH2 0x140 ADD MLOAD PUSH2 0x92B DUP7 PUSH1 0xA0 ADD MLOAD PUSH2 0x94E DUP12 PUSH1 0x24 PUSH2 0x50D3 JUMP JUMPDEST PUSH2 0x300 DUP6 ADD MSTORE PUSH1 0x20 DUP3 ADD MLOAD PUSH2 0x4E60 SWAP1 PUSH2 0x4E0F SWAP1 DUP4 PUSH1 0x1 PUSH2 0xC2D JUMP JUMPDEST PUSH1 0xC0 DUP4 ADD MSTORE PUSH2 0x4E8C DUP5 PUSH1 0x19 PUSH1 0x20 MUL ADD MLOAD PUSH2 0x930 DUP5 PUSH2 0x140 ADD MLOAD PUSH2 0x92B DUP7 PUSH1 0xC0 ADD MLOAD PUSH2 0x94E DUP12 PUSH1 0x25 PUSH2 0x50D3 JUMP JUMPDEST PUSH2 0x320 DUP6 ADD MSTORE PUSH1 0x40 DUP3 ADD MLOAD PUSH2 0x4EA7 SWAP1 PUSH2 0x4E0F SWAP1 DUP4 PUSH1 0x2 PUSH2 0xC2D JUMP JUMPDEST PUSH1 0xE0 DUP4 ADD MSTORE PUSH2 0x4ED3 DUP5 PUSH1 0x1A PUSH1 0x20 MUL ADD MLOAD PUSH2 0x930 DUP5 PUSH2 0x140 ADD MLOAD PUSH2 0x92B DUP7 PUSH1 0xE0 ADD MLOAD PUSH2 0x94E DUP12 PUSH1 0x26 PUSH2 0x50D3 JUMP JUMPDEST PUSH2 0x340 DUP6 ADD MSTORE PUSH1 0x60 DUP3 ADD MLOAD PUSH2 0x4EEE SWAP1 PUSH2 0x4E0F SWAP1 DUP4 PUSH1 0x3 PUSH2 0xC2D JUMP JUMPDEST PUSH2 0x100 DUP4 ADD MSTORE PUSH2 0x4F1C DUP5 PUSH1 0x1B PUSH1 0x20 MUL ADD MLOAD PUSH2 0x930 DUP5 PUSH2 0x140 ADD MLOAD PUSH2 0x92B DUP7 PUSH2 0x100 ADD MLOAD PUSH2 0x94E DUP12 PUSH1 0x27 PUSH2 0x50D3 JUMP JUMPDEST DUP5 PUSH1 0x1B PUSH2 0x362B JUMP JUMPDEST DUP2 MLOAD PUSH1 0x1 JUMPDEST PUSH1 0x1C DUP2 LT ISZERO PUSH2 0x4F76 JUMPI PUSH2 0x4F6C DUP3 PUSH2 0x930 DUP7 DUP5 PUSH1 0x1C DUP2 LT PUSH2 0x4F4B JUMPI PUSH2 0x4F4B PUSH2 0x5D2B JUMP JUMPDEST PUSH1 0x20 MUL ADD MLOAD DUP7 PUSH2 0x4F5C PUSH1 0x1 DUP8 PUSH2 0x5689 JUMP JUMPDEST PUSH1 0x1B DUP2 LT PUSH2 0xC2D JUMPI PUSH2 0xC2D PUSH2 0x5D2B JUMP JUMPDEST SWAP2 POP PUSH1 0x1 ADD PUSH2 0x4F29 JUMP JUMPDEST POP SWAP3 SWAP2 POP POP JUMP JUMPDEST PUSH0 DUP3 DUP3 ISZERO DUP1 ISZERO SWAP1 PUSH2 0x4F98 JUMPI POP PUSH2 0x4F94 PUSH1 0x1 DUP5 PUSH2 0x5689 JUMP JUMPDEST DUP4 AND ISZERO JUMPDEST PUSH2 0x4FB5 JUMPI PUSH1 0x40 MLOAD PUSH4 0x127473A1 PUSH1 0xE1 SHL DUP2 MSTORE PUSH1 0x4 ADD PUSH1 0x40 MLOAD DUP1 SWAP2 SUB SWAP1 REVERT JUMPDEST PUSH0 PUSH1 0x40 MLOAD PUSH1 0x20 DUP2 MSTORE PUSH1 0x20 DUP1 DUP3 ADD MSTORE PUSH1 0x20 PUSH1 0x40 DUP3 ADD MSTORE DUP3 PUSH1 0x60 DUP3 ADD MSTORE DUP5 PUSH1 0x80 DUP3 ADD MSTORE PUSH0 MLOAD PUSH1 0x20 PUSH2 0x5E4A PUSH0 CODECOPY PUSH0 MLOAD SWAP1 PUSH0 MSTORE PUSH1 0xA0 DUP3 ADD MSTORE PUSH1 0x20 PUSH0 PUSH1 0xC0 DUP4 PUSH1 0x5 GAS STATICCALL DUP1 PUSH2 0x5007 JUMPI PUSH4 0xF8D61709 PUSH1 0xE0 SHL PUSH0 MSTORE PUSH1 0x4 PUSH0 REVERT JUMPDEST POP PUSH0 MLOAD PUSH1 0xC0 SWAP2 SWAP1 SWAP2 ADD PUSH1 0x40 MSTORE SWAP6 SWAP5 POP POP POP POP POP JUMP JUMPDEST PUSH2 0x5024 PUSH2 0x53FF JUMP JUMPDEST PUSH2 0x502C PUSH2 0x53FF JUMP JUMPDEST PUSH1 0x40 MLOAD DUP4 MLOAD DUP2 MSTORE PUSH1 0x20 DUP5 ADD MLOAD PUSH1 0x20 DUP3 ADD MSTORE DUP5 PUSH1 0x40 DUP3 ADD MSTORE PUSH1 0x40 DUP2 PUSH1 0x60 DUP4 PUSH1 0x7 GAS STATICCALL DUP1 PUSH2 0x5056 JUMPI PUSH0 PUSH0 REVERT JUMPDEST POP DUP1 MLOAD DUP3 MSTORE PUSH1 0x20 DUP1 DUP3 ADD MLOAD SWAP1 DUP4 ADD MSTORE PUSH1 0x60 ADD PUSH1 0x40 MSTORE SWAP4 SWAP3 POP POP POP JUMP JUMPDEST PUSH2 0x507A PUSH2 0x53FF JUMP JUMPDEST PUSH2 0x5082 PUSH2 0x53FF JUMP JUMPDEST PUSH1 0x40 MLOAD DUP5 MLOAD DUP2 MSTORE PUSH1 0x20 DUP6 ADD MLOAD PUSH1 0x20 DUP3 ADD MSTORE DUP4 MLOAD PUSH1 0x40 DUP3 ADD MSTORE PUSH1 0x20 DUP5 ADD MLOAD PUSH1 0x60 DUP3 ADD MSTORE PUSH1 0x40 DUP2 PUSH1 0x80 DUP4 PUSH1 0x6 GAS STATICCALL DUP1 PUSH2 0x50B7 JUMPI PUSH0 PUSH0 REVERT JUMPDEST POP DUP1 MLOAD DUP3 MSTORE PUSH1 0x20 DUP1 DUP3 ADD MLOAD SWAP1 DUP4 ADD MSTORE PUSH1 0x80 ADD PUSH1 0x40 MSTORE SWAP4 SWAP3 POP POP POP JUMP JUMPDEST PUSH0 DUP3 DUP3 PUSH1 0x28 DUP2 GT ISZERO PUSH2 0x50E7 JUMPI PUSH2 0x50E7 PUSH2 0x5DD5 JUMP JUMPDEST PUSH1 0x29 DUP2 LT PUSH2 0x50F7 JUMPI PUSH2 0x50F7 PUSH2 0x5D2B JUMP JUMPDEST PUSH1 0x20 MUL ADD MLOAD SWAP4 SWAP3 POP POP POP JUMP JUMPDEST PUSH1 0x40 MLOAD DUP1 PUSH2 0x3E0 ADD PUSH1 0x40 MSTORE DUP1 PUSH0 DUP2 MSTORE PUSH1 0x20 ADD PUSH0 DUP2 MSTORE PUSH1 0x20 ADD PUSH0 DUP2 MSTORE PUSH1 0x20 ADD PUSH2 0x5129 PUSH2 0x53FF JUMP JUMPDEST DUP2 MSTORE PUSH1 0x20 ADD PUSH2 0x5136 PUSH2 0x53FF JUMP JUMPDEST DUP2 MSTORE PUSH1 0x20 ADD PUSH2 0x5143 PUSH2 0x53FF JUMP JUMPDEST DUP2 MSTORE PUSH1 0x20 ADD PUSH2 0x5150 PUSH2 0x53FF JUMP JUMPDEST DUP2 MSTORE PUSH1 0x20 ADD PUSH2 0x515D PUSH2 0x53FF JUMP JUMPDEST DUP2 MSTORE PUSH1 0x20 ADD PUSH2 0x516A PUSH2 0x53FF JUMP JUMPDEST DUP2 MSTORE PUSH1 0x20 ADD PUSH2 0x5177 PUSH2 0x53FF JUMP JUMPDEST DUP2 MSTORE PUSH1 0x20 ADD PUSH2 0x5184 PUSH2 0x53FF JUMP JUMPDEST DUP2 MSTORE PUSH1 0x20 ADD PUSH2 0x5191 PUSH2 0x53FF JUMP JUMPDEST DUP2 MSTORE PUSH1 0x20 ADD PUSH2 0x519E PUSH2 0x53FF JUMP JUMPDEST DUP2 MSTORE PUSH1 0x20 ADD PUSH2 0x51AB PUSH2 0x53FF JUMP JUMPDEST DUP2 MSTORE PUSH1 0x20 ADD PUSH2 0x51B8 PUSH2 0x53FF JUMP JUMPDEST DUP2 MSTORE PUSH1 0x20 ADD PUSH2 0x51C5 PUSH2 0x53FF JUMP JUMPDEST DUP2 MSTORE PUSH1 0x20 ADD PUSH2 0x51D2 PUSH2 0x53FF JUMP JUMPDEST DUP2 MSTORE PUSH1 0x20 ADD PUSH2 0x51DF PUSH2 0x53FF JUMP JUMPDEST DUP2 MSTORE PUSH1 0x20 ADD PUSH2 0x51EC PUSH2 0x53FF JUMP JUMPDEST DUP2 MSTORE PUSH1 0x20 ADD PUSH2 0x51F9 PUSH2 0x53FF JUMP JUMPDEST DUP2 MSTORE PUSH1 0x20 ADD PUSH2 0x5206 PUSH2 0x53FF JUMP JUMPDEST DUP2 MSTORE PUSH1 0x20 ADD PUSH2 0x5213 PUSH2 0x53FF JUMP JUMPDEST DUP2 MSTORE PUSH1 0x20 ADD PUSH2 0x5220 PUSH2 0x53FF JUMP JUMPDEST DUP2 MSTORE PUSH1 0x20 ADD PUSH2 0x522D PUSH2 0x53FF JUMP JUMPDEST DUP2 MSTORE PUSH1 0x20 ADD PUSH2 0x523A PUSH2 0x53FF JUMP JUMPDEST DUP2 MSTORE PUSH1 0x20 ADD PUSH2 0x5247 PUSH2 0x53FF JUMP JUMPDEST DUP2 MSTORE PUSH1 0x20 ADD PUSH2 0x5254 PUSH2 0x53FF JUMP JUMPDEST DUP2 MSTORE PUSH1 0x20 ADD PUSH2 0x5261 PUSH2 0x53FF JUMP JUMPDEST DUP2 MSTORE PUSH1 0x20 ADD PUSH2 0x526E PUSH2 0x53FF JUMP JUMPDEST DUP2 MSTORE PUSH1 0x20 ADD PUSH2 0x527B PUSH2 0x53FF JUMP JUMPDEST DUP2 MSTORE PUSH1 0x20 ADD PUSH2 0x5288 PUSH2 0x53FF JUMP JUMPDEST SWAP1 MSTORE SWAP1 JUMP JUMPDEST PUSH1 0x40 MLOAD DUP1 PUSH2 0x280 ADD PUSH1 0x40 MSTORE DUP1 PUSH2 0x52A1 PUSH2 0x54AC JUMP JUMPDEST DUP2 MSTORE PUSH1 0x20 ADD PUSH2 0x52AE PUSH2 0x53FF JUMP JUMPDEST DUP2 MSTORE PUSH1 0x20 ADD PUSH2 0x52BB PUSH2 0x53FF JUMP JUMPDEST DUP2 MSTORE PUSH1 0x20 ADD PUSH2 0x52C8 PUSH2 0x53FF JUMP JUMPDEST DUP2 MSTORE PUSH1 0x20 ADD PUSH2 0x52D5 PUSH2 0x53FF JUMP JUMPDEST DUP2 MSTORE PUSH1 0x20 ADD PUSH2 0x52E2 PUSH2 0x53FF JUMP JUMPDEST DUP2 MSTORE PUSH1 0x20 ADD PUSH2 0x52EF PUSH2 0x53FF JUMP JUMPDEST DUP2 MSTORE PUSH1 0x20 ADD PUSH2 0x52FC PUSH2 0x53FF JUMP JUMPDEST DUP2 MSTORE PUSH1 0x20 ADD PUSH2 0x5309 PUSH2 0x53FF JUMP JUMPDEST DUP2 MSTORE PUSH1 0x20 ADD PUSH2 0x5316 PUSH2 0x53FF JUMP JUMPDEST DUP2 MSTORE PUSH1 0x20 ADD PUSH2 0x5323 PUSH2 0x54CB JUMP JUMPDEST DUP2 MSTORE PUSH1 0x20 ADD PUSH0 DUP2 MSTORE PUSH1 0x20 ADD PUSH2 0x5336 PUSH2 0x54F8 JUMP JUMPDEST DUP2 MSTORE PUSH1 0x20 ADD PUSH0 DUP2 MSTORE PUSH1 0x20 ADD PUSH2 0x5349 PUSH2 0x5526 JUMP JUMPDEST DUP2 MSTORE PUSH1 0x20 ADD PUSH2 0x5356 PUSH2 0x5545 JUMP JUMPDEST DUP2 MSTORE PUSH1 0x20 ADD PUSH2 0x5363 PUSH2 0x5449 JUMP JUMPDEST DUP2 MSTORE PUSH1 0x20 ADD PUSH2 0x526E PUSH2 0x5573 JUMP JUMPDEST PUSH1 0x40 MLOAD DUP1 PUSH2 0x520 ADD PUSH1 0x40 MSTORE DUP1 PUSH1 0x29 SWAP1 PUSH1 0x20 DUP3 MUL DUP1 CALLDATASIZE DUP4 CALLDATACOPY POP SWAP2 SWAP3 SWAP2 POP POP JUMP JUMPDEST PUSH1 0x40 MLOAD DUP1 PUSH2 0x1C0 ADD PUSH1 0x40 MSTORE DUP1 PUSH0 DUP2 MSTORE PUSH1 0x20 ADD PUSH0 DUP2 MSTORE PUSH1 0x20 ADD PUSH0 DUP2 MSTORE PUSH1 0x20 ADD PUSH0 DUP2 MSTORE PUSH1 0x20 ADD PUSH0 DUP2 MSTORE PUSH1 0x20 ADD PUSH0 DUP2 MSTORE PUSH1 0x20 ADD PUSH0 DUP2 MSTORE PUSH1 0x20 ADD PUSH2 0x53CD PUSH2 0x5573 JUMP JUMPDEST DUP2 MSTORE PUSH1 0x20 ADD PUSH2 0x53DA PUSH2 0x5573 JUMP JUMPDEST DUP2 MSTORE PUSH1 0x20 ADD PUSH0 DUP2 MSTORE PUSH1 0x20 ADD PUSH0 DUP2 MSTORE PUSH1 0x20 ADD PUSH0 DUP2 MSTORE PUSH1 0x20 ADD PUSH0 DUP2 MSTORE PUSH1 0x20 ADD PUSH1 0x60 DUP2 MSTORE POP SWAP1 JUMP JUMPDEST PUSH1 0x40 MLOAD DUP1 PUSH1 0x40 ADD PUSH1 0x40 MSTORE DUP1 PUSH0 DUP2 MSTORE PUSH1 0x20 ADD PUSH0 DUP2 MSTORE POP SWAP1 JUMP JUMPDEST PUSH1 0x40 MLOAD DUP1 PUSH1 0x40 ADD PUSH1 0x40 MSTORE DUP1 PUSH2 0x527B PUSH2 0x53FF JUMP JUMPDEST PUSH1 0x40 MLOAD DUP1 PUSH2 0x120 ADD PUSH1 0x40 MSTORE DUP1 PUSH1 0x9 SWAP1 PUSH1 0x20 DUP3 MUL DUP1 CALLDATASIZE DUP4 CALLDATACOPY POP SWAP2 SWAP3 SWAP2 POP POP JUMP JUMPDEST PUSH1 0x40 MLOAD DUP1 PUSH2 0x380 ADD PUSH1 0x40 MSTORE DUP1 PUSH1 0x1C SWAP1 PUSH1 0x20 DUP3 MUL DUP1 CALLDATASIZE DUP4 CALLDATACOPY POP SWAP2 SWAP3 SWAP2 POP POP JUMP JUMPDEST PUSH1 0x40 MLOAD DUP1 PUSH1 0xE0 ADD PUSH1 0x40 MSTORE DUP1 PUSH2 0x547B PUSH2 0x5591 JUMP JUMPDEST DUP2 MSTORE PUSH1 0x20 ADD PUSH0 DUP2 MSTORE PUSH1 0x20 ADD PUSH0 DUP2 MSTORE PUSH1 0x20 ADD PUSH0 DUP2 MSTORE PUSH1 0x20 ADD PUSH0 DUP2 MSTORE PUSH1 0x20 ADD PUSH2 0x54A0 PUSH2 0x5591 JUMP JUMPDEST DUP2 MSTORE PUSH1 0x20 ADD PUSH0 DUP2 MSTORE POP SWAP1 JUMP JUMPDEST PUSH1 0x40 MLOAD DUP1 PUSH2 0x100 ADD PUSH1 0x40 MSTORE DUP1 PUSH1 0x8 SWAP1 PUSH1 0x20 DUP3 MUL DUP1 CALLDATASIZE DUP4 CALLDATACOPY POP SWAP2 SWAP3 SWAP2 POP POP JUMP JUMPDEST PUSH1 0x40 MLOAD DUP1 PUSH1 0x60 ADD PUSH1 0x40 MSTORE DUP1 PUSH1 0x3 SWAP1 JUMPDEST PUSH2 0x54E2 PUSH2 0x53FF JUMP JUMPDEST DUP2 MSTORE PUSH1 0x20 ADD SWAP1 PUSH1 0x1 SWAP1 SUB SWAP1 DUP2 PUSH2 0x54DA JUMPI SWAP1 POP POP SWAP1 JUMP JUMPDEST PUSH1 0x40 MLOAD DUP1 PUSH2 0x380 ADD PUSH1 0x40 MSTORE DUP1 PUSH1 0x1C SWAP1 JUMPDEST PUSH2 0x5510 PUSH2 0x542A JUMP JUMPDEST DUP2 MSTORE PUSH1 0x20 ADD SWAP1 PUSH1 0x1 SWAP1 SUB SWAP1 DUP2 PUSH2 0x5508 JUMPI SWAP1 POP POP SWAP1 JUMP JUMPDEST PUSH1 0x40 MLOAD DUP1 PUSH2 0x540 ADD PUSH1 0x40 MSTORE DUP1 PUSH1 0x2A SWAP1 PUSH1 0x20 DUP3 MUL DUP1 CALLDATASIZE DUP4 CALLDATACOPY POP SWAP2 SWAP3 SWAP2 POP POP JUMP JUMPDEST PUSH1 0x40 MLOAD DUP1 PUSH2 0x360 ADD PUSH1 0x40 MSTORE DUP1 PUSH1 0x1B SWAP1 JUMPDEST PUSH2 0x555D PUSH2 0x53FF JUMP JUMPDEST DUP2 MSTORE PUSH1 0x20 ADD SWAP1 PUSH1 0x1 SWAP1 SUB SWAP1 DUP2 PUSH2 0x5555 JUMPI SWAP1 POP POP SWAP1 JUMP JUMPDEST PUSH1 0x40 MLOAD DUP1 PUSH1 0x80 ADD PUSH1 0x40 MSTORE DUP1 PUSH1 0x4 SWAP1 PUSH1 0x20 DUP3 MUL DUP1 CALLDATASIZE DUP4 CALLDATACOPY POP SWAP2 SWAP3 SWAP2 POP POP JUMP JUMPDEST PUSH1 0x40 MLOAD DUP1 PUSH2 0x2000 ADD PUSH1 0x40 MSTORE DUP1 PUSH2 0x100 SWAP1 PUSH1 0x20 DUP3 MUL DUP1 CALLDATASIZE DUP4 CALLDATACOPY POP SWAP2 SWAP3 SWAP2 POP POP JUMP JUMPDEST PUSH0 PUSH0 PUSH0 PUSH0 PUSH1 0x40 DUP6 DUP8 SUB SLT ISZERO PUSH2 0x55C4 JUMPI PUSH0 PUSH0 REVERT JUMPDEST DUP5 CALLDATALOAD PUSH1 0x1 PUSH1 0x1 PUSH1 0x40 SHL SUB DUP2 GT ISZERO PUSH2 0x55D9 JUMPI PUSH0 PUSH0 REVERT JUMPDEST DUP6 ADD PUSH1 0x1F DUP2 ADD DUP8 SGT PUSH2 0x55E9 JUMPI PUSH0 PUSH0 REVERT JUMPDEST DUP1 CALLDATALOAD PUSH1 0x1 PUSH1 0x1 PUSH1 0x40 SHL SUB DUP2 GT ISZERO PUSH2 0x55FE JUMPI PUSH0 PUSH0 REVERT JUMPDEST DUP8 PUSH1 0x20 DUP3 DUP5 ADD ADD GT ISZERO PUSH2 0x560F JUMPI PUSH0 PUSH0 REVERT JUMPDEST PUSH1 0x20 SWAP2 DUP3 ADD SWAP6 POP SWAP4 POP DUP6 ADD CALLDATALOAD PUSH1 0x1 PUSH1 0x1 PUSH1 0x40 SHL SUB DUP2 GT ISZERO PUSH2 0x562E JUMPI PUSH0 PUSH0 REVERT JUMPDEST DUP6 ADD PUSH1 0x1F DUP2 ADD DUP8 SGT PUSH2 0x563E JUMPI PUSH0 PUSH0 REVERT JUMPDEST DUP1 CALLDATALOAD PUSH1 0x1 PUSH1 0x1 PUSH1 0x40 SHL SUB DUP2 GT ISZERO PUSH2 0x5653 JUMPI PUSH0 PUSH0 REVERT JUMPDEST DUP8 PUSH1 0x20 DUP3 PUSH1 0x5 SHL DUP5 ADD ADD GT ISZERO PUSH2 0x5667 JUMPI PUSH0 PUSH0 REVERT JUMPDEST SWAP5 SWAP8 SWAP4 SWAP7 POP PUSH1 0x20 ADD SWAP5 POP POP POP JUMP JUMPDEST PUSH4 0x4E487B71 PUSH1 0xE0 SHL PUSH0 MSTORE PUSH1 0x11 PUSH1 0x4 MSTORE PUSH1 0x24 PUSH0 REVERT JUMPDEST DUP2 DUP2 SUB DUP2 DUP2 GT ISZERO PUSH2 0x26DA JUMPI PUSH2 0x26DA PUSH2 0x5675 JUMP JUMPDEST DUP1 PUSH0 JUMPDEST PUSH1 0x8 DUP2 LT ISZERO PUSH2 0x56BE JUMPI DUP2 MLOAD DUP5 MSTORE PUSH1 0x20 SWAP4 DUP5 ADD SWAP4 SWAP1 SWAP2 ADD SWAP1 PUSH1 0x1 ADD PUSH2 0x569F JUMP JUMPDEST POP POP POP POP JUMP JUMPDEST DUP1 MLOAD DUP3 MSTORE PUSH1 0x20 SWAP1 DUP2 ADD MLOAD SWAP2 ADD MSTORE JUMP JUMPDEST DUP1 PUSH0 JUMPDEST PUSH1 0x3 DUP2 LT ISZERO PUSH2 0x56BE JUMPI PUSH2 0x56EA DUP5 DUP4 MLOAD PUSH2 0x56C4 JUMP JUMPDEST PUSH1 0x40 SWAP4 SWAP1 SWAP4 ADD SWAP3 PUSH1 0x20 SWAP2 SWAP1 SWAP2 ADD SWAP1 PUSH1 0x1 ADD PUSH2 0x56D6 JUMP JUMPDEST DUP1 PUSH0 JUMPDEST PUSH1 0x1C DUP2 LT ISZERO PUSH2 0x56BE JUMPI DUP2 MLOAD DUP5 PUSH0 JUMPDEST PUSH1 0x9 DUP2 LT ISZERO PUSH2 0x5730 JUMPI DUP3 MLOAD DUP3 MSTORE PUSH1 0x20 SWAP3 DUP4 ADD SWAP3 SWAP1 SWAP2 ADD SWAP1 PUSH1 0x1 ADD PUSH2 0x5711 JUMP JUMPDEST POP POP POP PUSH2 0x120 SWAP4 SWAP1 SWAP4 ADD SWAP3 PUSH1 0x20 SWAP2 SWAP1 SWAP2 ADD SWAP1 PUSH1 0x1 ADD PUSH2 0x5703 JUMP JUMPDEST DUP1 PUSH0 JUMPDEST PUSH1 0x2A DUP2 LT ISZERO PUSH2 0x56BE JUMPI DUP2 MLOAD DUP5 MSTORE PUSH1 0x20 SWAP4 DUP5 ADD SWAP4 SWAP1 SWAP2 ADD SWAP1 PUSH1 0x1 ADD PUSH2 0x574D JUMP JUMPDEST DUP1 PUSH0 JUMPDEST PUSH1 0x1B DUP2 LT ISZERO PUSH2 0x56BE JUMPI PUSH2 0x5783 DUP5 DUP4 MLOAD PUSH2 0x56C4 JUMP JUMPDEST PUSH1 0x40 SWAP4 SWAP1 SWAP4 ADD SWAP3 PUSH1 0x20 SWAP2 SWAP1 SWAP2 ADD SWAP1 PUSH1 0x1 ADD PUSH2 0x576F JUMP JUMPDEST DUP1 PUSH0 JUMPDEST PUSH1 0x1C DUP2 LT ISZERO PUSH2 0x56BE JUMPI DUP2 MLOAD DUP5 MSTORE PUSH1 0x20 SWAP4 DUP5 ADD SWAP4 SWAP1 SWAP2 ADD SWAP1 PUSH1 0x1 ADD PUSH2 0x579C JUMP JUMPDEST DUP1 PUSH0 JUMPDEST PUSH1 0x4 DUP2 LT ISZERO PUSH2 0x56BE JUMPI DUP2 MLOAD DUP5 MSTORE PUSH1 0x20 SWAP4 DUP5 ADD SWAP4 SWAP1 SWAP2 ADD SWAP1 PUSH1 0x1 ADD PUSH2 0x57BE JUMP JUMPDEST DUP2 DUP4 MSTORE PUSH0 PUSH1 0x1 PUSH1 0x1 PUSH1 0xFB SHL SUB DUP4 GT ISZERO PUSH2 0x57F4 JUMPI PUSH0 PUSH0 REVERT JUMPDEST DUP3 PUSH1 0x5 SHL DUP1 DUP4 PUSH1 0x20 DUP8 ADD CALLDATACOPY SWAP4 SWAP1 SWAP4 ADD PUSH1 0x20 ADD SWAP4 SWAP3 POP POP POP JUMP JUMPDEST PUSH2 0x5818 DUP2 DUP9 MLOAD PUSH2 0x569C JUMP JUMPDEST PUSH0 PUSH1 0x20 DUP9 ADD MLOAD PUSH2 0x582C PUSH2 0x100 DUP5 ADD DUP3 PUSH2 0x56C4 JUMP JUMPDEST POP PUSH1 0x40 DUP9 ADD MLOAD PUSH2 0x5840 PUSH2 0x140 DUP5 ADD DUP3 PUSH2 0x56C4 JUMP JUMPDEST POP PUSH1 0x60 DUP9 ADD MLOAD PUSH2 0x5854 PUSH2 0x180 DUP5 ADD DUP3 PUSH2 0x56C4 JUMP JUMPDEST POP PUSH1 0x80 DUP9 ADD MLOAD PUSH2 0x5868 PUSH2 0x1C0 DUP5 ADD DUP3 PUSH2 0x56C4 JUMP JUMPDEST POP PUSH1 0xA0 DUP9 ADD MLOAD PUSH2 0x587C PUSH2 0x200 DUP5 ADD DUP3 PUSH2 0x56C4 JUMP JUMPDEST POP PUSH1 0xC0 DUP9 ADD MLOAD PUSH2 0x5890 PUSH2 0x240 DUP5 ADD DUP3 PUSH2 0x56C4 JUMP JUMPDEST POP PUSH1 0xE0 DUP9 ADD MLOAD PUSH2 0x58A4 PUSH2 0x280 DUP5 ADD DUP3 PUSH2 0x56C4 JUMP JUMPDEST POP PUSH2 0x100 DUP9 ADD MLOAD PUSH2 0x58B9 PUSH2 0x2C0 DUP5 ADD DUP3 PUSH2 0x56C4 JUMP JUMPDEST POP PUSH2 0x120 DUP9 ADD MLOAD PUSH2 0x58CE PUSH2 0x300 DUP5 ADD DUP3 PUSH2 0x56C4 JUMP JUMPDEST POP PUSH2 0x140 DUP9 ADD MLOAD PUSH2 0x58E3 PUSH2 0x340 DUP5 ADD DUP3 PUSH2 0x56D3 JUMP JUMPDEST POP PUSH2 0x160 DUP9 ADD MLOAD PUSH2 0x400 DUP4 ADD MSTORE PUSH2 0x180 DUP9 ADD MLOAD PUSH2 0x5904 PUSH2 0x420 DUP5 ADD DUP3 PUSH2 0x5700 JUMP JUMPDEST POP PUSH2 0x1A0 DUP9 ADD MLOAD PUSH2 0x23A0 DUP4 ADD MSTORE PUSH2 0x1C0 DUP9 ADD MLOAD PUSH2 0x5925 PUSH2 0x23C0 DUP5 ADD DUP3 PUSH2 0x574A JUMP JUMPDEST POP PUSH2 0x1E0 DUP9 ADD MLOAD PUSH2 0x593A PUSH2 0x2900 DUP5 ADD DUP3 PUSH2 0x576C JUMP JUMPDEST POP PUSH2 0x200 DUP9 ADD MLOAD PUSH2 0x594F PUSH2 0x2FC0 DUP5 ADD DUP3 PUSH2 0x5799 JUMP JUMPDEST POP PUSH2 0x220 DUP9 ADD MLOAD PUSH2 0x5964 PUSH2 0x3340 DUP5 ADD DUP3 PUSH2 0x57BB JUMP JUMPDEST POP PUSH2 0x240 DUP9 ADD MLOAD PUSH2 0x5979 PUSH2 0x33C0 DUP5 ADD DUP3 PUSH2 0x56C4 JUMP JUMPDEST POP PUSH2 0x260 DUP9 ADD MLOAD PUSH2 0x598E PUSH2 0x3400 DUP5 ADD DUP3 PUSH2 0x56C4 JUMP JUMPDEST POP PUSH2 0x34C0 PUSH2 0x3440 DUP4 ADD MSTORE PUSH2 0x59A7 PUSH2 0x34C0 DUP4 ADD DUP8 DUP10 PUSH2 0x57DD JUMP JUMPDEST PUSH2 0x3460 DUP4 ADD SWAP6 SWAP1 SWAP6 MSTORE POP PUSH2 0x3480 DUP2 ADD SWAP3 SWAP1 SWAP3 MSTORE PUSH2 0x34A0 SWAP1 SWAP2 ADD MSTORE SWAP4 SWAP3 POP POP POP JUMP JUMPDEST PUSH4 0x4E487B71 PUSH1 0xE0 SHL PUSH0 MSTORE PUSH1 0x41 PUSH1 0x4 MSTORE PUSH1 0x24 PUSH0 REVERT JUMPDEST PUSH1 0x40 MLOAD PUSH2 0x140 DUP2 ADD PUSH1 0x1 PUSH1 0x1 PUSH1 0x40 SHL SUB DUP2 GT DUP3 DUP3 LT OR ISZERO PUSH2 0x59FF JUMPI PUSH2 0x59FF PUSH2 0x59C8 JUMP JUMPDEST PUSH1 0x40 MSTORE SWAP1 JUMP JUMPDEST PUSH1 0x40 MLOAD PUSH1 0x1F DUP3 ADD PUSH1 0x1F NOT AND DUP2 ADD PUSH1 0x1 PUSH1 0x1 PUSH1 0x40 SHL SUB DUP2 GT DUP3 DUP3 LT OR ISZERO PUSH2 0x5A2D JUMPI PUSH2 0x5A2D PUSH2 0x59C8 JUMP JUMPDEST PUSH1 0x40 MSTORE SWAP2 SWAP1 POP JUMP JUMPDEST PUSH0 PUSH1 0x80 DUP3 DUP5 SUB SLT ISZERO PUSH2 0x5A45 JUMPI PUSH0 PUSH0 REVERT JUMPDEST PUSH1 0x40 MLOAD PUSH1 0x80 DUP2 ADD PUSH1 0x1 PUSH1 0x1 PUSH1 0x40 SHL SUB DUP2 GT DUP3 DUP3 LT OR ISZERO PUSH2 0x5A67 JUMPI PUSH2 0x5A67 PUSH2 0x59C8 JUMP JUMPDEST PUSH1 0x40 SWAP1 DUP2 MSTORE DUP4 MLOAD DUP3 MSTORE PUSH1 0x20 DUP1 DUP6 ADD MLOAD SWAP1 DUP4 ADD MSTORE DUP4 DUP2 ADD MLOAD SWAP1 DUP3 ADD MSTORE PUSH1 0x60 SWAP3 DUP4 ADD MLOAD SWAP3 DUP2 ADD SWAP3 SWAP1 SWAP3 MSTORE POP SWAP2 SWAP1 POP JUMP JUMPDEST PUSH0 DUP3 PUSH1 0x1F DUP4 ADD SLT PUSH2 0x5AA4 JUMPI PUSH0 PUSH0 REVERT JUMPDEST PUSH0 PUSH2 0x360 PUSH2 0x5AB1 DUP2 PUSH2 0x5A05 JUMP JUMPDEST SWAP2 POP DUP4 ADD DUP2 DUP6 DUP3 GT ISZERO PUSH2 0x5AC2 JUMPI PUSH0 PUSH0 REVERT JUMPDEST DUP5 JUMPDEST DUP3 DUP2 LT ISZERO PUSH2 0x5ADC JUMPI DUP1 MLOAD DUP3 MSTORE PUSH1 0x20 SWAP2 DUP3 ADD SWAP2 ADD PUSH2 0x5AC4 JUMP JUMPDEST POP SWAP2 SWAP6 SWAP5 POP POP POP POP POP JUMP JUMPDEST PUSH0 DUP3 PUSH1 0x1F DUP4 ADD SLT PUSH2 0x5AF6 JUMPI PUSH0 PUSH0 REVERT JUMPDEST PUSH0 PUSH2 0x380 PUSH2 0x5AB1 DUP2 PUSH2 0x5A05 JUMP JUMPDEST PUSH0 PUSH2 0xBA0 DUP3 DUP5 SUB SLT DUP1 ISZERO PUSH2 0x5B15 JUMPI PUSH0 PUSH0 REVERT JUMPDEST POP PUSH2 0x5B1E PUSH2 0x59DC JUMP JUMPDEST PUSH2 0x5B28 DUP5 DUP5 PUSH2 0x5A35 JUMP JUMPDEST DUP2 MSTORE PUSH2 0x5B37 DUP5 PUSH1 0x80 DUP6 ADD PUSH2 0x5A95 JUMP JUMPDEST PUSH1 0x20 DUP3 ADD MSTORE PUSH2 0x5B4A DUP5 PUSH2 0x3E0 DUP6 ADD PUSH2 0x5AE7 JUMP JUMPDEST PUSH1 0x40 DUP3 ADD MSTORE PUSH2 0x760 DUP4 ADD MLOAD PUSH1 0x60 DUP3 ADD MSTORE PUSH2 0x5B68 DUP5 PUSH2 0x780 DUP6 ADD PUSH2 0x5AE7 JUMP JUMPDEST PUSH1 0x80 DUP3 ADD MSTORE PUSH2 0xB00 DUP4 ADD MLOAD PUSH1 0xA0 DUP3 ADD MSTORE PUSH2 0xB20 DUP4 ADD MLOAD PUSH1 0xC0 DUP3 ADD MSTORE PUSH2 0xB40 DUP4 ADD MLOAD PUSH1 0xE0 DUP3 ADD MSTORE PUSH2 0xB60 DUP4 ADD MLOAD PUSH2 0x100 DUP3 ADD MSTORE PUSH2 0xB80 SWAP1 SWAP3 ADD MLOAD PUSH2 0x120 DUP4 ADD MSTORE POP SWAP2 SWAP1 POP JUMP JUMPDEST DUP1 DUP3 ADD DUP1 DUP3 GT ISZERO PUSH2 0x26DA JUMPI PUSH2 0x26DA PUSH2 0x5675 JUMP JUMPDEST DUP1 DUP3 MUL DUP2 ISZERO DUP3 DUP3 DIV DUP5 EQ OR PUSH2 0x26DA JUMPI PUSH2 0x26DA PUSH2 0x5675 JUMP JUMPDEST PUSH0 PUSH0 DUP6 DUP6 GT ISZERO PUSH2 0x5BE5 JUMPI PUSH0 PUSH0 REVERT JUMPDEST DUP4 DUP7 GT ISZERO PUSH2 0x5BF1 JUMPI PUSH0 PUSH0 REVERT JUMPDEST POP POP DUP3 ADD SWAP4 SWAP2 SWAP1 SWAP3 SUB SWAP2 POP JUMP JUMPDEST DUP1 CALLDATALOAD PUSH1 0x20 DUP4 LT ISZERO PUSH2 0x26DA JUMPI PUSH0 NOT PUSH1 0x20 DUP5 SWAP1 SUB PUSH1 0x3 SHL SHL AND SWAP3 SWAP2 POP POP JUMP JUMPDEST PUSH0 DUP3 PUSH2 0x5C35 JUMPI PUSH4 0x4E487B71 PUSH1 0xE0 SHL PUSH0 MSTORE PUSH1 0x12 PUSH1 0x4 MSTORE PUSH1 0x24 PUSH0 REVERT JUMPDEST POP MOD SWAP1 JUMP JUMPDEST PUSH1 0x1 DUP2 JUMPDEST PUSH1 0x1 DUP5 GT ISZERO PUSH2 0x5C75 JUMPI DUP1 DUP6 DIV DUP2 GT ISZERO PUSH2 0x5C59 JUMPI PUSH2 0x5C59 PUSH2 0x5675 JUMP JUMPDEST PUSH1 0x1 DUP5 AND ISZERO PUSH2 0x5C67 JUMPI SWAP1 DUP2 MUL SWAP1 JUMPDEST PUSH1 0x1 SWAP4 SWAP1 SWAP4 SHR SWAP3 DUP1 MUL PUSH2 0x5C3E JUMP JUMPDEST SWAP4 POP SWAP4 SWAP2 POP POP JUMP JUMPDEST PUSH0 DUP3 PUSH2 0x5C8B JUMPI POP PUSH1 0x1 PUSH2 0x26DA JUMP JUMPDEST DUP2 PUSH2 0x5C97 JUMPI POP PUSH0 PUSH2 0x26DA JUMP JUMPDEST DUP2 PUSH1 0x1 DUP2 EQ PUSH2 0x5CAD JUMPI PUSH1 0x2 DUP2 EQ PUSH2 0x5CB7 JUMPI PUSH2 0x5CD3 JUMP JUMPDEST PUSH1 0x1 SWAP2 POP POP PUSH2 0x26DA JUMP JUMPDEST PUSH1 0xFF DUP5 GT ISZERO PUSH2 0x5CC8 JUMPI PUSH2 0x5CC8 PUSH2 0x5675 JUMP JUMPDEST POP POP PUSH1 0x1 DUP3 SHL PUSH2 0x26DA JUMP JUMPDEST POP PUSH1 0x20 DUP4 LT PUSH2 0x133 DUP4 LT AND PUSH1 0x4E DUP5 LT PUSH1 0xB DUP5 LT AND OR ISZERO PUSH2 0x5CF6 JUMPI POP DUP2 DUP2 EXP PUSH2 0x26DA JUMP JUMPDEST PUSH2 0x5D02 PUSH0 NOT DUP5 DUP5 PUSH2 0x5C3A JUMP JUMPDEST DUP1 PUSH0 NOT DIV DUP3 GT ISZERO PUSH2 0x5D15 JUMPI PUSH2 0x5D15 PUSH2 0x5675 JUMP JUMPDEST MUL SWAP4 SWAP3 POP POP POP JUMP JUMPDEST PUSH0 PUSH2 0x3EF PUSH1 0xFF DUP5 AND DUP4 PUSH2 0x5C7D JUMP JUMPDEST PUSH4 0x4E487B71 PUSH1 0xE0 SHL PUSH0 MSTORE PUSH1 0x32 PUSH1 0x4 MSTORE PUSH1 0x24 PUSH0 REVERT JUMPDEST PUSH0 PUSH1 0x1 DUP3 ADD PUSH2 0x5D50 JUMPI PUSH2 0x5D50 PUSH2 0x5675 JUMP JUMPDEST POP PUSH1 0x1 ADD SWAP1 JUMP JUMPDEST PUSH0 DUP2 PUSH2 0x5D65 JUMPI PUSH2 0x5D65 PUSH2 0x5675 JUMP JUMPDEST POP PUSH0 NOT ADD SWAP1 JUMP JUMPDEST PUSH0 DUP2 DUP4 DUP3 JUMPDEST PUSH1 0x8 DUP2 LT ISZERO PUSH2 0x5D90 JUMPI DUP2 MLOAD DUP4 MSTORE PUSH1 0x20 SWAP3 DUP4 ADD SWAP3 SWAP1 SWAP2 ADD SWAP1 PUSH1 0x1 ADD PUSH2 0x5D71 JUMP JUMPDEST POP POP POP PUSH2 0x100 DUP3 ADD SWAP1 POP SWAP3 SWAP2 POP POP JUMP JUMPDEST PUSH0 DUP3 MLOAD DUP1 PUSH1 0x20 DUP6 ADD DUP5 MCOPY PUSH0 SWAP3 ADD SWAP2 DUP3 MSTORE POP SWAP2 SWAP1 POP JUMP JUMPDEST PUSH0 PUSH1 0x20 DUP3 DUP5 SUB SLT ISZERO PUSH2 0x5DC6 JUMPI PUSH0 PUSH0 REVERT JUMPDEST DUP2 MLOAD DUP1 ISZERO ISZERO DUP2 EQ PUSH2 0x3EF JUMPI PUSH0 PUSH0 REVERT JUMPDEST PUSH4 0x4E487B71 PUSH1 0xE0 SHL PUSH0 MSTORE PUSH1 0x21 PUSH1 0x4 MSTORE PUSH1 0x24 PUSH0 REVERT INVALID ADDRESS PUSH5 0x4E72E131A0 0x29 0xB8 POP GASLIMIT 0xB6 DUP2 DUP2 PC TSTORE 0x28 CALLER 0xE8 BASEFEE PUSH26 0xB9709143E1F593EFFFFD3130644E72E131A029B85045B6818158 TSTORE SWAP8 DUP2 PUSH11 0x916871CA8D3C208C16D87C REVERT SELFBALANCE KECCAK256 0x4B 0xD3 0x27 PUSH21 0x22FAD364751AD938E2B5E6A54CF8C68712848A692C SSTORE RETURNDATASIZE SUB 0x29 CREATE2 0xD6 ADDRESS PUSH5 0x4E72E131A0 0x29 0xB8 POP GASLIMIT 0xB6 DUP2 DUP2 PC TSTORE 0x28 CALLER 0xE8 BASEFEE PUSH26 0xB9709143E1F593F000000130644E72E131A029B85045B6818158 TSTORE 0x28 CALLER 0xE8 BASEFEE PUSH26 0xB9709143E1F593EFFFEC51A164736F6C634300081C000A000000 "},"methodIdentifiers":{"verify(bytes,bytes32[])":"ea50d0e4"}}}}}